{
	"contracts/HealthAlertRegistry.sol": {
		"HealthAlertRegistry": {
			"abi": [
				{
					"anonymous": false,
					"inputs": [
						{
							"indexed": true,
							"internalType": "uint256",
							"name": "alertId",
							"type": "uint256"
						},
						{
							"indexed": true,
							"internalType": "string",
							"name": "city",
							"type": "string"
						},
						{
							"indexed": false,
							"internalType": "uint8",
							"name": "riskLevel",
							"type": "uint8"
						},
						{
							"indexed": false,
							"internalType": "int256",
							"name": "temperature",
							"type": "int256"
						},
						{
							"indexed": false,
							"internalType": "bytes32",
							"name": "evidenceHash",
							"type": "bytes32"
						},
						{
							"indexed": false,
							"internalType": "uint256",
							"name": "timestamp",
							"type": "uint256"
						},
						{
							"indexed": true,
							"internalType": "address",
							"name": "publisher",
							"type": "address"
						}
					],
					"name": "ClimateAlertRecorded",
					"type": "event"
				},
				{
					"anonymous": false,
					"inputs": [
						{
							"indexed": true,
							"internalType": "uint256",
							"name": "alertId",
							"type": "uint256"
						},
						{
							"indexed": false,
							"internalType": "string",
							"name": "region",
							"type": "string"
						},
						{
							"indexed": false,
							"internalType": "string",
							"name": "disease",
							"type": "string"
						},
						{
							"indexed": false,
							"internalType": "uint256",
							"name": "healthRisk",
							"type": "uint256"
						},
						{
							"indexed": false,
							"internalType": "uint8",
							"name": "climateRisk",
							"type": "uint8"
						},
						{
							"indexed": false,
							"internalType": "uint8",
							"name": "esgRisk",
							"type": "uint8"
						},
						{
							"indexed": false,
							"internalType": "bytes32",
							"name": "proofHash",
							"type": "bytes32"
						},
						{
							"indexed": false,
							"internalType": "uint256",
							"name": "timestamp",
							"type": "uint256"
						},
						{
							"indexed": true,
							"internalType": "address",
							"name": "publisher",
							"type": "address"
						}
					],
					"name": "EnvironmentalDecisionAlertRecorded",
					"type": "event"
				},
				{
					"anonymous": false,
					"inputs": [
						{
							"indexed": true,
							"internalType": "uint256",
							"name": "alertId",
							"type": "uint256"
						},
						{
							"indexed": false,
							"internalType": "string",
							"name": "source",
							"type": "string"
						},
						{
							"indexed": false,
							"internalType": "string",
							"name": "region",
							"type": "string"
						},
						{
							"indexed": false,
							"internalType": "string",
							"name": "disease",
							"type": "string"
						},
						{
							"indexed": false,
							"internalType": "uint256",
							"name": "riskScore",
							"type": "uint256"
						},
						{
							"indexed": false,
							"internalType": "string",
							"name": "summary",
							"type": "string"
						},
						{
							"indexed": false,
							"internalType": "uint256",
							"name": "timestamp",
							"type": "uint256"
						}
					],
					"name": "HealthAlertRecorded",
					"type": "event"
				},
				{
					"inputs": [
						{
							"internalType": "uint256",
							"name": "",
							"type": "uint256"
						}
					],
					"name": "climateAlerts",
					"outputs": [
						{
							"internalType": "uint256",
							"name": "alertId",
							"type": "uint256"
						},
						{
							"internalType": "string",
							"name": "city",
							"type": "string"
						},
						{
							"internalType": "int256",
							"name": "temperature",
							"type": "int256"
						},
						{
							"internalType": "uint8",
							"name": "humidity",
							"type": "uint8"
						},
						{
							"internalType": "uint8",
							"name": "uvIndex",
							"type": "uint8"
						},
						{
							"internalType": "uint8",
							"name": "riskLevel",
							"type": "uint8"
						},
						{
							"internalType": "string",
							"name": "safetyAdvice",
							"type": "string"
						},
						{
							"internalType": "string",
							"name": "dataSource",
							"type": "string"
						},
						{
							"internalType": "bytes32",
							"name": "evidenceHash",
							"type": "bytes32"
						},
						{
							"internalType": "uint256",
							"name": "timestamp",
							"type": "uint256"
						},
						{
							"internalType": "address",
							"name": "publisher",
							"type": "address"
						}
					],
					"stateMutability": "view",
					"type": "function"
				},
				{
					"inputs": [
						{
							"internalType": "uint256",
							"name": "",
							"type": "uint256"
						}
					],
					"name": "environmentalDecisionAlerts",
					"outputs": [
						{
							"internalType": "uint256",
							"name": "alertId",
							"type": "uint256"
						},
						{
							"internalType": "string",
							"name": "source",
							"type": "string"
						},
						{
							"internalType": "string",
							"name": "region",
							"type": "string"
						},
						{
							"internalType": "string",
							"name": "disease",
							"type": "string"
						},
						{
							"internalType": "uint256",
							"name": "healthRisk",
							"type": "uint256"
						},
						{
							"internalType": "uint8",
							"name": "climateRisk",
							"type": "uint8"
						},
						{
							"internalType": "uint8",
							"name": "esgRisk",
							"type": "uint8"
						},
						{
							"internalType": "bytes32",
							"name": "proofHash",
							"type": "bytes32"
						},
						{
							"internalType": "string",
							"name": "summary",
							"type": "string"
						},
						{
							"internalType": "uint256",
							"name": "timestamp",
							"type": "uint256"
						},
						{
							"internalType": "address",
							"name": "publisher",
							"type": "address"
						}
					],
					"stateMutability": "view",
					"type": "function"
				},
				{
					"inputs": [
						{
							"internalType": "uint256",
							"name": "alertId",
							"type": "uint256"
						}
					],
					"name": "getAlert",
					"outputs": [
						{
							"components": [
								{
									"internalType": "string",
									"name": "source",
									"type": "string"
								},
								{
									"internalType": "string",
									"name": "region",
									"type": "string"
								},
								{
									"internalType": "string",
									"name": "disease",
									"type": "string"
								},
								{
									"internalType": "uint256",
									"name": "riskScore",
									"type": "uint256"
								},
								{
									"internalType": "string",
									"name": "summary",
									"type": "string"
								},
								{
									"internalType": "uint256",
									"name": "timestamp",
									"type": "uint256"
								}
							],
							"internalType": "struct HealthAlertRegistry.HealthAlert",
							"name": "",
							"type": "tuple"
						}
					],
					"stateMutability": "view",
					"type": "function"
				},
				{
					"inputs": [],
					"name": "getAlertCount",
					"outputs": [
						{
							"internalType": "uint256",
							"name": "",
							"type": "uint256"
						}
					],
					"stateMutability": "view",
					"type": "function"
				},
				{
					"inputs": [
						{
							"internalType": "uint256",
							"name": "alertId",
							"type": "uint256"
						}
					],
					"name": "getClimateAlert",
					"outputs": [
						{
							"components": [
								{
									"internalType": "uint256",
									"name": "alertId",
									"type": "uint256"
								},
								{
									"internalType": "string",
									"name": "city",
									"type": "string"
								},
								{
									"internalType": "int256",
									"name": "temperature",
									"type": "int256"
								},
								{
									"internalType": "uint8",
									"name": "humidity",
									"type": "uint8"
								},
								{
									"internalType": "uint8",
									"name": "uvIndex",
									"type": "uint8"
								},
								{
									"internalType": "uint8",
									"name": "riskLevel",
									"type": "uint8"
								},
								{
									"internalType": "string",
									"name": "safetyAdvice",
									"type": "string"
								},
								{
									"internalType": "string",
									"name": "dataSource",
									"type": "string"
								},
								{
									"internalType": "bytes32",
									"name": "evidenceHash",
									"type": "bytes32"
								},
								{
									"internalType": "uint256",
									"name": "timestamp",
									"type": "uint256"
								},
								{
									"internalType": "address",
									"name": "publisher",
									"type": "address"
								}
							],
							"internalType": "struct HealthAlertRegistry.ClimateAlert",
							"name": "",
							"type": "tuple"
						}
					],
					"stateMutability": "view",
					"type": "function"
				},
				{
					"inputs": [],
					"name": "getClimateAlertCount",
					"outputs": [
						{
							"internalType": "uint256",
							"name": "",
							"type": "uint256"
						}
					],
					"stateMutability": "view",
					"type": "function"
				},
				{
					"inputs": [
						{
							"internalType": "string",
							"name": "city",
							"type": "string"
						}
					],
					"name": "getClimateAlertsByCity",
					"outputs": [
						{
							"components": [
								{
									"internalType": "uint256",
									"name": "alertId",
									"type": "uint256"
								},
								{
									"internalType": "string",
									"name": "city",
									"type": "string"
								},
								{
									"internalType": "int256",
									"name": "temperature",
									"type": "int256"
								},
								{
									"internalType": "uint8",
									"name": "humidity",
									"type": "uint8"
								},
								{
									"internalType": "uint8",
									"name": "uvIndex",
									"type": "uint8"
								},
								{
									"internalType": "uint8",
									"name": "riskLevel",
									"type": "uint8"
								},
								{
									"internalType": "string",
									"name": "safetyAdvice",
									"type": "string"
								},
								{
									"internalType": "string",
									"name": "dataSource",
									"type": "string"
								},
								{
									"internalType": "bytes32",
									"name": "evidenceHash",
									"type": "bytes32"
								},
								{
									"internalType": "uint256",
									"name": "timestamp",
									"type": "uint256"
								},
								{
									"internalType": "address",
									"name": "publisher",
									"type": "address"
								}
							],
							"internalType": "struct HealthAlertRegistry.ClimateAlert[]",
							"name": "",
							"type": "tuple[]"
						}
					],
					"stateMutability": "view",
					"type": "function"
				},
				{
					"inputs": [
						{
							"internalType": "uint256",
							"name": "alertId",
							"type": "uint256"
						}
					],
					"name": "getEnvironmentalDecisionAlert",
					"outputs": [
						{
							"components": [
								{
									"internalType": "uint256",
									"name": "alertId",
									"type": "uint256"
								},
								{
									"internalType": "string",
									"name": "source",
									"type": "string"
								},
								{
									"internalType": "string",
									"name": "region",
									"type": "string"
								},
								{
									"internalType": "string",
									"name": "disease",
									"type": "string"
								},
								{
									"internalType": "uint256",
									"name": "healthRisk",
									"type": "uint256"
								},
								{
									"internalType": "uint8",
									"name": "climateRisk",
									"type": "uint8"
								},
								{
									"internalType": "uint8",
									"name": "esgRisk",
									"type": "uint8"
								},
								{
									"internalType": "bytes32",
									"name": "proofHash",
									"type": "bytes32"
								},
								{
									"internalType": "string",
									"name": "summary",
									"type": "string"
								},
								{
									"internalType": "uint256",
									"name": "timestamp",
									"type": "uint256"
								},
								{
									"internalType": "address",
									"name": "publisher",
									"type": "address"
								}
							],
							"internalType": "struct HealthAlertRegistry.EnvironmentalDecisionAlert",
							"name": "",
							"type": "tuple"
						}
					],
					"stateMutability": "view",
					"type": "function"
				},
				{
					"inputs": [],
					"name": "getEnvironmentalDecisionAlertCount",
					"outputs": [
						{
							"internalType": "uint256",
							"name": "",
							"type": "uint256"
						}
					],
					"stateMutability": "view",
					"type": "function"
				},
				{
					"inputs": [],
					"name": "getLatestAlert",
					"outputs": [
						{
							"components": [
								{
									"internalType": "string",
									"name": "source",
									"type": "string"
								},
								{
									"internalType": "string",
									"name": "region",
									"type": "string"
								},
								{
									"internalType": "string",
									"name": "disease",
									"type": "string"
								},
								{
									"internalType": "uint256",
									"name": "riskScore",
									"type": "uint256"
								},
								{
									"internalType": "string",
									"name": "summary",
									"type": "string"
								},
								{
									"internalType": "uint256",
									"name": "timestamp",
									"type": "uint256"
								}
							],
							"internalType": "struct HealthAlertRegistry.HealthAlert",
							"name": "",
							"type": "tuple"
						}
					],
					"stateMutability": "view",
					"type": "function"
				},
				{
					"inputs": [],
					"name": "getLatestClimateAlert",
					"outputs": [
						{
							"components": [
								{
									"internalType": "uint256",
									"name": "alertId",
									"type": "uint256"
								},
								{
									"internalType": "string",
									"name": "city",
									"type": "string"
								},
								{
									"internalType": "int256",
									"name": "temperature",
									"type": "int256"
								},
								{
									"internalType": "uint8",
									"name": "humidity",
									"type": "uint8"
								},
								{
									"internalType": "uint8",
									"name": "uvIndex",
									"type": "uint8"
								},
								{
									"internalType": "uint8",
									"name": "riskLevel",
									"type": "uint8"
								},
								{
									"internalType": "string",
									"name": "safetyAdvice",
									"type": "string"
								},
								{
									"internalType": "string",
									"name": "dataSource",
									"type": "string"
								},
								{
									"internalType": "bytes32",
									"name": "evidenceHash",
									"type": "bytes32"
								},
								{
									"internalType": "uint256",
									"name": "timestamp",
									"type": "uint256"
								},
								{
									"internalType": "address",
									"name": "publisher",
									"type": "address"
								}
							],
							"internalType": "struct HealthAlertRegistry.ClimateAlert",
							"name": "",
							"type": "tuple"
						}
					],
					"stateMutability": "view",
					"type": "function"
				},
				{
					"inputs": [],
					"name": "getLatestEnvironmentalDecisionAlert",
					"outputs": [
						{
							"components": [
								{
									"internalType": "uint256",
									"name": "alertId",
									"type": "uint256"
								},
								{
									"internalType": "string",
									"name": "source",
									"type": "string"
								},
								{
									"internalType": "string",
									"name": "region",
									"type": "string"
								},
								{
									"internalType": "string",
									"name": "disease",
									"type": "string"
								},
								{
									"internalType": "uint256",
									"name": "healthRisk",
									"type": "uint256"
								},
								{
									"internalType": "uint8",
									"name": "climateRisk",
									"type": "uint8"
								},
								{
									"internalType": "uint8",
									"name": "esgRisk",
									"type": "uint8"
								},
								{
									"internalType": "bytes32",
									"name": "proofHash",
									"type": "bytes32"
								},
								{
									"internalType": "string",
									"name": "summary",
									"type": "string"
								},
								{
									"internalType": "uint256",
									"name": "timestamp",
									"type": "uint256"
								},
								{
									"internalType": "address",
									"name": "publisher",
									"type": "address"
								}
							],
							"internalType": "struct HealthAlertRegistry.EnvironmentalDecisionAlert",
							"name": "",
							"type": "tuple"
						}
					],
					"stateMutability": "view",
					"type": "function"
				},
				{
					"inputs": [
						{
							"internalType": "uint256",
							"name": "",
							"type": "uint256"
						}
					],
					"name": "healthAlerts",
					"outputs": [
						{
							"internalType": "string",
							"name": "source",
							"type": "string"
						},
						{
							"internalType": "string",
							"name": "region",
							"type": "string"
						},
						{
							"internalType": "string",
							"name": "disease",
							"type": "string"
						},
						{
							"internalType": "uint256",
							"name": "riskScore",
							"type": "uint256"
						},
						{
							"internalType": "string",
							"name": "summary",
							"type": "string"
						},
						{
							"internalType": "uint256",
							"name": "timestamp",
							"type": "uint256"
						}
					],
					"stateMutability": "view",
					"type": "function"
				},
				{
					"inputs": [
						{
							"internalType": "bytes",
							"name": "report",
							"type": "bytes"
						}
					],
					"name": "onReport",
					"outputs": [],
					"stateMutability": "nonpayable",
					"type": "function"
				},
				{
					"inputs": [
						{
							"internalType": "string",
							"name": "source",
							"type": "string"
						},
						{
							"internalType": "string",
							"name": "region",
							"type": "string"
						},
						{
							"internalType": "string",
							"name": "disease",
							"type": "string"
						},
						{
							"internalType": "uint256",
							"name": "riskScore",
							"type": "uint256"
						},
						{
							"internalType": "string",
							"name": "summary",
							"type": "string"
						}
					],
					"name": "recordAlert",
					"outputs": [],
					"stateMutability": "nonpayable",
					"type": "function"
				},
				{
					"inputs": [
						{
							"internalType": "string",
							"name": "city",
							"type": "string"
						},
						{
							"internalType": "int256",
							"name": "temperature",
							"type": "int256"
						},
						{
							"internalType": "uint8",
							"name": "humidity",
							"type": "uint8"
						},
						{
							"internalType": "uint8",
							"name": "uvIndex",
							"type": "uint8"
						},
						{
							"internalType": "uint8",
							"name": "riskLevel",
							"type": "uint8"
						},
						{
							"internalType": "string",
							"name": "safetyAdvice",
							"type": "string"
						},
						{
							"internalType": "string",
							"name": "dataSource",
							"type": "string"
						},
						{
							"internalType": "bytes32",
							"name": "evidenceHash",
							"type": "bytes32"
						}
					],
					"name": "recordClimateAlert",
					"outputs": [
						{
							"internalType": "uint256",
							"name": "alertId",
							"type": "uint256"
						}
					],
					"stateMutability": "nonpayable",
					"type": "function"
				},
				{
					"inputs": [
						{
							"internalType": "string",
							"name": "source",
							"type": "string"
						},
						{
							"internalType": "string",
							"name": "region",
							"type": "string"
						},
						{
							"internalType": "string",
							"name": "disease",
							"type": "string"
						},
						{
							"internalType": "uint256",
							"name": "healthRisk",
							"type": "uint256"
						},
						{
							"internalType": "uint8",
							"name": "climateRisk",
							"type": "uint8"
						},
						{
							"internalType": "uint8",
							"name": "esgRisk",
							"type": "uint8"
						},
						{
							"internalType": "bytes32",
							"name": "proofHash",
							"type": "bytes32"
						},
						{
							"internalType": "string",
							"name": "summary",
							"type": "string"
						}
					],
					"name": "recordEnvironmentalDecisionAlert",
					"outputs": [
						{
							"internalType": "uint256",
							"name": "alertId",
							"type": "uint256"
						}
					],
					"stateMutability": "nonpayable",
					"type": "function"
				}
			],
			"devdoc": {
				"details": "This contract intentionally has no access control. Records are      caller-submitted data and do not, by themselves, prove Chainlink CRE      provenance, source-data authenticity, or zkVerify verification.",
				"events": {
					"ClimateAlertRecorded(uint256,string,uint8,int256,bytes32,uint256,address)": {
						"details": "publisher is msg.sender and evidenceHash is an unverified reference."
					},
					"EnvironmentalDecisionAlertRecorded(uint256,string,string,uint256,uint8,uint8,bytes32,uint256,address)": {
						"details": "proofHash is stored as metadata; no proof verification occurs here."
					},
					"HealthAlertRecorded(uint256,string,string,string,uint256,string,uint256)": {
						"details": "This event does not assert who produced or approved the source data."
					}
				},
				"kind": "dev",
				"methods": {
					"onReport(bytes)": {
						"details": "This entry point is permissionless and does not validate a CRE      forwarder or report signature."
					},
					"recordEnvironmentalDecisionAlert(string,string,string,uint256,uint8,uint8,bytes32,string)": {
						"details": "A nonzero proofHash is required as a reference, but is not verified."
					}
				},
				"title": "HealthAlertRegistry",
				"version": 1
			},
			"evm": {
				"assembly": "    /* \"contracts/HealthAlertRegistry.sol\":418:10589  contract HealthAlertRegistry {... */\n  mstore(0x40, 0x80)\n  callvalue\n  dup1\n  iszero\n  tag_1\n  jumpi\n  revert(0x00, 0x00)\ntag_1:\n  pop\n  dataSize(sub_0)\n  dup1\n  dataOffset(sub_0)\n  0x00\n  codecopy\n  0x00\n  return\nstop\n\nsub_0: assembly {\n        /* \"contracts/HealthAlertRegistry.sol\":418:10589  contract HealthAlertRegistry {... */\n      mstore(0x40, 0x80)\n      callvalue\n      dup1\n      iszero\n      tag_1\n      jumpi\n      revert(0x00, 0x00)\n    tag_1:\n      pop\n      jumpi(tag_2, lt(calldatasize, 0x04))\n      shr(0xe0, calldataload(0x00))\n      dup1\n      0x85081886\n      gt\n      tag_20\n      jumpi\n      dup1\n      0xbbfb862e\n      gt\n      tag_21\n      jumpi\n      dup1\n      0xbbfb862e\n      eq\n      tag_15\n      jumpi\n      dup1\n      0xc2e5f7af\n      eq\n      tag_16\n      jumpi\n      dup1\n      0xd2a165fb\n      eq\n      tag_17\n      jumpi\n      dup1\n      0xf1e391de\n      eq\n      tag_18\n      jumpi\n      dup1\n      0xf7fb20f4\n      eq\n      tag_19\n      jumpi\n      jump(tag_2)\n    tag_21:\n      dup1\n      0x85081886\n      eq\n      tag_11\n      jumpi\n      dup1\n      0x917731ef\n      eq\n      tag_12\n      jumpi\n      dup1\n      0x961e590d\n      eq\n      tag_13\n      jumpi\n      dup1\n      0xbb1bda5d\n      eq\n      tag_14\n      jumpi\n      jump(tag_2)\n    tag_20:\n      dup1\n      0x64b605af\n      gt\n      tag_22\n      jumpi\n      dup1\n      0x64b605af\n      eq\n      tag_7\n      jumpi\n      dup1\n      0x691745ba\n      eq\n      tag_8\n      jumpi\n      dup1\n      0x6d5b6c03\n      eq\n      tag_9\n      jumpi\n      dup1\n      0x812cc89e\n      eq\n      tag_10\n      jumpi\n      jump(tag_2)\n    tag_22:\n      dup1\n      0x12670d4a\n      eq\n      tag_3\n      jumpi\n      dup1\n      0x40411fc8\n      eq\n      tag_4\n      jumpi\n      dup1\n      0x464508b1\n      eq\n      tag_5\n      jumpi\n      dup1\n      0x4fcb9e91\n      eq\n      tag_6\n      jumpi\n    tag_2:\n      revert(0x00, 0x00)\n        /* \"contracts/HealthAlertRegistry.sol\":8086:8278  function getLatestAlert() external view returns (HealthAlert memory) {... */\n    tag_3:\n      tag_23\n      tag_24\n      jump\t// in\n    tag_23:\n      mload(0x40)\n      tag_25\n      swap2\n      swap1\n      tag_26\n      jump\t// in\n    tag_25:\n      mload(0x40)\n      dup1\n      swap2\n      sub\n      swap1\n      return\n        /* \"contracts/HealthAlertRegistry.sol\":7980:8080  function getAlertCount() external view returns (uint256) {... */\n    tag_4:\n      tag_27\n      tag_28\n      jump\t// in\n    tag_27:\n      mload(0x40)\n      tag_29\n      swap2\n      swap1\n      tag_30\n      jump\t// in\n    tag_29:\n      mload(0x40)\n      dup1\n      swap2\n      sub\n      swap1\n      return\n        /* \"contracts/HealthAlertRegistry.sol\":9107:9243  function getEnvironmentalDecisionAlertCount() external view returns (uint256) {... */\n    tag_5:\n      tag_31\n      tag_32\n      jump\t// in\n    tag_31:\n      mload(0x40)\n      tag_33\n      swap2\n      swap1\n      tag_30\n      jump\t// in\n    tag_33:\n      mload(0x40)\n      dup1\n      swap2\n      sub\n      swap1\n      return\n        /* \"contracts/HealthAlertRegistry.sol\":3498:3763  function recordAlert(... */\n    tag_6:\n      tag_34\n      0x04\n      dup1\n      calldatasize\n      sub\n      dup2\n      add\n      swap1\n      tag_35\n      swap2\n      swap1\n      tag_36\n      jump\t// in\n    tag_35:\n      tag_37\n      jump\t// in\n    tag_34:\n      stop\n        /* \"contracts/HealthAlertRegistry.sol\":6156:7845  function recordEnvironmentalDecisionAlert(... */\n    tag_7:\n      tag_38\n      0x04\n      dup1\n      calldatasize\n      sub\n      dup2\n      add\n      swap1\n      tag_39\n      swap2\n      swap1\n      tag_40\n      jump\t// in\n    tag_39:\n      tag_41\n      jump\t// in\n    tag_38:\n      mload(0x40)\n      tag_42\n      swap2\n      swap1\n      tag_30\n      jump\t// in\n    tag_42:\n      mload(0x40)\n      dup1\n      swap2\n      sub\n      swap1\n      return\n        /* \"contracts/HealthAlertRegistry.sol\":1942:2005  EnvironmentalDecisionAlert[] public environmentalDecisionAlerts */\n    tag_8:\n      tag_43\n      0x04\n      dup1\n      calldatasize\n      sub\n      dup2\n      add\n      swap1\n      tag_44\n      swap2\n      swap1\n      tag_45\n      jump\t// in\n    tag_44:\n      tag_46\n      jump\t// in\n    tag_43:\n      mload(0x40)\n      tag_47\n      swap12\n      swap11\n      swap10\n      swap9\n      swap8\n      swap7\n      swap6\n      swap5\n      swap4\n      swap3\n      swap2\n      swap1\n      tag_48\n      jump\t// in\n    tag_47:\n      mload(0x40)\n      dup1\n      swap2\n      sub\n      swap1\n      return\n        /* \"contracts/HealthAlertRegistry.sol\":8422:8530  function getClimateAlertCount() external view returns (uint256) {... */\n    tag_9:\n      tag_49\n      tag_50\n      jump\t// in\n    tag_49:\n      mload(0x40)\n      tag_51\n      swap2\n      swap1\n      tag_30\n      jump\t// in\n    tag_51:\n      mload(0x40)\n      dup1\n      swap2\n      sub\n      swap1\n      return\n        /* \"contracts/HealthAlertRegistry.sol\":8284:8416  function getClimateAlert(uint256 alertId) external view returns (ClimateAlert memory) {... */\n    tag_10:\n      tag_52\n      0x04\n      dup1\n      calldatasize\n      sub\n      dup2\n      add\n      swap1\n      tag_53\n      swap2\n      swap1\n      tag_45\n      jump\t// in\n    tag_53:\n      tag_54\n      jump\t// in\n    tag_52:\n      mload(0x40)\n      tag_55\n      swap2\n      swap1\n      tag_56\n      jump\t// in\n    tag_55:\n      mload(0x40)\n      dup1\n      swap2\n      sub\n      swap1\n      return\n        /* \"contracts/HealthAlertRegistry.sol\":7851:7974  function getAlert(uint256 alertId) external view returns (HealthAlert memory) {... */\n    tag_11:\n      tag_57\n      0x04\n      dup1\n      calldatasize\n      sub\n      dup2\n      add\n      swap1\n      tag_58\n      swap2\n      swap1\n      tag_45\n      jump\t// in\n    tag_58:\n      tag_59\n      jump\t// in\n    tag_57:\n      mload(0x40)\n      tag_60\n      swap2\n      swap1\n      tag_26\n      jump\t// in\n    tag_60:\n      mload(0x40)\n      dup1\n      swap2\n      sub\n      swap1\n      return\n        /* \"contracts/HealthAlertRegistry.sol\":9249:9557  function getLatestEnvironmentalDecisionAlert()... */\n    tag_12:\n      tag_61\n      tag_62\n      jump\t// in\n    tag_61:\n      mload(0x40)\n      tag_63\n      swap2\n      swap1\n      tag_64\n      jump\t// in\n    tag_63:\n      mload(0x40)\n      dup1\n      swap2\n      sub\n      swap1\n      return\n        /* \"contracts/HealthAlertRegistry.sol\":8536:8740  function getLatestClimateAlert() external view returns (ClimateAlert memory) {... */\n    tag_13:\n      tag_65\n      tag_66\n      jump\t// in\n    tag_65:\n      mload(0x40)\n      tag_67\n      swap2\n      swap1\n      tag_56\n      jump\t// in\n    tag_67:\n      mload(0x40)\n      dup1\n      swap2\n      sub\n      swap1\n      return\n        /* \"contracts/HealthAlertRegistry.sol\":4480:5981  function recordClimateAlert(... */\n    tag_14:\n      tag_68\n      0x04\n      dup1\n      calldatasize\n      sub\n      dup2\n      add\n      swap1\n      tag_69\n      swap2\n      swap1\n      tag_70\n      jump\t// in\n    tag_69:\n      tag_71\n      jump\t// in\n    tag_68:\n      mload(0x40)\n      tag_72\n      swap2\n      swap1\n      tag_30\n      jump\t// in\n    tag_72:\n      mload(0x40)\n      dup1\n      swap2\n      sub\n      swap1\n      return\n        /* \"contracts/HealthAlertRegistry.sol\":8746:8907  function getClimateAlertsByCity(... */\n    tag_15:\n      tag_73\n      0x04\n      dup1\n      calldatasize\n      sub\n      dup2\n      add\n      swap1\n      tag_74\n      swap2\n      swap1\n      tag_75\n      jump\t// in\n    tag_74:\n      tag_76\n      jump\t// in\n    tag_73:\n      mload(0x40)\n      tag_77\n      swap2\n      swap1\n      tag_78\n      jump\t// in\n    tag_77:\n      mload(0x40)\n      dup1\n      swap2\n      sub\n      swap1\n      return\n        /* \"contracts/HealthAlertRegistry.sol\":4008:4392  function onReport(bytes calldata report) external {... */\n    tag_16:\n      tag_79\n      0x04\n      dup1\n      calldatasize\n      sub\n      dup2\n      add\n      swap1\n      tag_80\n      swap2\n      swap1\n      tag_81\n      jump\t// in\n    tag_80:\n      tag_82\n      jump\t// in\n    tag_79:\n      stop\n        /* \"contracts/HealthAlertRegistry.sol\":1901:1936  ClimateAlert[] public climateAlerts */\n    tag_17:\n      tag_83\n      0x04\n      dup1\n      calldatasize\n      sub\n      dup2\n      add\n      swap1\n      tag_84\n      swap2\n      swap1\n      tag_45\n      jump\t// in\n    tag_84:\n      tag_85\n      jump\t// in\n    tag_83:\n      mload(0x40)\n      tag_86\n      swap12\n      swap11\n      swap10\n      swap9\n      swap8\n      swap7\n      swap6\n      swap5\n      swap4\n      swap3\n      swap2\n      swap1\n      tag_87\n      jump\t// in\n    tag_86:\n      mload(0x40)\n      dup1\n      swap2\n      sub\n      swap1\n      return\n        /* \"contracts/HealthAlertRegistry.sol\":1862:1895  HealthAlert[] public healthAlerts */\n    tag_18:\n      tag_88\n      0x04\n      dup1\n      calldatasize\n      sub\n      dup2\n      add\n      swap1\n      tag_89\n      swap2\n      swap1\n      tag_45\n      jump\t// in\n    tag_89:\n      tag_90\n      jump\t// in\n    tag_88:\n      mload(0x40)\n      tag_91\n      swap7\n      swap6\n      swap5\n      swap4\n      swap3\n      swap2\n      swap1\n      tag_92\n      jump\t// in\n    tag_91:\n      mload(0x40)\n      dup1\n      swap2\n      sub\n      swap1\n      return\n        /* \"contracts/HealthAlertRegistry.sol\":8913:9101  function getEnvironmentalDecisionAlert(... */\n    tag_19:\n      tag_93\n      0x04\n      dup1\n      calldatasize\n      sub\n      dup2\n      add\n      swap1\n      tag_94\n      swap2\n      swap1\n      tag_45\n      jump\t// in\n    tag_94:\n      tag_95\n      jump\t// in\n    tag_93:\n      mload(0x40)\n      tag_96\n      swap2\n      swap1\n      tag_64\n      jump\t// in\n    tag_96:\n      mload(0x40)\n      dup1\n      swap2\n      sub\n      swap1\n      return\n        /* \"contracts/HealthAlertRegistry.sol\":8086:8278  function getLatestAlert() external view returns (HealthAlert memory) {... */\n    tag_24:\n        /* \"contracts/HealthAlertRegistry.sol\":8135:8153  HealthAlert memory */\n      tag_97\n      tag_98\n      jump\t// in\n    tag_97:\n        /* \"contracts/HealthAlertRegistry.sol\":8195:8196  0 */\n      0x00\n        /* \"contracts/HealthAlertRegistry.sol\":8173:8185  healthAlerts */\n      0x00\n        /* \"contracts/HealthAlertRegistry.sol\":8173:8192  healthAlerts.length */\n      dup1\n      sload\n      swap1\n      pop\n        /* \"contracts/HealthAlertRegistry.sol\":8173:8196  healthAlerts.length > 0 */\n      gt\n        /* \"contracts/HealthAlertRegistry.sol\":8165:8217  require(healthAlerts.length > 0, \"No health alerts\") */\n      tag_100\n      jumpi\n      mload(0x40)\n      0x08c379a000000000000000000000000000000000000000000000000000000000\n      dup2\n      mstore\n      0x04\n      add\n      tag_101\n      swap1\n      tag_102\n      jump\t// in\n    tag_101:\n      mload(0x40)\n      dup1\n      swap2\n      sub\n      swap1\n      revert\n    tag_100:\n        /* \"contracts/HealthAlertRegistry.sol\":8234:8246  healthAlerts */\n      0x00\n        /* \"contracts/HealthAlertRegistry.sol\":8269:8270  1 */\n      0x01\n        /* \"contracts/HealthAlertRegistry.sol\":8247:8259  healthAlerts */\n      0x00\n        /* \"contracts/HealthAlertRegistry.sol\":8247:8266  healthAlerts.length */\n      dup1\n      sload\n      swap1\n      pop\n        /* \"contracts/HealthAlertRegistry.sol\":8247:8270  healthAlerts.length - 1 */\n      tag_103\n      swap2\n      swap1\n      tag_104\n      jump\t// in\n    tag_103:\n        /* \"contracts/HealthAlertRegistry.sol\":8234:8271  healthAlerts[healthAlerts.length - 1] */\n      dup2\n      sload\n      dup2\n      lt\n      tag_105\n      jumpi\n      tag_106\n      tag_107\n      jump\t// in\n    tag_106:\n    tag_105:\n      swap1\n      0x00\n      mstore\n      keccak256(0x00, 0x20)\n      swap1\n      0x06\n      mul\n      add\n        /* \"contracts/HealthAlertRegistry.sol\":8227:8271  return healthAlerts[healthAlerts.length - 1] */\n      mload(0x40)\n      dup1\n      0xc0\n      add\n      0x40\n      mstore\n      swap1\n      dup2\n      0x00\n      dup3\n      add\n      dup1\n      sload\n      tag_109\n      swap1\n      tag_110\n      jump\t// in\n    tag_109:\n      dup1\n      0x1f\n      add\n      0x20\n      dup1\n      swap2\n      div\n      mul\n      0x20\n      add\n      mload(0x40)\n      swap1\n      dup2\n      add\n      0x40\n      mstore\n      dup1\n      swap3\n      swap2\n      swap1\n      dup2\n      dup2\n      mstore\n      0x20\n      add\n      dup3\n      dup1\n      sload\n      tag_111\n      swap1\n      tag_110\n      jump\t// in\n    tag_111:\n      dup1\n      iszero\n      tag_112\n      jumpi\n      dup1\n      0x1f\n      lt\n      tag_113\n      jumpi\n      0x0100\n      dup1\n      dup4\n      sload\n      div\n      mul\n      dup4\n      mstore\n      swap2\n      0x20\n      add\n      swap2\n      jump(tag_112)\n    tag_113:\n      dup3\n      add\n      swap2\n      swap1\n      0x00\n      mstore\n      keccak256(0x00, 0x20)\n      swap1\n    tag_114:\n      dup2\n      sload\n      dup2\n      mstore\n      swap1\n      0x01\n      add\n      swap1\n      0x20\n      add\n      dup1\n      dup4\n      gt\n      tag_114\n      jumpi\n      dup3\n      swap1\n      sub\n      0x1f\n      and\n      dup3\n      add\n      swap2\n    tag_112:\n      pop\n      pop\n      pop\n      pop\n      pop\n      dup2\n      mstore\n      0x20\n      add\n      0x01\n      dup3\n      add\n      dup1\n      sload\n      tag_115\n      swap1\n      tag_110\n      jump\t// in\n    tag_115:\n      dup1\n      0x1f\n      add\n      0x20\n      dup1\n      swap2\n      div\n      mul\n      0x20\n      add\n      mload(0x40)\n      swap1\n      dup2\n      add\n      0x40\n      mstore\n      dup1\n      swap3\n      swap2\n      swap1\n      dup2\n      dup2\n      mstore\n      0x20\n      add\n      dup3\n      dup1\n      sload\n      tag_116\n      swap1\n      tag_110\n      jump\t// in\n    tag_116:\n      dup1\n      iszero\n      tag_117\n      jumpi\n      dup1\n      0x1f\n      lt\n      tag_118\n      jumpi\n      0x0100\n      dup1\n      dup4\n      sload\n      div\n      mul\n      dup4\n      mstore\n      swap2\n      0x20\n      add\n      swap2\n      jump(tag_117)\n    tag_118:\n      dup3\n      add\n      swap2\n      swap1\n      0x00\n      mstore\n      keccak256(0x00, 0x20)\n      swap1\n    tag_119:\n      dup2\n      sload\n      dup2\n      mstore\n      swap1\n      0x01\n      add\n      swap1\n      0x20\n      add\n      dup1\n      dup4\n      gt\n      tag_119\n      jumpi\n      dup3\n      swap1\n      sub\n      0x1f\n      and\n      dup3\n      add\n      swap2\n    tag_117:\n      pop\n      pop\n      pop\n      pop\n      pop\n      dup2\n      mstore\n      0x20\n      add\n      0x02\n      dup3\n      add\n      dup1\n      sload\n      tag_120\n      swap1\n      tag_110\n      jump\t// in\n    tag_120:\n      dup1\n      0x1f\n      add\n      0x20\n      dup1\n      swap2\n      div\n      mul\n      0x20\n      add\n      mload(0x40)\n      swap1\n      dup2\n      add\n      0x40\n      mstore\n      dup1\n      swap3\n      swap2\n      swap1\n      dup2\n      dup2\n      mstore\n      0x20\n      add\n      dup3\n      dup1\n      sload\n      tag_121\n      swap1\n      tag_110\n      jump\t// in\n    tag_121:\n      dup1\n      iszero\n      tag_122\n      jumpi\n      dup1\n      0x1f\n      lt\n      tag_123\n      jumpi\n      0x0100\n      dup1\n      dup4\n      sload\n      div\n      mul\n      dup4\n      mstore\n      swap2\n      0x20\n      add\n      swap2\n      jump(tag_122)\n    tag_123:\n      dup3\n      add\n      swap2\n      swap1\n      0x00\n      mstore\n      keccak256(0x00, 0x20)\n      swap1\n    tag_124:\n      dup2\n      sload\n      dup2\n      mstore\n      swap1\n      0x01\n      add\n      swap1\n      0x20\n      add\n      dup1\n      dup4\n      gt\n      tag_124\n      jumpi\n      dup3\n      swap1\n      sub\n      0x1f\n      and\n      dup3\n      add\n      swap2\n    tag_122:\n      pop\n      pop\n      pop\n      pop\n      pop\n      dup2\n      mstore\n      0x20\n      add\n      0x03\n      dup3\n      add\n      sload\n      dup2\n      mstore\n      0x20\n      add\n      0x04\n      dup3\n      add\n      dup1\n      sload\n      tag_125\n      swap1\n      tag_110\n      jump\t// in\n    tag_125:\n      dup1\n      0x1f\n      add\n      0x20\n      dup1\n      swap2\n      div\n      mul\n      0x20\n      add\n      mload(0x40)\n      swap1\n      dup2\n      add\n      0x40\n      mstore\n      dup1\n      swap3\n      swap2\n      swap1\n      dup2\n      dup2\n      mstore\n      0x20\n      add\n      dup3\n      dup1\n      sload\n      tag_126\n      swap1\n      tag_110\n      jump\t// in\n    tag_126:\n      dup1\n      iszero\n      tag_127\n      jumpi\n      dup1\n      0x1f\n      lt\n      tag_128\n      jumpi\n      0x0100\n      dup1\n      dup4\n      sload\n      div\n      mul\n      dup4\n      mstore\n      swap2\n      0x20\n      add\n      swap2\n      jump(tag_127)\n    tag_128:\n      dup3\n      add\n      swap2\n      swap1\n      0x00\n      mstore\n      keccak256(0x00, 0x20)\n      swap1\n    tag_129:\n      dup2\n      sload\n      dup2\n      mstore\n      swap1\n      0x01\n      add\n      swap1\n      0x20\n      add\n      dup1\n      dup4\n      gt\n      tag_129\n      jumpi\n      dup3\n      swap1\n      sub\n      0x1f\n      and\n      dup3\n      add\n      swap2\n    tag_127:\n      pop\n      pop\n      pop\n      pop\n      pop\n      dup2\n      mstore\n      0x20\n      add\n      0x05\n      dup3\n      add\n      sload\n      dup2\n      mstore\n      pop\n      pop\n      swap1\n      pop\n        /* \"contracts/HealthAlertRegistry.sol\":8086:8278  function getLatestAlert() external view returns (HealthAlert memory) {... */\n      swap1\n      jump\t// out\n        /* \"contracts/HealthAlertRegistry.sol\":7980:8080  function getAlertCount() external view returns (uint256) {... */\n    tag_28:\n        /* \"contracts/HealthAlertRegistry.sol\":8028:8035  uint256 */\n      0x00\n        /* \"contracts/HealthAlertRegistry.sol\":8054:8066  healthAlerts */\n      0x00\n        /* \"contracts/HealthAlertRegistry.sol\":8054:8073  healthAlerts.length */\n      dup1\n      sload\n      swap1\n      pop\n        /* \"contracts/HealthAlertRegistry.sol\":8047:8073  return healthAlerts.length */\n      swap1\n      pop\n        /* \"contracts/HealthAlertRegistry.sol\":7980:8080  function getAlertCount() external view returns (uint256) {... */\n      swap1\n      jump\t// out\n        /* \"contracts/HealthAlertRegistry.sol\":9107:9243  function getEnvironmentalDecisionAlertCount() external view returns (uint256) {... */\n    tag_32:\n        /* \"contracts/HealthAlertRegistry.sol\":9176:9183  uint256 */\n      0x00\n        /* \"contracts/HealthAlertRegistry.sol\":9202:9229  environmentalDecisionAlerts */\n      0x02\n        /* \"contracts/HealthAlertRegistry.sol\":9202:9236  environmentalDecisionAlerts.length */\n      dup1\n      sload\n      swap1\n      pop\n        /* \"contracts/HealthAlertRegistry.sol\":9195:9236  return environmentalDecisionAlerts.length */\n      swap1\n      pop\n        /* \"contracts/HealthAlertRegistry.sol\":9107:9243  function getEnvironmentalDecisionAlertCount() external view returns (uint256) {... */\n      swap1\n      jump\t// out\n        /* \"contracts/HealthAlertRegistry.sol\":3498:3763  function recordAlert(... */\n    tag_37:\n        /* \"contracts/HealthAlertRegistry.sol\":3693:3756  _recordHealthAlert(source, region, disease, riskScore, summary) */\n      tag_133\n        /* \"contracts/HealthAlertRegistry.sol\":3712:3718  source */\n      dup6\n        /* \"contracts/HealthAlertRegistry.sol\":3720:3726  region */\n      dup6\n        /* \"contracts/HealthAlertRegistry.sol\":3728:3735  disease */\n      dup6\n        /* \"contracts/HealthAlertRegistry.sol\":3737:3746  riskScore */\n      dup6\n        /* \"contracts/HealthAlertRegistry.sol\":3748:3755  summary */\n      dup6\n        /* \"contracts/HealthAlertRegistry.sol\":3693:3711  _recordHealthAlert */\n      tag_134\n        /* \"contracts/HealthAlertRegistry.sol\":3693:3756  _recordHealthAlert(source, region, disease, riskScore, summary) */\n      jump\t// in\n    tag_133:\n        /* \"contracts/HealthAlertRegistry.sol\":3498:3763  function recordAlert(... */\n      pop\n      pop\n      pop\n      pop\n      pop\n      jump\t// out\n        /* \"contracts/HealthAlertRegistry.sol\":6156:7845  function recordEnvironmentalDecisionAlert(... */\n    tag_41:\n        /* \"contracts/HealthAlertRegistry.sol\":6449:6464  uint256 alertId */\n      0x00\n        /* \"contracts/HealthAlertRegistry.sol\":6507:6508  0 */\n      0x00\n        /* \"contracts/HealthAlertRegistry.sol\":6490:6496  source */\n      dup10\n        /* \"contracts/HealthAlertRegistry.sol\":6484:6504  bytes(source).length */\n      mload\n        /* \"contracts/HealthAlertRegistry.sol\":6484:6508  bytes(source).length > 0 */\n      gt\n        /* \"contracts/HealthAlertRegistry.sol\":6476:6528  require(bytes(source).length > 0, \"Source required\") */\n      tag_136\n      jumpi\n      mload(0x40)\n      0x08c379a000000000000000000000000000000000000000000000000000000000\n      dup2\n      mstore\n      0x04\n      add\n      tag_137\n      swap1\n      tag_138\n      jump\t// in\n    tag_137:\n      mload(0x40)\n      dup1\n      swap2\n      sub\n      swap1\n      revert\n    tag_136:\n        /* \"contracts/HealthAlertRegistry.sol\":6569:6570  0 */\n      0x00\n        /* \"contracts/HealthAlertRegistry.sol\":6552:6558  region */\n      dup9\n        /* \"contracts/HealthAlertRegistry.sol\":6546:6566  bytes(region).length */\n      mload\n        /* \"contracts/HealthAlertRegistry.sol\":6546:6570  bytes(region).length > 0 */\n      gt\n        /* \"contracts/HealthAlertRegistry.sol\":6538:6590  require(bytes(region).length > 0, \"Region required\") */\n      tag_139\n      jumpi\n      mload(0x40)\n      0x08c379a000000000000000000000000000000000000000000000000000000000\n      dup2\n      mstore\n      0x04\n      add\n      tag_140\n      swap1\n      tag_141\n      jump\t// in\n    tag_140:\n      mload(0x40)\n      dup1\n      swap2\n      sub\n      swap1\n      revert\n    tag_139:\n        /* \"contracts/HealthAlertRegistry.sol\":6632:6633  0 */\n      0x00\n        /* \"contracts/HealthAlertRegistry.sol\":6614:6621  disease */\n      dup8\n        /* \"contracts/HealthAlertRegistry.sol\":6608:6629  bytes(disease).length */\n      mload\n        /* \"contracts/HealthAlertRegistry.sol\":6608:6633  bytes(disease).length > 0 */\n      gt\n        /* \"contracts/HealthAlertRegistry.sol\":6600:6654  require(bytes(disease).length > 0, \"Disease required\") */\n      tag_142\n      jumpi\n      mload(0x40)\n      0x08c379a000000000000000000000000000000000000000000000000000000000\n      dup2\n      mstore\n      0x04\n      add\n      tag_143\n      swap1\n      tag_144\n      jump\t// in\n    tag_143:\n      mload(0x40)\n      dup1\n      swap2\n      sub\n      swap1\n      revert\n    tag_142:\n        /* \"contracts/HealthAlertRegistry.sol\":6696:6697  0 */\n      0x00\n        /* \"contracts/HealthAlertRegistry.sol\":6678:6685  summary */\n      dup3\n        /* \"contracts/HealthAlertRegistry.sol\":6672:6693  bytes(summary).length */\n      mload\n        /* \"contracts/HealthAlertRegistry.sol\":6672:6697  bytes(summary).length > 0 */\n      gt\n        /* \"contracts/HealthAlertRegistry.sol\":6664:6718  require(bytes(summary).length > 0, \"Summary required\") */\n      tag_145\n      jumpi\n      mload(0x40)\n      0x08c379a000000000000000000000000000000000000000000000000000000000\n      dup2\n      mstore\n      0x04\n      add\n      tag_146\n      swap1\n      tag_147\n      jump\t// in\n    tag_146:\n      mload(0x40)\n      dup1\n      swap2\n      sub\n      swap1\n      revert\n    tag_145:\n        /* \"contracts/HealthAlertRegistry.sol\":6750:6753  100 */\n      0x64\n        /* \"contracts/HealthAlertRegistry.sol\":6736:6746  healthRisk */\n      dup7\n        /* \"contracts/HealthAlertRegistry.sol\":6736:6753  healthRisk <= 100 */\n      gt\n      iszero\n        /* \"contracts/HealthAlertRegistry.sol\":6728:6784  require(healthRisk <= 100, \"Health risk must be <= 100\") */\n      tag_148\n      jumpi\n      mload(0x40)\n      0x08c379a000000000000000000000000000000000000000000000000000000000\n      dup2\n      mstore\n      0x04\n      add\n      tag_149\n      swap1\n      tag_150\n      jump\t// in\n    tag_149:\n      mload(0x40)\n      dup1\n      swap2\n      sub\n      swap1\n      revert\n    tag_148:\n        /* \"contracts/HealthAlertRegistry.sol\":6817:6818  1 */\n      0x01\n        /* \"contracts/HealthAlertRegistry.sol\":6802:6813  climateRisk */\n      dup6\n        /* \"contracts/HealthAlertRegistry.sol\":6802:6818  climateRisk >= 1 */\n      0xff\n      and\n      lt\n      iszero\n        /* \"contracts/HealthAlertRegistry.sol\":6802:6838  climateRisk >= 1 && climateRisk <= 5 */\n      dup1\n      iszero\n      tag_151\n      jumpi\n      pop\n        /* \"contracts/HealthAlertRegistry.sol\":6837:6838  5 */\n      0x05\n        /* \"contracts/HealthAlertRegistry.sol\":6822:6833  climateRisk */\n      dup6\n        /* \"contracts/HealthAlertRegistry.sol\":6822:6838  climateRisk <= 5 */\n      0xff\n      and\n      gt\n      iszero\n        /* \"contracts/HealthAlertRegistry.sol\":6802:6838  climateRisk >= 1 && climateRisk <= 5 */\n    tag_151:\n        /* \"contracts/HealthAlertRegistry.sol\":6794:6867  require(climateRisk >= 1 && climateRisk <= 5, \"Climate risk must be 1-5\") */\n      tag_152\n      jumpi\n      mload(0x40)\n      0x08c379a000000000000000000000000000000000000000000000000000000000\n      dup2\n      mstore\n      0x04\n      add\n      tag_153\n      swap1\n      tag_154\n      jump\t// in\n    tag_153:\n      mload(0x40)\n      dup1\n      swap2\n      sub\n      swap1\n      revert\n    tag_152:\n        /* \"contracts/HealthAlertRegistry.sol\":6896:6897  1 */\n      0x01\n        /* \"contracts/HealthAlertRegistry.sol\":6885:6892  esgRisk */\n      dup5\n        /* \"contracts/HealthAlertRegistry.sol\":6885:6897  esgRisk >= 1 */\n      0xff\n      and\n      lt\n      iszero\n        /* \"contracts/HealthAlertRegistry.sol\":6885:6913  esgRisk >= 1 && esgRisk <= 5 */\n      dup1\n      iszero\n      tag_155\n      jumpi\n      pop\n        /* \"contracts/HealthAlertRegistry.sol\":6912:6913  5 */\n      0x05\n        /* \"contracts/HealthAlertRegistry.sol\":6901:6908  esgRisk */\n      dup5\n        /* \"contracts/HealthAlertRegistry.sol\":6901:6913  esgRisk <= 5 */\n      0xff\n      and\n      gt\n      iszero\n        /* \"contracts/HealthAlertRegistry.sol\":6885:6913  esgRisk >= 1 && esgRisk <= 5 */\n    tag_155:\n        /* \"contracts/HealthAlertRegistry.sol\":6877:6938  require(esgRisk >= 1 && esgRisk <= 5, \"ESG risk must be 1-5\") */\n      tag_156\n      jumpi\n      mload(0x40)\n      0x08c379a000000000000000000000000000000000000000000000000000000000\n      dup2\n      mstore\n      0x04\n      add\n      tag_157\n      swap1\n      tag_158\n      jump\t// in\n    tag_157:\n      mload(0x40)\n      dup1\n      swap2\n      sub\n      swap1\n      revert\n    tag_156:\n        /* \"contracts/HealthAlertRegistry.sol\":6977:6978  0 */\n      0x00\n        /* \"contracts/HealthAlertRegistry.sol\":6969:6979  bytes32(0) */\n      0x00\n      shl\n        /* \"contracts/HealthAlertRegistry.sol\":6956:6965  proofHash */\n      dup4\n        /* \"contracts/HealthAlertRegistry.sol\":6956:6979  proofHash != bytes32(0) */\n      sub\n        /* \"contracts/HealthAlertRegistry.sol\":6948:7003  require(proofHash != bytes32(0), \"Proof hash required\") */\n      tag_159\n      jumpi\n      mload(0x40)\n      0x08c379a000000000000000000000000000000000000000000000000000000000\n      dup2\n      mstore\n      0x04\n      add\n      tag_160\n      swap1\n      tag_161\n      jump\t// in\n    tag_160:\n      mload(0x40)\n      dup1\n      swap2\n      sub\n      swap1\n      revert\n    tag_159:\n        /* \"contracts/HealthAlertRegistry.sol\":7024:7051  environmentalDecisionAlerts */\n      0x02\n        /* \"contracts/HealthAlertRegistry.sol\":7024:7058  environmentalDecisionAlerts.length */\n      dup1\n      sload\n      swap1\n      pop\n        /* \"contracts/HealthAlertRegistry.sol\":7014:7058  alertId = environmentalDecisionAlerts.length */\n      swap1\n      pop\n        /* \"contracts/HealthAlertRegistry.sol\":7069:7096  environmentalDecisionAlerts */\n      0x02\n        /* \"contracts/HealthAlertRegistry.sol\":7115:7560  EnvironmentalDecisionAlert({... */\n      mload(0x40)\n      dup1\n      0x0160\n      add\n      0x40\n      mstore\n      dup1\n        /* \"contracts/HealthAlertRegistry.sol\":7169:7176  alertId */\n      dup4\n        /* \"contracts/HealthAlertRegistry.sol\":7115:7560  EnvironmentalDecisionAlert({... */\n      dup2\n      mstore\n      0x20\n      add\n        /* \"contracts/HealthAlertRegistry.sol\":7202:7208  source */\n      dup12\n        /* \"contracts/HealthAlertRegistry.sol\":7115:7560  EnvironmentalDecisionAlert({... */\n      dup2\n      mstore\n      0x20\n      add\n        /* \"contracts/HealthAlertRegistry.sol\":7234:7240  region */\n      dup11\n        /* \"contracts/HealthAlertRegistry.sol\":7115:7560  EnvironmentalDecisionAlert({... */\n      dup2\n      mstore\n      0x20\n      add\n        /* \"contracts/HealthAlertRegistry.sol\":7267:7274  disease */\n      dup10\n        /* \"contracts/HealthAlertRegistry.sol\":7115:7560  EnvironmentalDecisionAlert({... */\n      dup2\n      mstore\n      0x20\n      add\n        /* \"contracts/HealthAlertRegistry.sol\":7304:7314  healthRisk */\n      dup9\n        /* \"contracts/HealthAlertRegistry.sol\":7115:7560  EnvironmentalDecisionAlert({... */\n      dup2\n      mstore\n      0x20\n      add\n        /* \"contracts/HealthAlertRegistry.sol\":7345:7356  climateRisk */\n      dup8\n        /* \"contracts/HealthAlertRegistry.sol\":7115:7560  EnvironmentalDecisionAlert({... */\n      0xff\n      and\n      dup2\n      mstore\n      0x20\n      add\n        /* \"contracts/HealthAlertRegistry.sol\":7383:7390  esgRisk */\n      dup7\n        /* \"contracts/HealthAlertRegistry.sol\":7115:7560  EnvironmentalDecisionAlert({... */\n      0xff\n      and\n      dup2\n      mstore\n      0x20\n      add\n        /* \"contracts/HealthAlertRegistry.sol\":7419:7428  proofHash */\n      dup6\n        /* \"contracts/HealthAlertRegistry.sol\":7115:7560  EnvironmentalDecisionAlert({... */\n      dup2\n      mstore\n      0x20\n      add\n        /* \"contracts/HealthAlertRegistry.sol\":7455:7462  summary */\n      dup5\n        /* \"contracts/HealthAlertRegistry.sol\":7115:7560  EnvironmentalDecisionAlert({... */\n      dup2\n      mstore\n      0x20\n      add\n        /* \"contracts/HealthAlertRegistry.sol\":7491:7506  block.timestamp */\n      timestamp\n        /* \"contracts/HealthAlertRegistry.sol\":7115:7560  EnvironmentalDecisionAlert({... */\n      dup2\n      mstore\n      0x20\n      add\n        /* \"contracts/HealthAlertRegistry.sol\":7535:7545  msg.sender */\n      caller\n        /* \"contracts/HealthAlertRegistry.sol\":7115:7560  EnvironmentalDecisionAlert({... */\n      0xffffffffffffffffffffffffffffffffffffffff\n      and\n      dup2\n      mstore\n      pop\n        /* \"contracts/HealthAlertRegistry.sol\":7069:7570  environmentalDecisionAlerts.push(... */\n      swap1\n      dup1\n      0x01\n      dup2\n      sload\n      add\n      dup1\n      dup3\n      sstore\n      dup1\n      swap2\n      pop\n      pop\n      0x01\n      swap1\n      sub\n      swap1\n      0x00\n      mstore\n      keccak256(0x00, 0x20)\n      swap1\n      0x0a\n      mul\n      add\n      0x00\n      swap1\n      swap2\n      swap1\n      swap2\n      swap1\n      swap2\n      pop\n      0x00\n      dup3\n      add\n      mload\n      dup2\n      0x00\n      add\n      sstore\n      0x20\n      dup3\n      add\n      mload\n      dup2\n      0x01\n      add\n      swap1\n      dup2\n      tag_163\n      swap2\n      swap1\n      tag_164\n      jump\t// in\n    tag_163:\n      pop\n      0x40\n      dup3\n      add\n      mload\n      dup2\n      0x02\n      add\n      swap1\n      dup2\n      tag_165\n      swap2\n      swap1\n      tag_164\n      jump\t// in\n    tag_165:\n      pop\n      0x60\n      dup3\n      add\n      mload\n      dup2\n      0x03\n      add\n      swap1\n      dup2\n      tag_166\n      swap2\n      swap1\n      tag_164\n      jump\t// in\n    tag_166:\n      pop\n      0x80\n      dup3\n      add\n      mload\n      dup2\n      0x04\n      add\n      sstore\n      0xa0\n      dup3\n      add\n      mload\n      dup2\n      0x05\n      add\n      exp(0x0100, 0x00)\n      dup2\n      sload\n      dup2\n      0xff\n      mul\n      not\n      and\n      swap1\n      dup4\n      0xff\n      and\n      mul\n      or\n      swap1\n      sstore\n      pop\n      0xc0\n      dup3\n      add\n      mload\n      dup2\n      0x05\n      add\n      exp(0x0100, 0x01)\n      dup2\n      sload\n      dup2\n      0xff\n      mul\n      not\n      and\n      swap1\n      dup4\n      0xff\n      and\n      mul\n      or\n      swap1\n      sstore\n      pop\n      0xe0\n      dup3\n      add\n      mload\n      dup2\n      0x06\n      add\n      sstore\n      0x0100\n      dup3\n      add\n      mload\n      dup2\n      0x07\n      add\n      swap1\n      dup2\n      tag_167\n      swap2\n      swap1\n      tag_164\n      jump\t// in\n    tag_167:\n      pop\n      0x0120\n      dup3\n      add\n      mload\n      dup2\n      0x08\n      add\n      sstore\n      0x0140\n      dup3\n      add\n      mload\n      dup2\n      0x09\n      add\n      exp(0x0100, 0x00)\n      dup2\n      sload\n      dup2\n      0xffffffffffffffffffffffffffffffffffffffff\n      mul\n      not\n      and\n      swap1\n      dup4\n      0xffffffffffffffffffffffffffffffffffffffff\n      and\n      mul\n      or\n      swap1\n      sstore\n      pop\n      pop\n      pop\n        /* \"contracts/HealthAlertRegistry.sol\":7818:7828  msg.sender */\n      caller\n        /* \"contracts/HealthAlertRegistry.sol\":7586:7838  EnvironmentalDecisionAlertRecorded(... */\n      0xffffffffffffffffffffffffffffffffffffffff\n      and\n        /* \"contracts/HealthAlertRegistry.sol\":7634:7641  alertId */\n      dup2\n        /* \"contracts/HealthAlertRegistry.sol\":7586:7838  EnvironmentalDecisionAlertRecorded(... */\n      0x77ceed131622224d0f26b642a4b7f9a3107ab8a988e5abe1ab1ea58ef55cbe9b\n        /* \"contracts/HealthAlertRegistry.sol\":7655:7661  region */\n      dup11\n        /* \"contracts/HealthAlertRegistry.sol\":7675:7682  disease */\n      dup11\n        /* \"contracts/HealthAlertRegistry.sol\":7696:7706  healthRisk */\n      dup11\n        /* \"contracts/HealthAlertRegistry.sol\":7720:7731  climateRisk */\n      dup11\n        /* \"contracts/HealthAlertRegistry.sol\":7745:7752  esgRisk */\n      dup11\n        /* \"contracts/HealthAlertRegistry.sol\":7766:7775  proofHash */\n      dup11\n        /* \"contracts/HealthAlertRegistry.sol\":7789:7804  block.timestamp */\n      timestamp\n        /* \"contracts/HealthAlertRegistry.sol\":7586:7838  EnvironmentalDecisionAlertRecorded(... */\n      mload(0x40)\n      tag_168\n      swap8\n      swap7\n      swap6\n      swap5\n      swap4\n      swap3\n      swap2\n      swap1\n      tag_169\n      jump\t// in\n    tag_168:\n      mload(0x40)\n      dup1\n      swap2\n      sub\n      swap1\n      log3\n        /* \"contracts/HealthAlertRegistry.sol\":6156:7845  function recordEnvironmentalDecisionAlert(... */\n      swap9\n      swap8\n      pop\n      pop\n      pop\n      pop\n      pop\n      pop\n      pop\n      pop\n      jump\t// out\n        /* \"contracts/HealthAlertRegistry.sol\":1942:2005  EnvironmentalDecisionAlert[] public environmentalDecisionAlerts */\n    tag_46:\n      0x02\n      dup2\n      dup2\n      sload\n      dup2\n      lt\n      tag_170\n      jumpi\n      0x00\n      dup1\n      revert\n    tag_170:\n      swap1\n      0x00\n      mstore\n      keccak256(0x00, 0x20)\n      swap1\n      0x0a\n      mul\n      add\n      0x00\n      swap2\n      pop\n      swap1\n      pop\n      dup1\n      0x00\n      add\n      sload\n      swap1\n      dup1\n      0x01\n      add\n      dup1\n      sload\n      tag_172\n      swap1\n      tag_110\n      jump\t// in\n    tag_172:\n      dup1\n      0x1f\n      add\n      0x20\n      dup1\n      swap2\n      div\n      mul\n      0x20\n      add\n      mload(0x40)\n      swap1\n      dup2\n      add\n      0x40\n      mstore\n      dup1\n      swap3\n      swap2\n      swap1\n      dup2\n      dup2\n      mstore\n      0x20\n      add\n      dup3\n      dup1\n      sload\n      tag_173\n      swap1\n      tag_110\n      jump\t// in\n    tag_173:\n      dup1\n      iszero\n      tag_174\n      jumpi\n      dup1\n      0x1f\n      lt\n      tag_175\n      jumpi\n      0x0100\n      dup1\n      dup4\n      sload\n      div\n      mul\n      dup4\n      mstore\n      swap2\n      0x20\n      add\n      swap2\n      jump(tag_174)\n    tag_175:\n      dup3\n      add\n      swap2\n      swap1\n      0x00\n      mstore\n      keccak256(0x00, 0x20)\n      swap1\n    tag_176:\n      dup2\n      sload\n      dup2\n      mstore\n      swap1\n      0x01\n      add\n      swap1\n      0x20\n      add\n      dup1\n      dup4\n      gt\n      tag_176\n      jumpi\n      dup3\n      swap1\n      sub\n      0x1f\n      and\n      dup3\n      add\n      swap2\n    tag_174:\n      pop\n      pop\n      pop\n      pop\n      pop\n      swap1\n      dup1\n      0x02\n      add\n      dup1\n      sload\n      tag_177\n      swap1\n      tag_110\n      jump\t// in\n    tag_177:\n      dup1\n      0x1f\n      add\n      0x20\n      dup1\n      swap2\n      div\n      mul\n      0x20\n      add\n      mload(0x40)\n      swap1\n      dup2\n      add\n      0x40\n      mstore\n      dup1\n      swap3\n      swap2\n      swap1\n      dup2\n      dup2\n      mstore\n      0x20\n      add\n      dup3\n      dup1\n      sload\n      tag_178\n      swap1\n      tag_110\n      jump\t// in\n    tag_178:\n      dup1\n      iszero\n      tag_179\n      jumpi\n      dup1\n      0x1f\n      lt\n      tag_180\n      jumpi\n      0x0100\n      dup1\n      dup4\n      sload\n      div\n      mul\n      dup4\n      mstore\n      swap2\n      0x20\n      add\n      swap2\n      jump(tag_179)\n    tag_180:\n      dup3\n      add\n      swap2\n      swap1\n      0x00\n      mstore\n      keccak256(0x00, 0x20)\n      swap1\n    tag_181:\n      dup2\n      sload\n      dup2\n      mstore\n      swap1\n      0x01\n      add\n      swap1\n      0x20\n      add\n      dup1\n      dup4\n      gt\n      tag_181\n      jumpi\n      dup3\n      swap1\n      sub\n      0x1f\n      and\n      dup3\n      add\n      swap2\n    tag_179:\n      pop\n      pop\n      pop\n      pop\n      pop\n      swap1\n      dup1\n      0x03\n      add\n      dup1\n      sload\n      tag_182\n      swap1\n      tag_110\n      jump\t// in\n    tag_182:\n      dup1\n      0x1f\n      add\n      0x20\n      dup1\n      swap2\n      div\n      mul\n      0x20\n      add\n      mload(0x40)\n      swap1\n      dup2\n      add\n      0x40\n      mstore\n      dup1\n      swap3\n      swap2\n      swap1\n      dup2\n      dup2\n      mstore\n      0x20\n      add\n      dup3\n      dup1\n      sload\n      tag_183\n      swap1\n      tag_110\n      jump\t// in\n    tag_183:\n      dup1\n      iszero\n      tag_184\n      jumpi\n      dup1\n      0x1f\n      lt\n      tag_185\n      jumpi\n      0x0100\n      dup1\n      dup4\n      sload\n      div\n      mul\n      dup4\n      mstore\n      swap2\n      0x20\n      add\n      swap2\n      jump(tag_184)\n    tag_185:\n      dup3\n      add\n      swap2\n      swap1\n      0x00\n      mstore\n      keccak256(0x00, 0x20)\n      swap1\n    tag_186:\n      dup2\n      sload\n      dup2\n      mstore\n      swap1\n      0x01\n      add\n      swap1\n      0x20\n      add\n      dup1\n      dup4\n      gt\n      tag_186\n      jumpi\n      dup3\n      swap1\n      sub\n      0x1f\n      and\n      dup3\n      add\n      swap2\n    tag_184:\n      pop\n      pop\n      pop\n      pop\n      pop\n      swap1\n      dup1\n      0x04\n      add\n      sload\n      swap1\n      dup1\n      0x05\n      add\n      0x00\n      swap1\n      sload\n      swap1\n      0x0100\n      exp\n      swap1\n      div\n      0xff\n      and\n      swap1\n      dup1\n      0x05\n      add\n      0x01\n      swap1\n      sload\n      swap1\n      0x0100\n      exp\n      swap1\n      div\n      0xff\n      and\n      swap1\n      dup1\n      0x06\n      add\n      sload\n      swap1\n      dup1\n      0x07\n      add\n      dup1\n      sload\n      tag_187\n      swap1\n      tag_110\n      jump\t// in\n    tag_187:\n      dup1\n      0x1f\n      add\n      0x20\n      dup1\n      swap2\n      div\n      mul\n      0x20\n      add\n      mload(0x40)\n      swap1\n      dup2\n      add\n      0x40\n      mstore\n      dup1\n      swap3\n      swap2\n      swap1\n      dup2\n      dup2\n      mstore\n      0x20\n      add\n      dup3\n      dup1\n      sload\n      tag_188\n      swap1\n      tag_110\n      jump\t// in\n    tag_188:\n      dup1\n      iszero\n      tag_189\n      jumpi\n      dup1\n      0x1f\n      lt\n      tag_190\n      jumpi\n      0x0100\n      dup1\n      dup4\n      sload\n      div\n      mul\n      dup4\n      mstore\n      swap2\n      0x20\n      add\n      swap2\n      jump(tag_189)\n    tag_190:\n      dup3\n      add\n      swap2\n      swap1\n      0x00\n      mstore\n      keccak256(0x00, 0x20)\n      swap1\n    tag_191:\n      dup2\n      sload\n      dup2\n      mstore\n      swap1\n      0x01\n      add\n      swap1\n      0x20\n      add\n      dup1\n      dup4\n      gt\n      tag_191\n      jumpi\n      dup3\n      swap1\n      sub\n      0x1f\n      and\n      dup3\n      add\n      swap2\n    tag_189:\n      pop\n      pop\n      pop\n      pop\n      pop\n      swap1\n      dup1\n      0x08\n      add\n      sload\n      swap1\n      dup1\n      0x09\n      add\n      0x00\n      swap1\n      sload\n      swap1\n      0x0100\n      exp\n      swap1\n      div\n      0xffffffffffffffffffffffffffffffffffffffff\n      and\n      swap1\n      pop\n      dup12\n      jump\t// out\n        /* \"contracts/HealthAlertRegistry.sol\":8422:8530  function getClimateAlertCount() external view returns (uint256) {... */\n    tag_50:\n        /* \"contracts/HealthAlertRegistry.sol\":8477:8484  uint256 */\n      0x00\n        /* \"contracts/HealthAlertRegistry.sol\":8503:8516  climateAlerts */\n      0x01\n        /* \"contracts/HealthAlertRegistry.sol\":8503:8523  climateAlerts.length */\n      dup1\n      sload\n      swap1\n      pop\n        /* \"contracts/HealthAlertRegistry.sol\":8496:8523  return climateAlerts.length */\n      swap1\n      pop\n        /* \"contracts/HealthAlertRegistry.sol\":8422:8530  function getClimateAlertCount() external view returns (uint256) {... */\n      swap1\n      jump\t// out\n        /* \"contracts/HealthAlertRegistry.sol\":8284:8416  function getClimateAlert(uint256 alertId) external view returns (ClimateAlert memory) {... */\n    tag_54:\n        /* \"contracts/HealthAlertRegistry.sol\":8349:8368  ClimateAlert memory */\n      tag_193\n      tag_194\n      jump\t// in\n    tag_193:\n        /* \"contracts/HealthAlertRegistry.sol\":8387:8400  climateAlerts */\n      0x01\n        /* \"contracts/HealthAlertRegistry.sol\":8401:8408  alertId */\n      dup3\n        /* \"contracts/HealthAlertRegistry.sol\":8387:8409  climateAlerts[alertId] */\n      dup2\n      sload\n      dup2\n      lt\n      tag_196\n      jumpi\n      tag_197\n      tag_107\n      jump\t// in\n    tag_197:\n    tag_196:\n      swap1\n      0x00\n      mstore\n      keccak256(0x00, 0x20)\n      swap1\n      0x09\n      mul\n      add\n        /* \"contracts/HealthAlertRegistry.sol\":8380:8409  return climateAlerts[alertId] */\n      mload(0x40)\n      dup1\n      0x0160\n      add\n      0x40\n      mstore\n      swap1\n      dup2\n      0x00\n      dup3\n      add\n      sload\n      dup2\n      mstore\n      0x20\n      add\n      0x01\n      dup3\n      add\n      dup1\n      sload\n      tag_199\n      swap1\n      tag_110\n      jump\t// in\n    tag_199:\n      dup1\n      0x1f\n      add\n      0x20\n      dup1\n      swap2\n      div\n      mul\n      0x20\n      add\n      mload(0x40)\n      swap1\n      dup2\n      add\n      0x40\n      mstore\n      dup1\n      swap3\n      swap2\n      swap1\n      dup2\n      dup2\n      mstore\n      0x20\n      add\n      dup3\n      dup1\n      sload\n      tag_200\n      swap1\n      tag_110\n      jump\t// in\n    tag_200:\n      dup1\n      iszero\n      tag_201\n      jumpi\n      dup1\n      0x1f\n      lt\n      tag_202\n      jumpi\n      0x0100\n      dup1\n      dup4\n      sload\n      div\n      mul\n      dup4\n      mstore\n      swap2\n      0x20\n      add\n      swap2\n      jump(tag_201)\n    tag_202:\n      dup3\n      add\n      swap2\n      swap1\n      0x00\n      mstore\n      keccak256(0x00, 0x20)\n      swap1\n    tag_203:\n      dup2\n      sload\n      dup2\n      mstore\n      swap1\n      0x01\n      add\n      swap1\n      0x20\n      add\n      dup1\n      dup4\n      gt\n      tag_203\n      jumpi\n      dup3\n      swap1\n      sub\n      0x1f\n      and\n      dup3\n      add\n      swap2\n    tag_201:\n      pop\n      pop\n      pop\n      pop\n      pop\n      dup2\n      mstore\n      0x20\n      add\n      0x02\n      dup3\n      add\n      sload\n      dup2\n      mstore\n      0x20\n      add\n      0x03\n      dup3\n      add\n      0x00\n      swap1\n      sload\n      swap1\n      0x0100\n      exp\n      swap1\n      div\n      0xff\n      and\n      0xff\n      and\n      0xff\n      and\n      dup2\n      mstore\n      0x20\n      add\n      0x03\n      dup3\n      add\n      0x01\n      swap1\n      sload\n      swap1\n      0x0100\n      exp\n      swap1\n      div\n      0xff\n      and\n      0xff\n      and\n      0xff\n      and\n      dup2\n      mstore\n      0x20\n      add\n      0x03\n      dup3\n      add\n      0x02\n      swap1\n      sload\n      swap1\n      0x0100\n      exp\n      swap1\n      div\n      0xff\n      and\n      0xff\n      and\n      0xff\n      and\n      dup2\n      mstore\n      0x20\n      add\n      0x04\n      dup3\n      add\n      dup1\n      sload\n      tag_204\n      swap1\n      tag_110\n      jump\t// in\n    tag_204:\n      dup1\n      0x1f\n      add\n      0x20\n      dup1\n      swap2\n      div\n      mul\n      0x20\n      add\n      mload(0x40)\n      swap1\n      dup2\n      add\n      0x40\n      mstore\n      dup1\n      swap3\n      swap2\n      swap1\n      dup2\n      dup2\n      mstore\n      0x20\n      add\n      dup3\n      dup1\n      sload\n      tag_205\n      swap1\n      tag_110\n      jump\t// in\n    tag_205:\n      dup1\n      iszero\n      tag_206\n      jumpi\n      dup1\n      0x1f\n      lt\n      tag_207\n      jumpi\n      0x0100\n      dup1\n      dup4\n      sload\n      div\n      mul\n      dup4\n      mstore\n      swap2\n      0x20\n      add\n      swap2\n      jump(tag_206)\n    tag_207:\n      dup3\n      add\n      swap2\n      swap1\n      0x00\n      mstore\n      keccak256(0x00, 0x20)\n      swap1\n    tag_208:\n      dup2\n      sload\n      dup2\n      mstore\n      swap1\n      0x01\n      add\n      swap1\n      0x20\n      add\n      dup1\n      dup4\n      gt\n      tag_208\n      jumpi\n      dup3\n      swap1\n      sub\n      0x1f\n      and\n      dup3\n      add\n      swap2\n    tag_206:\n      pop\n      pop\n      pop\n      pop\n      pop\n      dup2\n      mstore\n      0x20\n      add\n      0x05\n      dup3\n      add\n      dup1\n      sload\n      tag_209\n      swap1\n      tag_110\n      jump\t// in\n    tag_209:\n      dup1\n      0x1f\n      add\n      0x20\n      dup1\n      swap2\n      div\n      mul\n      0x20\n      add\n      mload(0x40)\n      swap1\n      dup2\n      add\n      0x40\n      mstore\n      dup1\n      swap3\n      swap2\n      swap1\n      dup2\n      dup2\n      mstore\n      0x20\n      add\n      dup3\n      dup1\n      sload\n      tag_210\n      swap1\n      tag_110\n      jump\t// in\n    tag_210:\n      dup1\n      iszero\n      tag_211\n      jumpi\n      dup1\n      0x1f\n      lt\n      tag_212\n      jumpi\n      0x0100\n      dup1\n      dup4\n      sload\n      div\n      mul\n      dup4\n      mstore\n      swap2\n      0x20\n      add\n      swap2\n      jump(tag_211)\n    tag_212:\n      dup3\n      add\n      swap2\n      swap1\n      0x00\n      mstore\n      keccak256(0x00, 0x20)\n      swap1\n    tag_213:\n      dup2\n      sload\n      dup2\n      mstore\n      swap1\n      0x01\n      add\n      swap1\n      0x20\n      add\n      dup1\n      dup4\n      gt\n      tag_213\n      jumpi\n      dup3\n      swap1\n      sub\n      0x1f\n      and\n      dup3\n      add\n      swap2\n    tag_211:\n      pop\n      pop\n      pop\n      pop\n      pop\n      dup2\n      mstore\n      0x20\n      add\n      0x06\n      dup3\n      add\n      sload\n      dup2\n      mstore\n      0x20\n      add\n      0x07\n      dup3\n      add\n      sload\n      dup2\n      mstore\n      0x20\n      add\n      0x08\n      dup3\n      add\n      0x00\n      swap1\n      sload\n      swap1\n      0x0100\n      exp\n      swap1\n      div\n      0xffffffffffffffffffffffffffffffffffffffff\n      and\n      0xffffffffffffffffffffffffffffffffffffffff\n      and\n      0xffffffffffffffffffffffffffffffffffffffff\n      and\n      dup2\n      mstore\n      pop\n      pop\n      swap1\n      pop\n        /* \"contracts/HealthAlertRegistry.sol\":8284:8416  function getClimateAlert(uint256 alertId) external view returns (ClimateAlert memory) {... */\n      swap2\n      swap1\n      pop\n      jump\t// out\n        /* \"contracts/HealthAlertRegistry.sol\":7851:7974  function getAlert(uint256 alertId) external view returns (HealthAlert memory) {... */\n    tag_59:\n        /* \"contracts/HealthAlertRegistry.sol\":7909:7927  HealthAlert memory */\n      tag_214\n      tag_98\n      jump\t// in\n    tag_214:\n        /* \"contracts/HealthAlertRegistry.sol\":7946:7958  healthAlerts */\n      0x00\n        /* \"contracts/HealthAlertRegistry.sol\":7959:7966  alertId */\n      dup3\n        /* \"contracts/HealthAlertRegistry.sol\":7946:7967  healthAlerts[alertId] */\n      dup2\n      sload\n      dup2\n      lt\n      tag_216\n      jumpi\n      tag_217\n      tag_107\n      jump\t// in\n    tag_217:\n    tag_216:\n      swap1\n      0x00\n      mstore\n      keccak256(0x00, 0x20)\n      swap1\n      0x06\n      mul\n      add\n        /* \"contracts/HealthAlertRegistry.sol\":7939:7967  return healthAlerts[alertId] */\n      mload(0x40)\n      dup1\n      0xc0\n      add\n      0x40\n      mstore\n      swap1\n      dup2\n      0x00\n      dup3\n      add\n      dup1\n      sload\n      tag_219\n      swap1\n      tag_110\n      jump\t// in\n    tag_219:\n      dup1\n      0x1f\n      add\n      0x20\n      dup1\n      swap2\n      div\n      mul\n      0x20\n      add\n      mload(0x40)\n      swap1\n      dup2\n      add\n      0x40\n      mstore\n      dup1\n      swap3\n      swap2\n      swap1\n      dup2\n      dup2\n      mstore\n      0x20\n      add\n      dup3\n      dup1\n      sload\n      tag_220\n      swap1\n      tag_110\n      jump\t// in\n    tag_220:\n      dup1\n      iszero\n      tag_221\n      jumpi\n      dup1\n      0x1f\n      lt\n      tag_222\n      jumpi\n      0x0100\n      dup1\n      dup4\n      sload\n      div\n      mul\n      dup4\n      mstore\n      swap2\n      0x20\n      add\n      swap2\n      jump(tag_221)\n    tag_222:\n      dup3\n      add\n      swap2\n      swap1\n      0x00\n      mstore\n      keccak256(0x00, 0x20)\n      swap1\n    tag_223:\n      dup2\n      sload\n      dup2\n      mstore\n      swap1\n      0x01\n      add\n      swap1\n      0x20\n      add\n      dup1\n      dup4\n      gt\n      tag_223\n      jumpi\n      dup3\n      swap1\n      sub\n      0x1f\n      and\n      dup3\n      add\n      swap2\n    tag_221:\n      pop\n      pop\n      pop\n      pop\n      pop\n      dup2\n      mstore\n      0x20\n      add\n      0x01\n      dup3\n      add\n      dup1\n      sload\n      tag_224\n      swap1\n      tag_110\n      jump\t// in\n    tag_224:\n      dup1\n      0x1f\n      add\n      0x20\n      dup1\n      swap2\n      div\n      mul\n      0x20\n      add\n      mload(0x40)\n      swap1\n      dup2\n      add\n      0x40\n      mstore\n      dup1\n      swap3\n      swap2\n      swap1\n      dup2\n      dup2\n      mstore\n      0x20\n      add\n      dup3\n      dup1\n      sload\n      tag_225\n      swap1\n      tag_110\n      jump\t// in\n    tag_225:\n      dup1\n      iszero\n      tag_226\n      jumpi\n      dup1\n      0x1f\n      lt\n      tag_227\n      jumpi\n      0x0100\n      dup1\n      dup4\n      sload\n      div\n      mul\n      dup4\n      mstore\n      swap2\n      0x20\n      add\n      swap2\n      jump(tag_226)\n    tag_227:\n      dup3\n      add\n      swap2\n      swap1\n      0x00\n      mstore\n      keccak256(0x00, 0x20)\n      swap1\n    tag_228:\n      dup2\n      sload\n      dup2\n      mstore\n      swap1\n      0x01\n      add\n      swap1\n      0x20\n      add\n      dup1\n      dup4\n      gt\n      tag_228\n      jumpi\n      dup3\n      swap1\n      sub\n      0x1f\n      and\n      dup3\n      add\n      swap2\n    tag_226:\n      pop\n      pop\n      pop\n      pop\n      pop\n      dup2\n      mstore\n      0x20\n      add\n      0x02\n      dup3\n      add\n      dup1\n      sload\n      tag_229\n      swap1\n      tag_110\n      jump\t// in\n    tag_229:\n      dup1\n      0x1f\n      add\n      0x20\n      dup1\n      swap2\n      div\n      mul\n      0x20\n      add\n      mload(0x40)\n      swap1\n      dup2\n      add\n      0x40\n      mstore\n      dup1\n      swap3\n      swap2\n      swap1\n      dup2\n      dup2\n      mstore\n      0x20\n      add\n      dup3\n      dup1\n      sload\n      tag_230\n      swap1\n      tag_110\n      jump\t// in\n    tag_230:\n      dup1\n      iszero\n      tag_231\n      jumpi\n      dup1\n      0x1f\n      lt\n      tag_232\n      jumpi\n      0x0100\n      dup1\n      dup4\n      sload\n      div\n      mul\n      dup4\n      mstore\n      swap2\n      0x20\n      add\n      swap2\n      jump(tag_231)\n    tag_232:\n      dup3\n      add\n      swap2\n      swap1\n      0x00\n      mstore\n      keccak256(0x00, 0x20)\n      swap1\n    tag_233:\n      dup2\n      sload\n      dup2\n      mstore\n      swap1\n      0x01\n      add\n      swap1\n      0x20\n      add\n      dup1\n      dup4\n      gt\n      tag_233\n      jumpi\n      dup3\n      swap1\n      sub\n      0x1f\n      and\n      dup3\n      add\n      swap2\n    tag_231:\n      pop\n      pop\n      pop\n      pop\n      pop\n      dup2\n      mstore\n      0x20\n      add\n      0x03\n      dup3\n      add\n      sload\n      dup2\n      mstore\n      0x20\n      add\n      0x04\n      dup3\n      add\n      dup1\n      sload\n      tag_234\n      swap1\n      tag_110\n      jump\t// in\n    tag_234:\n      dup1\n      0x1f\n      add\n      0x20\n      dup1\n      swap2\n      div\n      mul\n      0x20\n      add\n      mload(0x40)\n      swap1\n      dup2\n      add\n      0x40\n      mstore\n      dup1\n      swap3\n      swap2\n      swap1\n      dup2\n      dup2\n      mstore\n      0x20\n      add\n      dup3\n      dup1\n      sload\n      tag_235\n      swap1\n      tag_110\n      jump\t// in\n    tag_235:\n      dup1\n      iszero\n      tag_236\n      jumpi\n      dup1\n      0x1f\n      lt\n      tag_237\n      jumpi\n      0x0100\n      dup1\n      dup4\n      sload\n      div\n      mul\n      dup4\n      mstore\n      swap2\n      0x20\n      add\n      swap2\n      jump(tag_236)\n    tag_237:\n      dup3\n      add\n      swap2\n      swap1\n      0x00\n      mstore\n      keccak256(0x00, 0x20)\n      swap1\n    tag_238:\n      dup2\n      sload\n      dup2\n      mstore\n      swap1\n      0x01\n      add\n      swap1\n      0x20\n      add\n      dup1\n      dup4\n      gt\n      tag_238\n      jumpi\n      dup3\n      swap1\n      sub\n      0x1f\n      and\n      dup3\n      add\n      swap2\n    tag_236:\n      pop\n      pop\n      pop\n      pop\n      pop\n      dup2\n      mstore\n      0x20\n      add\n      0x05\n      dup3\n      add\n      sload\n      dup2\n      mstore\n      pop\n      pop\n      swap1\n      pop\n        /* \"contracts/HealthAlertRegistry.sol\":7851:7974  function getAlert(uint256 alertId) external view returns (HealthAlert memory) {... */\n      swap2\n      swap1\n      pop\n      jump\t// out\n        /* \"contracts/HealthAlertRegistry.sol\":9249:9557  function getLatestEnvironmentalDecisionAlert()... */\n    tag_62:\n        /* \"contracts/HealthAlertRegistry.sol\":9343:9376  EnvironmentalDecisionAlert memory */\n      tag_239\n      tag_240\n      jump\t// in\n    tag_239:\n        /* \"contracts/HealthAlertRegistry.sol\":9437:9438  0 */\n      0x00\n        /* \"contracts/HealthAlertRegistry.sol\":9400:9427  environmentalDecisionAlerts */\n      0x02\n        /* \"contracts/HealthAlertRegistry.sol\":9400:9434  environmentalDecisionAlerts.length */\n      dup1\n      sload\n      swap1\n      pop\n        /* \"contracts/HealthAlertRegistry.sol\":9400:9438  environmentalDecisionAlerts.length > 0 */\n      gt\n        /* \"contracts/HealthAlertRegistry.sol\":9392:9466  require(environmentalDecisionAlerts.length > 0, \"No environmental alerts\") */\n      tag_242\n      jumpi\n      mload(0x40)\n      0x08c379a000000000000000000000000000000000000000000000000000000000\n      dup2\n      mstore\n      0x04\n      add\n      tag_243\n      swap1\n      tag_244\n      jump\t// in\n    tag_243:\n      mload(0x40)\n      dup1\n      swap2\n      sub\n      swap1\n      revert\n    tag_242:\n        /* \"contracts/HealthAlertRegistry.sol\":9483:9510  environmentalDecisionAlerts */\n      0x02\n        /* \"contracts/HealthAlertRegistry.sol\":9548:9549  1 */\n      0x01\n        /* \"contracts/HealthAlertRegistry.sol\":9511:9538  environmentalDecisionAlerts */\n      0x02\n        /* \"contracts/HealthAlertRegistry.sol\":9511:9545  environmentalDecisionAlerts.length */\n      dup1\n      sload\n      swap1\n      pop\n        /* \"contracts/HealthAlertRegistry.sol\":9511:9549  environmentalDecisionAlerts.length - 1 */\n      tag_245\n      swap2\n      swap1\n      tag_104\n      jump\t// in\n    tag_245:\n        /* \"contracts/HealthAlertRegistry.sol\":9483:9550  environmentalDecisionAlerts[environmentalDecisionAlerts.length - 1] */\n      dup2\n      sload\n      dup2\n      lt\n      tag_246\n      jumpi\n      tag_247\n      tag_107\n      jump\t// in\n    tag_247:\n    tag_246:\n      swap1\n      0x00\n      mstore\n      keccak256(0x00, 0x20)\n      swap1\n      0x0a\n      mul\n      add\n        /* \"contracts/HealthAlertRegistry.sol\":9476:9550  return environmentalDecisionAlerts[environmentalDecisionAlerts.length - 1] */\n      mload(0x40)\n      dup1\n      0x0160\n      add\n      0x40\n      mstore\n      swap1\n      dup2\n      0x00\n      dup3\n      add\n      sload\n      dup2\n      mstore\n      0x20\n      add\n      0x01\n      dup3\n      add\n      dup1\n      sload\n      tag_249\n      swap1\n      tag_110\n      jump\t// in\n    tag_249:\n      dup1\n      0x1f\n      add\n      0x20\n      dup1\n      swap2\n      div\n      mul\n      0x20\n      add\n      mload(0x40)\n      swap1\n      dup2\n      add\n      0x40\n      mstore\n      dup1\n      swap3\n      swap2\n      swap1\n      dup2\n      dup2\n      mstore\n      0x20\n      add\n      dup3\n      dup1\n      sload\n      tag_250\n      swap1\n      tag_110\n      jump\t// in\n    tag_250:\n      dup1\n      iszero\n      tag_251\n      jumpi\n      dup1\n      0x1f\n      lt\n      tag_252\n      jumpi\n      0x0100\n      dup1\n      dup4\n      sload\n      div\n      mul\n      dup4\n      mstore\n      swap2\n      0x20\n      add\n      swap2\n      jump(tag_251)\n    tag_252:\n      dup3\n      add\n      swap2\n      swap1\n      0x00\n      mstore\n      keccak256(0x00, 0x20)\n      swap1\n    tag_253:\n      dup2\n      sload\n      dup2\n      mstore\n      swap1\n      0x01\n      add\n      swap1\n      0x20\n      add\n      dup1\n      dup4\n      gt\n      tag_253\n      jumpi\n      dup3\n      swap1\n      sub\n      0x1f\n      and\n      dup3\n      add\n      swap2\n    tag_251:\n      pop\n      pop\n      pop\n      pop\n      pop\n      dup2\n      mstore\n      0x20\n      add\n      0x02\n      dup3\n      add\n      dup1\n      sload\n      tag_254\n      swap1\n      tag_110\n      jump\t// in\n    tag_254:\n      dup1\n      0x1f\n      add\n      0x20\n      dup1\n      swap2\n      div\n      mul\n      0x20\n      add\n      mload(0x40)\n      swap1\n      dup2\n      add\n      0x40\n      mstore\n      dup1\n      swap3\n      swap2\n      swap1\n      dup2\n      dup2\n      mstore\n      0x20\n      add\n      dup3\n      dup1\n      sload\n      tag_255\n      swap1\n      tag_110\n      jump\t// in\n    tag_255:\n      dup1\n      iszero\n      tag_256\n      jumpi\n      dup1\n      0x1f\n      lt\n      tag_257\n      jumpi\n      0x0100\n      dup1\n      dup4\n      sload\n      div\n      mul\n      dup4\n      mstore\n      swap2\n      0x20\n      add\n      swap2\n      jump(tag_256)\n    tag_257:\n      dup3\n      add\n      swap2\n      swap1\n      0x00\n      mstore\n      keccak256(0x00, 0x20)\n      swap1\n    tag_258:\n      dup2\n      sload\n      dup2\n      mstore\n      swap1\n      0x01\n      add\n      swap1\n      0x20\n      add\n      dup1\n      dup4\n      gt\n      tag_258\n      jumpi\n      dup3\n      swap1\n      sub\n      0x1f\n      and\n      dup3\n      add\n      swap2\n    tag_256:\n      pop\n      pop\n      pop\n      pop\n      pop\n      dup2\n      mstore\n      0x20\n      add\n      0x03\n      dup3\n      add\n      dup1\n      sload\n      tag_259\n      swap1\n      tag_110\n      jump\t// in\n    tag_259:\n      dup1\n      0x1f\n      add\n      0x20\n      dup1\n      swap2\n      div\n      mul\n      0x20\n      add\n      mload(0x40)\n      swap1\n      dup2\n      add\n      0x40\n      mstore\n      dup1\n      swap3\n      swap2\n      swap1\n      dup2\n      dup2\n      mstore\n      0x20\n      add\n      dup3\n      dup1\n      sload\n      tag_260\n      swap1\n      tag_110\n      jump\t// in\n    tag_260:\n      dup1\n      iszero\n      tag_261\n      jumpi\n      dup1\n      0x1f\n      lt\n      tag_262\n      jumpi\n      0x0100\n      dup1\n      dup4\n      sload\n      div\n      mul\n      dup4\n      mstore\n      swap2\n      0x20\n      add\n      swap2\n      jump(tag_261)\n    tag_262:\n      dup3\n      add\n      swap2\n      swap1\n      0x00\n      mstore\n      keccak256(0x00, 0x20)\n      swap1\n    tag_263:\n      dup2\n      sload\n      dup2\n      mstore\n      swap1\n      0x01\n      add\n      swap1\n      0x20\n      add\n      dup1\n      dup4\n      gt\n      tag_263\n      jumpi\n      dup3\n      swap1\n      sub\n      0x1f\n      and\n      dup3\n      add\n      swap2\n    tag_261:\n      pop\n      pop\n      pop\n      pop\n      pop\n      dup2\n      mstore\n      0x20\n      add\n      0x04\n      dup3\n      add\n      sload\n      dup2\n      mstore\n      0x20\n      add\n      0x05\n      dup3\n      add\n      0x00\n      swap1\n      sload\n      swap1\n      0x0100\n      exp\n      swap1\n      div\n      0xff\n      and\n      0xff\n      and\n      0xff\n      and\n      dup2\n      mstore\n      0x20\n      add\n      0x05\n      dup3\n      add\n      0x01\n      swap1\n      sload\n      swap1\n      0x0100\n      exp\n      swap1\n      div\n      0xff\n      and\n      0xff\n      and\n      0xff\n      and\n      dup2\n      mstore\n      0x20\n      add\n      0x06\n      dup3\n      add\n      sload\n      dup2\n      mstore\n      0x20\n      add\n      0x07\n      dup3\n      add\n      dup1\n      sload\n      tag_264\n      swap1\n      tag_110\n      jump\t// in\n    tag_264:\n      dup1\n      0x1f\n      add\n      0x20\n      dup1\n      swap2\n      div\n      mul\n      0x20\n      add\n      mload(0x40)\n      swap1\n      dup2\n      add\n      0x40\n      mstore\n      dup1\n      swap3\n      swap2\n      swap1\n      dup2\n      dup2\n      mstore\n      0x20\n      add\n      dup3\n      dup1\n      sload\n      tag_265\n      swap1\n      tag_110\n      jump\t// in\n    tag_265:\n      dup1\n      iszero\n      tag_266\n      jumpi\n      dup1\n      0x1f\n      lt\n      tag_267\n      jumpi\n      0x0100\n      dup1\n      dup4\n      sload\n      div\n      mul\n      dup4\n      mstore\n      swap2\n      0x20\n      add\n      swap2\n      jump(tag_266)\n    tag_267:\n      dup3\n      add\n      swap2\n      swap1\n      0x00\n      mstore\n      keccak256(0x00, 0x20)\n      swap1\n    tag_268:\n      dup2\n      sload\n      dup2\n      mstore\n      swap1\n      0x01\n      add\n      swap1\n      0x20\n      add\n      dup1\n      dup4\n      gt\n      tag_268\n      jumpi\n      dup3\n      swap1\n      sub\n      0x1f\n      and\n      dup3\n      add\n      swap2\n    tag_266:\n      pop\n      pop\n      pop\n      pop\n      pop\n      dup2\n      mstore\n      0x20\n      add\n      0x08\n      dup3\n      add\n      sload\n      dup2\n      mstore\n      0x20\n      add\n      0x09\n      dup3\n      add\n      0x00\n      swap1\n      sload\n      swap1\n      0x0100\n      exp\n      swap1\n      div\n      0xffffffffffffffffffffffffffffffffffffffff\n      and\n      0xffffffffffffffffffffffffffffffffffffffff\n      and\n      0xffffffffffffffffffffffffffffffffffffffff\n      and\n      dup2\n      mstore\n      pop\n      pop\n      swap1\n      pop\n        /* \"contracts/HealthAlertRegistry.sol\":9249:9557  function getLatestEnvironmentalDecisionAlert()... */\n      swap1\n      jump\t// out\n        /* \"contracts/HealthAlertRegistry.sol\":8536:8740  function getLatestClimateAlert() external view returns (ClimateAlert memory) {... */\n    tag_66:\n        /* \"contracts/HealthAlertRegistry.sol\":8592:8611  ClimateAlert memory */\n      tag_269\n      tag_194\n      jump\t// in\n    tag_269:\n        /* \"contracts/HealthAlertRegistry.sol\":8654:8655  0 */\n      0x00\n        /* \"contracts/HealthAlertRegistry.sol\":8631:8644  climateAlerts */\n      0x01\n        /* \"contracts/HealthAlertRegistry.sol\":8631:8651  climateAlerts.length */\n      dup1\n      sload\n      swap1\n      pop\n        /* \"contracts/HealthAlertRegistry.sol\":8631:8655  climateAlerts.length > 0 */\n      gt\n        /* \"contracts/HealthAlertRegistry.sol\":8623:8677  require(climateAlerts.length > 0, \"No climate alerts\") */\n      tag_271\n      jumpi\n      mload(0x40)\n      0x08c379a000000000000000000000000000000000000000000000000000000000\n      dup2\n      mstore\n      0x04\n      add\n      tag_272\n      swap1\n      tag_273\n      jump\t// in\n    tag_272:\n      mload(0x40)\n      dup1\n      swap2\n      sub\n      swap1\n      revert\n    tag_271:\n        /* \"contracts/HealthAlertRegistry.sol\":8694:8707  climateAlerts */\n      0x01\n        /* \"contracts/HealthAlertRegistry.sol\":8731:8732  1 */\n      dup1\n        /* \"contracts/HealthAlertRegistry.sol\":8708:8721  climateAlerts */\n      dup1\n        /* \"contracts/HealthAlertRegistry.sol\":8708:8728  climateAlerts.length */\n      dup1\n      sload\n      swap1\n      pop\n        /* \"contracts/HealthAlertRegistry.sol\":8708:8732  climateAlerts.length - 1 */\n      tag_274\n      swap2\n      swap1\n      tag_104\n      jump\t// in\n    tag_274:\n        /* \"contracts/HealthAlertRegistry.sol\":8694:8733  climateAlerts[climateAlerts.length - 1] */\n      dup2\n      sload\n      dup2\n      lt\n      tag_275\n      jumpi\n      tag_276\n      tag_107\n      jump\t// in\n    tag_276:\n    tag_275:\n      swap1\n      0x00\n      mstore\n      keccak256(0x00, 0x20)\n      swap1\n      0x09\n      mul\n      add\n        /* \"contracts/HealthAlertRegistry.sol\":8687:8733  return climateAlerts[climateAlerts.length - 1] */\n      mload(0x40)\n      dup1\n      0x0160\n      add\n      0x40\n      mstore\n      swap1\n      dup2\n      0x00\n      dup3\n      add\n      sload\n      dup2\n      mstore\n      0x20\n      add\n      0x01\n      dup3\n      add\n      dup1\n      sload\n      tag_278\n      swap1\n      tag_110\n      jump\t// in\n    tag_278:\n      dup1\n      0x1f\n      add\n      0x20\n      dup1\n      swap2\n      div\n      mul\n      0x20\n      add\n      mload(0x40)\n      swap1\n      dup2\n      add\n      0x40\n      mstore\n      dup1\n      swap3\n      swap2\n      swap1\n      dup2\n      dup2\n      mstore\n      0x20\n      add\n      dup3\n      dup1\n      sload\n      tag_279\n      swap1\n      tag_110\n      jump\t// in\n    tag_279:\n      dup1\n      iszero\n      tag_280\n      jumpi\n      dup1\n      0x1f\n      lt\n      tag_281\n      jumpi\n      0x0100\n      dup1\n      dup4\n      sload\n      div\n      mul\n      dup4\n      mstore\n      swap2\n      0x20\n      add\n      swap2\n      jump(tag_280)\n    tag_281:\n      dup3\n      add\n      swap2\n      swap1\n      0x00\n      mstore\n      keccak256(0x00, 0x20)\n      swap1\n    tag_282:\n      dup2\n      sload\n      dup2\n      mstore\n      swap1\n      0x01\n      add\n      swap1\n      0x20\n      add\n      dup1\n      dup4\n      gt\n      tag_282\n      jumpi\n      dup3\n      swap1\n      sub\n      0x1f\n      and\n      dup3\n      add\n      swap2\n    tag_280:\n      pop\n      pop\n      pop\n      pop\n      pop\n      dup2\n      mstore\n      0x20\n      add\n      0x02\n      dup3\n      add\n      sload\n      dup2\n      mstore\n      0x20\n      add\n      0x03\n      dup3\n      add\n      0x00\n      swap1\n      sload\n      swap1\n      0x0100\n      exp\n      swap1\n      div\n      0xff\n      and\n      0xff\n      and\n      0xff\n      and\n      dup2\n      mstore\n      0x20\n      add\n      0x03\n      dup3\n      add\n      0x01\n      swap1\n      sload\n      swap1\n      0x0100\n      exp\n      swap1\n      div\n      0xff\n      and\n      0xff\n      and\n      0xff\n      and\n      dup2\n      mstore\n      0x20\n      add\n      0x03\n      dup3\n      add\n      0x02\n      swap1\n      sload\n      swap1\n      0x0100\n      exp\n      swap1\n      div\n      0xff\n      and\n      0xff\n      and\n      0xff\n      and\n      dup2\n      mstore\n      0x20\n      add\n      0x04\n      dup3\n      add\n      dup1\n      sload\n      tag_283\n      swap1\n      tag_110\n      jump\t// in\n    tag_283:\n      dup1\n      0x1f\n      add\n      0x20\n      dup1\n      swap2\n      div\n      mul\n      0x20\n      add\n      mload(0x40)\n      swap1\n      dup2\n      add\n      0x40\n      mstore\n      dup1\n      swap3\n      swap2\n      swap1\n      dup2\n      dup2\n      mstore\n      0x20\n      add\n      dup3\n      dup1\n      sload\n      tag_284\n      swap1\n      tag_110\n      jump\t// in\n    tag_284:\n      dup1\n      iszero\n      tag_285\n      jumpi\n      dup1\n      0x1f\n      lt\n      tag_286\n      jumpi\n      0x0100\n      dup1\n      dup4\n      sload\n      div\n      mul\n      dup4\n      mstore\n      swap2\n      0x20\n      add\n      swap2\n      jump(tag_285)\n    tag_286:\n      dup3\n      add\n      swap2\n      swap1\n      0x00\n      mstore\n      keccak256(0x00, 0x20)\n      swap1\n    tag_287:\n      dup2\n      sload\n      dup2\n      mstore\n      swap1\n      0x01\n      add\n      swap1\n      0x20\n      add\n      dup1\n      dup4\n      gt\n      tag_287\n      jumpi\n      dup3\n      swap1\n      sub\n      0x1f\n      and\n      dup3\n      add\n      swap2\n    tag_285:\n      pop\n      pop\n      pop\n      pop\n      pop\n      dup2\n      mstore\n      0x20\n      add\n      0x05\n      dup3\n      add\n      dup1\n      sload\n      tag_288\n      swap1\n      tag_110\n      jump\t// in\n    tag_288:\n      dup1\n      0x1f\n      add\n      0x20\n      dup1\n      swap2\n      div\n      mul\n      0x20\n      add\n      mload(0x40)\n      swap1\n      dup2\n      add\n      0x40\n      mstore\n      dup1\n      swap3\n      swap2\n      swap1\n      dup2\n      dup2\n      mstore\n      0x20\n      add\n      dup3\n      dup1\n      sload\n      tag_289\n      swap1\n      tag_110\n      jump\t// in\n    tag_289:\n      dup1\n      iszero\n      tag_290\n      jumpi\n      dup1\n      0x1f\n      lt\n      tag_291\n      jumpi\n      0x0100\n      dup1\n      dup4\n      sload\n      div\n      mul\n      dup4\n      mstore\n      swap2\n      0x20\n      add\n      swap2\n      jump(tag_290)\n    tag_291:\n      dup3\n      add\n      swap2\n      swap1\n      0x00\n      mstore\n      keccak256(0x00, 0x20)\n      swap1\n    tag_292:\n      dup2\n      sload\n      dup2\n      mstore\n      swap1\n      0x01\n      add\n      swap1\n      0x20\n      add\n      dup1\n      dup4\n      gt\n      tag_292\n      jumpi\n      dup3\n      swap1\n      sub\n      0x1f\n      and\n      dup3\n      add\n      swap2\n    tag_290:\n      pop\n      pop\n      pop\n      pop\n      pop\n      dup2\n      mstore\n      0x20\n      add\n      0x06\n      dup3\n      add\n      sload\n      dup2\n      mstore\n      0x20\n      add\n      0x07\n      dup3\n      add\n      sload\n      dup2\n      mstore\n      0x20\n      add\n      0x08\n      dup3\n      add\n      0x00\n      swap1\n      sload\n      swap1\n      0x0100\n      exp\n      swap1\n      div\n      0xffffffffffffffffffffffffffffffffffffffff\n      and\n      0xffffffffffffffffffffffffffffffffffffffff\n      and\n      0xffffffffffffffffffffffffffffffffffffffff\n      and\n      dup2\n      mstore\n      pop\n      pop\n      swap1\n      pop\n        /* \"contracts/HealthAlertRegistry.sol\":8536:8740  function getLatestClimateAlert() external view returns (ClimateAlert memory) {... */\n      swap1\n      jump\t// out\n        /* \"contracts/HealthAlertRegistry.sol\":4480:5981  function recordClimateAlert(... */\n    tag_71:\n        /* \"contracts/HealthAlertRegistry.sol\":4760:4775  uint256 alertId */\n      0x00\n        /* \"contracts/HealthAlertRegistry.sol\":4816:4817  0 */\n      0x00\n        /* \"contracts/HealthAlertRegistry.sol\":4801:4805  city */\n      dup10\n        /* \"contracts/HealthAlertRegistry.sol\":4795:4813  bytes(city).length */\n      mload\n        /* \"contracts/HealthAlertRegistry.sol\":4795:4817  bytes(city).length > 0 */\n      gt\n        /* \"contracts/HealthAlertRegistry.sol\":4787:4835  require(bytes(city).length > 0, \"City required\") */\n      tag_294\n      jumpi\n      mload(0x40)\n      0x08c379a000000000000000000000000000000000000000000000000000000000\n      dup2\n      mstore\n      0x04\n      add\n      tag_295\n      swap1\n      tag_296\n      jump\t// in\n    tag_295:\n      mload(0x40)\n      dup1\n      swap2\n      sub\n      swap1\n      revert\n    tag_294:\n        /* \"contracts/HealthAlertRegistry.sol\":4882:4883  0 */\n      0x00\n        /* \"contracts/HealthAlertRegistry.sol\":4859:4871  safetyAdvice */\n      dup5\n        /* \"contracts/HealthAlertRegistry.sol\":4853:4879  bytes(safetyAdvice).length */\n      mload\n        /* \"contracts/HealthAlertRegistry.sol\":4853:4883  bytes(safetyAdvice).length > 0 */\n      gt\n        /* \"contracts/HealthAlertRegistry.sol\":4845:4910  require(bytes(safetyAdvice).length > 0, \"Safety advice required\") */\n      tag_297\n      jumpi\n      mload(0x40)\n      0x08c379a000000000000000000000000000000000000000000000000000000000\n      dup2\n      mstore\n      0x04\n      add\n      tag_298\n      swap1\n      tag_299\n      jump\t// in\n    tag_298:\n      mload(0x40)\n      dup1\n      swap2\n      sub\n      swap1\n      revert\n    tag_297:\n        /* \"contracts/HealthAlertRegistry.sol\":4955:4956  0 */\n      0x00\n        /* \"contracts/HealthAlertRegistry.sol\":4934:4944  dataSource */\n      dup4\n        /* \"contracts/HealthAlertRegistry.sol\":4928:4952  bytes(dataSource).length */\n      mload\n        /* \"contracts/HealthAlertRegistry.sol\":4928:4956  bytes(dataSource).length > 0 */\n      gt\n        /* \"contracts/HealthAlertRegistry.sol\":4920:4981  require(bytes(dataSource).length > 0, \"Data source required\") */\n      tag_300\n      jumpi\n      mload(0x40)\n      0x08c379a000000000000000000000000000000000000000000000000000000000\n      dup2\n      mstore\n      0x04\n      add\n      tag_301\n      swap1\n      tag_302\n      jump\t// in\n    tag_301:\n      mload(0x40)\n      dup1\n      swap2\n      sub\n      swap1\n      revert\n    tag_300:\n        /* \"contracts/HealthAlertRegistry.sol\":5011:5014  100 */\n      0x64\n        /* \"contracts/HealthAlertRegistry.sol\":4999:5007  humidity */\n      dup8\n        /* \"contracts/HealthAlertRegistry.sol\":4999:5014  humidity <= 100 */\n      0xff\n      and\n      gt\n      iszero\n        /* \"contracts/HealthAlertRegistry.sol\":4991:5042  require(humidity <= 100, \"Humidity must be <= 100\") */\n      tag_303\n      jumpi\n      mload(0x40)\n      0x08c379a000000000000000000000000000000000000000000000000000000000\n      dup2\n      mstore\n      0x04\n      add\n      tag_304\n      swap1\n      tag_305\n      jump\t// in\n    tag_304:\n      mload(0x40)\n      dup1\n      swap2\n      sub\n      swap1\n      revert\n    tag_303:\n        /* \"contracts/HealthAlertRegistry.sol\":5071:5073  20 */\n      0x14\n        /* \"contracts/HealthAlertRegistry.sol\":5060:5067  uvIndex */\n      dup7\n        /* \"contracts/HealthAlertRegistry.sol\":5060:5073  uvIndex <= 20 */\n      0xff\n      and\n      gt\n      iszero\n        /* \"contracts/HealthAlertRegistry.sol\":5052:5100  require(uvIndex <= 20, \"UV index must be <= 20\") */\n      tag_306\n      jumpi\n      mload(0x40)\n      0x08c379a000000000000000000000000000000000000000000000000000000000\n      dup2\n      mstore\n      0x04\n      add\n      tag_307\n      swap1\n      tag_308\n      jump\t// in\n    tag_307:\n      mload(0x40)\n      dup1\n      swap2\n      sub\n      swap1\n      revert\n    tag_306:\n        /* \"contracts/HealthAlertRegistry.sol\":5131:5132  1 */\n      0x01\n        /* \"contracts/HealthAlertRegistry.sol\":5118:5127  riskLevel */\n      dup6\n        /* \"contracts/HealthAlertRegistry.sol\":5118:5132  riskLevel >= 1 */\n      0xff\n      and\n      lt\n      iszero\n        /* \"contracts/HealthAlertRegistry.sol\":5118:5150  riskLevel >= 1 && riskLevel <= 5 */\n      dup1\n      iszero\n      tag_309\n      jumpi\n      pop\n        /* \"contracts/HealthAlertRegistry.sol\":5149:5150  5 */\n      0x05\n        /* \"contracts/HealthAlertRegistry.sol\":5136:5145  riskLevel */\n      dup6\n        /* \"contracts/HealthAlertRegistry.sol\":5136:5150  riskLevel <= 5 */\n      0xff\n      and\n      gt\n      iszero\n        /* \"contracts/HealthAlertRegistry.sol\":5118:5150  riskLevel >= 1 && riskLevel <= 5 */\n    tag_309:\n        /* \"contracts/HealthAlertRegistry.sol\":5110:5177  require(riskLevel >= 1 && riskLevel <= 5, \"Risk level must be 1-5\") */\n      tag_310\n      jumpi\n      mload(0x40)\n      0x08c379a000000000000000000000000000000000000000000000000000000000\n      dup2\n      mstore\n      0x04\n      add\n      tag_311\n      swap1\n      tag_312\n      jump\t// in\n    tag_311:\n      mload(0x40)\n      dup1\n      swap2\n      sub\n      swap1\n      revert\n    tag_310:\n        /* \"contracts/HealthAlertRegistry.sol\":5198:5211  climateAlerts */\n      0x01\n        /* \"contracts/HealthAlertRegistry.sol\":5198:5218  climateAlerts.length */\n      dup1\n      sload\n      swap1\n      pop\n        /* \"contracts/HealthAlertRegistry.sol\":5188:5218  alertId = climateAlerts.length */\n      swap1\n      pop\n        /* \"contracts/HealthAlertRegistry.sol\":5229:5261  ClimateAlert memory climateAlert */\n      0x00\n        /* \"contracts/HealthAlertRegistry.sol\":5264:5667  ClimateAlert({... */\n      mload(0x40)\n      dup1\n      0x0160\n      add\n      0x40\n      mstore\n      dup1\n        /* \"contracts/HealthAlertRegistry.sol\":5300:5307  alertId */\n      dup4\n        /* \"contracts/HealthAlertRegistry.sol\":5264:5667  ClimateAlert({... */\n      dup2\n      mstore\n      0x20\n      add\n        /* \"contracts/HealthAlertRegistry.sol\":5327:5331  city */\n      dup12\n        /* \"contracts/HealthAlertRegistry.sol\":5264:5667  ClimateAlert({... */\n      dup2\n      mstore\n      0x20\n      add\n        /* \"contracts/HealthAlertRegistry.sol\":5358:5369  temperature */\n      dup11\n        /* \"contracts/HealthAlertRegistry.sol\":5264:5667  ClimateAlert({... */\n      dup2\n      mstore\n      0x20\n      add\n        /* \"contracts/HealthAlertRegistry.sol\":5393:5401  humidity */\n      dup10\n        /* \"contracts/HealthAlertRegistry.sol\":5264:5667  ClimateAlert({... */\n      0xff\n      and\n      dup2\n      mstore\n      0x20\n      add\n        /* \"contracts/HealthAlertRegistry.sol\":5424:5431  uvIndex */\n      dup9\n        /* \"contracts/HealthAlertRegistry.sol\":5264:5667  ClimateAlert({... */\n      0xff\n      and\n      dup2\n      mstore\n      0x20\n      add\n        /* \"contracts/HealthAlertRegistry.sol\":5456:5465  riskLevel */\n      dup8\n        /* \"contracts/HealthAlertRegistry.sol\":5264:5667  ClimateAlert({... */\n      0xff\n      and\n      dup2\n      mstore\n      0x20\n      add\n        /* \"contracts/HealthAlertRegistry.sol\":5493:5505  safetyAdvice */\n      dup7\n        /* \"contracts/HealthAlertRegistry.sol\":5264:5667  ClimateAlert({... */\n      dup2\n      mstore\n      0x20\n      add\n        /* \"contracts/HealthAlertRegistry.sol\":5531:5541  dataSource */\n      dup6\n        /* \"contracts/HealthAlertRegistry.sol\":5264:5667  ClimateAlert({... */\n      dup2\n      mstore\n      0x20\n      add\n        /* \"contracts/HealthAlertRegistry.sol\":5569:5581  evidenceHash */\n      dup5\n        /* \"contracts/HealthAlertRegistry.sol\":5264:5667  ClimateAlert({... */\n      dup2\n      mstore\n      0x20\n      add\n        /* \"contracts/HealthAlertRegistry.sol\":5606:5621  block.timestamp */\n      timestamp\n        /* \"contracts/HealthAlertRegistry.sol\":5264:5667  ClimateAlert({... */\n      dup2\n      mstore\n      0x20\n      add\n        /* \"contracts/HealthAlertRegistry.sol\":5646:5656  msg.sender */\n      caller\n        /* \"contracts/HealthAlertRegistry.sol\":5264:5667  ClimateAlert({... */\n      0xffffffffffffffffffffffffffffffffffffffff\n      and\n      dup2\n      mstore\n      pop\n        /* \"contracts/HealthAlertRegistry.sol\":5229:5667  ClimateAlert memory climateAlert = ClimateAlert({... */\n      swap1\n      pop\n        /* \"contracts/HealthAlertRegistry.sol\":5678:5691  climateAlerts */\n      0x01\n        /* \"contracts/HealthAlertRegistry.sol\":5697:5709  climateAlert */\n      dup2\n        /* \"contracts/HealthAlertRegistry.sol\":5678:5710  climateAlerts.push(climateAlert) */\n      swap1\n      dup1\n      0x01\n      dup2\n      sload\n      add\n      dup1\n      dup3\n      sstore\n      dup1\n      swap2\n      pop\n      pop\n      0x01\n      swap1\n      sub\n      swap1\n      0x00\n      mstore\n      keccak256(0x00, 0x20)\n      swap1\n      0x09\n      mul\n      add\n      0x00\n      swap1\n      swap2\n      swap1\n      swap2\n      swap1\n      swap2\n      pop\n      0x00\n      dup3\n      add\n      mload\n      dup2\n      0x00\n      add\n      sstore\n      0x20\n      dup3\n      add\n      mload\n      dup2\n      0x01\n      add\n      swap1\n      dup2\n      tag_314\n      swap2\n      swap1\n      tag_164\n      jump\t// in\n    tag_314:\n      pop\n      0x40\n      dup3\n      add\n      mload\n      dup2\n      0x02\n      add\n      sstore\n      0x60\n      dup3\n      add\n      mload\n      dup2\n      0x03\n      add\n      exp(0x0100, 0x00)\n      dup2\n      sload\n      dup2\n      0xff\n      mul\n      not\n      and\n      swap1\n      dup4\n      0xff\n      and\n      mul\n      or\n      swap1\n      sstore\n      pop\n      0x80\n      dup3\n      add\n      mload\n      dup2\n      0x03\n      add\n      exp(0x0100, 0x01)\n      dup2\n      sload\n      dup2\n      0xff\n      mul\n      not\n      and\n      swap1\n      dup4\n      0xff\n      and\n      mul\n      or\n      swap1\n      sstore\n      pop\n      0xa0\n      dup3\n      add\n      mload\n      dup2\n      0x03\n      add\n      exp(0x0100, 0x02)\n      dup2\n      sload\n      dup2\n      0xff\n      mul\n      not\n      and\n      swap1\n      dup4\n      0xff\n      and\n      mul\n      or\n      swap1\n      sstore\n      pop\n      0xc0\n      dup3\n      add\n      mload\n      dup2\n      0x04\n      add\n      swap1\n      dup2\n      tag_315\n      swap2\n      swap1\n      tag_164\n      jump\t// in\n    tag_315:\n      pop\n      0xe0\n      dup3\n      add\n      mload\n      dup2\n      0x05\n      add\n      swap1\n      dup2\n      tag_316\n      swap2\n      swap1\n      tag_164\n      jump\t// in\n    tag_316:\n      pop\n      0x0100\n      dup3\n      add\n      mload\n      dup2\n      0x06\n      add\n      sstore\n      0x0120\n      dup3\n      add\n      mload\n      dup2\n      0x07\n      add\n      sstore\n      0x0140\n      dup3\n      add\n      mload\n      dup2\n      0x08\n      add\n      exp(0x0100, 0x00)\n      dup2\n      sload\n      dup2\n      0xffffffffffffffffffffffffffffffffffffffff\n      mul\n      not\n      and\n      swap1\n      dup4\n      0xffffffffffffffffffffffffffffffffffffffff\n      and\n      mul\n      or\n      swap1\n      sstore\n      pop\n      pop\n      pop\n        /* \"contracts/HealthAlertRegistry.sol\":5720:5737  cityClimateAlerts */\n      0x03\n        /* \"contracts/HealthAlertRegistry.sol\":5738:5742  city */\n      dup11\n        /* \"contracts/HealthAlertRegistry.sol\":5720:5743  cityClimateAlerts[city] */\n      mload(0x40)\n      tag_317\n      swap2\n      swap1\n      tag_318\n      jump\t// in\n    tag_317:\n      swap1\n      dup2\n      mstore\n      0x20\n      add\n      mload(0x40)\n      dup1\n      swap2\n      sub\n      swap1\n      keccak256\n        /* \"contracts/HealthAlertRegistry.sol\":5749:5761  climateAlert */\n      dup2\n        /* \"contracts/HealthAlertRegistry.sol\":5720:5762  cityClimateAlerts[city].push(climateAlert) */\n      swap1\n      dup1\n      0x01\n      dup2\n      sload\n      add\n      dup1\n      dup3\n      sstore\n      dup1\n      swap2\n      pop\n      pop\n      0x01\n      swap1\n      sub\n      swap1\n      0x00\n      mstore\n      keccak256(0x00, 0x20)\n      swap1\n      0x09\n      mul\n      add\n      0x00\n      swap1\n      swap2\n      swap1\n      swap2\n      swap1\n      swap2\n      pop\n      0x00\n      dup3\n      add\n      mload\n      dup2\n      0x00\n      add\n      sstore\n      0x20\n      dup3\n      add\n      mload\n      dup2\n      0x01\n      add\n      swap1\n      dup2\n      tag_320\n      swap2\n      swap1\n      tag_164\n      jump\t// in\n    tag_320:\n      pop\n      0x40\n      dup3\n      add\n      mload\n      dup2\n      0x02\n      add\n      sstore\n      0x60\n      dup3\n      add\n      mload\n      dup2\n      0x03\n      add\n      exp(0x0100, 0x00)\n      dup2\n      sload\n      dup2\n      0xff\n      mul\n      not\n      and\n      swap1\n      dup4\n      0xff\n      and\n      mul\n      or\n      swap1\n      sstore\n      pop\n      0x80\n      dup3\n      add\n      mload\n      dup2\n      0x03\n      add\n      exp(0x0100, 0x01)\n      dup2\n      sload\n      dup2\n      0xff\n      mul\n      not\n      and\n      swap1\n      dup4\n      0xff\n      and\n      mul\n      or\n      swap1\n      sstore\n      pop\n      0xa0\n      dup3\n      add\n      mload\n      dup2\n      0x03\n      add\n      exp(0x0100, 0x02)\n      dup2\n      sload\n      dup2\n      0xff\n      mul\n      not\n      and\n      swap1\n      dup4\n      0xff\n      and\n      mul\n      or\n      swap1\n      sstore\n      pop\n      0xc0\n      dup3\n      add\n      mload\n      dup2\n      0x04\n      add\n      swap1\n      dup2\n      tag_321\n      swap2\n      swap1\n      tag_164\n      jump\t// in\n    tag_321:\n      pop\n      0xe0\n      dup3\n      add\n      mload\n      dup2\n      0x05\n      add\n      swap1\n      dup2\n      tag_322\n      swap2\n      swap1\n      tag_164\n      jump\t// in\n    tag_322:\n      pop\n      0x0100\n      dup3\n      add\n      mload\n      dup2\n      0x06\n      add\n      sstore\n      0x0120\n      dup3\n      add\n      mload\n      dup2\n      0x07\n      add\n      sstore\n      0x0140\n      dup3\n      add\n      mload\n      dup2\n      0x08\n      add\n      exp(0x0100, 0x00)\n      dup2\n      sload\n      dup2\n      0xffffffffffffffffffffffffffffffffffffffff\n      mul\n      not\n      and\n      swap1\n      dup4\n      0xffffffffffffffffffffffffffffffffffffffff\n      and\n      mul\n      or\n      swap1\n      sstore\n      pop\n      pop\n      pop\n        /* \"contracts/HealthAlertRegistry.sol\":5954:5964  msg.sender */\n      caller\n        /* \"contracts/HealthAlertRegistry.sol\":5778:5974  ClimateAlertRecorded(... */\n      0xffffffffffffffffffffffffffffffffffffffff\n      and\n        /* \"contracts/HealthAlertRegistry.sol\":5833:5837  city */\n      dup11\n        /* \"contracts/HealthAlertRegistry.sol\":5778:5974  ClimateAlertRecorded(... */\n      mload(0x40)\n      tag_323\n      swap2\n      swap1\n      tag_318\n      jump\t// in\n    tag_323:\n      mload(0x40)\n      dup1\n      swap2\n      sub\n      swap1\n      keccak256\n        /* \"contracts/HealthAlertRegistry.sol\":5812:5819  alertId */\n      dup4\n        /* \"contracts/HealthAlertRegistry.sol\":5778:5974  ClimateAlertRecorded(... */\n      0x4ec90611714ef9269e2c130fc8b023d67fa108ab77750cfe7653ce87b9bf33cd\n        /* \"contracts/HealthAlertRegistry.sol\":5851:5860  riskLevel */\n      dup10\n        /* \"contracts/HealthAlertRegistry.sol\":5874:5885  temperature */\n      dup14\n        /* \"contracts/HealthAlertRegistry.sol\":5899:5911  evidenceHash */\n      dup9\n        /* \"contracts/HealthAlertRegistry.sol\":5925:5940  block.timestamp */\n      timestamp\n        /* \"contracts/HealthAlertRegistry.sol\":5778:5974  ClimateAlertRecorded(... */\n      mload(0x40)\n      tag_324\n      swap5\n      swap4\n      swap3\n      swap2\n      swap1\n      tag_325\n      jump\t// in\n    tag_324:\n      mload(0x40)\n      dup1\n      swap2\n      sub\n      swap1\n      log4\n        /* \"contracts/HealthAlertRegistry.sol\":4777:5981  {... */\n      pop\n        /* \"contracts/HealthAlertRegistry.sol\":4480:5981  function recordClimateAlert(... */\n      swap9\n      swap8\n      pop\n      pop\n      pop\n      pop\n      pop\n      pop\n      pop\n      pop\n      jump\t// out\n        /* \"contracts/HealthAlertRegistry.sol\":8746:8907  function getClimateAlertsByCity(... */\n    tag_76:\n        /* \"contracts/HealthAlertRegistry.sol\":8837:8858  ClimateAlert[] memory */\n      0x60\n        /* \"contracts/HealthAlertRegistry.sol\":8877:8894  cityClimateAlerts */\n      0x03\n        /* \"contracts/HealthAlertRegistry.sol\":8895:8899  city */\n      dup4\n      dup4\n        /* \"contracts/HealthAlertRegistry.sol\":8877:8900  cityClimateAlerts[city] */\n      mload(0x40)\n      tag_327\n      swap3\n      swap2\n      swap1\n      tag_328\n      jump\t// in\n    tag_327:\n      swap1\n      dup2\n      mstore\n      0x20\n      add\n      mload(0x40)\n      dup1\n      swap2\n      sub\n      swap1\n      keccak256\n        /* \"contracts/HealthAlertRegistry.sol\":8870:8900  return cityClimateAlerts[city] */\n      dup1\n      sload\n      dup1\n      0x20\n      mul\n      0x20\n      add\n      mload(0x40)\n      swap1\n      dup2\n      add\n      0x40\n      mstore\n      dup1\n      swap3\n      swap2\n      swap1\n      dup2\n      dup2\n      mstore\n      0x20\n      add\n      0x00\n      swap1\n    tag_329:\n      dup3\n      dup3\n      lt\n      iszero\n      tag_330\n      jumpi\n      dup4\n      dup3\n      swap1\n      0x00\n      mstore\n      keccak256(0x00, 0x20)\n      swap1\n      0x09\n      mul\n      add\n      mload(0x40)\n      dup1\n      0x0160\n      add\n      0x40\n      mstore\n      swap1\n      dup2\n      0x00\n      dup3\n      add\n      sload\n      dup2\n      mstore\n      0x20\n      add\n      0x01\n      dup3\n      add\n      dup1\n      sload\n      tag_332\n      swap1\n      tag_110\n      jump\t// in\n    tag_332:\n      dup1\n      0x1f\n      add\n      0x20\n      dup1\n      swap2\n      div\n      mul\n      0x20\n      add\n      mload(0x40)\n      swap1\n      dup2\n      add\n      0x40\n      mstore\n      dup1\n      swap3\n      swap2\n      swap1\n      dup2\n      dup2\n      mstore\n      0x20\n      add\n      dup3\n      dup1\n      sload\n      tag_333\n      swap1\n      tag_110\n      jump\t// in\n    tag_333:\n      dup1\n      iszero\n      tag_334\n      jumpi\n      dup1\n      0x1f\n      lt\n      tag_335\n      jumpi\n      0x0100\n      dup1\n      dup4\n      sload\n      div\n      mul\n      dup4\n      mstore\n      swap2\n      0x20\n      add\n      swap2\n      jump(tag_334)\n    tag_335:\n      dup3\n      add\n      swap2\n      swap1\n      0x00\n      mstore\n      keccak256(0x00, 0x20)\n      swap1\n    tag_336:\n      dup2\n      sload\n      dup2\n      mstore\n      swap1\n      0x01\n      add\n      swap1\n      0x20\n      add\n      dup1\n      dup4\n      gt\n      tag_336\n      jumpi\n      dup3\n      swap1\n      sub\n      0x1f\n      and\n      dup3\n      add\n      swap2\n    tag_334:\n      pop\n      pop\n      pop\n      pop\n      pop\n      dup2\n      mstore\n      0x20\n      add\n      0x02\n      dup3\n      add\n      sload\n      dup2\n      mstore\n      0x20\n      add\n      0x03\n      dup3\n      add\n      0x00\n      swap1\n      sload\n      swap1\n      0x0100\n      exp\n      swap1\n      div\n      0xff\n      and\n      0xff\n      and\n      0xff\n      and\n      dup2\n      mstore\n      0x20\n      add\n      0x03\n      dup3\n      add\n      0x01\n      swap1\n      sload\n      swap1\n      0x0100\n      exp\n      swap1\n      div\n      0xff\n      and\n      0xff\n      and\n      0xff\n      and\n      dup2\n      mstore\n      0x20\n      add\n      0x03\n      dup3\n      add\n      0x02\n      swap1\n      sload\n      swap1\n      0x0100\n      exp\n      swap1\n      div\n      0xff\n      and\n      0xff\n      and\n      0xff\n      and\n      dup2\n      mstore\n      0x20\n      add\n      0x04\n      dup3\n      add\n      dup1\n      sload\n      tag_337\n      swap1\n      tag_110\n      jump\t// in\n    tag_337:\n      dup1\n      0x1f\n      add\n      0x20\n      dup1\n      swap2\n      div\n      mul\n      0x20\n      add\n      mload(0x40)\n      swap1\n      dup2\n      add\n      0x40\n      mstore\n      dup1\n      swap3\n      swap2\n      swap1\n      dup2\n      dup2\n      mstore\n      0x20\n      add\n      dup3\n      dup1\n      sload\n      tag_338\n      swap1\n      tag_110\n      jump\t// in\n    tag_338:\n      dup1\n      iszero\n      tag_339\n      jumpi\n      dup1\n      0x1f\n      lt\n      tag_340\n      jumpi\n      0x0100\n      dup1\n      dup4\n      sload\n      div\n      mul\n      dup4\n      mstore\n      swap2\n      0x20\n      add\n      swap2\n      jump(tag_339)\n    tag_340:\n      dup3\n      add\n      swap2\n      swap1\n      0x00\n      mstore\n      keccak256(0x00, 0x20)\n      swap1\n    tag_341:\n      dup2\n      sload\n      dup2\n      mstore\n      swap1\n      0x01\n      add\n      swap1\n      0x20\n      add\n      dup1\n      dup4\n      gt\n      tag_341\n      jumpi\n      dup3\n      swap1\n      sub\n      0x1f\n      and\n      dup3\n      add\n      swap2\n    tag_339:\n      pop\n      pop\n      pop\n      pop\n      pop\n      dup2\n      mstore\n      0x20\n      add\n      0x05\n      dup3\n      add\n      dup1\n      sload\n      tag_342\n      swap1\n      tag_110\n      jump\t// in\n    tag_342:\n      dup1\n      0x1f\n      add\n      0x20\n      dup1\n      swap2\n      div\n      mul\n      0x20\n      add\n      mload(0x40)\n      swap1\n      dup2\n      add\n      0x40\n      mstore\n      dup1\n      swap3\n      swap2\n      swap1\n      dup2\n      dup2\n      mstore\n      0x20\n      add\n      dup3\n      dup1\n      sload\n      tag_343\n      swap1\n      tag_110\n      jump\t// in\n    tag_343:\n      dup1\n      iszero\n      tag_344\n      jumpi\n      dup1\n      0x1f\n      lt\n      tag_345\n      jumpi\n      0x0100\n      dup1\n      dup4\n      sload\n      div\n      mul\n      dup4\n      mstore\n      swap2\n      0x20\n      add\n      swap2\n      jump(tag_344)\n    tag_345:\n      dup3\n      add\n      swap2\n      swap1\n      0x00\n      mstore\n      keccak256(0x00, 0x20)\n      swap1\n    tag_346:\n      dup2\n      sload\n      dup2\n      mstore\n      swap1\n      0x01\n      add\n      swap1\n      0x20\n      add\n      dup1\n      dup4\n      gt\n      tag_346\n      jumpi\n      dup3\n      swap1\n      sub\n      0x1f\n      and\n      dup3\n      add\n      swap2\n    tag_344:\n      pop\n      pop\n      pop\n      pop\n      pop\n      dup2\n      mstore\n      0x20\n      add\n      0x06\n      dup3\n      add\n      sload\n      dup2\n      mstore\n      0x20\n      add\n      0x07\n      dup3\n      add\n      sload\n      dup2\n      mstore\n      0x20\n      add\n      0x08\n      dup3\n      add\n      0x00\n      swap1\n      sload\n      swap1\n      0x0100\n      exp\n      swap1\n      div\n      0xffffffffffffffffffffffffffffffffffffffff\n      and\n      0xffffffffffffffffffffffffffffffffffffffff\n      and\n      0xffffffffffffffffffffffffffffffffffffffff\n      and\n      dup2\n      mstore\n      pop\n      pop\n      dup2\n      mstore\n      0x20\n      add\n      swap1\n      0x01\n      add\n      swap1\n      jump(tag_329)\n    tag_330:\n      pop\n      pop\n      pop\n      pop\n      swap1\n      pop\n        /* \"contracts/HealthAlertRegistry.sol\":8746:8907  function getClimateAlertsByCity(... */\n      swap3\n      swap2\n      pop\n      pop\n      jump\t// out\n        /* \"contracts/HealthAlertRegistry.sol\":4008:4392  function onReport(bytes calldata report) external {... */\n    tag_82:\n        /* \"contracts/HealthAlertRegistry.sol\":4082:4102  string memory source */\n      0x00\n        /* \"contracts/HealthAlertRegistry.sol\":4116:4136  string memory region */\n      0x00\n        /* \"contracts/HealthAlertRegistry.sol\":4150:4171  string memory disease */\n      0x00\n        /* \"contracts/HealthAlertRegistry.sol\":4185:4202  uint256 riskScore */\n      0x00\n        /* \"contracts/HealthAlertRegistry.sol\":4216:4237  string memory summary */\n      0x00\n        /* \"contracts/HealthAlertRegistry.sol\":4261:4267  report */\n      dup7\n      dup7\n        /* \"contracts/HealthAlertRegistry.sol\":4250:4311  abi.decode(report, (string, string, string, uint256, string)) */\n      dup2\n      add\n      swap1\n      tag_348\n      swap2\n      swap1\n      tag_36\n      jump\t// in\n    tag_348:\n        /* \"contracts/HealthAlertRegistry.sol\":4068:4311  (... */\n      swap5\n      pop\n      swap5\n      pop\n      swap5\n      pop\n      swap5\n      pop\n      swap5\n      pop\n        /* \"contracts/HealthAlertRegistry.sol\":4322:4385  _recordHealthAlert(source, region, disease, riskScore, summary) */\n      tag_349\n        /* \"contracts/HealthAlertRegistry.sol\":4341:4347  source */\n      dup6\n        /* \"contracts/HealthAlertRegistry.sol\":4349:4355  region */\n      dup6\n        /* \"contracts/HealthAlertRegistry.sol\":4357:4364  disease */\n      dup6\n        /* \"contracts/HealthAlertRegistry.sol\":4366:4375  riskScore */\n      dup6\n        /* \"contracts/HealthAlertRegistry.sol\":4377:4384  summary */\n      dup6\n        /* \"contracts/HealthAlertRegistry.sol\":4322:4340  _recordHealthAlert */\n      tag_134\n        /* \"contracts/HealthAlertRegistry.sol\":4322:4385  _recordHealthAlert(source, region, disease, riskScore, summary) */\n      jump\t// in\n    tag_349:\n        /* \"contracts/HealthAlertRegistry.sol\":4058:4392  {... */\n      pop\n      pop\n      pop\n      pop\n      pop\n        /* \"contracts/HealthAlertRegistry.sol\":4008:4392  function onReport(bytes calldata report) external {... */\n      pop\n      pop\n      jump\t// out\n        /* \"contracts/HealthAlertRegistry.sol\":1901:1936  ClimateAlert[] public climateAlerts */\n    tag_85:\n      0x01\n      dup2\n      dup2\n      sload\n      dup2\n      lt\n      tag_350\n      jumpi\n      0x00\n      dup1\n      revert\n    tag_350:\n      swap1\n      0x00\n      mstore\n      keccak256(0x00, 0x20)\n      swap1\n      0x09\n      mul\n      add\n      0x00\n      swap2\n      pop\n      swap1\n      pop\n      dup1\n      0x00\n      add\n      sload\n      swap1\n      dup1\n      0x01\n      add\n      dup1\n      sload\n      tag_352\n      swap1\n      tag_110\n      jump\t// in\n    tag_352:\n      dup1\n      0x1f\n      add\n      0x20\n      dup1\n      swap2\n      div\n      mul\n      0x20\n      add\n      mload(0x40)\n      swap1\n      dup2\n      add\n      0x40\n      mstore\n      dup1\n      swap3\n      swap2\n      swap1\n      dup2\n      dup2\n      mstore\n      0x20\n      add\n      dup3\n      dup1\n      sload\n      tag_353\n      swap1\n      tag_110\n      jump\t// in\n    tag_353:\n      dup1\n      iszero\n      tag_354\n      jumpi\n      dup1\n      0x1f\n      lt\n      tag_355\n      jumpi\n      0x0100\n      dup1\n      dup4\n      sload\n      div\n      mul\n      dup4\n      mstore\n      swap2\n      0x20\n      add\n      swap2\n      jump(tag_354)\n    tag_355:\n      dup3\n      add\n      swap2\n      swap1\n      0x00\n      mstore\n      keccak256(0x00, 0x20)\n      swap1\n    tag_356:\n      dup2\n      sload\n      dup2\n      mstore\n      swap1\n      0x01\n      add\n      swap1\n      0x20\n      add\n      dup1\n      dup4\n      gt\n      tag_356\n      jumpi\n      dup3\n      swap1\n      sub\n      0x1f\n      and\n      dup3\n      add\n      swap2\n    tag_354:\n      pop\n      pop\n      pop\n      pop\n      pop\n      swap1\n      dup1\n      0x02\n      add\n      sload\n      swap1\n      dup1\n      0x03\n      add\n      0x00\n      swap1\n      sload\n      swap1\n      0x0100\n      exp\n      swap1\n      div\n      0xff\n      and\n      swap1\n      dup1\n      0x03\n      add\n      0x01\n      swap1\n      sload\n      swap1\n      0x0100\n      exp\n      swap1\n      div\n      0xff\n      and\n      swap1\n      dup1\n      0x03\n      add\n      0x02\n      swap1\n      sload\n      swap1\n      0x0100\n      exp\n      swap1\n      div\n      0xff\n      and\n      swap1\n      dup1\n      0x04\n      add\n      dup1\n      sload\n      tag_357\n      swap1\n      tag_110\n      jump\t// in\n    tag_357:\n      dup1\n      0x1f\n      add\n      0x20\n      dup1\n      swap2\n      div\n      mul\n      0x20\n      add\n      mload(0x40)\n      swap1\n      dup2\n      add\n      0x40\n      mstore\n      dup1\n      swap3\n      swap2\n      swap1\n      dup2\n      dup2\n      mstore\n      0x20\n      add\n      dup3\n      dup1\n      sload\n      tag_358\n      swap1\n      tag_110\n      jump\t// in\n    tag_358:\n      dup1\n      iszero\n      tag_359\n      jumpi\n      dup1\n      0x1f\n      lt\n      tag_360\n      jumpi\n      0x0100\n      dup1\n      dup4\n      sload\n      div\n      mul\n      dup4\n      mstore\n      swap2\n      0x20\n      add\n      swap2\n      jump(tag_359)\n    tag_360:\n      dup3\n      add\n      swap2\n      swap1\n      0x00\n      mstore\n      keccak256(0x00, 0x20)\n      swap1\n    tag_361:\n      dup2\n      sload\n      dup2\n      mstore\n      swap1\n      0x01\n      add\n      swap1\n      0x20\n      add\n      dup1\n      dup4\n      gt\n      tag_361\n      jumpi\n      dup3\n      swap1\n      sub\n      0x1f\n      and\n      dup3\n      add\n      swap2\n    tag_359:\n      pop\n      pop\n      pop\n      pop\n      pop\n      swap1\n      dup1\n      0x05\n      add\n      dup1\n      sload\n      tag_362\n      swap1\n      tag_110\n      jump\t// in\n    tag_362:\n      dup1\n      0x1f\n      add\n      0x20\n      dup1\n      swap2\n      div\n      mul\n      0x20\n      add\n      mload(0x40)\n      swap1\n      dup2\n      add\n      0x40\n      mstore\n      dup1\n      swap3\n      swap2\n      swap1\n      dup2\n      dup2\n      mstore\n      0x20\n      add\n      dup3\n      dup1\n      sload\n      tag_363\n      swap1\n      tag_110\n      jump\t// in\n    tag_363:\n      dup1\n      iszero\n      tag_364\n      jumpi\n      dup1\n      0x1f\n      lt\n      tag_365\n      jumpi\n      0x0100\n      dup1\n      dup4\n      sload\n      div\n      mul\n      dup4\n      mstore\n      swap2\n      0x20\n      add\n      swap2\n      jump(tag_364)\n    tag_365:\n      dup3\n      add\n      swap2\n      swap1\n      0x00\n      mstore\n      keccak256(0x00, 0x20)\n      swap1\n    tag_366:\n      dup2\n      sload\n      dup2\n      mstore\n      swap1\n      0x01\n      add\n      swap1\n      0x20\n      add\n      dup1\n      dup4\n      gt\n      tag_366\n      jumpi\n      dup3\n      swap1\n      sub\n      0x1f\n      and\n      dup3\n      add\n      swap2\n    tag_364:\n      pop\n      pop\n      pop\n      pop\n      pop\n      swap1\n      dup1\n      0x06\n      add\n      sload\n      swap1\n      dup1\n      0x07\n      add\n      sload\n      swap1\n      dup1\n      0x08\n      add\n      0x00\n      swap1\n      sload\n      swap1\n      0x0100\n      exp\n      swap1\n      div\n      0xffffffffffffffffffffffffffffffffffffffff\n      and\n      swap1\n      pop\n      dup12\n      jump\t// out\n        /* \"contracts/HealthAlertRegistry.sol\":1862:1895  HealthAlert[] public healthAlerts */\n    tag_90:\n      0x00\n      dup2\n      dup2\n      sload\n      dup2\n      lt\n      tag_367\n      jumpi\n      0x00\n      dup1\n      revert\n    tag_367:\n      swap1\n      0x00\n      mstore\n      keccak256(0x00, 0x20)\n      swap1\n      0x06\n      mul\n      add\n      0x00\n      swap2\n      pop\n      swap1\n      pop\n      dup1\n      0x00\n      add\n      dup1\n      sload\n      tag_369\n      swap1\n      tag_110\n      jump\t// in\n    tag_369:\n      dup1\n      0x1f\n      add\n      0x20\n      dup1\n      swap2\n      div\n      mul\n      0x20\n      add\n      mload(0x40)\n      swap1\n      dup2\n      add\n      0x40\n      mstore\n      dup1\n      swap3\n      swap2\n      swap1\n      dup2\n      dup2\n      mstore\n      0x20\n      add\n      dup3\n      dup1\n      sload\n      tag_370\n      swap1\n      tag_110\n      jump\t// in\n    tag_370:\n      dup1\n      iszero\n      tag_371\n      jumpi\n      dup1\n      0x1f\n      lt\n      tag_372\n      jumpi\n      0x0100\n      dup1\n      dup4\n      sload\n      div\n      mul\n      dup4\n      mstore\n      swap2\n      0x20\n      add\n      swap2\n      jump(tag_371)\n    tag_372:\n      dup3\n      add\n      swap2\n      swap1\n      0x00\n      mstore\n      keccak256(0x00, 0x20)\n      swap1\n    tag_373:\n      dup2\n      sload\n      dup2\n      mstore\n      swap1\n      0x01\n      add\n      swap1\n      0x20\n      add\n      dup1\n      dup4\n      gt\n      tag_373\n      jumpi\n      dup3\n      swap1\n      sub\n      0x1f\n      and\n      dup3\n      add\n      swap2\n    tag_371:\n      pop\n      pop\n      pop\n      pop\n      pop\n      swap1\n      dup1\n      0x01\n      add\n      dup1\n      sload\n      tag_374\n      swap1\n      tag_110\n      jump\t// in\n    tag_374:\n      dup1\n      0x1f\n      add\n      0x20\n      dup1\n      swap2\n      div\n      mul\n      0x20\n      add\n      mload(0x40)\n      swap1\n      dup2\n      add\n      0x40\n      mstore\n      dup1\n      swap3\n      swap2\n      swap1\n      dup2\n      dup2\n      mstore\n      0x20\n      add\n      dup3\n      dup1\n      sload\n      tag_375\n      swap1\n      tag_110\n      jump\t// in\n    tag_375:\n      dup1\n      iszero\n      tag_376\n      jumpi\n      dup1\n      0x1f\n      lt\n      tag_377\n      jumpi\n      0x0100\n      dup1\n      dup4\n      sload\n      div\n      mul\n      dup4\n      mstore\n      swap2\n      0x20\n      add\n      swap2\n      jump(tag_376)\n    tag_377:\n      dup3\n      add\n      swap2\n      swap1\n      0x00\n      mstore\n      keccak256(0x00, 0x20)\n      swap1\n    tag_378:\n      dup2\n      sload\n      dup2\n      mstore\n      swap1\n      0x01\n      add\n      swap1\n      0x20\n      add\n      dup1\n      dup4\n      gt\n      tag_378\n      jumpi\n      dup3\n      swap1\n      sub\n      0x1f\n      and\n      dup3\n      add\n      swap2\n    tag_376:\n      pop\n      pop\n      pop\n      pop\n      pop\n      swap1\n      dup1\n      0x02\n      add\n      dup1\n      sload\n      tag_379\n      swap1\n      tag_110\n      jump\t// in\n    tag_379:\n      dup1\n      0x1f\n      add\n      0x20\n      dup1\n      swap2\n      div\n      mul\n      0x20\n      add\n      mload(0x40)\n      swap1\n      dup2\n      add\n      0x40\n      mstore\n      dup1\n      swap3\n      swap2\n      swap1\n      dup2\n      dup2\n      mstore\n      0x20\n      add\n      dup3\n      dup1\n      sload\n      tag_380\n      swap1\n      tag_110\n      jump\t// in\n    tag_380:\n      dup1\n      iszero\n      tag_381\n      jumpi\n      dup1\n      0x1f\n      lt\n      tag_382\n      jumpi\n      0x0100\n      dup1\n      dup4\n      sload\n      div\n      mul\n      dup4\n      mstore\n      swap2\n      0x20\n      add\n      swap2\n      jump(tag_381)\n    tag_382:\n      dup3\n      add\n      swap2\n      swap1\n      0x00\n      mstore\n      keccak256(0x00, 0x20)\n      swap1\n    tag_383:\n      dup2\n      sload\n      dup2\n      mstore\n      swap1\n      0x01\n      add\n      swap1\n      0x20\n      add\n      dup1\n      dup4\n      gt\n      tag_383\n      jumpi\n      dup3\n      swap1\n      sub\n      0x1f\n      and\n      dup3\n      add\n      swap2\n    tag_381:\n      pop\n      pop\n      pop\n      pop\n      pop\n      swap1\n      dup1\n      0x03\n      add\n      sload\n      swap1\n      dup1\n      0x04\n      add\n      dup1\n      sload\n      tag_384\n      swap1\n      tag_110\n      jump\t// in\n    tag_384:\n      dup1\n      0x1f\n      add\n      0x20\n      dup1\n      swap2\n      div\n      mul\n      0x20\n      add\n      mload(0x40)\n      swap1\n      dup2\n      add\n      0x40\n      mstore\n      dup1\n      swap3\n      swap2\n      swap1\n      dup2\n      dup2\n      mstore\n      0x20\n      add\n      dup3\n      dup1\n      sload\n      tag_385\n      swap1\n      tag_110\n      jump\t// in\n    tag_385:\n      dup1\n      iszero\n      tag_386\n      jumpi\n      dup1\n      0x1f\n      lt\n      tag_387\n      jumpi\n      0x0100\n      dup1\n      dup4\n      sload\n      div\n      mul\n      dup4\n      mstore\n      swap2\n      0x20\n      add\n      swap2\n      jump(tag_386)\n    tag_387:\n      dup3\n      add\n      swap2\n      swap1\n      0x00\n      mstore\n      keccak256(0x00, 0x20)\n      swap1\n    tag_388:\n      dup2\n      sload\n      dup2\n      mstore\n      swap1\n      0x01\n      add\n      swap1\n      0x20\n      add\n      dup1\n      dup4\n      gt\n      tag_388\n      jumpi\n      dup3\n      swap1\n      sub\n      0x1f\n      and\n      dup3\n      add\n      swap2\n    tag_386:\n      pop\n      pop\n      pop\n      pop\n      pop\n      swap1\n      dup1\n      0x05\n      add\n      sload\n      swap1\n      pop\n      dup7\n      jump\t// out\n        /* \"contracts/HealthAlertRegistry.sol\":8913:9101  function getEnvironmentalDecisionAlert(... */\n    tag_95:\n        /* \"contracts/HealthAlertRegistry.sol\":9006:9039  EnvironmentalDecisionAlert memory */\n      tag_389\n      tag_240\n      jump\t// in\n    tag_389:\n        /* \"contracts/HealthAlertRegistry.sol\":9058:9085  environmentalDecisionAlerts */\n      0x02\n        /* \"contracts/HealthAlertRegistry.sol\":9086:9093  alertId */\n      dup3\n        /* \"contracts/HealthAlertRegistry.sol\":9058:9094  environmentalDecisionAlerts[alertId] */\n      dup2\n      sload\n      dup2\n      lt\n      tag_391\n      jumpi\n      tag_392\n      tag_107\n      jump\t// in\n    tag_392:\n    tag_391:\n      swap1\n      0x00\n      mstore\n      keccak256(0x00, 0x20)\n      swap1\n      0x0a\n      mul\n      add\n        /* \"contracts/HealthAlertRegistry.sol\":9051:9094  return environmentalDecisionAlerts[alertId] */\n      mload(0x40)\n      dup1\n      0x0160\n      add\n      0x40\n      mstore\n      swap1\n      dup2\n      0x00\n      dup3\n      add\n      sload\n      dup2\n      mstore\n      0x20\n      add\n      0x01\n      dup3\n      add\n      dup1\n      sload\n      tag_394\n      swap1\n      tag_110\n      jump\t// in\n    tag_394:\n      dup1\n      0x1f\n      add\n      0x20\n      dup1\n      swap2\n      div\n      mul\n      0x20\n      add\n      mload(0x40)\n      swap1\n      dup2\n      add\n      0x40\n      mstore\n      dup1\n      swap3\n      swap2\n      swap1\n      dup2\n      dup2\n      mstore\n      0x20\n      add\n      dup3\n      dup1\n      sload\n      tag_395\n      swap1\n      tag_110\n      jump\t// in\n    tag_395:\n      dup1\n      iszero\n      tag_396\n      jumpi\n      dup1\n      0x1f\n      lt\n      tag_397\n      jumpi\n      0x0100\n      dup1\n      dup4\n      sload\n      div\n      mul\n      dup4\n      mstore\n      swap2\n      0x20\n      add\n      swap2\n      jump(tag_396)\n    tag_397:\n      dup3\n      add\n      swap2\n      swap1\n      0x00\n      mstore\n      keccak256(0x00, 0x20)\n      swap1\n    tag_398:\n      dup2\n      sload\n      dup2\n      mstore\n      swap1\n      0x01\n      add\n      swap1\n      0x20\n      add\n      dup1\n      dup4\n      gt\n      tag_398\n      jumpi\n      dup3\n      swap1\n      sub\n      0x1f\n      and\n      dup3\n      add\n      swap2\n    tag_396:\n      pop\n      pop\n      pop\n      pop\n      pop\n      dup2\n      mstore\n      0x20\n      add\n      0x02\n      dup3\n      add\n      dup1\n      sload\n      tag_399\n      swap1\n      tag_110\n      jump\t// in\n    tag_399:\n      dup1\n      0x1f\n      add\n      0x20\n      dup1\n      swap2\n      div\n      mul\n      0x20\n      add\n      mload(0x40)\n      swap1\n      dup2\n      add\n      0x40\n      mstore\n      dup1\n      swap3\n      swap2\n      swap1\n      dup2\n      dup2\n      mstore\n      0x20\n      add\n      dup3\n      dup1\n      sload\n      tag_400\n      swap1\n      tag_110\n      jump\t// in\n    tag_400:\n      dup1\n      iszero\n      tag_401\n      jumpi\n      dup1\n      0x1f\n      lt\n      tag_402\n      jumpi\n      0x0100\n      dup1\n      dup4\n      sload\n      div\n      mul\n      dup4\n      mstore\n      swap2\n      0x20\n      add\n      swap2\n      jump(tag_401)\n    tag_402:\n      dup3\n      add\n      swap2\n      swap1\n      0x00\n      mstore\n      keccak256(0x00, 0x20)\n      swap1\n    tag_403:\n      dup2\n      sload\n      dup2\n      mstore\n      swap1\n      0x01\n      add\n      swap1\n      0x20\n      add\n      dup1\n      dup4\n      gt\n      tag_403\n      jumpi\n      dup3\n      swap1\n      sub\n      0x1f\n      and\n      dup3\n      add\n      swap2\n    tag_401:\n      pop\n      pop\n      pop\n      pop\n      pop\n      dup2\n      mstore\n      0x20\n      add\n      0x03\n      dup3\n      add\n      dup1\n      sload\n      tag_404\n      swap1\n      tag_110\n      jump\t// in\n    tag_404:\n      dup1\n      0x1f\n      add\n      0x20\n      dup1\n      swap2\n      div\n      mul\n      0x20\n      add\n      mload(0x40)\n      swap1\n      dup2\n      add\n      0x40\n      mstore\n      dup1\n      swap3\n      swap2\n      swap1\n      dup2\n      dup2\n      mstore\n      0x20\n      add\n      dup3\n      dup1\n      sload\n      tag_405\n      swap1\n      tag_110\n      jump\t// in\n    tag_405:\n      dup1\n      iszero\n      tag_406\n      jumpi\n      dup1\n      0x1f\n      lt\n      tag_407\n      jumpi\n      0x0100\n      dup1\n      dup4\n      sload\n      div\n      mul\n      dup4\n      mstore\n      swap2\n      0x20\n      add\n      swap2\n      jump(tag_406)\n    tag_407:\n      dup3\n      add\n      swap2\n      swap1\n      0x00\n      mstore\n      keccak256(0x00, 0x20)\n      swap1\n    tag_408:\n      dup2\n      sload\n      dup2\n      mstore\n      swap1\n      0x01\n      add\n      swap1\n      0x20\n      add\n      dup1\n      dup4\n      gt\n      tag_408\n      jumpi\n      dup3\n      swap1\n      sub\n      0x1f\n      and\n      dup3\n      add\n      swap2\n    tag_406:\n      pop\n      pop\n      pop\n      pop\n      pop\n      dup2\n      mstore\n      0x20\n      add\n      0x04\n      dup3\n      add\n      sload\n      dup2\n      mstore\n      0x20\n      add\n      0x05\n      dup3\n      add\n      0x00\n      swap1\n      sload\n      swap1\n      0x0100\n      exp\n      swap1\n      div\n      0xff\n      and\n      0xff\n      and\n      0xff\n      and\n      dup2\n      mstore\n      0x20\n      add\n      0x05\n      dup3\n      add\n      0x01\n      swap1\n      sload\n      swap1\n      0x0100\n      exp\n      swap1\n      div\n      0xff\n      and\n      0xff\n      and\n      0xff\n      and\n      dup2\n      mstore\n      0x20\n      add\n      0x06\n      dup3\n      add\n      sload\n      dup2\n      mstore\n      0x20\n      add\n      0x07\n      dup3\n      add\n      dup1\n      sload\n      tag_409\n      swap1\n      tag_110\n      jump\t// in\n    tag_409:\n      dup1\n      0x1f\n      add\n      0x20\n      dup1\n      swap2\n      div\n      mul\n      0x20\n      add\n      mload(0x40)\n      swap1\n      dup2\n      add\n      0x40\n      mstore\n      dup1\n      swap3\n      swap2\n      swap1\n      dup2\n      dup2\n      mstore\n      0x20\n      add\n      dup3\n      dup1\n      sload\n      tag_410\n      swap1\n      tag_110\n      jump\t// in\n    tag_410:\n      dup1\n      iszero\n      tag_411\n      jumpi\n      dup1\n      0x1f\n      lt\n      tag_412\n      jumpi\n      0x0100\n      dup1\n      dup4\n      sload\n      div\n      mul\n      dup4\n      mstore\n      swap2\n      0x20\n      add\n      swap2\n      jump(tag_411)\n    tag_412:\n      dup3\n      add\n      swap2\n      swap1\n      0x00\n      mstore\n      keccak256(0x00, 0x20)\n      swap1\n    tag_413:\n      dup2\n      sload\n      dup2\n      mstore\n      swap1\n      0x01\n      add\n      swap1\n      0x20\n      add\n      dup1\n      dup4\n      gt\n      tag_413\n      jumpi\n      dup3\n      swap1\n      sub\n      0x1f\n      and\n      dup3\n      add\n      swap2\n    tag_411:\n      pop\n      pop\n      pop\n      pop\n      pop\n      dup2\n      mstore\n      0x20\n      add\n      0x08\n      dup3\n      add\n      sload\n      dup2\n      mstore\n      0x20\n      add\n      0x09\n      dup3\n      add\n      0x00\n      swap1\n      sload\n      swap1\n      0x0100\n      exp\n      swap1\n      div\n      0xffffffffffffffffffffffffffffffffffffffff\n      and\n      0xffffffffffffffffffffffffffffffffffffffff\n      and\n      0xffffffffffffffffffffffffffffffffffffffff\n      and\n      dup2\n      mstore\n      pop\n      pop\n      swap1\n      pop\n        /* \"contracts/HealthAlertRegistry.sol\":8913:9101  function getEnvironmentalDecisionAlert(... */\n      swap2\n      swap1\n      pop\n      jump\t// out\n        /* \"contracts/HealthAlertRegistry.sol\":9563:10587  function _recordHealthAlert(... */\n    tag_134:\n        /* \"contracts/HealthAlertRegistry.sol\":9786:9789  100 */\n      0x64\n        /* \"contracts/HealthAlertRegistry.sol\":9773:9782  riskScore */\n      dup3\n        /* \"contracts/HealthAlertRegistry.sol\":9773:9789  riskScore <= 100 */\n      gt\n      iszero\n        /* \"contracts/HealthAlertRegistry.sol\":9765:9819  require(riskScore <= 100, \"Risk score must be <= 100\") */\n      tag_415\n      jumpi\n      mload(0x40)\n      0x08c379a000000000000000000000000000000000000000000000000000000000\n      dup2\n      mstore\n      0x04\n      add\n      tag_416\n      swap1\n      tag_417\n      jump\t// in\n    tag_416:\n      mload(0x40)\n      dup1\n      swap2\n      sub\n      swap1\n      revert\n    tag_415:\n        /* \"contracts/HealthAlertRegistry.sol\":9860:9861  0 */\n      0x00\n        /* \"contracts/HealthAlertRegistry.sol\":9843:9849  source */\n      dup6\n        /* \"contracts/HealthAlertRegistry.sol\":9837:9857  bytes(source).length */\n      mload\n        /* \"contracts/HealthAlertRegistry.sol\":9837:9861  bytes(source).length > 0 */\n      gt\n        /* \"contracts/HealthAlertRegistry.sol\":9829:9881  require(bytes(source).length > 0, \"Source required\") */\n      tag_418\n      jumpi\n      mload(0x40)\n      0x08c379a000000000000000000000000000000000000000000000000000000000\n      dup2\n      mstore\n      0x04\n      add\n      tag_419\n      swap1\n      tag_138\n      jump\t// in\n    tag_419:\n      mload(0x40)\n      dup1\n      swap2\n      sub\n      swap1\n      revert\n    tag_418:\n        /* \"contracts/HealthAlertRegistry.sol\":9922:9923  0 */\n      0x00\n        /* \"contracts/HealthAlertRegistry.sol\":9905:9911  region */\n      dup5\n        /* \"contracts/HealthAlertRegistry.sol\":9899:9919  bytes(region).length */\n      mload\n        /* \"contracts/HealthAlertRegistry.sol\":9899:9923  bytes(region).length > 0 */\n      gt\n        /* \"contracts/HealthAlertRegistry.sol\":9891:9943  require(bytes(region).length > 0, \"Region required\") */\n      tag_420\n      jumpi\n      mload(0x40)\n      0x08c379a000000000000000000000000000000000000000000000000000000000\n      dup2\n      mstore\n      0x04\n      add\n      tag_421\n      swap1\n      tag_141\n      jump\t// in\n    tag_421:\n      mload(0x40)\n      dup1\n      swap2\n      sub\n      swap1\n      revert\n    tag_420:\n        /* \"contracts/HealthAlertRegistry.sol\":9985:9986  0 */\n      0x00\n        /* \"contracts/HealthAlertRegistry.sol\":9967:9974  disease */\n      dup4\n        /* \"contracts/HealthAlertRegistry.sol\":9961:9982  bytes(disease).length */\n      mload\n        /* \"contracts/HealthAlertRegistry.sol\":9961:9986  bytes(disease).length > 0 */\n      gt\n        /* \"contracts/HealthAlertRegistry.sol\":9953:10007  require(bytes(disease).length > 0, \"Disease required\") */\n      tag_422\n      jumpi\n      mload(0x40)\n      0x08c379a000000000000000000000000000000000000000000000000000000000\n      dup2\n      mstore\n      0x04\n      add\n      tag_423\n      swap1\n      tag_144\n      jump\t// in\n    tag_423:\n      mload(0x40)\n      dup1\n      swap2\n      sub\n      swap1\n      revert\n    tag_422:\n        /* \"contracts/HealthAlertRegistry.sol\":10049:10050  0 */\n      0x00\n        /* \"contracts/HealthAlertRegistry.sol\":10031:10038  summary */\n      dup2\n        /* \"contracts/HealthAlertRegistry.sol\":10025:10046  bytes(summary).length */\n      mload\n        /* \"contracts/HealthAlertRegistry.sol\":10025:10050  bytes(summary).length > 0 */\n      gt\n        /* \"contracts/HealthAlertRegistry.sol\":10017:10071  require(bytes(summary).length > 0, \"Summary required\") */\n      tag_424\n      jumpi\n      mload(0x40)\n      0x08c379a000000000000000000000000000000000000000000000000000000000\n      dup2\n      mstore\n      0x04\n      add\n      tag_425\n      swap1\n      tag_147\n      jump\t// in\n    tag_425:\n      mload(0x40)\n      dup1\n      swap2\n      sub\n      swap1\n      revert\n    tag_424:\n        /* \"contracts/HealthAlertRegistry.sol\":10082:10094  healthAlerts */\n      0x00\n        /* \"contracts/HealthAlertRegistry.sol\":10113:10354  HealthAlert({... */\n      mload(0x40)\n      dup1\n      0xc0\n      add\n      0x40\n      mstore\n      dup1\n        /* \"contracts/HealthAlertRegistry.sol\":10151:10157  source */\n      dup8\n        /* \"contracts/HealthAlertRegistry.sol\":10113:10354  HealthAlert({... */\n      dup2\n      mstore\n      0x20\n      add\n        /* \"contracts/HealthAlertRegistry.sol\":10183:10189  region */\n      dup7\n        /* \"contracts/HealthAlertRegistry.sol\":10113:10354  HealthAlert({... */\n      dup2\n      mstore\n      0x20\n      add\n        /* \"contracts/HealthAlertRegistry.sol\":10216:10223  disease */\n      dup6\n        /* \"contracts/HealthAlertRegistry.sol\":10113:10354  HealthAlert({... */\n      dup2\n      mstore\n      0x20\n      add\n        /* \"contracts/HealthAlertRegistry.sol\":10252:10261  riskScore */\n      dup5\n        /* \"contracts/HealthAlertRegistry.sol\":10113:10354  HealthAlert({... */\n      dup2\n      mstore\n      0x20\n      add\n        /* \"contracts/HealthAlertRegistry.sol\":10288:10295  summary */\n      dup4\n        /* \"contracts/HealthAlertRegistry.sol\":10113:10354  HealthAlert({... */\n      dup2\n      mstore\n      0x20\n      add\n        /* \"contracts/HealthAlertRegistry.sol\":10324:10339  block.timestamp */\n      timestamp\n        /* \"contracts/HealthAlertRegistry.sol\":10113:10354  HealthAlert({... */\n      dup2\n      mstore\n      pop\n        /* \"contracts/HealthAlertRegistry.sol\":10082:10364  healthAlerts.push(... */\n      swap1\n      dup1\n      0x01\n      dup2\n      sload\n      add\n      dup1\n      dup3\n      sstore\n      dup1\n      swap2\n      pop\n      pop\n      0x01\n      swap1\n      sub\n      swap1\n      0x00\n      mstore\n      keccak256(0x00, 0x20)\n      swap1\n      0x06\n      mul\n      add\n      0x00\n      swap1\n      swap2\n      swap1\n      swap2\n      swap1\n      swap2\n      pop\n      0x00\n      dup3\n      add\n      mload\n      dup2\n      0x00\n      add\n      swap1\n      dup2\n      tag_427\n      swap2\n      swap1\n      tag_164\n      jump\t// in\n    tag_427:\n      pop\n      0x20\n      dup3\n      add\n      mload\n      dup2\n      0x01\n      add\n      swap1\n      dup2\n      tag_428\n      swap2\n      swap1\n      tag_164\n      jump\t// in\n    tag_428:\n      pop\n      0x40\n      dup3\n      add\n      mload\n      dup2\n      0x02\n      add\n      swap1\n      dup2\n      tag_429\n      swap2\n      swap1\n      tag_164\n      jump\t// in\n    tag_429:\n      pop\n      0x60\n      dup3\n      add\n      mload\n      dup2\n      0x03\n      add\n      sstore\n      0x80\n      dup3\n      add\n      mload\n      dup2\n      0x04\n      add\n      swap1\n      dup2\n      tag_430\n      swap2\n      swap1\n      tag_164\n      jump\t// in\n    tag_430:\n      pop\n      0xa0\n      dup3\n      add\n      mload\n      dup2\n      0x05\n      add\n      sstore\n      pop\n      pop\n        /* \"contracts/HealthAlertRegistry.sol\":10435:10436  1 */\n      0x01\n        /* \"contracts/HealthAlertRegistry.sol\":10413:10425  healthAlerts */\n      0x00\n        /* \"contracts/HealthAlertRegistry.sol\":10413:10432  healthAlerts.length */\n      dup1\n      sload\n      swap1\n      pop\n        /* \"contracts/HealthAlertRegistry.sol\":10413:10436  healthAlerts.length - 1 */\n      tag_431\n      swap2\n      swap1\n      tag_104\n      jump\t// in\n    tag_431:\n        /* \"contracts/HealthAlertRegistry.sol\":10380:10580  HealthAlertRecorded(... */\n      0x20828bb056472a50a96cc7ad0162a0828de2db4f012592ac44ff650110dc9a6f\n        /* \"contracts/HealthAlertRegistry.sol\":10450:10456  source */\n      dup7\n        /* \"contracts/HealthAlertRegistry.sol\":10470:10476  region */\n      dup7\n        /* \"contracts/HealthAlertRegistry.sol\":10490:10497  disease */\n      dup7\n        /* \"contracts/HealthAlertRegistry.sol\":10511:10520  riskScore */\n      dup7\n        /* \"contracts/HealthAlertRegistry.sol\":10534:10541  summary */\n      dup7\n        /* \"contracts/HealthAlertRegistry.sol\":10555:10570  block.timestamp */\n      timestamp\n        /* \"contracts/HealthAlertRegistry.sol\":10380:10580  HealthAlertRecorded(... */\n      mload(0x40)\n      tag_432\n      swap7\n      swap6\n      swap5\n      swap4\n      swap3\n      swap2\n      swap1\n      tag_92\n      jump\t// in\n    tag_432:\n      mload(0x40)\n      dup1\n      swap2\n      sub\n      swap1\n      log2\n        /* \"contracts/HealthAlertRegistry.sol\":9563:10587  function _recordHealthAlert(... */\n      pop\n      pop\n      pop\n      pop\n      pop\n      jump\t// out\n    tag_98:\n      mload(0x40)\n      dup1\n      0xc0\n      add\n      0x40\n      mstore\n      dup1\n      0x60\n      dup2\n      mstore\n      0x20\n      add\n      0x60\n      dup2\n      mstore\n      0x20\n      add\n      0x60\n      dup2\n      mstore\n      0x20\n      add\n      0x00\n      dup2\n      mstore\n      0x20\n      add\n      0x60\n      dup2\n      mstore\n      0x20\n      add\n      0x00\n      dup2\n      mstore\n      pop\n      swap1\n      jump\t// out\n    tag_194:\n      mload(0x40)\n      dup1\n      0x0160\n      add\n      0x40\n      mstore\n      dup1\n      0x00\n      dup2\n      mstore\n      0x20\n      add\n      0x60\n      dup2\n      mstore\n      0x20\n      add\n      0x00\n      dup2\n      mstore\n      0x20\n      add\n      and(0xff, 0x00)\n      dup2\n      mstore\n      0x20\n      add\n      and(0xff, 0x00)\n      dup2\n      mstore\n      0x20\n      add\n      and(0xff, 0x00)\n      dup2\n      mstore\n      0x20\n      add\n      0x60\n      dup2\n      mstore\n      0x20\n      add\n      0x60\n      dup2\n      mstore\n      0x20\n      add\n      0x00\n      dup2\n      mstore\n      0x20\n      add\n      0x00\n      dup2\n      mstore\n      0x20\n      add\n      and(0xffffffffffffffffffffffffffffffffffffffff, 0x00)\n      dup2\n      mstore\n      pop\n      swap1\n      jump\t// out\n    tag_240:\n      mload(0x40)\n      dup1\n      0x0160\n      add\n      0x40\n      mstore\n      dup1\n      0x00\n      dup2\n      mstore\n      0x20\n      add\n      0x60\n      dup2\n      mstore\n      0x20\n      add\n      0x60\n      dup2\n      mstore\n      0x20\n      add\n      0x60\n      dup2\n      mstore\n      0x20\n      add\n      0x00\n      dup2\n      mstore\n      0x20\n      add\n      and(0xff, 0x00)\n      dup2\n      mstore\n      0x20\n      add\n      and(0xff, 0x00)\n      dup2\n      mstore\n      0x20\n      add\n      0x00\n      dup2\n      mstore\n      0x20\n      add\n      0x60\n      dup2\n      mstore\n      0x20\n      add\n      0x00\n      dup2\n      mstore\n      0x20\n      add\n      and(0xffffffffffffffffffffffffffffffffffffffff, 0x00)\n      dup2\n      mstore\n      pop\n      swap1\n      jump\t// out\n        /* \"#utility.yul\":7:106   */\n    tag_433:\n        /* \"#utility.yul\":59:65   */\n      0x00\n        /* \"#utility.yul\":93:98   */\n      dup2\n        /* \"#utility.yul\":87:99   */\n      mload\n        /* \"#utility.yul\":77:99   */\n      swap1\n      pop\n        /* \"#utility.yul\":7:106   */\n      swap2\n      swap1\n      pop\n      jump\t// out\n        /* \"#utility.yul\":112:271   */\n    tag_434:\n        /* \"#utility.yul\":186:197   */\n      0x00\n        /* \"#utility.yul\":220:226   */\n      dup3\n        /* \"#utility.yul\":215:218   */\n      dup3\n        /* \"#utility.yul\":208:227   */\n      mstore\n        /* \"#utility.yul\":260:264   */\n      0x20\n        /* \"#utility.yul\":255:258   */\n      dup3\n        /* \"#utility.yul\":251:265   */\n      add\n        /* \"#utility.yul\":236:265   */\n      swap1\n      pop\n        /* \"#utility.yul\":112:271   */\n      swap3\n      swap2\n      pop\n      pop\n      jump\t// out\n        /* \"#utility.yul\":277:416   */\n    tag_435:\n        /* \"#utility.yul\":366:372   */\n      dup3\n        /* \"#utility.yul\":361:364   */\n      dup2\n        /* \"#utility.yul\":356:359   */\n      dup4\n        /* \"#utility.yul\":350:373   */\n      mcopy\n        /* \"#utility.yul\":407:408   */\n      0x00\n        /* \"#utility.yul\":398:404   */\n      dup4\n        /* \"#utility.yul\":393:396   */\n      dup4\n        /* \"#utility.yul\":389:405   */\n      add\n        /* \"#utility.yul\":382:409   */\n      mstore\n        /* \"#utility.yul\":277:416   */\n      pop\n      pop\n      pop\n      jump\t// out\n        /* \"#utility.yul\":422:524   */\n    tag_436:\n        /* \"#utility.yul\":463:469   */\n      0x00\n        /* \"#utility.yul\":514:516   */\n      0x1f\n        /* \"#utility.yul\":510:517   */\n      not\n        /* \"#utility.yul\":505:507   */\n      0x1f\n        /* \"#utility.yul\":498:503   */\n      dup4\n        /* \"#utility.yul\":494:508   */\n      add\n        /* \"#utility.yul\":490:518   */\n      and\n        /* \"#utility.yul\":480:518   */\n      swap1\n      pop\n        /* \"#utility.yul\":422:524   */\n      swap2\n      swap1\n      pop\n      jump\t// out\n        /* \"#utility.yul\":530:887   */\n    tag_437:\n        /* \"#utility.yul\":608:611   */\n      0x00\n        /* \"#utility.yul\":636:675   */\n      tag_552\n        /* \"#utility.yul\":669:674   */\n      dup3\n        /* \"#utility.yul\":636:675   */\n      tag_433\n      jump\t// in\n    tag_552:\n        /* \"#utility.yul\":691:752   */\n      tag_553\n        /* \"#utility.yul\":745:751   */\n      dup2\n        /* \"#utility.yul\":740:743   */\n      dup6\n        /* \"#utility.yul\":691:752   */\n      tag_434\n      jump\t// in\n    tag_553:\n        /* \"#utility.yul\":684:752   */\n      swap4\n      pop\n        /* \"#utility.yul\":761:826   */\n      tag_554\n        /* \"#utility.yul\":819:825   */\n      dup2\n        /* \"#utility.yul\":814:817   */\n      dup6\n        /* \"#utility.yul\":807:811   */\n      0x20\n        /* \"#utility.yul\":800:805   */\n      dup7\n        /* \"#utility.yul\":796:812   */\n      add\n        /* \"#utility.yul\":761:826   */\n      tag_435\n      jump\t// in\n    tag_554:\n        /* \"#utility.yul\":851:880   */\n      tag_555\n        /* \"#utility.yul\":873:879   */\n      dup2\n        /* \"#utility.yul\":851:880   */\n      tag_436\n      jump\t// in\n    tag_555:\n        /* \"#utility.yul\":846:849   */\n      dup5\n        /* \"#utility.yul\":842:881   */\n      add\n        /* \"#utility.yul\":835:881   */\n      swap2\n      pop\n        /* \"#utility.yul\":612:887   */\n      pop\n        /* \"#utility.yul\":530:887   */\n      swap3\n      swap2\n      pop\n      pop\n      jump\t// out\n        /* \"#utility.yul\":893:970   */\n    tag_438:\n        /* \"#utility.yul\":930:937   */\n      0x00\n        /* \"#utility.yul\":959:964   */\n      dup2\n        /* \"#utility.yul\":948:964   */\n      swap1\n      pop\n        /* \"#utility.yul\":893:970   */\n      swap2\n      swap1\n      pop\n      jump\t// out\n        /* \"#utility.yul\":976:1084   */\n    tag_439:\n        /* \"#utility.yul\":1053:1077   */\n      tag_558\n        /* \"#utility.yul\":1071:1076   */\n      dup2\n        /* \"#utility.yul\":1053:1077   */\n      tag_438\n      jump\t// in\n    tag_558:\n        /* \"#utility.yul\":1048:1051   */\n      dup3\n        /* \"#utility.yul\":1041:1078   */\n      mstore\n        /* \"#utility.yul\":976:1084   */\n      pop\n      pop\n      jump\t// out\n        /* \"#utility.yul\":1178:2717   */\n    tag_440:\n        /* \"#utility.yul\":1301:1304   */\n      0x00\n        /* \"#utility.yul\":1337:1341   */\n      0xc0\n        /* \"#utility.yul\":1332:1335   */\n      dup4\n        /* \"#utility.yul\":1328:1342   */\n      add\n        /* \"#utility.yul\":1426:1430   */\n      0x00\n        /* \"#utility.yul\":1419:1424   */\n      dup4\n        /* \"#utility.yul\":1415:1431   */\n      add\n        /* \"#utility.yul\":1409:1432   */\n      mload\n        /* \"#utility.yul\":1479:1482   */\n      dup5\n        /* \"#utility.yul\":1473:1477   */\n      dup3\n        /* \"#utility.yul\":1469:1483   */\n      sub\n        /* \"#utility.yul\":1462:1466   */\n      0x00\n        /* \"#utility.yul\":1457:1460   */\n      dup7\n        /* \"#utility.yul\":1453:1467   */\n      add\n        /* \"#utility.yul\":1446:1484   */\n      mstore\n        /* \"#utility.yul\":1505:1578   */\n      tag_560\n        /* \"#utility.yul\":1573:1577   */\n      dup3\n        /* \"#utility.yul\":1559:1571   */\n      dup3\n        /* \"#utility.yul\":1505:1578   */\n      tag_437\n      jump\t// in\n    tag_560:\n        /* \"#utility.yul\":1497:1578   */\n      swap2\n      pop\n        /* \"#utility.yul\":1352:1589   */\n      pop\n        /* \"#utility.yul\":1673:1677   */\n      0x20\n        /* \"#utility.yul\":1666:1671   */\n      dup4\n        /* \"#utility.yul\":1662:1678   */\n      add\n        /* \"#utility.yul\":1656:1679   */\n      mload\n        /* \"#utility.yul\":1726:1729   */\n      dup5\n        /* \"#utility.yul\":1720:1724   */\n      dup3\n        /* \"#utility.yul\":1716:1730   */\n      sub\n        /* \"#utility.yul\":1709:1713   */\n      0x20\n        /* \"#utility.yul\":1704:1707   */\n      dup7\n        /* \"#utility.yul\":1700:1714   */\n      add\n        /* \"#utility.yul\":1693:1731   */\n      mstore\n        /* \"#utility.yul\":1752:1825   */\n      tag_561\n        /* \"#utility.yul\":1820:1824   */\n      dup3\n        /* \"#utility.yul\":1806:1818   */\n      dup3\n        /* \"#utility.yul\":1752:1825   */\n      tag_437\n      jump\t// in\n    tag_561:\n        /* \"#utility.yul\":1744:1825   */\n      swap2\n      pop\n        /* \"#utility.yul\":1599:1836   */\n      pop\n        /* \"#utility.yul\":1921:1925   */\n      0x40\n        /* \"#utility.yul\":1914:1919   */\n      dup4\n        /* \"#utility.yul\":1910:1926   */\n      add\n        /* \"#utility.yul\":1904:1927   */\n      mload\n        /* \"#utility.yul\":1974:1977   */\n      dup5\n        /* \"#utility.yul\":1968:1972   */\n      dup3\n        /* \"#utility.yul\":1964:1978   */\n      sub\n        /* \"#utility.yul\":1957:1961   */\n      0x40\n        /* \"#utility.yul\":1952:1955   */\n      dup7\n        /* \"#utility.yul\":1948:1962   */\n      add\n        /* \"#utility.yul\":1941:1979   */\n      mstore\n        /* \"#utility.yul\":2000:2073   */\n      tag_562\n        /* \"#utility.yul\":2068:2072   */\n      dup3\n        /* \"#utility.yul\":2054:2066   */\n      dup3\n        /* \"#utility.yul\":2000:2073   */\n      tag_437\n      jump\t// in\n    tag_562:\n        /* \"#utility.yul\":1992:2073   */\n      swap2\n      pop\n        /* \"#utility.yul\":1846:2084   */\n      pop\n        /* \"#utility.yul\":2171:2175   */\n      0x60\n        /* \"#utility.yul\":2164:2169   */\n      dup4\n        /* \"#utility.yul\":2160:2176   */\n      add\n        /* \"#utility.yul\":2154:2177   */\n      mload\n        /* \"#utility.yul\":2190:2253   */\n      tag_563\n        /* \"#utility.yul\":2247:2251   */\n      0x60\n        /* \"#utility.yul\":2242:2245   */\n      dup7\n        /* \"#utility.yul\":2238:2252   */\n      add\n        /* \"#utility.yul\":2224:2236   */\n      dup3\n        /* \"#utility.yul\":2190:2253   */\n      tag_439\n      jump\t// in\n    tag_563:\n        /* \"#utility.yul\":2094:2263   */\n      pop\n        /* \"#utility.yul\":2348:2352   */\n      0x80\n        /* \"#utility.yul\":2341:2346   */\n      dup4\n        /* \"#utility.yul\":2337:2353   */\n      add\n        /* \"#utility.yul\":2331:2354   */\n      mload\n        /* \"#utility.yul\":2401:2404   */\n      dup5\n        /* \"#utility.yul\":2395:2399   */\n      dup3\n        /* \"#utility.yul\":2391:2405   */\n      sub\n        /* \"#utility.yul\":2384:2388   */\n      0x80\n        /* \"#utility.yul\":2379:2382   */\n      dup7\n        /* \"#utility.yul\":2375:2389   */\n      add\n        /* \"#utility.yul\":2368:2406   */\n      mstore\n        /* \"#utility.yul\":2427:2500   */\n      tag_564\n        /* \"#utility.yul\":2495:2499   */\n      dup3\n        /* \"#utility.yul\":2481:2493   */\n      dup3\n        /* \"#utility.yul\":2427:2500   */\n      tag_437\n      jump\t// in\n    tag_564:\n        /* \"#utility.yul\":2419:2500   */\n      swap2\n      pop\n        /* \"#utility.yul\":2273:2511   */\n      pop\n        /* \"#utility.yul\":2598:2602   */\n      0xa0\n        /* \"#utility.yul\":2591:2596   */\n      dup4\n        /* \"#utility.yul\":2587:2603   */\n      add\n        /* \"#utility.yul\":2581:2604   */\n      mload\n        /* \"#utility.yul\":2617:2680   */\n      tag_565\n        /* \"#utility.yul\":2674:2678   */\n      0xa0\n        /* \"#utility.yul\":2669:2672   */\n      dup7\n        /* \"#utility.yul\":2665:2679   */\n      add\n        /* \"#utility.yul\":2651:2663   */\n      dup3\n        /* \"#utility.yul\":2617:2680   */\n      tag_439\n      jump\t// in\n    tag_565:\n        /* \"#utility.yul\":2521:2690   */\n      pop\n        /* \"#utility.yul\":2707:2711   */\n      dup1\n        /* \"#utility.yul\":2700:2711   */\n      swap2\n      pop\n        /* \"#utility.yul\":1306:2717   */\n      pop\n        /* \"#utility.yul\":1178:2717   */\n      swap3\n      swap2\n      pop\n      pop\n      jump\t// out\n        /* \"#utility.yul\":2723:3104   */\n    tag_26:\n        /* \"#utility.yul\":2870:2874   */\n      0x00\n        /* \"#utility.yul\":2908:2910   */\n      0x20\n        /* \"#utility.yul\":2897:2906   */\n      dup3\n        /* \"#utility.yul\":2893:2911   */\n      add\n        /* \"#utility.yul\":2885:2911   */\n      swap1\n      pop\n        /* \"#utility.yul\":2957:2966   */\n      dup2\n        /* \"#utility.yul\":2951:2955   */\n      dup2\n        /* \"#utility.yul\":2947:2967   */\n      sub\n        /* \"#utility.yul\":2943:2944   */\n      0x00\n        /* \"#utility.yul\":2932:2941   */\n      dup4\n        /* \"#utility.yul\":2928:2945   */\n      add\n        /* \"#utility.yul\":2921:2968   */\n      mstore\n        /* \"#utility.yul\":2985:3097   */\n      tag_567\n        /* \"#utility.yul\":3092:3096   */\n      dup2\n        /* \"#utility.yul\":3083:3089   */\n      dup5\n        /* \"#utility.yul\":2985:3097   */\n      tag_440\n      jump\t// in\n    tag_567:\n        /* \"#utility.yul\":2977:3097   */\n      swap1\n      pop\n        /* \"#utility.yul\":2723:3104   */\n      swap3\n      swap2\n      pop\n      pop\n      jump\t// out\n        /* \"#utility.yul\":3110:3228   */\n    tag_441:\n        /* \"#utility.yul\":3197:3221   */\n      tag_569\n        /* \"#utility.yul\":3215:3220   */\n      dup2\n        /* \"#utility.yul\":3197:3221   */\n      tag_438\n      jump\t// in\n    tag_569:\n        /* \"#utility.yul\":3192:3195   */\n      dup3\n        /* \"#utility.yul\":3185:3222   */\n      mstore\n        /* \"#utility.yul\":3110:3228   */\n      pop\n      pop\n      jump\t// out\n        /* \"#utility.yul\":3234:3456   */\n    tag_30:\n        /* \"#utility.yul\":3327:3331   */\n      0x00\n        /* \"#utility.yul\":3365:3367   */\n      0x20\n        /* \"#utility.yul\":3354:3363   */\n      dup3\n        /* \"#utility.yul\":3350:3368   */\n      add\n        /* \"#utility.yul\":3342:3368   */\n      swap1\n      pop\n        /* \"#utility.yul\":3378:3449   */\n      tag_571\n        /* \"#utility.yul\":3446:3447   */\n      0x00\n        /* \"#utility.yul\":3435:3444   */\n      dup4\n        /* \"#utility.yul\":3431:3448   */\n      add\n        /* \"#utility.yul\":3422:3428   */\n      dup5\n        /* \"#utility.yul\":3378:3449   */\n      tag_441\n      jump\t// in\n    tag_571:\n        /* \"#utility.yul\":3234:3456   */\n      swap3\n      swap2\n      pop\n      pop\n      jump\t// out\n        /* \"#utility.yul\":3462:3537   */\n    tag_442:\n        /* \"#utility.yul\":3495:3501   */\n      0x00\n        /* \"#utility.yul\":3528:3530   */\n      0x40\n        /* \"#utility.yul\":3522:3531   */\n      mload\n        /* \"#utility.yul\":3512:3531   */\n      swap1\n      pop\n        /* \"#utility.yul\":3462:3537   */\n      swap1\n      jump\t// out\n        /* \"#utility.yul\":3543:3660   */\n    tag_443:\n        /* \"#utility.yul\":3652:3653   */\n      0x00\n        /* \"#utility.yul\":3649:3650   */\n      0x00\n        /* \"#utility.yul\":3642:3654   */\n      revert\n        /* \"#utility.yul\":3666:3783   */\n    tag_444:\n        /* \"#utility.yul\":3775:3776   */\n      0x00\n        /* \"#utility.yul\":3772:3773   */\n      0x00\n        /* \"#utility.yul\":3765:3777   */\n      revert\n        /* \"#utility.yul\":3789:3906   */\n    tag_445:\n        /* \"#utility.yul\":3898:3899   */\n      0x00\n        /* \"#utility.yul\":3895:3896   */\n      0x00\n        /* \"#utility.yul\":3888:3900   */\n      revert\n        /* \"#utility.yul\":3912:4029   */\n    tag_446:\n        /* \"#utility.yul\":4021:4022   */\n      0x00\n        /* \"#utility.yul\":4018:4019   */\n      0x00\n        /* \"#utility.yul\":4011:4023   */\n      revert\n        /* \"#utility.yul\":4035:4215   */\n    tag_447:\n        /* \"#utility.yul\":4083:4160   */\n      0x4e487b7100000000000000000000000000000000000000000000000000000000\n        /* \"#utility.yul\":4080:4081   */\n      0x00\n        /* \"#utility.yul\":4073:4161   */\n      mstore\n        /* \"#utility.yul\":4180:4184   */\n      0x41\n        /* \"#utility.yul\":4177:4178   */\n      0x04\n        /* \"#utility.yul\":4170:4185   */\n      mstore\n        /* \"#utility.yul\":4204:4208   */\n      0x24\n        /* \"#utility.yul\":4201:4202   */\n      0x00\n        /* \"#utility.yul\":4194:4209   */\n      revert\n        /* \"#utility.yul\":4221:4502   */\n    tag_448:\n        /* \"#utility.yul\":4304:4331   */\n      tag_579\n        /* \"#utility.yul\":4326:4330   */\n      dup3\n        /* \"#utility.yul\":4304:4331   */\n      tag_436\n      jump\t// in\n    tag_579:\n        /* \"#utility.yul\":4296:4302   */\n      dup2\n        /* \"#utility.yul\":4292:4332   */\n      add\n        /* \"#utility.yul\":4434:4440   */\n      dup2\n        /* \"#utility.yul\":4422:4432   */\n      dup2\n        /* \"#utility.yul\":4419:4441   */\n      lt\n        /* \"#utility.yul\":4398:4416   */\n      0xffffffffffffffff\n        /* \"#utility.yul\":4386:4396   */\n      dup3\n        /* \"#utility.yul\":4383:4417   */\n      gt\n        /* \"#utility.yul\":4380:4442   */\n      or\n        /* \"#utility.yul\":4377:4465   */\n      iszero\n      tag_580\n      jumpi\n        /* \"#utility.yul\":4445:4463   */\n      tag_581\n      tag_447\n      jump\t// in\n    tag_581:\n        /* \"#utility.yul\":4377:4465   */\n    tag_580:\n        /* \"#utility.yul\":4485:4495   */\n      dup1\n        /* \"#utility.yul\":4481:4483   */\n      0x40\n        /* \"#utility.yul\":4474:4496   */\n      mstore\n        /* \"#utility.yul\":4264:4502   */\n      pop\n        /* \"#utility.yul\":4221:4502   */\n      pop\n      pop\n      jump\t// out\n        /* \"#utility.yul\":4508:4637   */\n    tag_449:\n        /* \"#utility.yul\":4542:4548   */\n      0x00\n        /* \"#utility.yul\":4569:4589   */\n      tag_583\n      tag_442\n      jump\t// in\n    tag_583:\n        /* \"#utility.yul\":4559:4589   */\n      swap1\n      pop\n        /* \"#utility.yul\":4598:4631   */\n      tag_584\n        /* \"#utility.yul\":4626:4630   */\n      dup3\n        /* \"#utility.yul\":4618:4624   */\n      dup3\n        /* \"#utility.yul\":4598:4631   */\n      tag_448\n      jump\t// in\n    tag_584:\n        /* \"#utility.yul\":4508:4637   */\n      swap2\n      swap1\n      pop\n      jump\t// out\n        /* \"#utility.yul\":4643:4951   */\n    tag_450:\n        /* \"#utility.yul\":4705:4709   */\n      0x00\n        /* \"#utility.yul\":4795:4813   */\n      0xffffffffffffffff\n        /* \"#utility.yul\":4787:4793   */\n      dup3\n        /* \"#utility.yul\":4784:4814   */\n      gt\n        /* \"#utility.yul\":4781:4837   */\n      iszero\n      tag_586\n      jumpi\n        /* \"#utility.yul\":4817:4835   */\n      tag_587\n      tag_447\n      jump\t// in\n    tag_587:\n        /* \"#utility.yul\":4781:4837   */\n    tag_586:\n        /* \"#utility.yul\":4855:4884   */\n      tag_588\n        /* \"#utility.yul\":4877:4883   */\n      dup3\n        /* \"#utility.yul\":4855:4884   */\n      tag_436\n      jump\t// in\n    tag_588:\n        /* \"#utility.yul\":4847:4884   */\n      swap1\n      pop\n        /* \"#utility.yul\":4939:4943   */\n      0x20\n        /* \"#utility.yul\":4933:4937   */\n      dup2\n        /* \"#utility.yul\":4929:4944   */\n      add\n        /* \"#utility.yul\":4921:4944   */\n      swap1\n      pop\n        /* \"#utility.yul\":4643:4951   */\n      swap2\n      swap1\n      pop\n      jump\t// out\n        /* \"#utility.yul\":4957:5105   */\n    tag_451:\n        /* \"#utility.yul\":5055:5061   */\n      dup3\n        /* \"#utility.yul\":5050:5053   */\n      dup2\n        /* \"#utility.yul\":5045:5048   */\n      dup4\n        /* \"#utility.yul\":5032:5062   */\n      calldatacopy\n        /* \"#utility.yul\":5096:5097   */\n      0x00\n        /* \"#utility.yul\":5087:5093   */\n      dup4\n        /* \"#utility.yul\":5082:5085   */\n      dup4\n        /* \"#utility.yul\":5078:5094   */\n      add\n        /* \"#utility.yul\":5071:5098   */\n      mstore\n        /* \"#utility.yul\":4957:5105   */\n      pop\n      pop\n      pop\n      jump\t// out\n        /* \"#utility.yul\":5111:5536   */\n    tag_452:\n        /* \"#utility.yul\":5189:5194   */\n      0x00\n        /* \"#utility.yul\":5214:5280   */\n      tag_591\n        /* \"#utility.yul\":5230:5279   */\n      tag_592\n        /* \"#utility.yul\":5272:5278   */\n      dup5\n        /* \"#utility.yul\":5230:5279   */\n      tag_450\n      jump\t// in\n    tag_592:\n        /* \"#utility.yul\":5214:5280   */\n      tag_449\n      jump\t// in\n    tag_591:\n        /* \"#utility.yul\":5205:5280   */\n      swap1\n      pop\n        /* \"#utility.yul\":5303:5309   */\n      dup3\n        /* \"#utility.yul\":5296:5301   */\n      dup2\n        /* \"#utility.yul\":5289:5310   */\n      mstore\n        /* \"#utility.yul\":5341:5345   */\n      0x20\n        /* \"#utility.yul\":5334:5339   */\n      dup2\n        /* \"#utility.yul\":5330:5346   */\n      add\n        /* \"#utility.yul\":5379:5382   */\n      dup5\n        /* \"#utility.yul\":5370:5376   */\n      dup5\n        /* \"#utility.yul\":5365:5368   */\n      dup5\n        /* \"#utility.yul\":5361:5377   */\n      add\n        /* \"#utility.yul\":5358:5383   */\n      gt\n        /* \"#utility.yul\":5355:5467   */\n      iszero\n      tag_593\n      jumpi\n        /* \"#utility.yul\":5386:5465   */\n      tag_594\n      tag_446\n      jump\t// in\n    tag_594:\n        /* \"#utility.yul\":5355:5467   */\n    tag_593:\n        /* \"#utility.yul\":5476:5530   */\n      tag_595\n        /* \"#utility.yul\":5523:5529   */\n      dup5\n        /* \"#utility.yul\":5518:5521   */\n      dup3\n        /* \"#utility.yul\":5513:5516   */\n      dup6\n        /* \"#utility.yul\":5476:5530   */\n      tag_451\n      jump\t// in\n    tag_595:\n        /* \"#utility.yul\":5195:5536   */\n      pop\n        /* \"#utility.yul\":5111:5536   */\n      swap4\n      swap3\n      pop\n      pop\n      pop\n      jump\t// out\n        /* \"#utility.yul\":5556:5896   */\n    tag_453:\n        /* \"#utility.yul\":5612:5617   */\n      0x00\n        /* \"#utility.yul\":5661:5664   */\n      dup3\n        /* \"#utility.yul\":5654:5658   */\n      0x1f\n        /* \"#utility.yul\":5646:5652   */\n      dup4\n        /* \"#utility.yul\":5642:5659   */\n      add\n        /* \"#utility.yul\":5638:5665   */\n      slt\n        /* \"#utility.yul\":5628:5750   */\n      tag_597\n      jumpi\n        /* \"#utility.yul\":5669:5748   */\n      tag_598\n      tag_445\n      jump\t// in\n    tag_598:\n        /* \"#utility.yul\":5628:5750   */\n    tag_597:\n        /* \"#utility.yul\":5786:5792   */\n      dup2\n        /* \"#utility.yul\":5773:5793   */\n      calldataload\n        /* \"#utility.yul\":5811:5890   */\n      tag_599\n        /* \"#utility.yul\":5886:5889   */\n      dup5\n        /* \"#utility.yul\":5878:5884   */\n      dup3\n        /* \"#utility.yul\":5871:5875   */\n      0x20\n        /* \"#utility.yul\":5863:5869   */\n      dup7\n        /* \"#utility.yul\":5859:5876   */\n      add\n        /* \"#utility.yul\":5811:5890   */\n      tag_452\n      jump\t// in\n    tag_599:\n        /* \"#utility.yul\":5802:5890   */\n      swap2\n      pop\n        /* \"#utility.yul\":5618:5896   */\n      pop\n        /* \"#utility.yul\":5556:5896   */\n      swap3\n      swap2\n      pop\n      pop\n      jump\t// out\n        /* \"#utility.yul\":5902:6024   */\n    tag_454:\n        /* \"#utility.yul\":5975:5999   */\n      tag_601\n        /* \"#utility.yul\":5993:5998   */\n      dup2\n        /* \"#utility.yul\":5975:5999   */\n      tag_438\n      jump\t// in\n    tag_601:\n        /* \"#utility.yul\":5968:5973   */\n      dup2\n        /* \"#utility.yul\":5965:6000   */\n      eq\n        /* \"#utility.yul\":5955:6018   */\n      tag_602\n      jumpi\n        /* \"#utility.yul\":6014:6015   */\n      0x00\n        /* \"#utility.yul\":6011:6012   */\n      0x00\n        /* \"#utility.yul\":6004:6016   */\n      revert\n        /* \"#utility.yul\":5955:6018   */\n    tag_602:\n        /* \"#utility.yul\":5902:6024   */\n      pop\n      jump\t// out\n        /* \"#utility.yul\":6030:6169   */\n    tag_455:\n        /* \"#utility.yul\":6076:6081   */\n      0x00\n        /* \"#utility.yul\":6114:6120   */\n      dup2\n        /* \"#utility.yul\":6101:6121   */\n      calldataload\n        /* \"#utility.yul\":6092:6121   */\n      swap1\n      pop\n        /* \"#utility.yul\":6130:6163   */\n      tag_604\n        /* \"#utility.yul\":6157:6162   */\n      dup2\n        /* \"#utility.yul\":6130:6163   */\n      tag_454\n      jump\t// in\n    tag_604:\n        /* \"#utility.yul\":6030:6169   */\n      swap3\n      swap2\n      pop\n      pop\n      jump\t// out\n        /* \"#utility.yul\":6175:7806   */\n    tag_36:\n        /* \"#utility.yul\":6310:6316   */\n      0x00\n        /* \"#utility.yul\":6318:6324   */\n      0x00\n        /* \"#utility.yul\":6326:6332   */\n      0x00\n        /* \"#utility.yul\":6334:6340   */\n      0x00\n        /* \"#utility.yul\":6342:6348   */\n      0x00\n        /* \"#utility.yul\":6391:6394   */\n      0xa0\n        /* \"#utility.yul\":6379:6388   */\n      dup7\n        /* \"#utility.yul\":6370:6377   */\n      dup9\n        /* \"#utility.yul\":6366:6389   */\n      sub\n        /* \"#utility.yul\":6362:6395   */\n      slt\n        /* \"#utility.yul\":6359:6479   */\n      iszero\n      tag_606\n      jumpi\n        /* \"#utility.yul\":6398:6477   */\n      tag_607\n      tag_443\n      jump\t// in\n    tag_607:\n        /* \"#utility.yul\":6359:6479   */\n    tag_606:\n        /* \"#utility.yul\":6546:6547   */\n      0x00\n        /* \"#utility.yul\":6535:6544   */\n      dup7\n        /* \"#utility.yul\":6531:6548   */\n      add\n        /* \"#utility.yul\":6518:6549   */\n      calldataload\n        /* \"#utility.yul\":6576:6594   */\n      0xffffffffffffffff\n        /* \"#utility.yul\":6568:6574   */\n      dup2\n        /* \"#utility.yul\":6565:6595   */\n      gt\n        /* \"#utility.yul\":6562:6679   */\n      iszero\n      tag_608\n      jumpi\n        /* \"#utility.yul\":6598:6677   */\n      tag_609\n      tag_444\n      jump\t// in\n    tag_609:\n        /* \"#utility.yul\":6562:6679   */\n    tag_608:\n        /* \"#utility.yul\":6703:6766   */\n      tag_610\n        /* \"#utility.yul\":6758:6765   */\n      dup9\n        /* \"#utility.yul\":6749:6755   */\n      dup3\n        /* \"#utility.yul\":6738:6747   */\n      dup10\n        /* \"#utility.yul\":6734:6756   */\n      add\n        /* \"#utility.yul\":6703:6766   */\n      tag_453\n      jump\t// in\n    tag_610:\n        /* \"#utility.yul\":6693:6766   */\n      swap6\n      pop\n        /* \"#utility.yul\":6489:6776   */\n      pop\n        /* \"#utility.yul\":6843:6845   */\n      0x20\n        /* \"#utility.yul\":6832:6841   */\n      dup7\n        /* \"#utility.yul\":6828:6846   */\n      add\n        /* \"#utility.yul\":6815:6847   */\n      calldataload\n        /* \"#utility.yul\":6874:6892   */\n      0xffffffffffffffff\n        /* \"#utility.yul\":6866:6872   */\n      dup2\n        /* \"#utility.yul\":6863:6893   */\n      gt\n        /* \"#utility.yul\":6860:6977   */\n      iszero\n      tag_611\n      jumpi\n        /* \"#utility.yul\":6896:6975   */\n      tag_612\n      tag_444\n      jump\t// in\n    tag_612:\n        /* \"#utility.yul\":6860:6977   */\n    tag_611:\n        /* \"#utility.yul\":7001:7064   */\n      tag_613\n        /* \"#utility.yul\":7056:7063   */\n      dup9\n        /* \"#utility.yul\":7047:7053   */\n      dup3\n        /* \"#utility.yul\":7036:7045   */\n      dup10\n        /* \"#utility.yul\":7032:7054   */\n      add\n        /* \"#utility.yul\":7001:7064   */\n      tag_453\n      jump\t// in\n    tag_613:\n        /* \"#utility.yul\":6991:7064   */\n      swap5\n      pop\n        /* \"#utility.yul\":6786:7074   */\n      pop\n        /* \"#utility.yul\":7141:7143   */\n      0x40\n        /* \"#utility.yul\":7130:7139   */\n      dup7\n        /* \"#utility.yul\":7126:7144   */\n      add\n        /* \"#utility.yul\":7113:7145   */\n      calldataload\n        /* \"#utility.yul\":7172:7190   */\n      0xffffffffffffffff\n        /* \"#utility.yul\":7164:7170   */\n      dup2\n        /* \"#utility.yul\":7161:7191   */\n      gt\n        /* \"#utility.yul\":7158:7275   */\n      iszero\n      tag_614\n      jumpi\n        /* \"#utility.yul\":7194:7273   */\n      tag_615\n      tag_444\n      jump\t// in\n    tag_615:\n        /* \"#utility.yul\":7158:7275   */\n    tag_614:\n        /* \"#utility.yul\":7299:7362   */\n      tag_616\n        /* \"#utility.yul\":7354:7361   */\n      dup9\n        /* \"#utility.yul\":7345:7351   */\n      dup3\n        /* \"#utility.yul\":7334:7343   */\n      dup10\n        /* \"#utility.yul\":7330:7352   */\n      add\n        /* \"#utility.yul\":7299:7362   */\n      tag_453\n      jump\t// in\n    tag_616:\n        /* \"#utility.yul\":7289:7362   */\n      swap4\n      pop\n        /* \"#utility.yul\":7084:7372   */\n      pop\n        /* \"#utility.yul\":7411:7413   */\n      0x60\n        /* \"#utility.yul\":7437:7490   */\n      tag_617\n        /* \"#utility.yul\":7482:7489   */\n      dup9\n        /* \"#utility.yul\":7473:7479   */\n      dup3\n        /* \"#utility.yul\":7462:7471   */\n      dup10\n        /* \"#utility.yul\":7458:7480   */\n      add\n        /* \"#utility.yul\":7437:7490   */\n      tag_455\n      jump\t// in\n    tag_617:\n        /* \"#utility.yul\":7427:7490   */\n      swap3\n      pop\n        /* \"#utility.yul\":7382:7500   */\n      pop\n        /* \"#utility.yul\":7567:7570   */\n      0x80\n        /* \"#utility.yul\":7556:7565   */\n      dup7\n        /* \"#utility.yul\":7552:7571   */\n      add\n        /* \"#utility.yul\":7539:7572   */\n      calldataload\n        /* \"#utility.yul\":7599:7617   */\n      0xffffffffffffffff\n        /* \"#utility.yul\":7591:7597   */\n      dup2\n        /* \"#utility.yul\":7588:7618   */\n      gt\n        /* \"#utility.yul\":7585:7702   */\n      iszero\n      tag_618\n      jumpi\n        /* \"#utility.yul\":7621:7700   */\n      tag_619\n      tag_444\n      jump\t// in\n    tag_619:\n        /* \"#utility.yul\":7585:7702   */\n    tag_618:\n        /* \"#utility.yul\":7726:7789   */\n      tag_620\n        /* \"#utility.yul\":7781:7788   */\n      dup9\n        /* \"#utility.yul\":7772:7778   */\n      dup3\n        /* \"#utility.yul\":7761:7770   */\n      dup10\n        /* \"#utility.yul\":7757:7779   */\n      add\n        /* \"#utility.yul\":7726:7789   */\n      tag_453\n      jump\t// in\n    tag_620:\n        /* \"#utility.yul\":7716:7789   */\n      swap2\n      pop\n        /* \"#utility.yul\":7510:7799   */\n      pop\n        /* \"#utility.yul\":6175:7806   */\n      swap3\n      swap6\n      pop\n      swap3\n      swap6\n      swap1\n      swap4\n      pop\n      jump\t// out\n        /* \"#utility.yul\":7812:7898   */\n    tag_456:\n        /* \"#utility.yul\":7847:7854   */\n      0x00\n        /* \"#utility.yul\":7887:7891   */\n      0xff\n        /* \"#utility.yul\":7880:7885   */\n      dup3\n        /* \"#utility.yul\":7876:7892   */\n      and\n        /* \"#utility.yul\":7865:7892   */\n      swap1\n      pop\n        /* \"#utility.yul\":7812:7898   */\n      swap2\n      swap1\n      pop\n      jump\t// out\n        /* \"#utility.yul\":7904:8022   */\n    tag_457:\n        /* \"#utility.yul\":7975:7997   */\n      tag_623\n        /* \"#utility.yul\":7991:7996   */\n      dup2\n        /* \"#utility.yul\":7975:7997   */\n      tag_456\n      jump\t// in\n    tag_623:\n        /* \"#utility.yul\":7968:7973   */\n      dup2\n        /* \"#utility.yul\":7965:7998   */\n      eq\n        /* \"#utility.yul\":7955:8016   */\n      tag_624\n      jumpi\n        /* \"#utility.yul\":8012:8013   */\n      0x00\n        /* \"#utility.yul\":8009:8010   */\n      0x00\n        /* \"#utility.yul\":8002:8014   */\n      revert\n        /* \"#utility.yul\":7955:8016   */\n    tag_624:\n        /* \"#utility.yul\":7904:8022   */\n      pop\n      jump\t// out\n        /* \"#utility.yul\":8028:8163   */\n    tag_458:\n        /* \"#utility.yul\":8072:8077   */\n      0x00\n        /* \"#utility.yul\":8110:8116   */\n      dup2\n        /* \"#utility.yul\":8097:8117   */\n      calldataload\n        /* \"#utility.yul\":8088:8117   */\n      swap1\n      pop\n        /* \"#utility.yul\":8126:8157   */\n      tag_626\n        /* \"#utility.yul\":8151:8156   */\n      dup2\n        /* \"#utility.yul\":8126:8157   */\n      tag_457\n      jump\t// in\n    tag_626:\n        /* \"#utility.yul\":8028:8163   */\n      swap3\n      swap2\n      pop\n      pop\n      jump\t// out\n        /* \"#utility.yul\":8169:8246   */\n    tag_459:\n        /* \"#utility.yul\":8206:8213   */\n      0x00\n        /* \"#utility.yul\":8235:8240   */\n      dup2\n        /* \"#utility.yul\":8224:8240   */\n      swap1\n      pop\n        /* \"#utility.yul\":8169:8246   */\n      swap2\n      swap1\n      pop\n      jump\t// out\n        /* \"#utility.yul\":8252:8374   */\n    tag_460:\n        /* \"#utility.yul\":8325:8349   */\n      tag_629\n        /* \"#utility.yul\":8343:8348   */\n      dup2\n        /* \"#utility.yul\":8325:8349   */\n      tag_459\n      jump\t// in\n    tag_629:\n        /* \"#utility.yul\":8318:8323   */\n      dup2\n        /* \"#utility.yul\":8315:8350   */\n      eq\n        /* \"#utility.yul\":8305:8368   */\n      tag_630\n      jumpi\n        /* \"#utility.yul\":8364:8365   */\n      0x00\n        /* \"#utility.yul\":8361:8362   */\n      0x00\n        /* \"#utility.yul\":8354:8366   */\n      revert\n        /* \"#utility.yul\":8305:8368   */\n    tag_630:\n        /* \"#utility.yul\":8252:8374   */\n      pop\n      jump\t// out\n        /* \"#utility.yul\":8380:8519   */\n    tag_461:\n        /* \"#utility.yul\":8426:8431   */\n      0x00\n        /* \"#utility.yul\":8464:8470   */\n      dup2\n        /* \"#utility.yul\":8451:8471   */\n      calldataload\n        /* \"#utility.yul\":8442:8471   */\n      swap1\n      pop\n        /* \"#utility.yul\":8480:8513   */\n      tag_632\n        /* \"#utility.yul\":8507:8512   */\n      dup2\n        /* \"#utility.yul\":8480:8513   */\n      tag_460\n      jump\t// in\n    tag_632:\n        /* \"#utility.yul\":8380:8519   */\n      swap3\n      swap2\n      pop\n      pop\n      jump\t// out\n        /* \"#utility.yul\":8525:10586   */\n    tag_40:\n        /* \"#utility.yul\":8683:8689   */\n      0x00\n        /* \"#utility.yul\":8691:8697   */\n      0x00\n        /* \"#utility.yul\":8699:8705   */\n      0x00\n        /* \"#utility.yul\":8707:8713   */\n      0x00\n        /* \"#utility.yul\":8715:8721   */\n      0x00\n        /* \"#utility.yul\":8723:8729   */\n      0x00\n        /* \"#utility.yul\":8731:8737   */\n      0x00\n        /* \"#utility.yul\":8739:8745   */\n      0x00\n        /* \"#utility.yul\":8788:8791   */\n      0x0100\n        /* \"#utility.yul\":8776:8785   */\n      dup10\n        /* \"#utility.yul\":8767:8774   */\n      dup12\n        /* \"#utility.yul\":8763:8786   */\n      sub\n        /* \"#utility.yul\":8759:8792   */\n      slt\n        /* \"#utility.yul\":8756:8876   */\n      iszero\n      tag_634\n      jumpi\n        /* \"#utility.yul\":8795:8874   */\n      tag_635\n      tag_443\n      jump\t// in\n    tag_635:\n        /* \"#utility.yul\":8756:8876   */\n    tag_634:\n        /* \"#utility.yul\":8943:8944   */\n      0x00\n        /* \"#utility.yul\":8932:8941   */\n      dup10\n        /* \"#utility.yul\":8928:8945   */\n      add\n        /* \"#utility.yul\":8915:8946   */\n      calldataload\n        /* \"#utility.yul\":8973:8991   */\n      0xffffffffffffffff\n        /* \"#utility.yul\":8965:8971   */\n      dup2\n        /* \"#utility.yul\":8962:8992   */\n      gt\n        /* \"#utility.yul\":8959:9076   */\n      iszero\n      tag_636\n      jumpi\n        /* \"#utility.yul\":8995:9074   */\n      tag_637\n      tag_444\n      jump\t// in\n    tag_637:\n        /* \"#utility.yul\":8959:9076   */\n    tag_636:\n        /* \"#utility.yul\":9100:9163   */\n      tag_638\n        /* \"#utility.yul\":9155:9162   */\n      dup12\n        /* \"#utility.yul\":9146:9152   */\n      dup3\n        /* \"#utility.yul\":9135:9144   */\n      dup13\n        /* \"#utility.yul\":9131:9153   */\n      add\n        /* \"#utility.yul\":9100:9163   */\n      tag_453\n      jump\t// in\n    tag_638:\n        /* \"#utility.yul\":9090:9163   */\n      swap9\n      pop\n        /* \"#utility.yul\":8886:9173   */\n      pop\n        /* \"#utility.yul\":9240:9242   */\n      0x20\n        /* \"#utility.yul\":9229:9238   */\n      dup10\n        /* \"#utility.yul\":9225:9243   */\n      add\n        /* \"#utility.yul\":9212:9244   */\n      calldataload\n        /* \"#utility.yul\":9271:9289   */\n      0xffffffffffffffff\n        /* \"#utility.yul\":9263:9269   */\n      dup2\n        /* \"#utility.yul\":9260:9290   */\n      gt\n        /* \"#utility.yul\":9257:9374   */\n      iszero\n      tag_639\n      jumpi\n        /* \"#utility.yul\":9293:9372   */\n      tag_640\n      tag_444\n      jump\t// in\n    tag_640:\n        /* \"#utility.yul\":9257:9374   */\n    tag_639:\n        /* \"#utility.yul\":9398:9461   */\n      tag_641\n        /* \"#utility.yul\":9453:9460   */\n      dup12\n        /* \"#utility.yul\":9444:9450   */\n      dup3\n        /* \"#utility.yul\":9433:9442   */\n      dup13\n        /* \"#utility.yul\":9429:9451   */\n      add\n        /* \"#utility.yul\":9398:9461   */\n      tag_453\n      jump\t// in\n    tag_641:\n        /* \"#utility.yul\":9388:9461   */\n      swap8\n      pop\n        /* \"#utility.yul\":9183:9471   */\n      pop\n        /* \"#utility.yul\":9538:9540   */\n      0x40\n        /* \"#utility.yul\":9527:9536   */\n      dup10\n        /* \"#utility.yul\":9523:9541   */\n      add\n        /* \"#utility.yul\":9510:9542   */\n      calldataload\n        /* \"#utility.yul\":9569:9587   */\n      0xffffffffffffffff\n        /* \"#utility.yul\":9561:9567   */\n      dup2\n        /* \"#utility.yul\":9558:9588   */\n      gt\n        /* \"#utility.yul\":9555:9672   */\n      iszero\n      tag_642\n      jumpi\n        /* \"#utility.yul\":9591:9670   */\n      tag_643\n      tag_444\n      jump\t// in\n    tag_643:\n        /* \"#utility.yul\":9555:9672   */\n    tag_642:\n        /* \"#utility.yul\":9696:9759   */\n      tag_644\n        /* \"#utility.yul\":9751:9758   */\n      dup12\n        /* \"#utility.yul\":9742:9748   */\n      dup3\n        /* \"#utility.yul\":9731:9740   */\n      dup13\n        /* \"#utility.yul\":9727:9749   */\n      add\n        /* \"#utility.yul\":9696:9759   */\n      tag_453\n      jump\t// in\n    tag_644:\n        /* \"#utility.yul\":9686:9759   */\n      swap7\n      pop\n        /* \"#utility.yul\":9481:9769   */\n      pop\n        /* \"#utility.yul\":9808:9810   */\n      0x60\n        /* \"#utility.yul\":9834:9887   */\n      tag_645\n        /* \"#utility.yul\":9879:9886   */\n      dup12\n        /* \"#utility.yul\":9870:9876   */\n      dup3\n        /* \"#utility.yul\":9859:9868   */\n      dup13\n        /* \"#utility.yul\":9855:9877   */\n      add\n        /* \"#utility.yul\":9834:9887   */\n      tag_455\n      jump\t// in\n    tag_645:\n        /* \"#utility.yul\":9824:9887   */\n      swap6\n      pop\n        /* \"#utility.yul\":9779:9897   */\n      pop\n        /* \"#utility.yul\":9936:9939   */\n      0x80\n        /* \"#utility.yul\":9963:10014   */\n      tag_646\n        /* \"#utility.yul\":10006:10013   */\n      dup12\n        /* \"#utility.yul\":9997:10003   */\n      dup3\n        /* \"#utility.yul\":9986:9995   */\n      dup13\n        /* \"#utility.yul\":9982:10004   */\n      add\n        /* \"#utility.yul\":9963:10014   */\n      tag_458\n      jump\t// in\n    tag_646:\n        /* \"#utility.yul\":9953:10014   */\n      swap5\n      pop\n        /* \"#utility.yul\":9907:10024   */\n      pop\n        /* \"#utility.yul\":10063:10066   */\n      0xa0\n        /* \"#utility.yul\":10090:10141   */\n      tag_647\n        /* \"#utility.yul\":10133:10140   */\n      dup12\n        /* \"#utility.yul\":10124:10130   */\n      dup3\n        /* \"#utility.yul\":10113:10122   */\n      dup13\n        /* \"#utility.yul\":10109:10131   */\n      add\n        /* \"#utility.yul\":10090:10141   */\n      tag_458\n      jump\t// in\n    tag_647:\n        /* \"#utility.yul\":10080:10141   */\n      swap4\n      pop\n        /* \"#utility.yul\":10034:10151   */\n      pop\n        /* \"#utility.yul\":10190:10193   */\n      0xc0\n        /* \"#utility.yul\":10217:10270   */\n      tag_648\n        /* \"#utility.yul\":10262:10269   */\n      dup12\n        /* \"#utility.yul\":10253:10259   */\n      dup3\n        /* \"#utility.yul\":10242:10251   */\n      dup13\n        /* \"#utility.yul\":10238:10260   */\n      add\n        /* \"#utility.yul\":10217:10270   */\n      tag_461\n      jump\t// in\n    tag_648:\n        /* \"#utility.yul\":10207:10270   */\n      swap3\n      pop\n        /* \"#utility.yul\":10161:10280   */\n      pop\n        /* \"#utility.yul\":10347:10350   */\n      0xe0\n        /* \"#utility.yul\":10336:10345   */\n      dup10\n        /* \"#utility.yul\":10332:10351   */\n      add\n        /* \"#utility.yul\":10319:10352   */\n      calldataload\n        /* \"#utility.yul\":10379:10397   */\n      0xffffffffffffffff\n        /* \"#utility.yul\":10371:10377   */\n      dup2\n        /* \"#utility.yul\":10368:10398   */\n      gt\n        /* \"#utility.yul\":10365:10482   */\n      iszero\n      tag_649\n      jumpi\n        /* \"#utility.yul\":10401:10480   */\n      tag_650\n      tag_444\n      jump\t// in\n    tag_650:\n        /* \"#utility.yul\":10365:10482   */\n    tag_649:\n        /* \"#utility.yul\":10506:10569   */\n      tag_651\n        /* \"#utility.yul\":10561:10568   */\n      dup12\n        /* \"#utility.yul\":10552:10558   */\n      dup3\n        /* \"#utility.yul\":10541:10550   */\n      dup13\n        /* \"#utility.yul\":10537:10559   */\n      add\n        /* \"#utility.yul\":10506:10569   */\n      tag_453\n      jump\t// in\n    tag_651:\n        /* \"#utility.yul\":10496:10569   */\n      swap2\n      pop\n        /* \"#utility.yul\":10290:10579   */\n      pop\n        /* \"#utility.yul\":8525:10586   */\n      swap3\n      swap6\n      swap9\n      pop\n      swap3\n      swap6\n      swap9\n      swap1\n      swap4\n      swap7\n      pop\n      jump\t// out\n        /* \"#utility.yul\":10592:10921   */\n    tag_45:\n        /* \"#utility.yul\":10651:10657   */\n      0x00\n        /* \"#utility.yul\":10700:10702   */\n      0x20\n        /* \"#utility.yul\":10688:10697   */\n      dup3\n        /* \"#utility.yul\":10679:10686   */\n      dup5\n        /* \"#utility.yul\":10675:10698   */\n      sub\n        /* \"#utility.yul\":10671:10703   */\n      slt\n        /* \"#utility.yul\":10668:10787   */\n      iszero\n      tag_653\n      jumpi\n        /* \"#utility.yul\":10706:10785   */\n      tag_654\n      tag_443\n      jump\t// in\n    tag_654:\n        /* \"#utility.yul\":10668:10787   */\n    tag_653:\n        /* \"#utility.yul\":10826:10827   */\n      0x00\n        /* \"#utility.yul\":10851:10904   */\n      tag_655\n        /* \"#utility.yul\":10896:10903   */\n      dup5\n        /* \"#utility.yul\":10887:10893   */\n      dup3\n        /* \"#utility.yul\":10876:10885   */\n      dup6\n        /* \"#utility.yul\":10872:10894   */\n      add\n        /* \"#utility.yul\":10851:10904   */\n      tag_455\n      jump\t// in\n    tag_655:\n        /* \"#utility.yul\":10841:10904   */\n      swap2\n      pop\n        /* \"#utility.yul\":10797:10914   */\n      pop\n        /* \"#utility.yul\":10592:10921   */\n      swap3\n      swap2\n      pop\n      pop\n      jump\t// out\n        /* \"#utility.yul\":10927:11096   */\n    tag_462:\n        /* \"#utility.yul\":11011:11022   */\n      0x00\n        /* \"#utility.yul\":11045:11051   */\n      dup3\n        /* \"#utility.yul\":11040:11043   */\n      dup3\n        /* \"#utility.yul\":11033:11052   */\n      mstore\n        /* \"#utility.yul\":11085:11089   */\n      0x20\n        /* \"#utility.yul\":11080:11083   */\n      dup3\n        /* \"#utility.yul\":11076:11090   */\n      add\n        /* \"#utility.yul\":11061:11090   */\n      swap1\n      pop\n        /* \"#utility.yul\":10927:11096   */\n      swap3\n      swap2\n      pop\n      pop\n      jump\t// out\n        /* \"#utility.yul\":11102:11479   */\n    tag_463:\n        /* \"#utility.yul\":11190:11193   */\n      0x00\n        /* \"#utility.yul\":11218:11257   */\n      tag_658\n        /* \"#utility.yul\":11251:11256   */\n      dup3\n        /* \"#utility.yul\":11218:11257   */\n      tag_433\n      jump\t// in\n    tag_658:\n        /* \"#utility.yul\":11273:11344   */\n      tag_659\n        /* \"#utility.yul\":11337:11343   */\n      dup2\n        /* \"#utility.yul\":11332:11335   */\n      dup6\n        /* \"#utility.yul\":11273:11344   */\n      tag_462\n      jump\t// in\n    tag_659:\n        /* \"#utility.yul\":11266:11344   */\n      swap4\n      pop\n        /* \"#utility.yul\":11353:11418   */\n      tag_660\n        /* \"#utility.yul\":11411:11417   */\n      dup2\n        /* \"#utility.yul\":11406:11409   */\n      dup6\n        /* \"#utility.yul\":11399:11403   */\n      0x20\n        /* \"#utility.yul\":11392:11397   */\n      dup7\n        /* \"#utility.yul\":11388:11404   */\n      add\n        /* \"#utility.yul\":11353:11418   */\n      tag_435\n      jump\t// in\n    tag_660:\n        /* \"#utility.yul\":11443:11472   */\n      tag_661\n        /* \"#utility.yul\":11465:11471   */\n      dup2\n        /* \"#utility.yul\":11443:11472   */\n      tag_436\n      jump\t// in\n    tag_661:\n        /* \"#utility.yul\":11438:11441   */\n      dup5\n        /* \"#utility.yul\":11434:11473   */\n      add\n        /* \"#utility.yul\":11427:11473   */\n      swap2\n      pop\n        /* \"#utility.yul\":11194:11479   */\n      pop\n        /* \"#utility.yul\":11102:11479   */\n      swap3\n      swap2\n      pop\n      pop\n      jump\t// out\n        /* \"#utility.yul\":11485:11597   */\n    tag_464:\n        /* \"#utility.yul\":11568:11590   */\n      tag_663\n        /* \"#utility.yul\":11584:11589   */\n      dup2\n        /* \"#utility.yul\":11568:11590   */\n      tag_456\n      jump\t// in\n    tag_663:\n        /* \"#utility.yul\":11563:11566   */\n      dup3\n        /* \"#utility.yul\":11556:11591   */\n      mstore\n        /* \"#utility.yul\":11485:11597   */\n      pop\n      pop\n      jump\t// out\n        /* \"#utility.yul\":11603:11721   */\n    tag_465:\n        /* \"#utility.yul\":11690:11714   */\n      tag_665\n        /* \"#utility.yul\":11708:11713   */\n      dup2\n        /* \"#utility.yul\":11690:11714   */\n      tag_459\n      jump\t// in\n    tag_665:\n        /* \"#utility.yul\":11685:11688   */\n      dup3\n        /* \"#utility.yul\":11678:11715   */\n      mstore\n        /* \"#utility.yul\":11603:11721   */\n      pop\n      pop\n      jump\t// out\n        /* \"#utility.yul\":11727:11853   */\n    tag_466:\n        /* \"#utility.yul\":11764:11771   */\n      0x00\n        /* \"#utility.yul\":11804:11846   */\n      0xffffffffffffffffffffffffffffffffffffffff\n        /* \"#utility.yul\":11797:11802   */\n      dup3\n        /* \"#utility.yul\":11793:11847   */\n      and\n        /* \"#utility.yul\":11782:11847   */\n      swap1\n      pop\n        /* \"#utility.yul\":11727:11853   */\n      swap2\n      swap1\n      pop\n      jump\t// out\n        /* \"#utility.yul\":11859:11955   */\n    tag_467:\n        /* \"#utility.yul\":11896:11903   */\n      0x00\n        /* \"#utility.yul\":11925:11949   */\n      tag_668\n        /* \"#utility.yul\":11943:11948   */\n      dup3\n        /* \"#utility.yul\":11925:11949   */\n      tag_466\n      jump\t// in\n    tag_668:\n        /* \"#utility.yul\":11914:11949   */\n      swap1\n      pop\n        /* \"#utility.yul\":11859:11955   */\n      swap2\n      swap1\n      pop\n      jump\t// out\n        /* \"#utility.yul\":11961:12079   */\n    tag_468:\n        /* \"#utility.yul\":12048:12072   */\n      tag_670\n        /* \"#utility.yul\":12066:12071   */\n      dup2\n        /* \"#utility.yul\":12048:12072   */\n      tag_467\n      jump\t// in\n    tag_670:\n        /* \"#utility.yul\":12043:12046   */\n      dup3\n        /* \"#utility.yul\":12036:12073   */\n      mstore\n        /* \"#utility.yul\":11961:12079   */\n      pop\n      pop\n      jump\t// out\n        /* \"#utility.yul\":12085:13765   */\n    tag_48:\n        /* \"#utility.yul\":12531:12535   */\n      0x00\n        /* \"#utility.yul\":12569:12572   */\n      0x0160\n        /* \"#utility.yul\":12558:12567   */\n      dup3\n        /* \"#utility.yul\":12554:12573   */\n      add\n        /* \"#utility.yul\":12546:12573   */\n      swap1\n      pop\n        /* \"#utility.yul\":12583:12654   */\n      tag_672\n        /* \"#utility.yul\":12651:12652   */\n      0x00\n        /* \"#utility.yul\":12640:12649   */\n      dup4\n        /* \"#utility.yul\":12636:12653   */\n      add\n        /* \"#utility.yul\":12627:12633   */\n      dup15\n        /* \"#utility.yul\":12583:12654   */\n      tag_441\n      jump\t// in\n    tag_672:\n        /* \"#utility.yul\":12701:12710   */\n      dup2\n        /* \"#utility.yul\":12695:12699   */\n      dup2\n        /* \"#utility.yul\":12691:12711   */\n      sub\n        /* \"#utility.yul\":12686:12688   */\n      0x20\n        /* \"#utility.yul\":12675:12684   */\n      dup4\n        /* \"#utility.yul\":12671:12689   */\n      add\n        /* \"#utility.yul\":12664:12712   */\n      mstore\n        /* \"#utility.yul\":12729:12807   */\n      tag_673\n        /* \"#utility.yul\":12802:12806   */\n      dup2\n        /* \"#utility.yul\":12793:12799   */\n      dup14\n        /* \"#utility.yul\":12729:12807   */\n      tag_463\n      jump\t// in\n    tag_673:\n        /* \"#utility.yul\":12721:12807   */\n      swap1\n      pop\n        /* \"#utility.yul\":12854:12863   */\n      dup2\n        /* \"#utility.yul\":12848:12852   */\n      dup2\n        /* \"#utility.yul\":12844:12864   */\n      sub\n        /* \"#utility.yul\":12839:12841   */\n      0x40\n        /* \"#utility.yul\":12828:12837   */\n      dup4\n        /* \"#utility.yul\":12824:12842   */\n      add\n        /* \"#utility.yul\":12817:12865   */\n      mstore\n        /* \"#utility.yul\":12882:12960   */\n      tag_674\n        /* \"#utility.yul\":12955:12959   */\n      dup2\n        /* \"#utility.yul\":12946:12952   */\n      dup13\n        /* \"#utility.yul\":12882:12960   */\n      tag_463\n      jump\t// in\n    tag_674:\n        /* \"#utility.yul\":12874:12960   */\n      swap1\n      pop\n        /* \"#utility.yul\":13007:13016   */\n      dup2\n        /* \"#utility.yul\":13001:13005   */\n      dup2\n        /* \"#utility.yul\":12997:13017   */\n      sub\n        /* \"#utility.yul\":12992:12994   */\n      0x60\n        /* \"#utility.yul\":12981:12990   */\n      dup4\n        /* \"#utility.yul\":12977:12995   */\n      add\n        /* \"#utility.yul\":12970:13018   */\n      mstore\n        /* \"#utility.yul\":13035:13113   */\n      tag_675\n        /* \"#utility.yul\":13108:13112   */\n      dup2\n        /* \"#utility.yul\":13099:13105   */\n      dup12\n        /* \"#utility.yul\":13035:13113   */\n      tag_463\n      jump\t// in\n    tag_675:\n        /* \"#utility.yul\":13027:13113   */\n      swap1\n      pop\n        /* \"#utility.yul\":13123:13196   */\n      tag_676\n        /* \"#utility.yul\":13191:13194   */\n      0x80\n        /* \"#utility.yul\":13180:13189   */\n      dup4\n        /* \"#utility.yul\":13176:13195   */\n      add\n        /* \"#utility.yul\":13167:13173   */\n      dup11\n        /* \"#utility.yul\":13123:13196   */\n      tag_441\n      jump\t// in\n    tag_676:\n        /* \"#utility.yul\":13206:13275   */\n      tag_677\n        /* \"#utility.yul\":13270:13273   */\n      0xa0\n        /* \"#utility.yul\":13259:13268   */\n      dup4\n        /* \"#utility.yul\":13255:13274   */\n      add\n        /* \"#utility.yul\":13246:13252   */\n      dup10\n        /* \"#utility.yul\":13206:13275   */\n      tag_464\n      jump\t// in\n    tag_677:\n        /* \"#utility.yul\":13285:13354   */\n      tag_678\n        /* \"#utility.yul\":13349:13352   */\n      0xc0\n        /* \"#utility.yul\":13338:13347   */\n      dup4\n        /* \"#utility.yul\":13334:13353   */\n      add\n        /* \"#utility.yul\":13325:13331   */\n      dup9\n        /* \"#utility.yul\":13285:13354   */\n      tag_464\n      jump\t// in\n    tag_678:\n        /* \"#utility.yul\":13364:13437   */\n      tag_679\n        /* \"#utility.yul\":13432:13435   */\n      0xe0\n        /* \"#utility.yul\":13421:13430   */\n      dup4\n        /* \"#utility.yul\":13417:13436   */\n      add\n        /* \"#utility.yul\":13408:13414   */\n      dup8\n        /* \"#utility.yul\":13364:13437   */\n      tag_465\n      jump\t// in\n    tag_679:\n        /* \"#utility.yul\":13485:13494   */\n      dup2\n        /* \"#utility.yul\":13479:13483   */\n      dup2\n        /* \"#utility.yul\":13475:13495   */\n      sub\n        /* \"#utility.yul\":13469:13472   */\n      0x0100\n        /* \"#utility.yul\":13458:13467   */\n      dup4\n        /* \"#utility.yul\":13454:13473   */\n      add\n        /* \"#utility.yul\":13447:13496   */\n      mstore\n        /* \"#utility.yul\":13513:13591   */\n      tag_680\n        /* \"#utility.yul\":13586:13590   */\n      dup2\n        /* \"#utility.yul\":13577:13583   */\n      dup7\n        /* \"#utility.yul\":13513:13591   */\n      tag_463\n      jump\t// in\n    tag_680:\n        /* \"#utility.yul\":13505:13591   */\n      swap1\n      pop\n        /* \"#utility.yul\":13601:13674   */\n      tag_681\n        /* \"#utility.yul\":13669:13672   */\n      0x0120\n        /* \"#utility.yul\":13658:13667   */\n      dup4\n        /* \"#utility.yul\":13654:13673   */\n      add\n        /* \"#utility.yul\":13645:13651   */\n      dup6\n        /* \"#utility.yul\":13601:13674   */\n      tag_441\n      jump\t// in\n    tag_681:\n        /* \"#utility.yul\":13684:13758   */\n      tag_682\n        /* \"#utility.yul\":13753:13756   */\n      0x0140\n        /* \"#utility.yul\":13742:13751   */\n      dup4\n        /* \"#utility.yul\":13738:13757   */\n      add\n        /* \"#utility.yul\":13728:13735   */\n      dup5\n        /* \"#utility.yul\":13684:13758   */\n      tag_468\n      jump\t// in\n    tag_682:\n        /* \"#utility.yul\":12085:13765   */\n      swap13\n      swap12\n      pop\n      pop\n      pop\n      pop\n      pop\n      pop\n      pop\n      pop\n      pop\n      pop\n      pop\n      pop\n      jump\t// out\n        /* \"#utility.yul\":13771:13847   */\n    tag_469:\n        /* \"#utility.yul\":13807:13814   */\n      0x00\n        /* \"#utility.yul\":13836:13841   */\n      dup2\n        /* \"#utility.yul\":13825:13841   */\n      swap1\n      pop\n        /* \"#utility.yul\":13771:13847   */\n      swap2\n      swap1\n      pop\n      jump\t// out\n        /* \"#utility.yul\":13853:13958   */\n    tag_470:\n        /* \"#utility.yul\":13928:13951   */\n      tag_685\n        /* \"#utility.yul\":13945:13950   */\n      dup2\n        /* \"#utility.yul\":13928:13951   */\n      tag_469\n      jump\t// in\n    tag_685:\n        /* \"#utility.yul\":13923:13926   */\n      dup3\n        /* \"#utility.yul\":13916:13952   */\n      mstore\n        /* \"#utility.yul\":13853:13958   */\n      pop\n      pop\n      jump\t// out\n        /* \"#utility.yul\":13964:14066   */\n    tag_471:\n        /* \"#utility.yul\":14037:14059   */\n      tag_687\n        /* \"#utility.yul\":14053:14058   */\n      dup2\n        /* \"#utility.yul\":14037:14059   */\n      tag_456\n      jump\t// in\n    tag_687:\n        /* \"#utility.yul\":14032:14035   */\n      dup3\n        /* \"#utility.yul\":14025:14060   */\n      mstore\n        /* \"#utility.yul\":13964:14066   */\n      pop\n      pop\n      jump\t// out\n        /* \"#utility.yul\":14072:14180   */\n    tag_472:\n        /* \"#utility.yul\":14149:14173   */\n      tag_689\n        /* \"#utility.yul\":14167:14172   */\n      dup2\n        /* \"#utility.yul\":14149:14173   */\n      tag_459\n      jump\t// in\n    tag_689:\n        /* \"#utility.yul\":14144:14147   */\n      dup3\n        /* \"#utility.yul\":14137:14174   */\n      mstore\n        /* \"#utility.yul\":14072:14180   */\n      pop\n      pop\n      jump\t// out\n        /* \"#utility.yul\":14186:14294   */\n    tag_473:\n        /* \"#utility.yul\":14263:14287   */\n      tag_691\n        /* \"#utility.yul\":14281:14286   */\n      dup2\n        /* \"#utility.yul\":14263:14287   */\n      tag_467\n      jump\t// in\n    tag_691:\n        /* \"#utility.yul\":14258:14261   */\n      dup3\n        /* \"#utility.yul\":14251:14288   */\n      mstore\n        /* \"#utility.yul\":14186:14294   */\n      pop\n      pop\n      jump\t// out\n        /* \"#utility.yul\":14390:16764   */\n    tag_474:\n        /* \"#utility.yul\":14515:14518   */\n      0x00\n        /* \"#utility.yul\":14551:14557   */\n      0x0160\n        /* \"#utility.yul\":14546:14549   */\n      dup4\n        /* \"#utility.yul\":14542:14558   */\n      add\n        /* \"#utility.yul\":14643:14647   */\n      0x00\n        /* \"#utility.yul\":14636:14641   */\n      dup4\n        /* \"#utility.yul\":14632:14648   */\n      add\n        /* \"#utility.yul\":14626:14649   */\n      mload\n        /* \"#utility.yul\":14662:14725   */\n      tag_693\n        /* \"#utility.yul\":14719:14723   */\n      0x00\n        /* \"#utility.yul\":14714:14717   */\n      dup7\n        /* \"#utility.yul\":14710:14724   */\n      add\n        /* \"#utility.yul\":14696:14708   */\n      dup3\n        /* \"#utility.yul\":14662:14725   */\n      tag_439\n      jump\t// in\n    tag_693:\n        /* \"#utility.yul\":14568:14735   */\n      pop\n        /* \"#utility.yul\":14817:14821   */\n      0x20\n        /* \"#utility.yul\":14810:14815   */\n      dup4\n        /* \"#utility.yul\":14806:14822   */\n      add\n        /* \"#utility.yul\":14800:14823   */\n      mload\n        /* \"#utility.yul\":14870:14873   */\n      dup5\n        /* \"#utility.yul\":14864:14868   */\n      dup3\n        /* \"#utility.yul\":14860:14874   */\n      sub\n        /* \"#utility.yul\":14853:14857   */\n      0x20\n        /* \"#utility.yul\":14848:14851   */\n      dup7\n        /* \"#utility.yul\":14844:14858   */\n      add\n        /* \"#utility.yul\":14837:14875   */\n      mstore\n        /* \"#utility.yul\":14896:14969   */\n      tag_694\n        /* \"#utility.yul\":14964:14968   */\n      dup3\n        /* \"#utility.yul\":14950:14962   */\n      dup3\n        /* \"#utility.yul\":14896:14969   */\n      tag_437\n      jump\t// in\n    tag_694:\n        /* \"#utility.yul\":14888:14969   */\n      swap2\n      pop\n        /* \"#utility.yul\":14745:14980   */\n      pop\n        /* \"#utility.yul\":15069:15073   */\n      0x40\n        /* \"#utility.yul\":15062:15067   */\n      dup4\n        /* \"#utility.yul\":15058:15074   */\n      add\n        /* \"#utility.yul\":15052:15075   */\n      mload\n        /* \"#utility.yul\":15088:15149   */\n      tag_695\n        /* \"#utility.yul\":15143:15147   */\n      0x40\n        /* \"#utility.yul\":15138:15141   */\n      dup7\n        /* \"#utility.yul\":15134:15148   */\n      add\n        /* \"#utility.yul\":15120:15132   */\n      dup3\n        /* \"#utility.yul\":15088:15149   */\n      tag_470\n      jump\t// in\n    tag_695:\n        /* \"#utility.yul\":14990:15159   */\n      pop\n        /* \"#utility.yul\":15245:15249   */\n      0x60\n        /* \"#utility.yul\":15238:15243   */\n      dup4\n        /* \"#utility.yul\":15234:15250   */\n      add\n        /* \"#utility.yul\":15228:15251   */\n      mload\n        /* \"#utility.yul\":15264:15323   */\n      tag_696\n        /* \"#utility.yul\":15317:15321   */\n      0x60\n        /* \"#utility.yul\":15312:15315   */\n      dup7\n        /* \"#utility.yul\":15308:15322   */\n      add\n        /* \"#utility.yul\":15294:15306   */\n      dup3\n        /* \"#utility.yul\":15264:15323   */\n      tag_471\n      jump\t// in\n    tag_696:\n        /* \"#utility.yul\":15169:15333   */\n      pop\n        /* \"#utility.yul\":15418:15422   */\n      0x80\n        /* \"#utility.yul\":15411:15416   */\n      dup4\n        /* \"#utility.yul\":15407:15423   */\n      add\n        /* \"#utility.yul\":15401:15424   */\n      mload\n        /* \"#utility.yul\":15437:15496   */\n      tag_697\n        /* \"#utility.yul\":15490:15494   */\n      0x80\n        /* \"#utility.yul\":15485:15488   */\n      dup7\n        /* \"#utility.yul\":15481:15495   */\n      add\n        /* \"#utility.yul\":15467:15479   */\n      dup3\n        /* \"#utility.yul\":15437:15496   */\n      tag_471\n      jump\t// in\n    tag_697:\n        /* \"#utility.yul\":15343:15506   */\n      pop\n        /* \"#utility.yul\":15593:15597   */\n      0xa0\n        /* \"#utility.yul\":15586:15591   */\n      dup4\n        /* \"#utility.yul\":15582:15598   */\n      add\n        /* \"#utility.yul\":15576:15599   */\n      mload\n        /* \"#utility.yul\":15612:15671   */\n      tag_698\n        /* \"#utility.yul\":15665:15669   */\n      0xa0\n        /* \"#utility.yul\":15660:15663   */\n      dup7\n        /* \"#utility.yul\":15656:15670   */\n      add\n        /* \"#utility.yul\":15642:15654   */\n      dup3\n        /* \"#utility.yul\":15612:15671   */\n      tag_471\n      jump\t// in\n    tag_698:\n        /* \"#utility.yul\":15516:15681   */\n      pop\n        /* \"#utility.yul\":15771:15775   */\n      0xc0\n        /* \"#utility.yul\":15764:15769   */\n      dup4\n        /* \"#utility.yul\":15760:15776   */\n      add\n        /* \"#utility.yul\":15754:15777   */\n      mload\n        /* \"#utility.yul\":15824:15827   */\n      dup5\n        /* \"#utility.yul\":15818:15822   */\n      dup3\n        /* \"#utility.yul\":15814:15828   */\n      sub\n        /* \"#utility.yul\":15807:15811   */\n      0xc0\n        /* \"#utility.yul\":15802:15805   */\n      dup7\n        /* \"#utility.yul\":15798:15812   */\n      add\n        /* \"#utility.yul\":15791:15829   */\n      mstore\n        /* \"#utility.yul\":15850:15923   */\n      tag_699\n        /* \"#utility.yul\":15918:15922   */\n      dup3\n        /* \"#utility.yul\":15904:15916   */\n      dup3\n        /* \"#utility.yul\":15850:15923   */\n      tag_437\n      jump\t// in\n    tag_699:\n        /* \"#utility.yul\":15842:15923   */\n      swap2\n      pop\n        /* \"#utility.yul\":15691:15934   */\n      pop\n        /* \"#utility.yul\":16022:16026   */\n      0xe0\n        /* \"#utility.yul\":16015:16020   */\n      dup4\n        /* \"#utility.yul\":16011:16027   */\n      add\n        /* \"#utility.yul\":16005:16028   */\n      mload\n        /* \"#utility.yul\":16075:16078   */\n      dup5\n        /* \"#utility.yul\":16069:16073   */\n      dup3\n        /* \"#utility.yul\":16065:16079   */\n      sub\n        /* \"#utility.yul\":16058:16062   */\n      0xe0\n        /* \"#utility.yul\":16053:16056   */\n      dup7\n        /* \"#utility.yul\":16049:16063   */\n      add\n        /* \"#utility.yul\":16042:16080   */\n      mstore\n        /* \"#utility.yul\":16101:16174   */\n      tag_700\n        /* \"#utility.yul\":16169:16173   */\n      dup3\n        /* \"#utility.yul\":16155:16167   */\n      dup3\n        /* \"#utility.yul\":16101:16174   */\n      tag_437\n      jump\t// in\n    tag_700:\n        /* \"#utility.yul\":16093:16174   */\n      swap2\n      pop\n        /* \"#utility.yul\":15944:16185   */\n      pop\n        /* \"#utility.yul\":16275:16281   */\n      0x0100\n        /* \"#utility.yul\":16268:16273   */\n      dup4\n        /* \"#utility.yul\":16264:16282   */\n      add\n        /* \"#utility.yul\":16258:16283   */\n      mload\n        /* \"#utility.yul\":16296:16361   */\n      tag_701\n        /* \"#utility.yul\":16353:16359   */\n      0x0100\n        /* \"#utility.yul\":16348:16351   */\n      dup7\n        /* \"#utility.yul\":16344:16360   */\n      add\n        /* \"#utility.yul\":16330:16342   */\n      dup3\n        /* \"#utility.yul\":16296:16361   */\n      tag_472\n      jump\t// in\n    tag_701:\n        /* \"#utility.yul\":16195:16371   */\n      pop\n        /* \"#utility.yul\":16458:16464   */\n      0x0120\n        /* \"#utility.yul\":16451:16456   */\n      dup4\n        /* \"#utility.yul\":16447:16465   */\n      add\n        /* \"#utility.yul\":16441:16466   */\n      mload\n        /* \"#utility.yul\":16479:16544   */\n      tag_702\n        /* \"#utility.yul\":16536:16542   */\n      0x0120\n        /* \"#utility.yul\":16531:16534   */\n      dup7\n        /* \"#utility.yul\":16527:16543   */\n      add\n        /* \"#utility.yul\":16513:16525   */\n      dup3\n        /* \"#utility.yul\":16479:16544   */\n      tag_439\n      jump\t// in\n    tag_702:\n        /* \"#utility.yul\":16381:16554   */\n      pop\n        /* \"#utility.yul\":16641:16647   */\n      0x0140\n        /* \"#utility.yul\":16634:16639   */\n      dup4\n        /* \"#utility.yul\":16630:16648   */\n      add\n        /* \"#utility.yul\":16624:16649   */\n      mload\n        /* \"#utility.yul\":16662:16727   */\n      tag_703\n        /* \"#utility.yul\":16719:16725   */\n      0x0140\n        /* \"#utility.yul\":16714:16717   */\n      dup7\n        /* \"#utility.yul\":16710:16726   */\n      add\n        /* \"#utility.yul\":16696:16708   */\n      dup3\n        /* \"#utility.yul\":16662:16727   */\n      tag_473\n      jump\t// in\n    tag_703:\n        /* \"#utility.yul\":16564:16737   */\n      pop\n        /* \"#utility.yul\":16754:16758   */\n      dup1\n        /* \"#utility.yul\":16747:16758   */\n      swap2\n      pop\n        /* \"#utility.yul\":14520:16764   */\n      pop\n        /* \"#utility.yul\":14390:16764   */\n      swap3\n      swap2\n      pop\n      pop\n      jump\t// out\n        /* \"#utility.yul\":16770:17155   */\n    tag_56:\n        /* \"#utility.yul\":16919:16923   */\n      0x00\n        /* \"#utility.yul\":16957:16959   */\n      0x20\n        /* \"#utility.yul\":16946:16955   */\n      dup3\n        /* \"#utility.yul\":16942:16960   */\n      add\n        /* \"#utility.yul\":16934:16960   */\n      swap1\n      pop\n        /* \"#utility.yul\":17006:17015   */\n      dup2\n        /* \"#utility.yul\":17000:17004   */\n      dup2\n        /* \"#utility.yul\":16996:17016   */\n      sub\n        /* \"#utility.yul\":16992:16993   */\n      0x00\n        /* \"#utility.yul\":16981:16990   */\n      dup4\n        /* \"#utility.yul\":16977:16994   */\n      add\n        /* \"#utility.yul\":16970:17017   */\n      mstore\n        /* \"#utility.yul\":17034:17148   */\n      tag_705\n        /* \"#utility.yul\":17143:17147   */\n      dup2\n        /* \"#utility.yul\":17134:17140   */\n      dup5\n        /* \"#utility.yul\":17034:17148   */\n      tag_474\n      jump\t// in\n    tag_705:\n        /* \"#utility.yul\":17026:17148   */\n      swap1\n      pop\n        /* \"#utility.yul\":16770:17155   */\n      swap3\n      swap2\n      pop\n      pop\n      jump\t// out\n        /* \"#utility.yul\":17279:19748   */\n    tag_475:\n        /* \"#utility.yul\":17432:17435   */\n      0x00\n        /* \"#utility.yul\":17468:17474   */\n      0x0160\n        /* \"#utility.yul\":17463:17466   */\n      dup4\n        /* \"#utility.yul\":17459:17475   */\n      add\n        /* \"#utility.yul\":17560:17564   */\n      0x00\n        /* \"#utility.yul\":17553:17558   */\n      dup4\n        /* \"#utility.yul\":17549:17565   */\n      add\n        /* \"#utility.yul\":17543:17566   */\n      mload\n        /* \"#utility.yul\":17579:17642   */\n      tag_707\n        /* \"#utility.yul\":17636:17640   */\n      0x00\n        /* \"#utility.yul\":17631:17634   */\n      dup7\n        /* \"#utility.yul\":17627:17641   */\n      add\n        /* \"#utility.yul\":17613:17625   */\n      dup3\n        /* \"#utility.yul\":17579:17642   */\n      tag_439\n      jump\t// in\n    tag_707:\n        /* \"#utility.yul\":17485:17652   */\n      pop\n        /* \"#utility.yul\":17736:17740   */\n      0x20\n        /* \"#utility.yul\":17729:17734   */\n      dup4\n        /* \"#utility.yul\":17725:17741   */\n      add\n        /* \"#utility.yul\":17719:17742   */\n      mload\n        /* \"#utility.yul\":17789:17792   */\n      dup5\n        /* \"#utility.yul\":17783:17787   */\n      dup3\n        /* \"#utility.yul\":17779:17793   */\n      sub\n        /* \"#utility.yul\":17772:17776   */\n      0x20\n        /* \"#utility.yul\":17767:17770   */\n      dup7\n        /* \"#utility.yul\":17763:17777   */\n      add\n        /* \"#utility.yul\":17756:17794   */\n      mstore\n        /* \"#utility.yul\":17815:17888   */\n      tag_708\n        /* \"#utility.yul\":17883:17887   */\n      dup3\n        /* \"#utility.yul\":17869:17881   */\n      dup3\n        /* \"#utility.yul\":17815:17888   */\n      tag_437\n      jump\t// in\n    tag_708:\n        /* \"#utility.yul\":17807:17888   */\n      swap2\n      pop\n        /* \"#utility.yul\":17662:17899   */\n      pop\n        /* \"#utility.yul\":17983:17987   */\n      0x40\n        /* \"#utility.yul\":17976:17981   */\n      dup4\n        /* \"#utility.yul\":17972:17988   */\n      add\n        /* \"#utility.yul\":17966:17989   */\n      mload\n        /* \"#utility.yul\":18036:18039   */\n      dup5\n        /* \"#utility.yul\":18030:18034   */\n      dup3\n        /* \"#utility.yul\":18026:18040   */\n      sub\n        /* \"#utility.yul\":18019:18023   */\n      0x40\n        /* \"#utility.yul\":18014:18017   */\n      dup7\n        /* \"#utility.yul\":18010:18024   */\n      add\n        /* \"#utility.yul\":18003:18041   */\n      mstore\n        /* \"#utility.yul\":18062:18135   */\n      tag_709\n        /* \"#utility.yul\":18130:18134   */\n      dup3\n        /* \"#utility.yul\":18116:18128   */\n      dup3\n        /* \"#utility.yul\":18062:18135   */\n      tag_437\n      jump\t// in\n    tag_709:\n        /* \"#utility.yul\":18054:18135   */\n      swap2\n      pop\n        /* \"#utility.yul\":17909:18146   */\n      pop\n        /* \"#utility.yul\":18231:18235   */\n      0x60\n        /* \"#utility.yul\":18224:18229   */\n      dup4\n        /* \"#utility.yul\":18220:18236   */\n      add\n        /* \"#utility.yul\":18214:18237   */\n      mload\n        /* \"#utility.yul\":18284:18287   */\n      dup5\n        /* \"#utility.yul\":18278:18282   */\n      dup3\n        /* \"#utility.yul\":18274:18288   */\n      sub\n        /* \"#utility.yul\":18267:18271   */\n      0x60\n        /* \"#utility.yul\":18262:18265   */\n      dup7\n        /* \"#utility.yul\":18258:18272   */\n      add\n        /* \"#utility.yul\":18251:18289   */\n      mstore\n        /* \"#utility.yul\":18310:18383   */\n      tag_710\n        /* \"#utility.yul\":18378:18382   */\n      dup3\n        /* \"#utility.yul\":18364:18376   */\n      dup3\n        /* \"#utility.yul\":18310:18383   */\n      tag_437\n      jump\t// in\n    tag_710:\n        /* \"#utility.yul\":18302:18383   */\n      swap2\n      pop\n        /* \"#utility.yul\":18156:18394   */\n      pop\n        /* \"#utility.yul\":18482:18486   */\n      0x80\n        /* \"#utility.yul\":18475:18480   */\n      dup4\n        /* \"#utility.yul\":18471:18487   */\n      add\n        /* \"#utility.yul\":18465:18488   */\n      mload\n        /* \"#utility.yul\":18501:18564   */\n      tag_711\n        /* \"#utility.yul\":18558:18562   */\n      0x80\n        /* \"#utility.yul\":18553:18556   */\n      dup7\n        /* \"#utility.yul\":18549:18563   */\n      add\n        /* \"#utility.yul\":18535:18547   */\n      dup3\n        /* \"#utility.yul\":18501:18564   */\n      tag_439\n      jump\t// in\n    tag_711:\n        /* \"#utility.yul\":18404:18574   */\n      pop\n        /* \"#utility.yul\":18663:18667   */\n      0xa0\n        /* \"#utility.yul\":18656:18661   */\n      dup4\n        /* \"#utility.yul\":18652:18668   */\n      add\n        /* \"#utility.yul\":18646:18669   */\n      mload\n        /* \"#utility.yul\":18682:18741   */\n      tag_712\n        /* \"#utility.yul\":18735:18739   */\n      0xa0\n        /* \"#utility.yul\":18730:18733   */\n      dup7\n        /* \"#utility.yul\":18726:18740   */\n      add\n        /* \"#utility.yul\":18712:18724   */\n      dup3\n        /* \"#utility.yul\":18682:18741   */\n      tag_471\n      jump\t// in\n    tag_712:\n        /* \"#utility.yul\":18584:18751   */\n      pop\n        /* \"#utility.yul\":18836:18840   */\n      0xc0\n        /* \"#utility.yul\":18829:18834   */\n      dup4\n        /* \"#utility.yul\":18825:18841   */\n      add\n        /* \"#utility.yul\":18819:18842   */\n      mload\n        /* \"#utility.yul\":18855:18914   */\n      tag_713\n        /* \"#utility.yul\":18908:18912   */\n      0xc0\n        /* \"#utility.yul\":18903:18906   */\n      dup7\n        /* \"#utility.yul\":18899:18913   */\n      add\n        /* \"#utility.yul\":18885:18897   */\n      dup3\n        /* \"#utility.yul\":18855:18914   */\n      tag_471\n      jump\t// in\n    tag_713:\n        /* \"#utility.yul\":18761:18924   */\n      pop\n        /* \"#utility.yul\":19011:19015   */\n      0xe0\n        /* \"#utility.yul\":19004:19009   */\n      dup4\n        /* \"#utility.yul\":19000:19016   */\n      add\n        /* \"#utility.yul\":18994:19017   */\n      mload\n        /* \"#utility.yul\":19030:19093   */\n      tag_714\n        /* \"#utility.yul\":19087:19091   */\n      0xe0\n        /* \"#utility.yul\":19082:19085   */\n      dup7\n        /* \"#utility.yul\":19078:19092   */\n      add\n        /* \"#utility.yul\":19064:19076   */\n      dup3\n        /* \"#utility.yul\":19030:19093   */\n      tag_472\n      jump\t// in\n    tag_714:\n        /* \"#utility.yul\":18934:19103   */\n      pop\n        /* \"#utility.yul\":19188:19194   */\n      0x0100\n        /* \"#utility.yul\":19181:19186   */\n      dup4\n        /* \"#utility.yul\":19177:19195   */\n      add\n        /* \"#utility.yul\":19171:19196   */\n      mload\n        /* \"#utility.yul\":19245:19248   */\n      dup5\n        /* \"#utility.yul\":19239:19243   */\n      dup3\n        /* \"#utility.yul\":19235:19249   */\n      sub\n        /* \"#utility.yul\":19226:19232   */\n      0x0100\n        /* \"#utility.yul\":19221:19224   */\n      dup7\n        /* \"#utility.yul\":19217:19233   */\n      add\n        /* \"#utility.yul\":19210:19250   */\n      mstore\n        /* \"#utility.yul\":19271:19344   */\n      tag_715\n        /* \"#utility.yul\":19339:19343   */\n      dup3\n        /* \"#utility.yul\":19325:19337   */\n      dup3\n        /* \"#utility.yul\":19271:19344   */\n      tag_437\n      jump\t// in\n    tag_715:\n        /* \"#utility.yul\":19263:19344   */\n      swap2\n      pop\n        /* \"#utility.yul\":19113:19355   */\n      pop\n        /* \"#utility.yul\":19442:19448   */\n      0x0120\n        /* \"#utility.yul\":19435:19440   */\n      dup4\n        /* \"#utility.yul\":19431:19449   */\n      add\n        /* \"#utility.yul\":19425:19450   */\n      mload\n        /* \"#utility.yul\":19463:19528   */\n      tag_716\n        /* \"#utility.yul\":19520:19526   */\n      0x0120\n        /* \"#utility.yul\":19515:19518   */\n      dup7\n        /* \"#utility.yul\":19511:19527   */\n      add\n        /* \"#utility.yul\":19497:19509   */\n      dup3\n        /* \"#utility.yul\":19463:19528   */\n      tag_439\n      jump\t// in\n    tag_716:\n        /* \"#utility.yul\":19365:19538   */\n      pop\n        /* \"#utility.yul\":19625:19631   */\n      0x0140\n        /* \"#utility.yul\":19618:19623   */\n      dup4\n        /* \"#utility.yul\":19614:19632   */\n      add\n        /* \"#utility.yul\":19608:19633   */\n      mload\n        /* \"#utility.yul\":19646:19711   */\n      tag_717\n        /* \"#utility.yul\":19703:19709   */\n      0x0140\n        /* \"#utility.yul\":19698:19701   */\n      dup7\n        /* \"#utility.yul\":19694:19710   */\n      add\n        /* \"#utility.yul\":19680:19692   */\n      dup3\n        /* \"#utility.yul\":19646:19711   */\n      tag_473\n      jump\t// in\n    tag_717:\n        /* \"#utility.yul\":19548:19721   */\n      pop\n        /* \"#utility.yul\":19738:19742   */\n      dup1\n        /* \"#utility.yul\":19731:19742   */\n      swap2\n      pop\n        /* \"#utility.yul\":17437:19748   */\n      pop\n        /* \"#utility.yul\":17279:19748   */\n      swap3\n      swap2\n      pop\n      pop\n      jump\t// out\n        /* \"#utility.yul\":19754:20195   */\n    tag_64:\n        /* \"#utility.yul\":19931:19935   */\n      0x00\n        /* \"#utility.yul\":19969:19971   */\n      0x20\n        /* \"#utility.yul\":19958:19967   */\n      dup3\n        /* \"#utility.yul\":19954:19972   */\n      add\n        /* \"#utility.yul\":19946:19972   */\n      swap1\n      pop\n        /* \"#utility.yul\":20018:20027   */\n      dup2\n        /* \"#utility.yul\":20012:20016   */\n      dup2\n        /* \"#utility.yul\":20008:20028   */\n      sub\n        /* \"#utility.yul\":20004:20005   */\n      0x00\n        /* \"#utility.yul\":19993:20002   */\n      dup4\n        /* \"#utility.yul\":19989:20006   */\n      add\n        /* \"#utility.yul\":19982:20029   */\n      mstore\n        /* \"#utility.yul\":20046:20188   */\n      tag_719\n        /* \"#utility.yul\":20183:20187   */\n      dup2\n        /* \"#utility.yul\":20174:20180   */\n      dup5\n        /* \"#utility.yul\":20046:20188   */\n      tag_475\n      jump\t// in\n    tag_719:\n        /* \"#utility.yul\":20038:20188   */\n      swap1\n      pop\n        /* \"#utility.yul\":19754:20195   */\n      swap3\n      swap2\n      pop\n      pop\n      jump\t// out\n        /* \"#utility.yul\":20201:20321   */\n    tag_476:\n        /* \"#utility.yul\":20273:20296   */\n      tag_721\n        /* \"#utility.yul\":20290:20295   */\n      dup2\n        /* \"#utility.yul\":20273:20296   */\n      tag_469\n      jump\t// in\n    tag_721:\n        /* \"#utility.yul\":20266:20271   */\n      dup2\n        /* \"#utility.yul\":20263:20297   */\n      eq\n        /* \"#utility.yul\":20253:20315   */\n      tag_722\n      jumpi\n        /* \"#utility.yul\":20311:20312   */\n      0x00\n        /* \"#utility.yul\":20308:20309   */\n      0x00\n        /* \"#utility.yul\":20301:20313   */\n      revert\n        /* \"#utility.yul\":20253:20315   */\n    tag_722:\n        /* \"#utility.yul\":20201:20321   */\n      pop\n      jump\t// out\n        /* \"#utility.yul\":20327:20464   */\n    tag_477:\n        /* \"#utility.yul\":20372:20377   */\n      0x00\n        /* \"#utility.yul\":20410:20416   */\n      dup2\n        /* \"#utility.yul\":20397:20417   */\n      calldataload\n        /* \"#utility.yul\":20388:20417   */\n      swap1\n      pop\n        /* \"#utility.yul\":20426:20458   */\n      tag_724\n        /* \"#utility.yul\":20452:20457   */\n      dup2\n        /* \"#utility.yul\":20426:20458   */\n      tag_476\n      jump\t// in\n    tag_724:\n        /* \"#utility.yul\":20327:20464   */\n      swap3\n      swap2\n      pop\n      pop\n      jump\t// out\n        /* \"#utility.yul\":20470:22345   */\n    tag_70:\n        /* \"#utility.yul\":20615:20621   */\n      0x00\n        /* \"#utility.yul\":20623:20629   */\n      0x00\n        /* \"#utility.yul\":20631:20637   */\n      0x00\n        /* \"#utility.yul\":20639:20645   */\n      0x00\n        /* \"#utility.yul\":20647:20653   */\n      0x00\n        /* \"#utility.yul\":20655:20661   */\n      0x00\n        /* \"#utility.yul\":20663:20669   */\n      0x00\n        /* \"#utility.yul\":20671:20677   */\n      0x00\n        /* \"#utility.yul\":20720:20723   */\n      0x0100\n        /* \"#utility.yul\":20708:20717   */\n      dup10\n        /* \"#utility.yul\":20699:20706   */\n      dup12\n        /* \"#utility.yul\":20695:20718   */\n      sub\n        /* \"#utility.yul\":20691:20724   */\n      slt\n        /* \"#utility.yul\":20688:20808   */\n      iszero\n      tag_726\n      jumpi\n        /* \"#utility.yul\":20727:20806   */\n      tag_727\n      tag_443\n      jump\t// in\n    tag_727:\n        /* \"#utility.yul\":20688:20808   */\n    tag_726:\n        /* \"#utility.yul\":20875:20876   */\n      0x00\n        /* \"#utility.yul\":20864:20873   */\n      dup10\n        /* \"#utility.yul\":20860:20877   */\n      add\n        /* \"#utility.yul\":20847:20878   */\n      calldataload\n        /* \"#utility.yul\":20905:20923   */\n      0xffffffffffffffff\n        /* \"#utility.yul\":20897:20903   */\n      dup2\n        /* \"#utility.yul\":20894:20924   */\n      gt\n        /* \"#utility.yul\":20891:21008   */\n      iszero\n      tag_728\n      jumpi\n        /* \"#utility.yul\":20927:21006   */\n      tag_729\n      tag_444\n      jump\t// in\n    tag_729:\n        /* \"#utility.yul\":20891:21008   */\n    tag_728:\n        /* \"#utility.yul\":21032:21095   */\n      tag_730\n        /* \"#utility.yul\":21087:21094   */\n      dup12\n        /* \"#utility.yul\":21078:21084   */\n      dup3\n        /* \"#utility.yul\":21067:21076   */\n      dup13\n        /* \"#utility.yul\":21063:21085   */\n      add\n        /* \"#utility.yul\":21032:21095   */\n      tag_453\n      jump\t// in\n    tag_730:\n        /* \"#utility.yul\":21022:21095   */\n      swap9\n      pop\n        /* \"#utility.yul\":20818:21105   */\n      pop\n        /* \"#utility.yul\":21144:21146   */\n      0x20\n        /* \"#utility.yul\":21170:21222   */\n      tag_731\n        /* \"#utility.yul\":21214:21221   */\n      dup12\n        /* \"#utility.yul\":21205:21211   */\n      dup3\n        /* \"#utility.yul\":21194:21203   */\n      dup13\n        /* \"#utility.yul\":21190:21212   */\n      add\n        /* \"#utility.yul\":21170:21222   */\n      tag_477\n      jump\t// in\n    tag_731:\n        /* \"#utility.yul\":21160:21222   */\n      swap8\n      pop\n        /* \"#utility.yul\":21115:21232   */\n      pop\n        /* \"#utility.yul\":21271:21273   */\n      0x40\n        /* \"#utility.yul\":21297:21348   */\n      tag_732\n        /* \"#utility.yul\":21340:21347   */\n      dup12\n        /* \"#utility.yul\":21331:21337   */\n      dup3\n        /* \"#utility.yul\":21320:21329   */\n      dup13\n        /* \"#utility.yul\":21316:21338   */\n      add\n        /* \"#utility.yul\":21297:21348   */\n      tag_458\n      jump\t// in\n    tag_732:\n        /* \"#utility.yul\":21287:21348   */\n      swap7\n      pop\n        /* \"#utility.yul\":21242:21358   */\n      pop\n        /* \"#utility.yul\":21397:21399   */\n      0x60\n        /* \"#utility.yul\":21423:21474   */\n      tag_733\n        /* \"#utility.yul\":21466:21473   */\n      dup12\n        /* \"#utility.yul\":21457:21463   */\n      dup3\n        /* \"#utility.yul\":21446:21455   */\n      dup13\n        /* \"#utility.yul\":21442:21464   */\n      add\n        /* \"#utility.yul\":21423:21474   */\n      tag_458\n      jump\t// in\n    tag_733:\n        /* \"#utility.yul\":21413:21474   */\n      swap6\n      pop\n        /* \"#utility.yul\":21368:21484   */\n      pop\n        /* \"#utility.yul\":21523:21526   */\n      0x80\n        /* \"#utility.yul\":21550:21601   */\n      tag_734\n        /* \"#utility.yul\":21593:21600   */\n      dup12\n        /* \"#utility.yul\":21584:21590   */\n      dup3\n        /* \"#utility.yul\":21573:21582   */\n      dup13\n        /* \"#utility.yul\":21569:21591   */\n      add\n        /* \"#utility.yul\":21550:21601   */\n      tag_458\n      jump\t// in\n    tag_734:\n        /* \"#utility.yul\":21540:21601   */\n      swap5\n      pop\n        /* \"#utility.yul\":21494:21611   */\n      pop\n        /* \"#utility.yul\":21678:21681   */\n      0xa0\n        /* \"#utility.yul\":21667:21676   */\n      dup10\n        /* \"#utility.yul\":21663:21682   */\n      add\n        /* \"#utility.yul\":21650:21683   */\n      calldataload\n        /* \"#utility.yul\":21710:21728   */\n      0xffffffffffffffff\n        /* \"#utility.yul\":21702:21708   */\n      dup2\n        /* \"#utility.yul\":21699:21729   */\n      gt\n        /* \"#utility.yul\":21696:21813   */\n      iszero\n      tag_735\n      jumpi\n        /* \"#utility.yul\":21732:21811   */\n      tag_736\n      tag_444\n      jump\t// in\n    tag_736:\n        /* \"#utility.yul\":21696:21813   */\n    tag_735:\n        /* \"#utility.yul\":21837:21900   */\n      tag_737\n        /* \"#utility.yul\":21892:21899   */\n      dup12\n        /* \"#utility.yul\":21883:21889   */\n      dup3\n        /* \"#utility.yul\":21872:21881   */\n      dup13\n        /* \"#utility.yul\":21868:21890   */\n      add\n        /* \"#utility.yul\":21837:21900   */\n      tag_453\n      jump\t// in\n    tag_737:\n        /* \"#utility.yul\":21827:21900   */\n      swap4\n      pop\n        /* \"#utility.yul\":21621:21910   */\n      pop\n        /* \"#utility.yul\":21977:21980   */\n      0xc0\n        /* \"#utility.yul\":21966:21975   */\n      dup10\n        /* \"#utility.yul\":21962:21981   */\n      add\n        /* \"#utility.yul\":21949:21982   */\n      calldataload\n        /* \"#utility.yul\":22009:22027   */\n      0xffffffffffffffff\n        /* \"#utility.yul\":22001:22007   */\n      dup2\n        /* \"#utility.yul\":21998:22028   */\n      gt\n        /* \"#utility.yul\":21995:22112   */\n      iszero\n      tag_738\n      jumpi\n        /* \"#utility.yul\":22031:22110   */\n      tag_739\n      tag_444\n      jump\t// in\n    tag_739:\n        /* \"#utility.yul\":21995:22112   */\n    tag_738:\n        /* \"#utility.yul\":22136:22199   */\n      tag_740\n        /* \"#utility.yul\":22191:22198   */\n      dup12\n        /* \"#utility.yul\":22182:22188   */\n      dup3\n        /* \"#utility.yul\":22171:22180   */\n      dup13\n        /* \"#utility.yul\":22167:22189   */\n      add\n        /* \"#utility.yul\":22136:22199   */\n      tag_453\n      jump\t// in\n    tag_740:\n        /* \"#utility.yul\":22126:22199   */\n      swap3\n      pop\n        /* \"#utility.yul\":21920:22209   */\n      pop\n        /* \"#utility.yul\":22248:22251   */\n      0xe0\n        /* \"#utility.yul\":22275:22328   */\n      tag_741\n        /* \"#utility.yul\":22320:22327   */\n      dup12\n        /* \"#utility.yul\":22311:22317   */\n      dup3\n        /* \"#utility.yul\":22300:22309   */\n      dup13\n        /* \"#utility.yul\":22296:22318   */\n      add\n        /* \"#utility.yul\":22275:22328   */\n      tag_461\n      jump\t// in\n    tag_741:\n        /* \"#utility.yul\":22265:22328   */\n      swap2\n      pop\n        /* \"#utility.yul\":22219:22338   */\n      pop\n        /* \"#utility.yul\":20470:22345   */\n      swap3\n      swap6\n      swap9\n      pop\n      swap3\n      swap6\n      swap9\n      swap1\n      swap4\n      swap7\n      pop\n      jump\t// out\n        /* \"#utility.yul\":22351:22468   */\n    tag_478:\n        /* \"#utility.yul\":22460:22461   */\n      0x00\n        /* \"#utility.yul\":22457:22458   */\n      0x00\n        /* \"#utility.yul\":22450:22462   */\n      revert\n        /* \"#utility.yul\":22474:22591   */\n    tag_479:\n        /* \"#utility.yul\":22583:22584   */\n      0x00\n        /* \"#utility.yul\":22580:22581   */\n      0x00\n        /* \"#utility.yul\":22573:22585   */\n      revert\n        /* \"#utility.yul\":22611:23164   */\n    tag_480:\n        /* \"#utility.yul\":22669:22677   */\n      0x00\n        /* \"#utility.yul\":22679:22685   */\n      0x00\n        /* \"#utility.yul\":22729:22732   */\n      dup4\n        /* \"#utility.yul\":22722:22726   */\n      0x1f\n        /* \"#utility.yul\":22714:22720   */\n      dup5\n        /* \"#utility.yul\":22710:22727   */\n      add\n        /* \"#utility.yul\":22706:22733   */\n      slt\n        /* \"#utility.yul\":22696:22818   */\n      tag_745\n      jumpi\n        /* \"#utility.yul\":22737:22816   */\n      tag_746\n      tag_445\n      jump\t// in\n    tag_746:\n        /* \"#utility.yul\":22696:22818   */\n    tag_745:\n        /* \"#utility.yul\":22850:22856   */\n      dup3\n        /* \"#utility.yul\":22837:22857   */\n      calldataload\n        /* \"#utility.yul\":22827:22857   */\n      swap1\n      pop\n        /* \"#utility.yul\":22880:22898   */\n      0xffffffffffffffff\n        /* \"#utility.yul\":22872:22878   */\n      dup2\n        /* \"#utility.yul\":22869:22899   */\n      gt\n        /* \"#utility.yul\":22866:22983   */\n      iszero\n      tag_747\n      jumpi\n        /* \"#utility.yul\":22902:22981   */\n      tag_748\n      tag_478\n      jump\t// in\n    tag_748:\n        /* \"#utility.yul\":22866:22983   */\n    tag_747:\n        /* \"#utility.yul\":23016:23020   */\n      0x20\n        /* \"#utility.yul\":23008:23014   */\n      dup4\n        /* \"#utility.yul\":23004:23021   */\n      add\n        /* \"#utility.yul\":22992:23021   */\n      swap2\n      pop\n        /* \"#utility.yul\":23070:23073   */\n      dup4\n        /* \"#utility.yul\":23062:23066   */\n      0x01\n        /* \"#utility.yul\":23054:23060   */\n      dup3\n        /* \"#utility.yul\":23050:23067   */\n      mul\n        /* \"#utility.yul\":23040:23048   */\n      dup4\n        /* \"#utility.yul\":23036:23068   */\n      add\n        /* \"#utility.yul\":23033:23074   */\n      gt\n        /* \"#utility.yul\":23030:23158   */\n      iszero\n      tag_749\n      jumpi\n        /* \"#utility.yul\":23077:23156   */\n      tag_750\n      tag_479\n      jump\t// in\n    tag_750:\n        /* \"#utility.yul\":23030:23158   */\n    tag_749:\n        /* \"#utility.yul\":22611:23164   */\n      swap3\n      pop\n      swap3\n      swap1\n      pop\n      jump\t// out\n        /* \"#utility.yul\":23170:23699   */\n    tag_75:\n        /* \"#utility.yul\":23241:23247   */\n      0x00\n        /* \"#utility.yul\":23249:23255   */\n      0x00\n        /* \"#utility.yul\":23298:23300   */\n      0x20\n        /* \"#utility.yul\":23286:23295   */\n      dup4\n        /* \"#utility.yul\":23277:23284   */\n      dup6\n        /* \"#utility.yul\":23273:23296   */\n      sub\n        /* \"#utility.yul\":23269:23301   */\n      slt\n        /* \"#utility.yul\":23266:23385   */\n      iszero\n      tag_752\n      jumpi\n        /* \"#utility.yul\":23304:23383   */\n      tag_753\n      tag_443\n      jump\t// in\n    tag_753:\n        /* \"#utility.yul\":23266:23385   */\n    tag_752:\n        /* \"#utility.yul\":23452:23453   */\n      0x00\n        /* \"#utility.yul\":23441:23450   */\n      dup4\n        /* \"#utility.yul\":23437:23454   */\n      add\n        /* \"#utility.yul\":23424:23455   */\n      calldataload\n        /* \"#utility.yul\":23482:23500   */\n      0xffffffffffffffff\n        /* \"#utility.yul\":23474:23480   */\n      dup2\n        /* \"#utility.yul\":23471:23501   */\n      gt\n        /* \"#utility.yul\":23468:23585   */\n      iszero\n      tag_754\n      jumpi\n        /* \"#utility.yul\":23504:23583   */\n      tag_755\n      tag_444\n      jump\t// in\n    tag_755:\n        /* \"#utility.yul\":23468:23585   */\n    tag_754:\n        /* \"#utility.yul\":23617:23682   */\n      tag_756\n        /* \"#utility.yul\":23674:23681   */\n      dup6\n        /* \"#utility.yul\":23665:23671   */\n      dup3\n        /* \"#utility.yul\":23654:23663   */\n      dup7\n        /* \"#utility.yul\":23650:23672   */\n      add\n        /* \"#utility.yul\":23617:23682   */\n      tag_480\n      jump\t// in\n    tag_756:\n        /* \"#utility.yul\":23599:23682   */\n      swap3\n      pop\n      swap3\n      pop\n        /* \"#utility.yul\":23395:23692   */\n      pop\n        /* \"#utility.yul\":23170:23699   */\n      swap3\n      pop\n      swap3\n      swap1\n      pop\n      jump\t// out\n        /* \"#utility.yul\":23705:23847   */\n    tag_481:\n        /* \"#utility.yul\":23800:23806   */\n      0x00\n        /* \"#utility.yul\":23834:23839   */\n      dup2\n        /* \"#utility.yul\":23828:23840   */\n      mload\n        /* \"#utility.yul\":23818:23840   */\n      swap1\n      pop\n        /* \"#utility.yul\":23705:23847   */\n      swap2\n      swap1\n      pop\n      jump\t// out\n        /* \"#utility.yul\":23853:24065   */\n    tag_482:\n        /* \"#utility.yul\":23980:23991   */\n      0x00\n        /* \"#utility.yul\":24014:24020   */\n      dup3\n        /* \"#utility.yul\":24009:24012   */\n      dup3\n        /* \"#utility.yul\":24002:24021   */\n      mstore\n        /* \"#utility.yul\":24054:24058   */\n      0x20\n        /* \"#utility.yul\":24049:24052   */\n      dup3\n        /* \"#utility.yul\":24045:24059   */\n      add\n        /* \"#utility.yul\":24030:24059   */\n      swap1\n      pop\n        /* \"#utility.yul\":23853:24065   */\n      swap3\n      swap2\n      pop\n      pop\n      jump\t// out\n        /* \"#utility.yul\":24071:24231   */\n    tag_483:\n        /* \"#utility.yul\":24166:24170   */\n      0x00\n        /* \"#utility.yul\":24189:24192   */\n      dup2\n        /* \"#utility.yul\":24181:24192   */\n      swap1\n      pop\n        /* \"#utility.yul\":24219:24223   */\n      0x20\n        /* \"#utility.yul\":24214:24217   */\n      dup3\n        /* \"#utility.yul\":24210:24224   */\n      add\n        /* \"#utility.yul\":24202:24224   */\n      swap1\n      pop\n        /* \"#utility.yul\":24071:24231   */\n      swap2\n      swap1\n      pop\n      jump\t// out\n        /* \"#utility.yul\":24327:26691   */\n    tag_484:\n        /* \"#utility.yul\":24442:24445   */\n      0x00\n        /* \"#utility.yul\":24478:24484   */\n      0x0160\n        /* \"#utility.yul\":24473:24476   */\n      dup4\n        /* \"#utility.yul\":24469:24485   */\n      add\n        /* \"#utility.yul\":24570:24574   */\n      0x00\n        /* \"#utility.yul\":24563:24568   */\n      dup4\n        /* \"#utility.yul\":24559:24575   */\n      add\n        /* \"#utility.yul\":24553:24576   */\n      mload\n        /* \"#utility.yul\":24589:24652   */\n      tag_761\n        /* \"#utility.yul\":24646:24650   */\n      0x00\n        /* \"#utility.yul\":24641:24644   */\n      dup7\n        /* \"#utility.yul\":24637:24651   */\n      add\n        /* \"#utility.yul\":24623:24635   */\n      dup3\n        /* \"#utility.yul\":24589:24652   */\n      tag_439\n      jump\t// in\n    tag_761:\n        /* \"#utility.yul\":24495:24662   */\n      pop\n        /* \"#utility.yul\":24744:24748   */\n      0x20\n        /* \"#utility.yul\":24737:24742   */\n      dup4\n        /* \"#utility.yul\":24733:24749   */\n      add\n        /* \"#utility.yul\":24727:24750   */\n      mload\n        /* \"#utility.yul\":24797:24800   */\n      dup5\n        /* \"#utility.yul\":24791:24795   */\n      dup3\n        /* \"#utility.yul\":24787:24801   */\n      sub\n        /* \"#utility.yul\":24780:24784   */\n      0x20\n        /* \"#utility.yul\":24775:24778   */\n      dup7\n        /* \"#utility.yul\":24771:24785   */\n      add\n        /* \"#utility.yul\":24764:24802   */\n      mstore\n        /* \"#utility.yul\":24823:24896   */\n      tag_762\n        /* \"#utility.yul\":24891:24895   */\n      dup3\n        /* \"#utility.yul\":24877:24889   */\n      dup3\n        /* \"#utility.yul\":24823:24896   */\n      tag_437\n      jump\t// in\n    tag_762:\n        /* \"#utility.yul\":24815:24896   */\n      swap2\n      pop\n        /* \"#utility.yul\":24672:24907   */\n      pop\n        /* \"#utility.yul\":24996:25000   */\n      0x40\n        /* \"#utility.yul\":24989:24994   */\n      dup4\n        /* \"#utility.yul\":24985:25001   */\n      add\n        /* \"#utility.yul\":24979:25002   */\n      mload\n        /* \"#utility.yul\":25015:25076   */\n      tag_763\n        /* \"#utility.yul\":25070:25074   */\n      0x40\n        /* \"#utility.yul\":25065:25068   */\n      dup7\n        /* \"#utility.yul\":25061:25075   */\n      add\n        /* \"#utility.yul\":25047:25059   */\n      dup3\n        /* \"#utility.yul\":25015:25076   */\n      tag_470\n      jump\t// in\n    tag_763:\n        /* \"#utility.yul\":24917:25086   */\n      pop\n        /* \"#utility.yul\":25172:25176   */\n      0x60\n        /* \"#utility.yul\":25165:25170   */\n      dup4\n        /* \"#utility.yul\":25161:25177   */\n      add\n        /* \"#utility.yul\":25155:25178   */\n      mload\n        /* \"#utility.yul\":25191:25250   */\n      tag_764\n        /* \"#utility.yul\":25244:25248   */\n      0x60\n        /* \"#utility.yul\":25239:25242   */\n      dup7\n        /* \"#utility.yul\":25235:25249   */\n      add\n        /* \"#utility.yul\":25221:25233   */\n      dup3\n        /* \"#utility.yul\":25191:25250   */\n      tag_471\n      jump\t// in\n    tag_764:\n        /* \"#utility.yul\":25096:25260   */\n      pop\n        /* \"#utility.yul\":25345:25349   */\n      0x80\n        /* \"#utility.yul\":25338:25343   */\n      dup4\n        /* \"#utility.yul\":25334:25350   */\n      add\n        /* \"#utility.yul\":25328:25351   */\n      mload\n        /* \"#utility.yul\":25364:25423   */\n      tag_765\n        /* \"#utility.yul\":25417:25421   */\n      0x80\n        /* \"#utility.yul\":25412:25415   */\n      dup7\n        /* \"#utility.yul\":25408:25422   */\n      add\n        /* \"#utility.yul\":25394:25406   */\n      dup3\n        /* \"#utility.yul\":25364:25423   */\n      tag_471\n      jump\t// in\n    tag_765:\n        /* \"#utility.yul\":25270:25433   */\n      pop\n        /* \"#utility.yul\":25520:25524   */\n      0xa0\n        /* \"#utility.yul\":25513:25518   */\n      dup4\n        /* \"#utility.yul\":25509:25525   */\n      add\n        /* \"#utility.yul\":25503:25526   */\n      mload\n        /* \"#utility.yul\":25539:25598   */\n      tag_766\n        /* \"#utility.yul\":25592:25596   */\n      0xa0\n        /* \"#utility.yul\":25587:25590   */\n      dup7\n        /* \"#utility.yul\":25583:25597   */\n      add\n        /* \"#utility.yul\":25569:25581   */\n      dup3\n        /* \"#utility.yul\":25539:25598   */\n      tag_471\n      jump\t// in\n    tag_766:\n        /* \"#utility.yul\":25443:25608   */\n      pop\n        /* \"#utility.yul\":25698:25702   */\n      0xc0\n        /* \"#utility.yul\":25691:25696   */\n      dup4\n        /* \"#utility.yul\":25687:25703   */\n      add\n        /* \"#utility.yul\":25681:25704   */\n      mload\n        /* \"#utility.yul\":25751:25754   */\n      dup5\n        /* \"#utility.yul\":25745:25749   */\n      dup3\n        /* \"#utility.yul\":25741:25755   */\n      sub\n        /* \"#utility.yul\":25734:25738   */\n      0xc0\n        /* \"#utility.yul\":25729:25732   */\n      dup7\n        /* \"#utility.yul\":25725:25739   */\n      add\n        /* \"#utility.yul\":25718:25756   */\n      mstore\n        /* \"#utility.yul\":25777:25850   */\n      tag_767\n        /* \"#utility.yul\":25845:25849   */\n      dup3\n        /* \"#utility.yul\":25831:25843   */\n      dup3\n        /* \"#utility.yul\":25777:25850   */\n      tag_437\n      jump\t// in\n    tag_767:\n        /* \"#utility.yul\":25769:25850   */\n      swap2\n      pop\n        /* \"#utility.yul\":25618:25861   */\n      pop\n        /* \"#utility.yul\":25949:25953   */\n      0xe0\n        /* \"#utility.yul\":25942:25947   */\n      dup4\n        /* \"#utility.yul\":25938:25954   */\n      add\n        /* \"#utility.yul\":25932:25955   */\n      mload\n        /* \"#utility.yul\":26002:26005   */\n      dup5\n        /* \"#utility.yul\":25996:26000   */\n      dup3\n        /* \"#utility.yul\":25992:26006   */\n      sub\n        /* \"#utility.yul\":25985:25989   */\n      0xe0\n        /* \"#utility.yul\":25980:25983   */\n      dup7\n        /* \"#utility.yul\":25976:25990   */\n      add\n        /* \"#utility.yul\":25969:26007   */\n      mstore\n        /* \"#utility.yul\":26028:26101   */\n      tag_768\n        /* \"#utility.yul\":26096:26100   */\n      dup3\n        /* \"#utility.yul\":26082:26094   */\n      dup3\n        /* \"#utility.yul\":26028:26101   */\n      tag_437\n      jump\t// in\n    tag_768:\n        /* \"#utility.yul\":26020:26101   */\n      swap2\n      pop\n        /* \"#utility.yul\":25871:26112   */\n      pop\n        /* \"#utility.yul\":26202:26208   */\n      0x0100\n        /* \"#utility.yul\":26195:26200   */\n      dup4\n        /* \"#utility.yul\":26191:26209   */\n      add\n        /* \"#utility.yul\":26185:26210   */\n      mload\n        /* \"#utility.yul\":26223:26288   */\n      tag_769\n        /* \"#utility.yul\":26280:26286   */\n      0x0100\n        /* \"#utility.yul\":26275:26278   */\n      dup7\n        /* \"#utility.yul\":26271:26287   */\n      add\n        /* \"#utility.yul\":26257:26269   */\n      dup3\n        /* \"#utility.yul\":26223:26288   */\n      tag_472\n      jump\t// in\n    tag_769:\n        /* \"#utility.yul\":26122:26298   */\n      pop\n        /* \"#utility.yul\":26385:26391   */\n      0x0120\n        /* \"#utility.yul\":26378:26383   */\n      dup4\n        /* \"#utility.yul\":26374:26392   */\n      add\n        /* \"#utility.yul\":26368:26393   */\n      mload\n        /* \"#utility.yul\":26406:26471   */\n      tag_770\n        /* \"#utility.yul\":26463:26469   */\n      0x0120\n        /* \"#utility.yul\":26458:26461   */\n      dup7\n        /* \"#utility.yul\":26454:26470   */\n      add\n        /* \"#utility.yul\":26440:26452   */\n      dup3\n        /* \"#utility.yul\":26406:26471   */\n      tag_439\n      jump\t// in\n    tag_770:\n        /* \"#utility.yul\":26308:26481   */\n      pop\n        /* \"#utility.yul\":26568:26574   */\n      0x0140\n        /* \"#utility.yul\":26561:26566   */\n      dup4\n        /* \"#utility.yul\":26557:26575   */\n      add\n        /* \"#utility.yul\":26551:26576   */\n      mload\n        /* \"#utility.yul\":26589:26654   */\n      tag_771\n        /* \"#utility.yul\":26646:26652   */\n      0x0140\n        /* \"#utility.yul\":26641:26644   */\n      dup7\n        /* \"#utility.yul\":26637:26653   */\n      add\n        /* \"#utility.yul\":26623:26635   */\n      dup3\n        /* \"#utility.yul\":26589:26654   */\n      tag_473\n      jump\t// in\n    tag_771:\n        /* \"#utility.yul\":26491:26664   */\n      pop\n        /* \"#utility.yul\":26681:26685   */\n      dup1\n        /* \"#utility.yul\":26674:26685   */\n      swap2\n      pop\n        /* \"#utility.yul\":24447:26691   */\n      pop\n        /* \"#utility.yul\":24327:26691   */\n      swap3\n      swap2\n      pop\n      pop\n      jump\t// out\n        /* \"#utility.yul\":26697:26965   */\n    tag_485:\n        /* \"#utility.yul\":26822:26832   */\n      0x00\n        /* \"#utility.yul\":26857:26959   */\n      tag_773\n        /* \"#utility.yul\":26955:26958   */\n      dup4\n        /* \"#utility.yul\":26947:26953   */\n      dup4\n        /* \"#utility.yul\":26857:26959   */\n      tag_484\n      jump\t// in\n    tag_773:\n        /* \"#utility.yul\":26843:26959   */\n      swap1\n      pop\n        /* \"#utility.yul\":26697:26965   */\n      swap3\n      swap2\n      pop\n      pop\n      jump\t// out\n        /* \"#utility.yul\":26971:27112   */\n    tag_486:\n        /* \"#utility.yul\":27069:27073   */\n      0x00\n        /* \"#utility.yul\":27101:27105   */\n      0x20\n        /* \"#utility.yul\":27096:27099   */\n      dup3\n        /* \"#utility.yul\":27092:27106   */\n      add\n        /* \"#utility.yul\":27084:27106   */\n      swap1\n      pop\n        /* \"#utility.yul\":26971:27112   */\n      swap2\n      swap1\n      pop\n      jump\t// out\n        /* \"#utility.yul\":27212:28347   */\n    tag_487:\n        /* \"#utility.yul\":27387:27390   */\n      0x00\n        /* \"#utility.yul\":27416:27498   */\n      tag_776\n        /* \"#utility.yul\":27492:27497   */\n      dup3\n        /* \"#utility.yul\":27416:27498   */\n      tag_481\n      jump\t// in\n    tag_776:\n        /* \"#utility.yul\":27514:27628   */\n      tag_777\n        /* \"#utility.yul\":27621:27627   */\n      dup2\n        /* \"#utility.yul\":27616:27619   */\n      dup6\n        /* \"#utility.yul\":27514:27628   */\n      tag_482\n      jump\t// in\n    tag_777:\n        /* \"#utility.yul\":27507:27628   */\n      swap4\n      pop\n        /* \"#utility.yul\":27654:27657   */\n      dup4\n        /* \"#utility.yul\":27699:27703   */\n      0x20\n        /* \"#utility.yul\":27691:27697   */\n      dup3\n        /* \"#utility.yul\":27687:27704   */\n      mul\n        /* \"#utility.yul\":27682:27685   */\n      dup6\n        /* \"#utility.yul\":27678:27705   */\n      add\n        /* \"#utility.yul\":27729:27813   */\n      tag_778\n        /* \"#utility.yul\":27807:27812   */\n      dup6\n        /* \"#utility.yul\":27729:27813   */\n      tag_483\n      jump\t// in\n    tag_778:\n        /* \"#utility.yul\":27836:27843   */\n      dup1\n        /* \"#utility.yul\":27867:27868   */\n      0x00\n        /* \"#utility.yul\":27852:28302   */\n    tag_779:\n        /* \"#utility.yul\":27877:27883   */\n      dup6\n        /* \"#utility.yul\":27874:27875   */\n      dup2\n        /* \"#utility.yul\":27871:27884   */\n      lt\n        /* \"#utility.yul\":27852:28302   */\n      iszero\n      tag_781\n      jumpi\n        /* \"#utility.yul\":27948:27957   */\n      dup5\n        /* \"#utility.yul\":27942:27946   */\n      dup5\n        /* \"#utility.yul\":27938:27958   */\n      sub\n        /* \"#utility.yul\":27933:27936   */\n      dup10\n        /* \"#utility.yul\":27926:27959   */\n      mstore\n        /* \"#utility.yul\":27999:28005   */\n      dup2\n        /* \"#utility.yul\":27993:28006   */\n      mload\n        /* \"#utility.yul\":28027:28147   */\n      tag_782\n        /* \"#utility.yul\":28142:28146   */\n      dup6\n        /* \"#utility.yul\":28127:28140   */\n      dup3\n        /* \"#utility.yul\":28027:28147   */\n      tag_485\n      jump\t// in\n    tag_782:\n        /* \"#utility.yul\":28019:28147   */\n      swap5\n      pop\n        /* \"#utility.yul\":28170:28258   */\n      tag_783\n        /* \"#utility.yul\":28251:28257   */\n      dup4\n        /* \"#utility.yul\":28170:28258   */\n      tag_486\n      jump\t// in\n    tag_783:\n        /* \"#utility.yul\":28160:28258   */\n      swap3\n      pop\n        /* \"#utility.yul\":28287:28291   */\n      0x20\n        /* \"#utility.yul\":28282:28285   */\n      dup11\n        /* \"#utility.yul\":28278:28292   */\n      add\n        /* \"#utility.yul\":28271:28292   */\n      swap10\n      pop\n        /* \"#utility.yul\":27912:28302   */\n      pop\n        /* \"#utility.yul\":27899:27900   */\n      0x01\n        /* \"#utility.yul\":27896:27897   */\n      dup2\n        /* \"#utility.yul\":27892:27901   */\n      add\n        /* \"#utility.yul\":27887:27901   */\n      swap1\n      pop\n        /* \"#utility.yul\":27852:28302   */\n      jump(tag_779)\n    tag_781:\n        /* \"#utility.yul\":27856:27870   */\n      pop\n        /* \"#utility.yul\":28318:28322   */\n      dup3\n        /* \"#utility.yul\":28311:28322   */\n      swap8\n      pop\n        /* \"#utility.yul\":28338:28341   */\n      dup8\n        /* \"#utility.yul\":28331:28341   */\n      swap6\n      pop\n        /* \"#utility.yul\":27392:28347   */\n      pop\n      pop\n      pop\n      pop\n      pop\n        /* \"#utility.yul\":27212:28347   */\n      swap3\n      swap2\n      pop\n      pop\n      jump\t// out\n        /* \"#utility.yul\":28353:28838   */\n    tag_78:\n        /* \"#utility.yul\":28552:28556   */\n      0x00\n        /* \"#utility.yul\":28590:28592   */\n      0x20\n        /* \"#utility.yul\":28579:28588   */\n      dup3\n        /* \"#utility.yul\":28575:28593   */\n      add\n        /* \"#utility.yul\":28567:28593   */\n      swap1\n      pop\n        /* \"#utility.yul\":28639:28648   */\n      dup2\n        /* \"#utility.yul\":28633:28637   */\n      dup2\n        /* \"#utility.yul\":28629:28649   */\n      sub\n        /* \"#utility.yul\":28625:28626   */\n      0x00\n        /* \"#utility.yul\":28614:28623   */\n      dup4\n        /* \"#utility.yul\":28610:28627   */\n      add\n        /* \"#utility.yul\":28603:28650   */\n      mstore\n        /* \"#utility.yul\":28667:28831   */\n      tag_785\n        /* \"#utility.yul\":28826:28830   */\n      dup2\n        /* \"#utility.yul\":28817:28823   */\n      dup5\n        /* \"#utility.yul\":28667:28831   */\n      tag_487\n      jump\t// in\n    tag_785:\n        /* \"#utility.yul\":28659:28831   */\n      swap1\n      pop\n        /* \"#utility.yul\":28353:28838   */\n      swap3\n      swap2\n      pop\n      pop\n      jump\t// out\n        /* \"#utility.yul\":28857:29409   */\n    tag_488:\n        /* \"#utility.yul\":28914:28922   */\n      0x00\n        /* \"#utility.yul\":28924:28930   */\n      0x00\n        /* \"#utility.yul\":28974:28977   */\n      dup4\n        /* \"#utility.yul\":28967:28971   */\n      0x1f\n        /* \"#utility.yul\":28959:28965   */\n      dup5\n        /* \"#utility.yul\":28955:28972   */\n      add\n        /* \"#utility.yul\":28951:28978   */\n      slt\n        /* \"#utility.yul\":28941:29063   */\n      tag_787\n      jumpi\n        /* \"#utility.yul\":28982:29061   */\n      tag_788\n      tag_445\n      jump\t// in\n    tag_788:\n        /* \"#utility.yul\":28941:29063   */\n    tag_787:\n        /* \"#utility.yul\":29095:29101   */\n      dup3\n        /* \"#utility.yul\":29082:29102   */\n      calldataload\n        /* \"#utility.yul\":29072:29102   */\n      swap1\n      pop\n        /* \"#utility.yul\":29125:29143   */\n      0xffffffffffffffff\n        /* \"#utility.yul\":29117:29123   */\n      dup2\n        /* \"#utility.yul\":29114:29144   */\n      gt\n        /* \"#utility.yul\":29111:29228   */\n      iszero\n      tag_789\n      jumpi\n        /* \"#utility.yul\":29147:29226   */\n      tag_790\n      tag_478\n      jump\t// in\n    tag_790:\n        /* \"#utility.yul\":29111:29228   */\n    tag_789:\n        /* \"#utility.yul\":29261:29265   */\n      0x20\n        /* \"#utility.yul\":29253:29259   */\n      dup4\n        /* \"#utility.yul\":29249:29266   */\n      add\n        /* \"#utility.yul\":29237:29266   */\n      swap2\n      pop\n        /* \"#utility.yul\":29315:29318   */\n      dup4\n        /* \"#utility.yul\":29307:29311   */\n      0x01\n        /* \"#utility.yul\":29299:29305   */\n      dup3\n        /* \"#utility.yul\":29295:29312   */\n      mul\n        /* \"#utility.yul\":29285:29293   */\n      dup4\n        /* \"#utility.yul\":29281:29313   */\n      add\n        /* \"#utility.yul\":29278:29319   */\n      gt\n        /* \"#utility.yul\":29275:29403   */\n      iszero\n      tag_791\n      jumpi\n        /* \"#utility.yul\":29322:29401   */\n      tag_792\n      tag_479\n      jump\t// in\n    tag_792:\n        /* \"#utility.yul\":29275:29403   */\n    tag_791:\n        /* \"#utility.yul\":28857:29409   */\n      swap3\n      pop\n      swap3\n      swap1\n      pop\n      jump\t// out\n        /* \"#utility.yul\":29415:29942   */\n    tag_81:\n        /* \"#utility.yul\":29485:29491   */\n      0x00\n        /* \"#utility.yul\":29493:29499   */\n      0x00\n        /* \"#utility.yul\":29542:29544   */\n      0x20\n        /* \"#utility.yul\":29530:29539   */\n      dup4\n        /* \"#utility.yul\":29521:29528   */\n      dup6\n        /* \"#utility.yul\":29517:29540   */\n      sub\n        /* \"#utility.yul\":29513:29545   */\n      slt\n        /* \"#utility.yul\":29510:29629   */\n      iszero\n      tag_794\n      jumpi\n        /* \"#utility.yul\":29548:29627   */\n      tag_795\n      tag_443\n      jump\t// in\n    tag_795:\n        /* \"#utility.yul\":29510:29629   */\n    tag_794:\n        /* \"#utility.yul\":29696:29697   */\n      0x00\n        /* \"#utility.yul\":29685:29694   */\n      dup4\n        /* \"#utility.yul\":29681:29698   */\n      add\n        /* \"#utility.yul\":29668:29699   */\n      calldataload\n        /* \"#utility.yul\":29726:29744   */\n      0xffffffffffffffff\n        /* \"#utility.yul\":29718:29724   */\n      dup2\n        /* \"#utility.yul\":29715:29745   */\n      gt\n        /* \"#utility.yul\":29712:29829   */\n      iszero\n      tag_796\n      jumpi\n        /* \"#utility.yul\":29748:29827   */\n      tag_797\n      tag_444\n      jump\t// in\n    tag_797:\n        /* \"#utility.yul\":29712:29829   */\n    tag_796:\n        /* \"#utility.yul\":29861:29925   */\n      tag_798\n        /* \"#utility.yul\":29917:29924   */\n      dup6\n        /* \"#utility.yul\":29908:29914   */\n      dup3\n        /* \"#utility.yul\":29897:29906   */\n      dup7\n        /* \"#utility.yul\":29893:29915   */\n      add\n        /* \"#utility.yul\":29861:29925   */\n      tag_488\n      jump\t// in\n    tag_798:\n        /* \"#utility.yul\":29843:29925   */\n      swap3\n      pop\n      swap3\n      pop\n        /* \"#utility.yul\":29639:29935   */\n      pop\n        /* \"#utility.yul\":29415:29942   */\n      swap3\n      pop\n      swap3\n      swap1\n      pop\n      jump\t// out\n        /* \"#utility.yul\":29948:30063   */\n    tag_489:\n        /* \"#utility.yul\":30033:30056   */\n      tag_800\n        /* \"#utility.yul\":30050:30055   */\n      dup2\n        /* \"#utility.yul\":30033:30056   */\n      tag_469\n      jump\t// in\n    tag_800:\n        /* \"#utility.yul\":30028:30031   */\n      dup3\n        /* \"#utility.yul\":30021:30057   */\n      mstore\n        /* \"#utility.yul\":29948:30063   */\n      pop\n      pop\n      jump\t// out\n        /* \"#utility.yul\":30069:31646   */\n    tag_87:\n        /* \"#utility.yul\":30489:30493   */\n      0x00\n        /* \"#utility.yul\":30527:30530   */\n      0x0160\n        /* \"#utility.yul\":30516:30525   */\n      dup3\n        /* \"#utility.yul\":30512:30531   */\n      add\n        /* \"#utility.yul\":30504:30531   */\n      swap1\n      pop\n        /* \"#utility.yul\":30541:30612   */\n      tag_802\n        /* \"#utility.yul\":30609:30610   */\n      0x00\n        /* \"#utility.yul\":30598:30607   */\n      dup4\n        /* \"#utility.yul\":30594:30611   */\n      add\n        /* \"#utility.yul\":30585:30591   */\n      dup15\n        /* \"#utility.yul\":30541:30612   */\n      tag_441\n      jump\t// in\n    tag_802:\n        /* \"#utility.yul\":30659:30668   */\n      dup2\n        /* \"#utility.yul\":30653:30657   */\n      dup2\n        /* \"#utility.yul\":30649:30669   */\n      sub\n        /* \"#utility.yul\":30644:30646   */\n      0x20\n        /* \"#utility.yul\":30633:30642   */\n      dup4\n        /* \"#utility.yul\":30629:30647   */\n      add\n        /* \"#utility.yul\":30622:30670   */\n      mstore\n        /* \"#utility.yul\":30687:30765   */\n      tag_803\n        /* \"#utility.yul\":30760:30764   */\n      dup2\n        /* \"#utility.yul\":30751:30757   */\n      dup14\n        /* \"#utility.yul\":30687:30765   */\n      tag_463\n      jump\t// in\n    tag_803:\n        /* \"#utility.yul\":30679:30765   */\n      swap1\n      pop\n        /* \"#utility.yul\":30775:30845   */\n      tag_804\n        /* \"#utility.yul\":30841:30843   */\n      0x40\n        /* \"#utility.yul\":30830:30839   */\n      dup4\n        /* \"#utility.yul\":30826:30844   */\n      add\n        /* \"#utility.yul\":30817:30823   */\n      dup13\n        /* \"#utility.yul\":30775:30845   */\n      tag_489\n      jump\t// in\n    tag_804:\n        /* \"#utility.yul\":30855:30923   */\n      tag_805\n        /* \"#utility.yul\":30919:30921   */\n      0x60\n        /* \"#utility.yul\":30908:30917   */\n      dup4\n        /* \"#utility.yul\":30904:30922   */\n      add\n        /* \"#utility.yul\":30895:30901   */\n      dup12\n        /* \"#utility.yul\":30855:30923   */\n      tag_464\n      jump\t// in\n    tag_805:\n        /* \"#utility.yul\":30933:31002   */\n      tag_806\n        /* \"#utility.yul\":30997:31000   */\n      0x80\n        /* \"#utility.yul\":30986:30995   */\n      dup4\n        /* \"#utility.yul\":30982:31001   */\n      add\n        /* \"#utility.yul\":30973:30979   */\n      dup11\n        /* \"#utility.yul\":30933:31002   */\n      tag_464\n      jump\t// in\n    tag_806:\n        /* \"#utility.yul\":31012:31081   */\n      tag_807\n        /* \"#utility.yul\":31076:31079   */\n      0xa0\n        /* \"#utility.yul\":31065:31074   */\n      dup4\n        /* \"#utility.yul\":31061:31080   */\n      add\n        /* \"#utility.yul\":31052:31058   */\n      dup10\n        /* \"#utility.yul\":31012:31081   */\n      tag_464\n      jump\t// in\n    tag_807:\n        /* \"#utility.yul\":31129:31138   */\n      dup2\n        /* \"#utility.yul\":31123:31127   */\n      dup2\n        /* \"#utility.yul\":31119:31139   */\n      sub\n        /* \"#utility.yul\":31113:31116   */\n      0xc0\n        /* \"#utility.yul\":31102:31111   */\n      dup4\n        /* \"#utility.yul\":31098:31117   */\n      add\n        /* \"#utility.yul\":31091:31140   */\n      mstore\n        /* \"#utility.yul\":31157:31235   */\n      tag_808\n        /* \"#utility.yul\":31230:31234   */\n      dup2\n        /* \"#utility.yul\":31221:31227   */\n      dup9\n        /* \"#utility.yul\":31157:31235   */\n      tag_463\n      jump\t// in\n    tag_808:\n        /* \"#utility.yul\":31149:31235   */\n      swap1\n      pop\n        /* \"#utility.yul\":31283:31292   */\n      dup2\n        /* \"#utility.yul\":31277:31281   */\n      dup2\n        /* \"#utility.yul\":31273:31293   */\n      sub\n        /* \"#utility.yul\":31267:31270   */\n      0xe0\n        /* \"#utility.yul\":31256:31265   */\n      dup4\n        /* \"#utility.yul\":31252:31271   */\n      add\n        /* \"#utility.yul\":31245:31294   */\n      mstore\n        /* \"#utility.yul\":31311:31389   */\n      tag_809\n        /* \"#utility.yul\":31384:31388   */\n      dup2\n        /* \"#utility.yul\":31375:31381   */\n      dup8\n        /* \"#utility.yul\":31311:31389   */\n      tag_463\n      jump\t// in\n    tag_809:\n        /* \"#utility.yul\":31303:31389   */\n      swap1\n      pop\n        /* \"#utility.yul\":31399:31472   */\n      tag_810\n        /* \"#utility.yul\":31467:31470   */\n      0x0100\n        /* \"#utility.yul\":31456:31465   */\n      dup4\n        /* \"#utility.yul\":31452:31471   */\n      add\n        /* \"#utility.yul\":31443:31449   */\n      dup7\n        /* \"#utility.yul\":31399:31472   */\n      tag_465\n      jump\t// in\n    tag_810:\n        /* \"#utility.yul\":31482:31555   */\n      tag_811\n        /* \"#utility.yul\":31550:31553   */\n      0x0120\n        /* \"#utility.yul\":31539:31548   */\n      dup4\n        /* \"#utility.yul\":31535:31554   */\n      add\n        /* \"#utility.yul\":31526:31532   */\n      dup6\n        /* \"#utility.yul\":31482:31555   */\n      tag_441\n      jump\t// in\n    tag_811:\n        /* \"#utility.yul\":31565:31639   */\n      tag_812\n        /* \"#utility.yul\":31634:31637   */\n      0x0140\n        /* \"#utility.yul\":31623:31632   */\n      dup4\n        /* \"#utility.yul\":31619:31638   */\n      add\n        /* \"#utility.yul\":31609:31616   */\n      dup5\n        /* \"#utility.yul\":31565:31639   */\n      tag_468\n      jump\t// in\n    tag_812:\n        /* \"#utility.yul\":30069:31646   */\n      swap13\n      swap12\n      pop\n      pop\n      pop\n      pop\n      pop\n      pop\n      pop\n      pop\n      pop\n      pop\n      pop\n      pop\n      jump\t// out\n        /* \"#utility.yul\":31652:32791   */\n    tag_92:\n        /* \"#utility.yul\":31965:31969   */\n      0x00\n        /* \"#utility.yul\":32003:32006   */\n      0xc0\n        /* \"#utility.yul\":31992:32001   */\n      dup3\n        /* \"#utility.yul\":31988:32007   */\n      add\n        /* \"#utility.yul\":31980:32007   */\n      swap1\n      pop\n        /* \"#utility.yul\":32053:32062   */\n      dup2\n        /* \"#utility.yul\":32047:32051   */\n      dup2\n        /* \"#utility.yul\":32043:32063   */\n      sub\n        /* \"#utility.yul\":32039:32040   */\n      0x00\n        /* \"#utility.yul\":32028:32037   */\n      dup4\n        /* \"#utility.yul\":32024:32041   */\n      add\n        /* \"#utility.yul\":32017:32064   */\n      mstore\n        /* \"#utility.yul\":32081:32159   */\n      tag_814\n        /* \"#utility.yul\":32154:32158   */\n      dup2\n        /* \"#utility.yul\":32145:32151   */\n      dup10\n        /* \"#utility.yul\":32081:32159   */\n      tag_463\n      jump\t// in\n    tag_814:\n        /* \"#utility.yul\":32073:32159   */\n      swap1\n      pop\n        /* \"#utility.yul\":32206:32215   */\n      dup2\n        /* \"#utility.yul\":32200:32204   */\n      dup2\n        /* \"#utility.yul\":32196:32216   */\n      sub\n        /* \"#utility.yul\":32191:32193   */\n      0x20\n        /* \"#utility.yul\":32180:32189   */\n      dup4\n        /* \"#utility.yul\":32176:32194   */\n      add\n        /* \"#utility.yul\":32169:32217   */\n      mstore\n        /* \"#utility.yul\":32234:32312   */\n      tag_815\n        /* \"#utility.yul\":32307:32311   */\n      dup2\n        /* \"#utility.yul\":32298:32304   */\n      dup9\n        /* \"#utility.yul\":32234:32312   */\n      tag_463\n      jump\t// in\n    tag_815:\n        /* \"#utility.yul\":32226:32312   */\n      swap1\n      pop\n        /* \"#utility.yul\":32359:32368   */\n      dup2\n        /* \"#utility.yul\":32353:32357   */\n      dup2\n        /* \"#utility.yul\":32349:32369   */\n      sub\n        /* \"#utility.yul\":32344:32346   */\n      0x40\n        /* \"#utility.yul\":32333:32342   */\n      dup4\n        /* \"#utility.yul\":32329:32347   */\n      add\n        /* \"#utility.yul\":32322:32370   */\n      mstore\n        /* \"#utility.yul\":32387:32465   */\n      tag_816\n        /* \"#utility.yul\":32460:32464   */\n      dup2\n        /* \"#utility.yul\":32451:32457   */\n      dup8\n        /* \"#utility.yul\":32387:32465   */\n      tag_463\n      jump\t// in\n    tag_816:\n        /* \"#utility.yul\":32379:32465   */\n      swap1\n      pop\n        /* \"#utility.yul\":32475:32547   */\n      tag_817\n        /* \"#utility.yul\":32543:32545   */\n      0x60\n        /* \"#utility.yul\":32532:32541   */\n      dup4\n        /* \"#utility.yul\":32528:32546   */\n      add\n        /* \"#utility.yul\":32519:32525   */\n      dup7\n        /* \"#utility.yul\":32475:32547   */\n      tag_441\n      jump\t// in\n    tag_817:\n        /* \"#utility.yul\":32595:32604   */\n      dup2\n        /* \"#utility.yul\":32589:32593   */\n      dup2\n        /* \"#utility.yul\":32585:32605   */\n      sub\n        /* \"#utility.yul\":32579:32582   */\n      0x80\n        /* \"#utility.yul\":32568:32577   */\n      dup4\n        /* \"#utility.yul\":32564:32583   */\n      add\n        /* \"#utility.yul\":32557:32606   */\n      mstore\n        /* \"#utility.yul\":32623:32701   */\n      tag_818\n        /* \"#utility.yul\":32696:32700   */\n      dup2\n        /* \"#utility.yul\":32687:32693   */\n      dup6\n        /* \"#utility.yul\":32623:32701   */\n      tag_463\n      jump\t// in\n    tag_818:\n        /* \"#utility.yul\":32615:32701   */\n      swap1\n      pop\n        /* \"#utility.yul\":32711:32784   */\n      tag_819\n        /* \"#utility.yul\":32779:32782   */\n      0xa0\n        /* \"#utility.yul\":32768:32777   */\n      dup4\n        /* \"#utility.yul\":32764:32783   */\n      add\n        /* \"#utility.yul\":32755:32761   */\n      dup5\n        /* \"#utility.yul\":32711:32784   */\n      tag_441\n      jump\t// in\n    tag_819:\n        /* \"#utility.yul\":31652:32791   */\n      swap8\n      swap7\n      pop\n      pop\n      pop\n      pop\n      pop\n      pop\n      pop\n      jump\t// out\n        /* \"#utility.yul\":32797:32963   */\n    tag_490:\n        /* \"#utility.yul\":32937:32955   */\n      0x4e6f206865616c746820616c6572747300000000000000000000000000000000\n        /* \"#utility.yul\":32933:32934   */\n      0x00\n        /* \"#utility.yul\":32925:32931   */\n      dup3\n        /* \"#utility.yul\":32921:32935   */\n      add\n        /* \"#utility.yul\":32914:32956   */\n      mstore\n        /* \"#utility.yul\":32797:32963   */\n      pop\n      jump\t// out\n        /* \"#utility.yul\":32969:33335   */\n    tag_491:\n        /* \"#utility.yul\":33111:33114   */\n      0x00\n        /* \"#utility.yul\":33132:33199   */\n      tag_822\n        /* \"#utility.yul\":33196:33198   */\n      0x10\n        /* \"#utility.yul\":33191:33194   */\n      dup4\n        /* \"#utility.yul\":33132:33199   */\n      tag_462\n      jump\t// in\n    tag_822:\n        /* \"#utility.yul\":33125:33199   */\n      swap2\n      pop\n        /* \"#utility.yul\":33208:33301   */\n      tag_823\n        /* \"#utility.yul\":33297:33300   */\n      dup3\n        /* \"#utility.yul\":33208:33301   */\n      tag_490\n      jump\t// in\n    tag_823:\n        /* \"#utility.yul\":33326:33328   */\n      0x20\n        /* \"#utility.yul\":33321:33324   */\n      dup3\n        /* \"#utility.yul\":33317:33329   */\n      add\n        /* \"#utility.yul\":33310:33329   */\n      swap1\n      pop\n        /* \"#utility.yul\":32969:33335   */\n      swap2\n      swap1\n      pop\n      jump\t// out\n        /* \"#utility.yul\":33341:33760   */\n    tag_102:\n        /* \"#utility.yul\":33507:33511   */\n      0x00\n        /* \"#utility.yul\":33545:33547   */\n      0x20\n        /* \"#utility.yul\":33534:33543   */\n      dup3\n        /* \"#utility.yul\":33530:33548   */\n      add\n        /* \"#utility.yul\":33522:33548   */\n      swap1\n      pop\n        /* \"#utility.yul\":33594:33603   */\n      dup2\n        /* \"#utility.yul\":33588:33592   */\n      dup2\n        /* \"#utility.yul\":33584:33604   */\n      sub\n        /* \"#utility.yul\":33580:33581   */\n      0x00\n        /* \"#utility.yul\":33569:33578   */\n      dup4\n        /* \"#utility.yul\":33565:33582   */\n      add\n        /* \"#utility.yul\":33558:33605   */\n      mstore\n        /* \"#utility.yul\":33622:33753   */\n      tag_825\n        /* \"#utility.yul\":33748:33752   */\n      dup2\n        /* \"#utility.yul\":33622:33753   */\n      tag_491\n      jump\t// in\n    tag_825:\n        /* \"#utility.yul\":33614:33753   */\n      swap1\n      pop\n        /* \"#utility.yul\":33341:33760   */\n      swap2\n      swap1\n      pop\n      jump\t// out\n        /* \"#utility.yul\":33766:33946   */\n    tag_492:\n        /* \"#utility.yul\":33814:33891   */\n      0x4e487b7100000000000000000000000000000000000000000000000000000000\n        /* \"#utility.yul\":33811:33812   */\n      0x00\n        /* \"#utility.yul\":33804:33892   */\n      mstore\n        /* \"#utility.yul\":33911:33915   */\n      0x11\n        /* \"#utility.yul\":33908:33909   */\n      0x04\n        /* \"#utility.yul\":33901:33916   */\n      mstore\n        /* \"#utility.yul\":33935:33939   */\n      0x24\n        /* \"#utility.yul\":33932:33933   */\n      0x00\n        /* \"#utility.yul\":33925:33940   */\n      revert\n        /* \"#utility.yul\":33952:34146   */\n    tag_104:\n        /* \"#utility.yul\":33992:33996   */\n      0x00\n        /* \"#utility.yul\":34012:34032   */\n      tag_828\n        /* \"#utility.yul\":34030:34031   */\n      dup3\n        /* \"#utility.yul\":34012:34032   */\n      tag_438\n      jump\t// in\n    tag_828:\n        /* \"#utility.yul\":34007:34032   */\n      swap2\n      pop\n        /* \"#utility.yul\":34046:34066   */\n      tag_829\n        /* \"#utility.yul\":34064:34065   */\n      dup4\n        /* \"#utility.yul\":34046:34066   */\n      tag_438\n      jump\t// in\n    tag_829:\n        /* \"#utility.yul\":34041:34066   */\n      swap3\n      pop\n        /* \"#utility.yul\":34090:34091   */\n      dup3\n        /* \"#utility.yul\":34087:34088   */\n      dup3\n        /* \"#utility.yul\":34083:34092   */\n      sub\n        /* \"#utility.yul\":34075:34092   */\n      swap1\n      pop\n        /* \"#utility.yul\":34114:34115   */\n      dup2\n        /* \"#utility.yul\":34108:34112   */\n      dup2\n        /* \"#utility.yul\":34105:34116   */\n      gt\n        /* \"#utility.yul\":34102:34139   */\n      iszero\n      tag_830\n      jumpi\n        /* \"#utility.yul\":34119:34137   */\n      tag_831\n      tag_492\n      jump\t// in\n    tag_831:\n        /* \"#utility.yul\":34102:34139   */\n    tag_830:\n        /* \"#utility.yul\":33952:34146   */\n      swap3\n      swap2\n      pop\n      pop\n      jump\t// out\n        /* \"#utility.yul\":34152:34332   */\n    tag_107:\n        /* \"#utility.yul\":34200:34277   */\n      0x4e487b7100000000000000000000000000000000000000000000000000000000\n        /* \"#utility.yul\":34197:34198   */\n      0x00\n        /* \"#utility.yul\":34190:34278   */\n      mstore\n        /* \"#utility.yul\":34297:34301   */\n      0x32\n        /* \"#utility.yul\":34294:34295   */\n      0x04\n        /* \"#utility.yul\":34287:34302   */\n      mstore\n        /* \"#utility.yul\":34321:34325   */\n      0x24\n        /* \"#utility.yul\":34318:34319   */\n      0x00\n        /* \"#utility.yul\":34311:34326   */\n      revert\n        /* \"#utility.yul\":34338:34518   */\n    tag_493:\n        /* \"#utility.yul\":34386:34463   */\n      0x4e487b7100000000000000000000000000000000000000000000000000000000\n        /* \"#utility.yul\":34383:34384   */\n      0x00\n        /* \"#utility.yul\":34376:34464   */\n      mstore\n        /* \"#utility.yul\":34483:34487   */\n      0x22\n        /* \"#utility.yul\":34480:34481   */\n      0x04\n        /* \"#utility.yul\":34473:34488   */\n      mstore\n        /* \"#utility.yul\":34507:34511   */\n      0x24\n        /* \"#utility.yul\":34504:34505   */\n      0x00\n        /* \"#utility.yul\":34497:34512   */\n      revert\n        /* \"#utility.yul\":34524:34844   */\n    tag_110:\n        /* \"#utility.yul\":34568:34574   */\n      0x00\n        /* \"#utility.yul\":34605:34606   */\n      0x02\n        /* \"#utility.yul\":34599:34603   */\n      dup3\n        /* \"#utility.yul\":34595:34607   */\n      div\n        /* \"#utility.yul\":34585:34607   */\n      swap1\n      pop\n        /* \"#utility.yul\":34652:34653   */\n      0x01\n        /* \"#utility.yul\":34646:34650   */\n      dup3\n        /* \"#utility.yul\":34642:34654   */\n      and\n        /* \"#utility.yul\":34673:34691   */\n      dup1\n        /* \"#utility.yul\":34663:34744   */\n      tag_835\n      jumpi\n        /* \"#utility.yul\":34729:34733   */\n      0x7f\n        /* \"#utility.yul\":34721:34727   */\n      dup3\n        /* \"#utility.yul\":34717:34734   */\n      and\n        /* \"#utility.yul\":34707:34734   */\n      swap2\n      pop\n        /* \"#utility.yul\":34663:34744   */\n    tag_835:\n        /* \"#utility.yul\":34791:34793   */\n      0x20\n        /* \"#utility.yul\":34783:34789   */\n      dup3\n        /* \"#utility.yul\":34780:34794   */\n      lt\n        /* \"#utility.yul\":34760:34778   */\n      dup2\n        /* \"#utility.yul\":34757:34795   */\n      sub\n        /* \"#utility.yul\":34754:34838   */\n      tag_836\n      jumpi\n        /* \"#utility.yul\":34810:34828   */\n      tag_837\n      tag_493\n      jump\t// in\n    tag_837:\n        /* \"#utility.yul\":34754:34838   */\n    tag_836:\n        /* \"#utility.yul\":34575:34844   */\n      pop\n        /* \"#utility.yul\":34524:34844   */\n      swap2\n      swap1\n      pop\n      jump\t// out\n        /* \"#utility.yul\":34850:35015   */\n    tag_494:\n        /* \"#utility.yul\":34990:35007   */\n      0x536f757263652072657175697265640000000000000000000000000000000000\n        /* \"#utility.yul\":34986:34987   */\n      0x00\n        /* \"#utility.yul\":34978:34984   */\n      dup3\n        /* \"#utility.yul\":34974:34988   */\n      add\n        /* \"#utility.yul\":34967:35008   */\n      mstore\n        /* \"#utility.yul\":34850:35015   */\n      pop\n      jump\t// out\n        /* \"#utility.yul\":35021:35387   */\n    tag_495:\n        /* \"#utility.yul\":35163:35166   */\n      0x00\n        /* \"#utility.yul\":35184:35251   */\n      tag_840\n        /* \"#utility.yul\":35248:35250   */\n      0x0f\n        /* \"#utility.yul\":35243:35246   */\n      dup4\n        /* \"#utility.yul\":35184:35251   */\n      tag_462\n      jump\t// in\n    tag_840:\n        /* \"#utility.yul\":35177:35251   */\n      swap2\n      pop\n        /* \"#utility.yul\":35260:35353   */\n      tag_841\n        /* \"#utility.yul\":35349:35352   */\n      dup3\n        /* \"#utility.yul\":35260:35353   */\n      tag_494\n      jump\t// in\n    tag_841:\n        /* \"#utility.yul\":35378:35380   */\n      0x20\n        /* \"#utility.yul\":35373:35376   */\n      dup3\n        /* \"#utility.yul\":35369:35381   */\n      add\n        /* \"#utility.yul\":35362:35381   */\n      swap1\n      pop\n        /* \"#utility.yul\":35021:35387   */\n      swap2\n      swap1\n      pop\n      jump\t// out\n        /* \"#utility.yul\":35393:35812   */\n    tag_138:\n        /* \"#utility.yul\":35559:35563   */\n      0x00\n        /* \"#utility.yul\":35597:35599   */\n      0x20\n        /* \"#utility.yul\":35586:35595   */\n      dup3\n        /* \"#utility.yul\":35582:35600   */\n      add\n        /* \"#utility.yul\":35574:35600   */\n      swap1\n      pop\n        /* \"#utility.yul\":35646:35655   */\n      dup2\n        /* \"#utility.yul\":35640:35644   */\n      dup2\n        /* \"#utility.yul\":35636:35656   */\n      sub\n        /* \"#utility.yul\":35632:35633   */\n      0x00\n        /* \"#utility.yul\":35621:35630   */\n      dup4\n        /* \"#utility.yul\":35617:35634   */\n      add\n        /* \"#utility.yul\":35610:35657   */\n      mstore\n        /* \"#utility.yul\":35674:35805   */\n      tag_843\n        /* \"#utility.yul\":35800:35804   */\n      dup2\n        /* \"#utility.yul\":35674:35805   */\n      tag_495\n      jump\t// in\n    tag_843:\n        /* \"#utility.yul\":35666:35805   */\n      swap1\n      pop\n        /* \"#utility.yul\":35393:35812   */\n      swap2\n      swap1\n      pop\n      jump\t// out\n        /* \"#utility.yul\":35818:35983   */\n    tag_496:\n        /* \"#utility.yul\":35958:35975   */\n      0x526567696f6e2072657175697265640000000000000000000000000000000000\n        /* \"#utility.yul\":35954:35955   */\n      0x00\n        /* \"#utility.yul\":35946:35952   */\n      dup3\n        /* \"#utility.yul\":35942:35956   */\n      add\n        /* \"#utility.yul\":35935:35976   */\n      mstore\n        /* \"#utility.yul\":35818:35983   */\n      pop\n      jump\t// out\n        /* \"#utility.yul\":35989:36355   */\n    tag_497:\n        /* \"#utility.yul\":36131:36134   */\n      0x00\n        /* \"#utility.yul\":36152:36219   */\n      tag_846\n        /* \"#utility.yul\":36216:36218   */\n      0x0f\n        /* \"#utility.yul\":36211:36214   */\n      dup4\n        /* \"#utility.yul\":36152:36219   */\n      tag_462\n      jump\t// in\n    tag_846:\n        /* \"#utility.yul\":36145:36219   */\n      swap2\n      pop\n        /* \"#utility.yul\":36228:36321   */\n      tag_847\n        /* \"#utility.yul\":36317:36320   */\n      dup3\n        /* \"#utility.yul\":36228:36321   */\n      tag_496\n      jump\t// in\n    tag_847:\n        /* \"#utility.yul\":36346:36348   */\n      0x20\n        /* \"#utility.yul\":36341:36344   */\n      dup3\n        /* \"#utility.yul\":36337:36349   */\n      add\n        /* \"#utility.yul\":36330:36349   */\n      swap1\n      pop\n        /* \"#utility.yul\":35989:36355   */\n      swap2\n      swap1\n      pop\n      jump\t// out\n        /* \"#utility.yul\":36361:36780   */\n    tag_141:\n        /* \"#utility.yul\":36527:36531   */\n      0x00\n        /* \"#utility.yul\":36565:36567   */\n      0x20\n        /* \"#utility.yul\":36554:36563   */\n      dup3\n        /* \"#utility.yul\":36550:36568   */\n      add\n        /* \"#utility.yul\":36542:36568   */\n      swap1\n      pop\n        /* \"#utility.yul\":36614:36623   */\n      dup2\n        /* \"#utility.yul\":36608:36612   */\n      dup2\n        /* \"#utility.yul\":36604:36624   */\n      sub\n        /* \"#utility.yul\":36600:36601   */\n      0x00\n        /* \"#utility.yul\":36589:36598   */\n      dup4\n        /* \"#utility.yul\":36585:36602   */\n      add\n        /* \"#utility.yul\":36578:36625   */\n      mstore\n        /* \"#utility.yul\":36642:36773   */\n      tag_849\n        /* \"#utility.yul\":36768:36772   */\n      dup2\n        /* \"#utility.yul\":36642:36773   */\n      tag_497\n      jump\t// in\n    tag_849:\n        /* \"#utility.yul\":36634:36773   */\n      swap1\n      pop\n        /* \"#utility.yul\":36361:36780   */\n      swap2\n      swap1\n      pop\n      jump\t// out\n        /* \"#utility.yul\":36786:36952   */\n    tag_498:\n        /* \"#utility.yul\":36926:36944   */\n      0x4469736561736520726571756972656400000000000000000000000000000000\n        /* \"#utility.yul\":36922:36923   */\n      0x00\n        /* \"#utility.yul\":36914:36920   */\n      dup3\n        /* \"#utility.yul\":36910:36924   */\n      add\n        /* \"#utility.yul\":36903:36945   */\n      mstore\n        /* \"#utility.yul\":36786:36952   */\n      pop\n      jump\t// out\n        /* \"#utility.yul\":36958:37324   */\n    tag_499:\n        /* \"#utility.yul\":37100:37103   */\n      0x00\n        /* \"#utility.yul\":37121:37188   */\n      tag_852\n        /* \"#utility.yul\":37185:37187   */\n      0x10\n        /* \"#utility.yul\":37180:37183   */\n      dup4\n        /* \"#utility.yul\":37121:37188   */\n      tag_462\n      jump\t// in\n    tag_852:\n        /* \"#utility.yul\":37114:37188   */\n      swap2\n      pop\n        /* \"#utility.yul\":37197:37290   */\n      tag_853\n        /* \"#utility.yul\":37286:37289   */\n      dup3\n        /* \"#utility.yul\":37197:37290   */\n      tag_498\n      jump\t// in\n    tag_853:\n        /* \"#utility.yul\":37315:37317   */\n      0x20\n        /* \"#utility.yul\":37310:37313   */\n      dup3\n        /* \"#utility.yul\":37306:37318   */\n      add\n        /* \"#utility.yul\":37299:37318   */\n      swap1\n      pop\n        /* \"#utility.yul\":36958:37324   */\n      swap2\n      swap1\n      pop\n      jump\t// out\n        /* \"#utility.yul\":37330:37749   */\n    tag_144:\n        /* \"#utility.yul\":37496:37500   */\n      0x00\n        /* \"#utility.yul\":37534:37536   */\n      0x20\n        /* \"#utility.yul\":37523:37532   */\n      dup3\n        /* \"#utility.yul\":37519:37537   */\n      add\n        /* \"#utility.yul\":37511:37537   */\n      swap1\n      pop\n        /* \"#utility.yul\":37583:37592   */\n      dup2\n        /* \"#utility.yul\":37577:37581   */\n      dup2\n        /* \"#utility.yul\":37573:37593   */\n      sub\n        /* \"#utility.yul\":37569:37570   */\n      0x00\n        /* \"#utility.yul\":37558:37567   */\n      dup4\n        /* \"#utility.yul\":37554:37571   */\n      add\n        /* \"#utility.yul\":37547:37594   */\n      mstore\n        /* \"#utility.yul\":37611:37742   */\n      tag_855\n        /* \"#utility.yul\":37737:37741   */\n      dup2\n        /* \"#utility.yul\":37611:37742   */\n      tag_499\n      jump\t// in\n    tag_855:\n        /* \"#utility.yul\":37603:37742   */\n      swap1\n      pop\n        /* \"#utility.yul\":37330:37749   */\n      swap2\n      swap1\n      pop\n      jump\t// out\n        /* \"#utility.yul\":37755:37921   */\n    tag_500:\n        /* \"#utility.yul\":37895:37913   */\n      0x53756d6d61727920726571756972656400000000000000000000000000000000\n        /* \"#utility.yul\":37891:37892   */\n      0x00\n        /* \"#utility.yul\":37883:37889   */\n      dup3\n        /* \"#utility.yul\":37879:37893   */\n      add\n        /* \"#utility.yul\":37872:37914   */\n      mstore\n        /* \"#utility.yul\":37755:37921   */\n      pop\n      jump\t// out\n        /* \"#utility.yul\":37927:38293   */\n    tag_501:\n        /* \"#utility.yul\":38069:38072   */\n      0x00\n        /* \"#utility.yul\":38090:38157   */\n      tag_858\n        /* \"#utility.yul\":38154:38156   */\n      0x10\n        /* \"#utility.yul\":38149:38152   */\n      dup4\n        /* \"#utility.yul\":38090:38157   */\n      tag_462\n      jump\t// in\n    tag_858:\n        /* \"#utility.yul\":38083:38157   */\n      swap2\n      pop\n        /* \"#utility.yul\":38166:38259   */\n      tag_859\n        /* \"#utility.yul\":38255:38258   */\n      dup3\n        /* \"#utility.yul\":38166:38259   */\n      tag_500\n      jump\t// in\n    tag_859:\n        /* \"#utility.yul\":38284:38286   */\n      0x20\n        /* \"#utility.yul\":38279:38282   */\n      dup3\n        /* \"#utility.yul\":38275:38287   */\n      add\n        /* \"#utility.yul\":38268:38287   */\n      swap1\n      pop\n        /* \"#utility.yul\":37927:38293   */\n      swap2\n      swap1\n      pop\n      jump\t// out\n        /* \"#utility.yul\":38299:38718   */\n    tag_147:\n        /* \"#utility.yul\":38465:38469   */\n      0x00\n        /* \"#utility.yul\":38503:38505   */\n      0x20\n        /* \"#utility.yul\":38492:38501   */\n      dup3\n        /* \"#utility.yul\":38488:38506   */\n      add\n        /* \"#utility.yul\":38480:38506   */\n      swap1\n      pop\n        /* \"#utility.yul\":38552:38561   */\n      dup2\n        /* \"#utility.yul\":38546:38550   */\n      dup2\n        /* \"#utility.yul\":38542:38562   */\n      sub\n        /* \"#utility.yul\":38538:38539   */\n      0x00\n        /* \"#utility.yul\":38527:38536   */\n      dup4\n        /* \"#utility.yul\":38523:38540   */\n      add\n        /* \"#utility.yul\":38516:38563   */\n      mstore\n        /* \"#utility.yul\":38580:38711   */\n      tag_861\n        /* \"#utility.yul\":38706:38710   */\n      dup2\n        /* \"#utility.yul\":38580:38711   */\n      tag_501\n      jump\t// in\n    tag_861:\n        /* \"#utility.yul\":38572:38711   */\n      swap1\n      pop\n        /* \"#utility.yul\":38299:38718   */\n      swap2\n      swap1\n      pop\n      jump\t// out\n        /* \"#utility.yul\":38724:38900   */\n    tag_502:\n        /* \"#utility.yul\":38864:38892   */\n      0x4865616c7468207269736b206d757374206265203c3d20313030000000000000\n        /* \"#utility.yul\":38860:38861   */\n      0x00\n        /* \"#utility.yul\":38852:38858   */\n      dup3\n        /* \"#utility.yul\":38848:38862   */\n      add\n        /* \"#utility.yul\":38841:38893   */\n      mstore\n        /* \"#utility.yul\":38724:38900   */\n      pop\n      jump\t// out\n        /* \"#utility.yul\":38906:39272   */\n    tag_503:\n        /* \"#utility.yul\":39048:39051   */\n      0x00\n        /* \"#utility.yul\":39069:39136   */\n      tag_864\n        /* \"#utility.yul\":39133:39135   */\n      0x1a\n        /* \"#utility.yul\":39128:39131   */\n      dup4\n        /* \"#utility.yul\":39069:39136   */\n      tag_462\n      jump\t// in\n    tag_864:\n        /* \"#utility.yul\":39062:39136   */\n      swap2\n      pop\n        /* \"#utility.yul\":39145:39238   */\n      tag_865\n        /* \"#utility.yul\":39234:39237   */\n      dup3\n        /* \"#utility.yul\":39145:39238   */\n      tag_502\n      jump\t// in\n    tag_865:\n        /* \"#utility.yul\":39263:39265   */\n      0x20\n        /* \"#utility.yul\":39258:39261   */\n      dup3\n        /* \"#utility.yul\":39254:39266   */\n      add\n        /* \"#utility.yul\":39247:39266   */\n      swap1\n      pop\n        /* \"#utility.yul\":38906:39272   */\n      swap2\n      swap1\n      pop\n      jump\t// out\n        /* \"#utility.yul\":39278:39697   */\n    tag_150:\n        /* \"#utility.yul\":39444:39448   */\n      0x00\n        /* \"#utility.yul\":39482:39484   */\n      0x20\n        /* \"#utility.yul\":39471:39480   */\n      dup3\n        /* \"#utility.yul\":39467:39485   */\n      add\n        /* \"#utility.yul\":39459:39485   */\n      swap1\n      pop\n        /* \"#utility.yul\":39531:39540   */\n      dup2\n        /* \"#utility.yul\":39525:39529   */\n      dup2\n        /* \"#utility.yul\":39521:39541   */\n      sub\n        /* \"#utility.yul\":39517:39518   */\n      0x00\n        /* \"#utility.yul\":39506:39515   */\n      dup4\n        /* \"#utility.yul\":39502:39519   */\n      add\n        /* \"#utility.yul\":39495:39542   */\n      mstore\n        /* \"#utility.yul\":39559:39690   */\n      tag_867\n        /* \"#utility.yul\":39685:39689   */\n      dup2\n        /* \"#utility.yul\":39559:39690   */\n      tag_503\n      jump\t// in\n    tag_867:\n        /* \"#utility.yul\":39551:39690   */\n      swap1\n      pop\n        /* \"#utility.yul\":39278:39697   */\n      swap2\n      swap1\n      pop\n      jump\t// out\n        /* \"#utility.yul\":39703:39877   */\n    tag_504:\n        /* \"#utility.yul\":39843:39869   */\n      0x436c696d617465207269736b206d75737420626520312d350000000000000000\n        /* \"#utility.yul\":39839:39840   */\n      0x00\n        /* \"#utility.yul\":39831:39837   */\n      dup3\n        /* \"#utility.yul\":39827:39841   */\n      add\n        /* \"#utility.yul\":39820:39870   */\n      mstore\n        /* \"#utility.yul\":39703:39877   */\n      pop\n      jump\t// out\n        /* \"#utility.yul\":39883:40249   */\n    tag_505:\n        /* \"#utility.yul\":40025:40028   */\n      0x00\n        /* \"#utility.yul\":40046:40113   */\n      tag_870\n        /* \"#utility.yul\":40110:40112   */\n      0x18\n        /* \"#utility.yul\":40105:40108   */\n      dup4\n        /* \"#utility.yul\":40046:40113   */\n      tag_462\n      jump\t// in\n    tag_870:\n        /* \"#utility.yul\":40039:40113   */\n      swap2\n      pop\n        /* \"#utility.yul\":40122:40215   */\n      tag_871\n        /* \"#utility.yul\":40211:40214   */\n      dup3\n        /* \"#utility.yul\":40122:40215   */\n      tag_504\n      jump\t// in\n    tag_871:\n        /* \"#utility.yul\":40240:40242   */\n      0x20\n        /* \"#utility.yul\":40235:40238   */\n      dup3\n        /* \"#utility.yul\":40231:40243   */\n      add\n        /* \"#utility.yul\":40224:40243   */\n      swap1\n      pop\n        /* \"#utility.yul\":39883:40249   */\n      swap2\n      swap1\n      pop\n      jump\t// out\n        /* \"#utility.yul\":40255:40674   */\n    tag_154:\n        /* \"#utility.yul\":40421:40425   */\n      0x00\n        /* \"#utility.yul\":40459:40461   */\n      0x20\n        /* \"#utility.yul\":40448:40457   */\n      dup3\n        /* \"#utility.yul\":40444:40462   */\n      add\n        /* \"#utility.yul\":40436:40462   */\n      swap1\n      pop\n        /* \"#utility.yul\":40508:40517   */\n      dup2\n        /* \"#utility.yul\":40502:40506   */\n      dup2\n        /* \"#utility.yul\":40498:40518   */\n      sub\n        /* \"#utility.yul\":40494:40495   */\n      0x00\n        /* \"#utility.yul\":40483:40492   */\n      dup4\n        /* \"#utility.yul\":40479:40496   */\n      add\n        /* \"#utility.yul\":40472:40519   */\n      mstore\n        /* \"#utility.yul\":40536:40667   */\n      tag_873\n        /* \"#utility.yul\":40662:40666   */\n      dup2\n        /* \"#utility.yul\":40536:40667   */\n      tag_505\n      jump\t// in\n    tag_873:\n        /* \"#utility.yul\":40528:40667   */\n      swap1\n      pop\n        /* \"#utility.yul\":40255:40674   */\n      swap2\n      swap1\n      pop\n      jump\t// out\n        /* \"#utility.yul\":40680:40850   */\n    tag_506:\n        /* \"#utility.yul\":40820:40842   */\n      0x455347207269736b206d75737420626520312d35000000000000000000000000\n        /* \"#utility.yul\":40816:40817   */\n      0x00\n        /* \"#utility.yul\":40808:40814   */\n      dup3\n        /* \"#utility.yul\":40804:40818   */\n      add\n        /* \"#utility.yul\":40797:40843   */\n      mstore\n        /* \"#utility.yul\":40680:40850   */\n      pop\n      jump\t// out\n        /* \"#utility.yul\":40856:41222   */\n    tag_507:\n        /* \"#utility.yul\":40998:41001   */\n      0x00\n        /* \"#utility.yul\":41019:41086   */\n      tag_876\n        /* \"#utility.yul\":41083:41085   */\n      0x14\n        /* \"#utility.yul\":41078:41081   */\n      dup4\n        /* \"#utility.yul\":41019:41086   */\n      tag_462\n      jump\t// in\n    tag_876:\n        /* \"#utility.yul\":41012:41086   */\n      swap2\n      pop\n        /* \"#utility.yul\":41095:41188   */\n      tag_877\n        /* \"#utility.yul\":41184:41187   */\n      dup3\n        /* \"#utility.yul\":41095:41188   */\n      tag_506\n      jump\t// in\n    tag_877:\n        /* \"#utility.yul\":41213:41215   */\n      0x20\n        /* \"#utility.yul\":41208:41211   */\n      dup3\n        /* \"#utility.yul\":41204:41216   */\n      add\n        /* \"#utility.yul\":41197:41216   */\n      swap1\n      pop\n        /* \"#utility.yul\":40856:41222   */\n      swap2\n      swap1\n      pop\n      jump\t// out\n        /* \"#utility.yul\":41228:41647   */\n    tag_158:\n        /* \"#utility.yul\":41394:41398   */\n      0x00\n        /* \"#utility.yul\":41432:41434   */\n      0x20\n        /* \"#utility.yul\":41421:41430   */\n      dup3\n        /* \"#utility.yul\":41417:41435   */\n      add\n        /* \"#utility.yul\":41409:41435   */\n      swap1\n      pop\n        /* \"#utility.yul\":41481:41490   */\n      dup2\n        /* \"#utility.yul\":41475:41479   */\n      dup2\n        /* \"#utility.yul\":41471:41491   */\n      sub\n        /* \"#utility.yul\":41467:41468   */\n      0x00\n        /* \"#utility.yul\":41456:41465   */\n      dup4\n        /* \"#utility.yul\":41452:41469   */\n      add\n        /* \"#utility.yul\":41445:41492   */\n      mstore\n        /* \"#utility.yul\":41509:41640   */\n      tag_879\n        /* \"#utility.yul\":41635:41639   */\n      dup2\n        /* \"#utility.yul\":41509:41640   */\n      tag_507\n      jump\t// in\n    tag_879:\n        /* \"#utility.yul\":41501:41640   */\n      swap1\n      pop\n        /* \"#utility.yul\":41228:41647   */\n      swap2\n      swap1\n      pop\n      jump\t// out\n        /* \"#utility.yul\":41653:41822   */\n    tag_508:\n        /* \"#utility.yul\":41793:41814   */\n      0x50726f6f66206861736820726571756972656400000000000000000000000000\n        /* \"#utility.yul\":41789:41790   */\n      0x00\n        /* \"#utility.yul\":41781:41787   */\n      dup3\n        /* \"#utility.yul\":41777:41791   */\n      add\n        /* \"#utility.yul\":41770:41815   */\n      mstore\n        /* \"#utility.yul\":41653:41822   */\n      pop\n      jump\t// out\n        /* \"#utility.yul\":41828:42194   */\n    tag_509:\n        /* \"#utility.yul\":41970:41973   */\n      0x00\n        /* \"#utility.yul\":41991:42058   */\n      tag_882\n        /* \"#utility.yul\":42055:42057   */\n      0x13\n        /* \"#utility.yul\":42050:42053   */\n      dup4\n        /* \"#utility.yul\":41991:42058   */\n      tag_462\n      jump\t// in\n    tag_882:\n        /* \"#utility.yul\":41984:42058   */\n      swap2\n      pop\n        /* \"#utility.yul\":42067:42160   */\n      tag_883\n        /* \"#utility.yul\":42156:42159   */\n      dup3\n        /* \"#utility.yul\":42067:42160   */\n      tag_508\n      jump\t// in\n    tag_883:\n        /* \"#utility.yul\":42185:42187   */\n      0x20\n        /* \"#utility.yul\":42180:42183   */\n      dup3\n        /* \"#utility.yul\":42176:42188   */\n      add\n        /* \"#utility.yul\":42169:42188   */\n      swap1\n      pop\n        /* \"#utility.yul\":41828:42194   */\n      swap2\n      swap1\n      pop\n      jump\t// out\n        /* \"#utility.yul\":42200:42619   */\n    tag_161:\n        /* \"#utility.yul\":42366:42370   */\n      0x00\n        /* \"#utility.yul\":42404:42406   */\n      0x20\n        /* \"#utility.yul\":42393:42402   */\n      dup3\n        /* \"#utility.yul\":42389:42407   */\n      add\n        /* \"#utility.yul\":42381:42407   */\n      swap1\n      pop\n        /* \"#utility.yul\":42453:42462   */\n      dup2\n        /* \"#utility.yul\":42447:42451   */\n      dup2\n        /* \"#utility.yul\":42443:42463   */\n      sub\n        /* \"#utility.yul\":42439:42440   */\n      0x00\n        /* \"#utility.yul\":42428:42437   */\n      dup4\n        /* \"#utility.yul\":42424:42441   */\n      add\n        /* \"#utility.yul\":42417:42464   */\n      mstore\n        /* \"#utility.yul\":42481:42612   */\n      tag_885\n        /* \"#utility.yul\":42607:42611   */\n      dup2\n        /* \"#utility.yul\":42481:42612   */\n      tag_509\n      jump\t// in\n    tag_885:\n        /* \"#utility.yul\":42473:42612   */\n      swap1\n      pop\n        /* \"#utility.yul\":42200:42619   */\n      swap2\n      swap1\n      pop\n      jump\t// out\n        /* \"#utility.yul\":42625:42766   */\n    tag_510:\n        /* \"#utility.yul\":42674:42678   */\n      0x00\n        /* \"#utility.yul\":42697:42700   */\n      dup2\n        /* \"#utility.yul\":42689:42700   */\n      swap1\n      pop\n        /* \"#utility.yul\":42720:42723   */\n      dup2\n        /* \"#utility.yul\":42717:42718   */\n      0x00\n        /* \"#utility.yul\":42710:42724   */\n      mstore\n        /* \"#utility.yul\":42754:42758   */\n      0x20\n        /* \"#utility.yul\":42751:42752   */\n      0x00\n        /* \"#utility.yul\":42741:42759   */\n      keccak256\n        /* \"#utility.yul\":42733:42759   */\n      swap1\n      pop\n        /* \"#utility.yul\":42625:42766   */\n      swap2\n      swap1\n      pop\n      jump\t// out\n        /* \"#utility.yul\":42772:42865   */\n    tag_511:\n        /* \"#utility.yul\":42809:42815   */\n      0x00\n        /* \"#utility.yul\":42856:42858   */\n      0x20\n        /* \"#utility.yul\":42851:42853   */\n      0x1f\n        /* \"#utility.yul\":42844:42849   */\n      dup4\n        /* \"#utility.yul\":42840:42854   */\n      add\n        /* \"#utility.yul\":42836:42859   */\n      div\n        /* \"#utility.yul\":42826:42859   */\n      swap1\n      pop\n        /* \"#utility.yul\":42772:42865   */\n      swap2\n      swap1\n      pop\n      jump\t// out\n        /* \"#utility.yul\":42871:42978   */\n    tag_512:\n        /* \"#utility.yul\":42915:42923   */\n      0x00\n        /* \"#utility.yul\":42965:42970   */\n      dup3\n        /* \"#utility.yul\":42959:42963   */\n      dup3\n        /* \"#utility.yul\":42955:42971   */\n      shl\n        /* \"#utility.yul\":42934:42971   */\n      swap1\n      pop\n        /* \"#utility.yul\":42871:42978   */\n      swap3\n      swap2\n      pop\n      pop\n      jump\t// out\n        /* \"#utility.yul\":42984:43377   */\n    tag_513:\n        /* \"#utility.yul\":43053:43059   */\n      0x00\n        /* \"#utility.yul\":43103:43104   */\n      0x08\n        /* \"#utility.yul\":43091:43101   */\n      dup4\n        /* \"#utility.yul\":43087:43105   */\n      mul\n        /* \"#utility.yul\":43126:43223   */\n      tag_890\n        /* \"#utility.yul\":43156:43222   */\n      0xffffffffffffffffffffffffffffffffffffffffffffffffffffffffffffffff\n        /* \"#utility.yul\":43145:43154   */\n      dup3\n        /* \"#utility.yul\":43126:43223   */\n      tag_512\n      jump\t// in\n    tag_890:\n        /* \"#utility.yul\":43244:43283   */\n      tag_891\n        /* \"#utility.yul\":43274:43282   */\n      dup7\n        /* \"#utility.yul\":43263:43272   */\n      dup4\n        /* \"#utility.yul\":43244:43283   */\n      tag_512\n      jump\t// in\n    tag_891:\n        /* \"#utility.yul\":43232:43283   */\n      swap6\n      pop\n        /* \"#utility.yul\":43316:43320   */\n      dup1\n        /* \"#utility.yul\":43312:43321   */\n      not\n        /* \"#utility.yul\":43305:43310   */\n      dup5\n        /* \"#utility.yul\":43301:43322   */\n      and\n        /* \"#utility.yul\":43292:43322   */\n      swap4\n      pop\n        /* \"#utility.yul\":43365:43369   */\n      dup1\n        /* \"#utility.yul\":43355:43363   */\n      dup7\n        /* \"#utility.yul\":43351:43370   */\n      and\n        /* \"#utility.yul\":43344:43349   */\n      dup5\n        /* \"#utility.yul\":43341:43371   */\n      or\n        /* \"#utility.yul\":43331:43371   */\n      swap3\n      pop\n        /* \"#utility.yul\":43060:43377   */\n      pop\n      pop\n        /* \"#utility.yul\":42984:43377   */\n      swap4\n      swap3\n      pop\n      pop\n      pop\n      jump\t// out\n        /* \"#utility.yul\":43383:43443   */\n    tag_514:\n        /* \"#utility.yul\":43411:43414   */\n      0x00\n        /* \"#utility.yul\":43432:43437   */\n      dup2\n        /* \"#utility.yul\":43425:43437   */\n      swap1\n      pop\n        /* \"#utility.yul\":43383:43443   */\n      swap2\n      swap1\n      pop\n      jump\t// out\n        /* \"#utility.yul\":43449:43591   */\n    tag_515:\n        /* \"#utility.yul\":43499:43508   */\n      0x00\n        /* \"#utility.yul\":43532:43585   */\n      tag_894\n        /* \"#utility.yul\":43550:43584   */\n      tag_895\n        /* \"#utility.yul\":43559:43583   */\n      tag_896\n        /* \"#utility.yul\":43577:43582   */\n      dup5\n        /* \"#utility.yul\":43559:43583   */\n      tag_438\n      jump\t// in\n    tag_896:\n        /* \"#utility.yul\":43550:43584   */\n      tag_514\n      jump\t// in\n    tag_895:\n        /* \"#utility.yul\":43532:43585   */\n      tag_438\n      jump\t// in\n    tag_894:\n        /* \"#utility.yul\":43519:43585   */\n      swap1\n      pop\n        /* \"#utility.yul\":43449:43591   */\n      swap2\n      swap1\n      pop\n      jump\t// out\n        /* \"#utility.yul\":43597:43672   */\n    tag_516:\n        /* \"#utility.yul\":43640:43643   */\n      0x00\n        /* \"#utility.yul\":43661:43666   */\n      dup2\n        /* \"#utility.yul\":43654:43666   */\n      swap1\n      pop\n        /* \"#utility.yul\":43597:43672   */\n      swap2\n      swap1\n      pop\n      jump\t// out\n        /* \"#utility.yul\":43678:43947   */\n    tag_517:\n        /* \"#utility.yul\":43788:43827   */\n      tag_899\n        /* \"#utility.yul\":43819:43826   */\n      dup4\n        /* \"#utility.yul\":43788:43827   */\n      tag_515\n      jump\t// in\n    tag_899:\n        /* \"#utility.yul\":43849:43940   */\n      tag_900\n        /* \"#utility.yul\":43898:43939   */\n      tag_901\n        /* \"#utility.yul\":43922:43938   */\n      dup3\n        /* \"#utility.yul\":43898:43939   */\n      tag_516\n      jump\t// in\n    tag_901:\n        /* \"#utility.yul\":43890:43896   */\n      dup5\n        /* \"#utility.yul\":43883:43887   */\n      dup5\n        /* \"#utility.yul\":43877:43888   */\n      sload\n        /* \"#utility.yul\":43849:43940   */\n      tag_513\n      jump\t// in\n    tag_900:\n        /* \"#utility.yul\":43843:43847   */\n      dup3\n        /* \"#utility.yul\":43836:43941   */\n      sstore\n        /* \"#utility.yul\":43754:43947   */\n      pop\n        /* \"#utility.yul\":43678:43947   */\n      pop\n      pop\n      pop\n      jump\t// out\n        /* \"#utility.yul\":43953:44026   */\n    tag_518:\n        /* \"#utility.yul\":43998:44001   */\n      0x00\n        /* \"#utility.yul\":44019:44020   */\n      0x00\n        /* \"#utility.yul\":44012:44020   */\n      swap1\n      pop\n        /* \"#utility.yul\":43953:44026   */\n      swap1\n      jump\t// out\n        /* \"#utility.yul\":44032:44221   */\n    tag_519:\n        /* \"#utility.yul\":44109:44141   */\n      tag_904\n      tag_518\n      jump\t// in\n    tag_904:\n        /* \"#utility.yul\":44150:44215   */\n      tag_905\n        /* \"#utility.yul\":44208:44214   */\n      dup2\n        /* \"#utility.yul\":44200:44206   */\n      dup5\n        /* \"#utility.yul\":44194:44198   */\n      dup5\n        /* \"#utility.yul\":44150:44215   */\n      tag_517\n      jump\t// in\n    tag_905:\n        /* \"#utility.yul\":44085:44221   */\n      pop\n        /* \"#utility.yul\":44032:44221   */\n      pop\n      pop\n      jump\t// out\n        /* \"#utility.yul\":44227:44441   */\n    tag_520:\n        /* \"#utility.yul\":44312:44313   */\n      0x00\n        /* \"#utility.yul\":44297:44435   */\n    tag_907:\n        /* \"#utility.yul\":44322:44331   */\n      dup3\n        /* \"#utility.yul\":44319:44320   */\n      dup2\n        /* \"#utility.yul\":44316:44332   */\n      lt\n        /* \"#utility.yul\":44297:44435   */\n      iszero\n      tag_909\n      jumpi\n        /* \"#utility.yul\":44374:44425   */\n      tag_910\n        /* \"#utility.yul\":44423:44424   */\n      0x00\n        /* \"#utility.yul\":44419:44420   */\n      dup3\n        /* \"#utility.yul\":44408:44417   */\n      dup5\n        /* \"#utility.yul\":44404:44421   */\n      add\n        /* \"#utility.yul\":44374:44425   */\n      tag_519\n      jump\t// in\n    tag_910:\n        /* \"#utility.yul\":44347:44348   */\n      0x01\n        /* \"#utility.yul\":44344:44345   */\n      dup2\n        /* \"#utility.yul\":44340:44349   */\n      add\n        /* \"#utility.yul\":44335:44349   */\n      swap1\n      pop\n        /* \"#utility.yul\":44297:44435   */\n      jump(tag_907)\n    tag_909:\n        /* \"#utility.yul\":44301:44315   */\n      pop\n        /* \"#utility.yul\":44227:44441   */\n      pop\n      pop\n      jump\t// out\n        /* \"#utility.yul\":44447:45193   */\n    tag_521:\n        /* \"#utility.yul\":44548:44550   */\n      0x1f\n        /* \"#utility.yul\":44543:44546   */\n      dup3\n        /* \"#utility.yul\":44540:44551   */\n      gt\n        /* \"#utility.yul\":44537:45186   */\n      iszero\n      tag_912\n      jumpi\n        /* \"#utility.yul\":44577:44587   */\n      dup3\n        /* \"#utility.yul\":44572:44575   */\n      dup3\n        /* \"#utility.yul\":44569:44588   */\n      gt\n        /* \"#utility.yul\":44566:45176   */\n      iszero\n      tag_913\n      jumpi\n        /* \"#utility.yul\":44623:44661   */\n      tag_914\n        /* \"#utility.yul\":44655:44660   */\n      dup2\n        /* \"#utility.yul\":44623:44661   */\n      tag_510\n      jump\t// in\n    tag_914:\n        /* \"#utility.yul\":44698:44720   */\n      tag_915\n        /* \"#utility.yul\":44716:44719   */\n      dup4\n        /* \"#utility.yul\":44698:44720   */\n      tag_511\n      jump\t// in\n    tag_915:\n        /* \"#utility.yul\":44757:44786   */\n      tag_916\n        /* \"#utility.yul\":44775:44785   */\n      dup6\n        /* \"#utility.yul\":44757:44786   */\n      tag_511\n      jump\t// in\n    tag_916:\n        /* \"#utility.yul\":44947:44949   */\n      0x20\n        /* \"#utility.yul\":44935:44945   */\n      dup7\n        /* \"#utility.yul\":44932:44950   */\n      lt\n        /* \"#utility.yul\":44929:45008   */\n      iszero\n      tag_917\n      jumpi\n        /* \"#utility.yul\":44989:44990   */\n      0x00\n        /* \"#utility.yul\":44973:44990   */\n      swap1\n      pop\n        /* \"#utility.yul\":44929:45008   */\n    tag_917:\n        /* \"#utility.yul\":45058:45070   */\n      dup1\n        /* \"#utility.yul\":45048:45056   */\n      dup4\n        /* \"#utility.yul\":45044:45071   */\n      add\n        /* \"#utility.yul\":45088:45162   */\n      tag_918\n        /* \"#utility.yul\":45148:45160   */\n      dup3\n        /* \"#utility.yul\":45134:45146   */\n      dup5\n        /* \"#utility.yul\":45130:45161   */\n      sub\n        /* \"#utility.yul\":45117:45128   */\n      dup3\n        /* \"#utility.yul\":45088:45162   */\n      tag_520\n      jump\t// in\n    tag_918:\n        /* \"#utility.yul\":44589:45176   */\n      pop\n      pop\n      pop\n      pop\n        /* \"#utility.yul\":44566:45176   */\n    tag_913:\n        /* \"#utility.yul\":44537:45186   */\n    tag_912:\n        /* \"#utility.yul\":44447:45193   */\n      pop\n      pop\n      pop\n      jump\t// out\n        /* \"#utility.yul\":45199:45316   */\n    tag_522:\n        /* \"#utility.yul\":45253:45261   */\n      0x00\n        /* \"#utility.yul\":45303:45308   */\n      dup3\n        /* \"#utility.yul\":45297:45301   */\n      dup3\n        /* \"#utility.yul\":45293:45309   */\n      shr\n        /* \"#utility.yul\":45272:45309   */\n      swap1\n      pop\n        /* \"#utility.yul\":45199:45316   */\n      swap3\n      swap2\n      pop\n      pop\n      jump\t// out\n        /* \"#utility.yul\":45322:45491   */\n    tag_523:\n        /* \"#utility.yul\":45366:45372   */\n      0x00\n        /* \"#utility.yul\":45399:45450   */\n      tag_921\n        /* \"#utility.yul\":45447:45448   */\n      0x00\n        /* \"#utility.yul\":45443:45449   */\n      not\n        /* \"#utility.yul\":45435:45440   */\n      dup5\n        /* \"#utility.yul\":45432:45433   */\n      0x08\n        /* \"#utility.yul\":45428:45441   */\n      mul\n        /* \"#utility.yul\":45399:45450   */\n      tag_522\n      jump\t// in\n    tag_921:\n        /* \"#utility.yul\":45395:45451   */\n      not\n        /* \"#utility.yul\":45480:45484   */\n      dup1\n        /* \"#utility.yul\":45474:45478   */\n      dup4\n        /* \"#utility.yul\":45470:45485   */\n      and\n        /* \"#utility.yul\":45460:45485   */\n      swap2\n      pop\n        /* \"#utility.yul\":45373:45491   */\n      pop\n        /* \"#utility.yul\":45322:45491   */\n      swap3\n      swap2\n      pop\n      pop\n      jump\t// out\n        /* \"#utility.yul\":45496:45791   */\n    tag_524:\n        /* \"#utility.yul\":45572:45576   */\n      0x00\n        /* \"#utility.yul\":45718:45747   */\n      tag_923\n        /* \"#utility.yul\":45743:45746   */\n      dup4\n        /* \"#utility.yul\":45737:45741   */\n      dup4\n        /* \"#utility.yul\":45718:45747   */\n      tag_523\n      jump\t// in\n    tag_923:\n        /* \"#utility.yul\":45710:45747   */\n      swap2\n      pop\n        /* \"#utility.yul\":45780:45783   */\n      dup3\n        /* \"#utility.yul\":45777:45778   */\n      0x02\n        /* \"#utility.yul\":45773:45784   */\n      mul\n        /* \"#utility.yul\":45767:45771   */\n      dup3\n        /* \"#utility.yul\":45764:45785   */\n      or\n        /* \"#utility.yul\":45756:45785   */\n      swap1\n      pop\n        /* \"#utility.yul\":45496:45791   */\n      swap3\n      swap2\n      pop\n      pop\n      jump\t// out\n        /* \"#utility.yul\":45796:47191   */\n    tag_164:\n        /* \"#utility.yul\":45913:45950   */\n      tag_925\n        /* \"#utility.yul\":45946:45949   */\n      dup3\n        /* \"#utility.yul\":45913:45950   */\n      tag_433\n      jump\t// in\n    tag_925:\n        /* \"#utility.yul\":46015:46033   */\n      0xffffffffffffffff\n        /* \"#utility.yul\":46007:46013   */\n      dup2\n        /* \"#utility.yul\":46004:46034   */\n      gt\n        /* \"#utility.yul\":46001:46057   */\n      iszero\n      tag_926\n      jumpi\n        /* \"#utility.yul\":46037:46055   */\n      tag_927\n      tag_447\n      jump\t// in\n    tag_927:\n        /* \"#utility.yul\":46001:46057   */\n    tag_926:\n        /* \"#utility.yul\":46081:46119   */\n      tag_928\n        /* \"#utility.yul\":46113:46117   */\n      dup3\n        /* \"#utility.yul\":46107:46118   */\n      sload\n        /* \"#utility.yul\":46081:46119   */\n      tag_110\n      jump\t// in\n    tag_928:\n        /* \"#utility.yul\":46166:46233   */\n      tag_929\n        /* \"#utility.yul\":46226:46232   */\n      dup3\n        /* \"#utility.yul\":46218:46224   */\n      dup3\n        /* \"#utility.yul\":46212:46216   */\n      dup6\n        /* \"#utility.yul\":46166:46233   */\n      tag_521\n      jump\t// in\n    tag_929:\n        /* \"#utility.yul\":46260:46261   */\n      0x00\n        /* \"#utility.yul\":46284:46288   */\n      0x20\n        /* \"#utility.yul\":46271:46288   */\n      swap1\n      pop\n        /* \"#utility.yul\":46316:46318   */\n      0x1f\n        /* \"#utility.yul\":46308:46314   */\n      dup4\n        /* \"#utility.yul\":46305:46319   */\n      gt\n        /* \"#utility.yul\":46333:46334   */\n      0x01\n        /* \"#utility.yul\":46328:46946   */\n      dup2\n      eq\n      tag_931\n      jumpi\n        /* \"#utility.yul\":46990:46991   */\n      0x00\n        /* \"#utility.yul\":47007:47013   */\n      dup5\n        /* \"#utility.yul\":47004:47081   */\n      iszero\n      tag_932\n      jumpi\n        /* \"#utility.yul\":47056:47065   */\n      dup3\n        /* \"#utility.yul\":47051:47054   */\n      dup8\n        /* \"#utility.yul\":47047:47066   */\n      add\n        /* \"#utility.yul\":47041:47067   */\n      mload\n        /* \"#utility.yul\":47032:47067   */\n      swap1\n      pop\n        /* \"#utility.yul\":47004:47081   */\n    tag_932:\n        /* \"#utility.yul\":47107:47174   */\n      tag_933\n        /* \"#utility.yul\":47167:47173   */\n      dup6\n        /* \"#utility.yul\":47160:47165   */\n      dup3\n        /* \"#utility.yul\":47107:47174   */\n      tag_524\n      jump\t// in\n    tag_933:\n        /* \"#utility.yul\":47101:47105   */\n      dup7\n        /* \"#utility.yul\":47094:47175   */\n      sstore\n        /* \"#utility.yul\":46963:47185   */\n      pop\n        /* \"#utility.yul\":46298:47185   */\n      jump(tag_930)\n        /* \"#utility.yul\":46328:46946   */\n    tag_931:\n        /* \"#utility.yul\":46380:46384   */\n      0x1f\n        /* \"#utility.yul\":46376:46385   */\n      not\n        /* \"#utility.yul\":46368:46374   */\n      dup5\n        /* \"#utility.yul\":46364:46386   */\n      and\n        /* \"#utility.yul\":46414:46451   */\n      tag_934\n        /* \"#utility.yul\":46446:46450   */\n      dup7\n        /* \"#utility.yul\":46414:46451   */\n      tag_510\n      jump\t// in\n    tag_934:\n        /* \"#utility.yul\":46473:46474   */\n      0x00\n        /* \"#utility.yul\":46487:46695   */\n    tag_935:\n        /* \"#utility.yul\":46501:46508   */\n      dup3\n        /* \"#utility.yul\":46498:46499   */\n      dup2\n        /* \"#utility.yul\":46495:46509   */\n      lt\n        /* \"#utility.yul\":46487:46695   */\n      iszero\n      tag_937\n      jumpi\n        /* \"#utility.yul\":46580:46589   */\n      dup5\n        /* \"#utility.yul\":46575:46578   */\n      dup10\n        /* \"#utility.yul\":46571:46590   */\n      add\n        /* \"#utility.yul\":46565:46591   */\n      mload\n        /* \"#utility.yul\":46557:46563   */\n      dup3\n        /* \"#utility.yul\":46550:46592   */\n      sstore\n        /* \"#utility.yul\":46631:46632   */\n      0x01\n        /* \"#utility.yul\":46623:46629   */\n      dup3\n        /* \"#utility.yul\":46619:46633   */\n      add\n        /* \"#utility.yul\":46609:46633   */\n      swap2\n      pop\n        /* \"#utility.yul\":46678:46680   */\n      0x20\n        /* \"#utility.yul\":46667:46676   */\n      dup6\n        /* \"#utility.yul\":46663:46681   */\n      add\n        /* \"#utility.yul\":46650:46681   */\n      swap5\n      pop\n        /* \"#utility.yul\":46524:46528   */\n      0x20\n        /* \"#utility.yul\":46521:46522   */\n      dup2\n        /* \"#utility.yul\":46517:46529   */\n      add\n        /* \"#utility.yul\":46512:46529   */\n      swap1\n      pop\n        /* \"#utility.yul\":46487:46695   */\n      jump(tag_935)\n    tag_937:\n        /* \"#utility.yul\":46723:46729   */\n      dup7\n        /* \"#utility.yul\":46714:46721   */\n      dup4\n        /* \"#utility.yul\":46711:46730   */\n      lt\n        /* \"#utility.yul\":46708:46887   */\n      iszero\n      tag_938\n      jumpi\n        /* \"#utility.yul\":46781:46790   */\n      dup5\n        /* \"#utility.yul\":46776:46779   */\n      dup10\n        /* \"#utility.yul\":46772:46791   */\n      add\n        /* \"#utility.yul\":46766:46792   */\n      mload\n        /* \"#utility.yul\":46824:46872   */\n      tag_939\n        /* \"#utility.yul\":46866:46870   */\n      0x1f\n        /* \"#utility.yul\":46858:46864   */\n      dup10\n        /* \"#utility.yul\":46854:46871   */\n      and\n        /* \"#utility.yul\":46843:46852   */\n      dup3\n        /* \"#utility.yul\":46824:46872   */\n      tag_523\n      jump\t// in\n    tag_939:\n        /* \"#utility.yul\":46816:46822   */\n      dup4\n        /* \"#utility.yul\":46809:46873   */\n      sstore\n        /* \"#utility.yul\":46731:46887   */\n      pop\n        /* \"#utility.yul\":46708:46887   */\n    tag_938:\n        /* \"#utility.yul\":46933:46934   */\n      0x01\n        /* \"#utility.yul\":46929:46930   */\n      0x02\n        /* \"#utility.yul\":46921:46927   */\n      dup9\n        /* \"#utility.yul\":46917:46931   */\n      mul\n        /* \"#utility.yul\":46913:46935   */\n      add\n        /* \"#utility.yul\":46907:46911   */\n      dup9\n        /* \"#utility.yul\":46900:46936   */\n      sstore\n        /* \"#utility.yul\":46335:46946   */\n      pop\n      pop\n      pop\n        /* \"#utility.yul\":46298:47185   */\n    tag_930:\n      pop\n        /* \"#utility.yul\":45888:47191   */\n      pop\n      pop\n      pop\n        /* \"#utility.yul\":45796:47191   */\n      pop\n      pop\n      jump\t// out\n        /* \"#utility.yul\":47197:48249   */\n    tag_169:\n        /* \"#utility.yul\":47490:47494   */\n      0x00\n        /* \"#utility.yul\":47528:47531   */\n      0xe0\n        /* \"#utility.yul\":47517:47526   */\n      dup3\n        /* \"#utility.yul\":47513:47532   */\n      add\n        /* \"#utility.yul\":47505:47532   */\n      swap1\n      pop\n        /* \"#utility.yul\":47578:47587   */\n      dup2\n        /* \"#utility.yul\":47572:47576   */\n      dup2\n        /* \"#utility.yul\":47568:47588   */\n      sub\n        /* \"#utility.yul\":47564:47565   */\n      0x00\n        /* \"#utility.yul\":47553:47562   */\n      dup4\n        /* \"#utility.yul\":47549:47566   */\n      add\n        /* \"#utility.yul\":47542:47589   */\n      mstore\n        /* \"#utility.yul\":47606:47684   */\n      tag_941\n        /* \"#utility.yul\":47679:47683   */\n      dup2\n        /* \"#utility.yul\":47670:47676   */\n      dup11\n        /* \"#utility.yul\":47606:47684   */\n      tag_463\n      jump\t// in\n    tag_941:\n        /* \"#utility.yul\":47598:47684   */\n      swap1\n      pop\n        /* \"#utility.yul\":47731:47740   */\n      dup2\n        /* \"#utility.yul\":47725:47729   */\n      dup2\n        /* \"#utility.yul\":47721:47741   */\n      sub\n        /* \"#utility.yul\":47716:47718   */\n      0x20\n        /* \"#utility.yul\":47705:47714   */\n      dup4\n        /* \"#utility.yul\":47701:47719   */\n      add\n        /* \"#utility.yul\":47694:47742   */\n      mstore\n        /* \"#utility.yul\":47759:47837   */\n      tag_942\n        /* \"#utility.yul\":47832:47836   */\n      dup2\n        /* \"#utility.yul\":47823:47829   */\n      dup10\n        /* \"#utility.yul\":47759:47837   */\n      tag_463\n      jump\t// in\n    tag_942:\n        /* \"#utility.yul\":47751:47837   */\n      swap1\n      pop\n        /* \"#utility.yul\":47847:47919   */\n      tag_943\n        /* \"#utility.yul\":47915:47917   */\n      0x40\n        /* \"#utility.yul\":47904:47913   */\n      dup4\n        /* \"#utility.yul\":47900:47918   */\n      add\n        /* \"#utility.yul\":47891:47897   */\n      dup9\n        /* \"#utility.yul\":47847:47919   */\n      tag_441\n      jump\t// in\n    tag_943:\n        /* \"#utility.yul\":47929:47997   */\n      tag_944\n        /* \"#utility.yul\":47993:47995   */\n      0x60\n        /* \"#utility.yul\":47982:47991   */\n      dup4\n        /* \"#utility.yul\":47978:47996   */\n      add\n        /* \"#utility.yul\":47969:47975   */\n      dup8\n        /* \"#utility.yul\":47929:47997   */\n      tag_464\n      jump\t// in\n    tag_944:\n        /* \"#utility.yul\":48007:48076   */\n      tag_945\n        /* \"#utility.yul\":48071:48074   */\n      0x80\n        /* \"#utility.yul\":48060:48069   */\n      dup4\n        /* \"#utility.yul\":48056:48075   */\n      add\n        /* \"#utility.yul\":48047:48053   */\n      dup7\n        /* \"#utility.yul\":48007:48076   */\n      tag_464\n      jump\t// in\n    tag_945:\n        /* \"#utility.yul\":48086:48159   */\n      tag_946\n        /* \"#utility.yul\":48154:48157   */\n      0xa0\n        /* \"#utility.yul\":48143:48152   */\n      dup4\n        /* \"#utility.yul\":48139:48158   */\n      add\n        /* \"#utility.yul\":48130:48136   */\n      dup6\n        /* \"#utility.yul\":48086:48159   */\n      tag_465\n      jump\t// in\n    tag_946:\n        /* \"#utility.yul\":48169:48242   */\n      tag_947\n        /* \"#utility.yul\":48237:48240   */\n      0xc0\n        /* \"#utility.yul\":48226:48235   */\n      dup4\n        /* \"#utility.yul\":48222:48241   */\n      add\n        /* \"#utility.yul\":48213:48219   */\n      dup5\n        /* \"#utility.yul\":48169:48242   */\n      tag_441\n      jump\t// in\n    tag_947:\n        /* \"#utility.yul\":47197:48249   */\n      swap9\n      swap8\n      pop\n      pop\n      pop\n      pop\n      pop\n      pop\n      pop\n      pop\n      jump\t// out\n        /* \"#utility.yul\":48255:48428   */\n    tag_525:\n        /* \"#utility.yul\":48395:48420   */\n      0x4e6f20656e7669726f6e6d656e74616c20616c65727473000000000000000000\n        /* \"#utility.yul\":48391:48392   */\n      0x00\n        /* \"#utility.yul\":48383:48389   */\n      dup3\n        /* \"#utility.yul\":48379:48393   */\n      add\n        /* \"#utility.yul\":48372:48421   */\n      mstore\n        /* \"#utility.yul\":48255:48428   */\n      pop\n      jump\t// out\n        /* \"#utility.yul\":48434:48800   */\n    tag_526:\n        /* \"#utility.yul\":48576:48579   */\n      0x00\n        /* \"#utility.yul\":48597:48664   */\n      tag_950\n        /* \"#utility.yul\":48661:48663   */\n      0x17\n        /* \"#utility.yul\":48656:48659   */\n      dup4\n        /* \"#utility.yul\":48597:48664   */\n      tag_462\n      jump\t// in\n    tag_950:\n        /* \"#utility.yul\":48590:48664   */\n      swap2\n      pop\n        /* \"#utility.yul\":48673:48766   */\n      tag_951\n        /* \"#utility.yul\":48762:48765   */\n      dup3\n        /* \"#utility.yul\":48673:48766   */\n      tag_525\n      jump\t// in\n    tag_951:\n        /* \"#utility.yul\":48791:48793   */\n      0x20\n        /* \"#utility.yul\":48786:48789   */\n      dup3\n        /* \"#utility.yul\":48782:48794   */\n      add\n        /* \"#utility.yul\":48775:48794   */\n      swap1\n      pop\n        /* \"#utility.yul\":48434:48800   */\n      swap2\n      swap1\n      pop\n      jump\t// out\n        /* \"#utility.yul\":48806:49225   */\n    tag_244:\n        /* \"#utility.yul\":48972:48976   */\n      0x00\n        /* \"#utility.yul\":49010:49012   */\n      0x20\n        /* \"#utility.yul\":48999:49008   */\n      dup3\n        /* \"#utility.yul\":48995:49013   */\n      add\n        /* \"#utility.yul\":48987:49013   */\n      swap1\n      pop\n        /* \"#utility.yul\":49059:49068   */\n      dup2\n        /* \"#utility.yul\":49053:49057   */\n      dup2\n        /* \"#utility.yul\":49049:49069   */\n      sub\n        /* \"#utility.yul\":49045:49046   */\n      0x00\n        /* \"#utility.yul\":49034:49043   */\n      dup4\n        /* \"#utility.yul\":49030:49047   */\n      add\n        /* \"#utility.yul\":49023:49070   */\n      mstore\n        /* \"#utility.yul\":49087:49218   */\n      tag_953\n        /* \"#utility.yul\":49213:49217   */\n      dup2\n        /* \"#utility.yul\":49087:49218   */\n      tag_526\n      jump\t// in\n    tag_953:\n        /* \"#utility.yul\":49079:49218   */\n      swap1\n      pop\n        /* \"#utility.yul\":48806:49225   */\n      swap2\n      swap1\n      pop\n      jump\t// out\n        /* \"#utility.yul\":49231:49398   */\n    tag_527:\n        /* \"#utility.yul\":49371:49390   */\n      0x4e6f20636c696d61746520616c65727473000000000000000000000000000000\n        /* \"#utility.yul\":49367:49368   */\n      0x00\n        /* \"#utility.yul\":49359:49365   */\n      dup3\n        /* \"#utility.yul\":49355:49369   */\n      add\n        /* \"#utility.yul\":49348:49391   */\n      mstore\n        /* \"#utility.yul\":49231:49398   */\n      pop\n      jump\t// out\n        /* \"#utility.yul\":49404:49770   */\n    tag_528:\n        /* \"#utility.yul\":49546:49549   */\n      0x00\n        /* \"#utility.yul\":49567:49634   */\n      tag_956\n        /* \"#utility.yul\":49631:49633   */\n      0x11\n        /* \"#utility.yul\":49626:49629   */\n      dup4\n        /* \"#utility.yul\":49567:49634   */\n      tag_462\n      jump\t// in\n    tag_956:\n        /* \"#utility.yul\":49560:49634   */\n      swap2\n      pop\n        /* \"#utility.yul\":49643:49736   */\n      tag_957\n        /* \"#utility.yul\":49732:49735   */\n      dup3\n        /* \"#utility.yul\":49643:49736   */\n      tag_527\n      jump\t// in\n    tag_957:\n        /* \"#utility.yul\":49761:49763   */\n      0x20\n        /* \"#utility.yul\":49756:49759   */\n      dup3\n        /* \"#utility.yul\":49752:49764   */\n      add\n        /* \"#utility.yul\":49745:49764   */\n      swap1\n      pop\n        /* \"#utility.yul\":49404:49770   */\n      swap2\n      swap1\n      pop\n      jump\t// out\n        /* \"#utility.yul\":49776:50195   */\n    tag_273:\n        /* \"#utility.yul\":49942:49946   */\n      0x00\n        /* \"#utility.yul\":49980:49982   */\n      0x20\n        /* \"#utility.yul\":49969:49978   */\n      dup3\n        /* \"#utility.yul\":49965:49983   */\n      add\n        /* \"#utility.yul\":49957:49983   */\n      swap1\n      pop\n        /* \"#utility.yul\":50029:50038   */\n      dup2\n        /* \"#utility.yul\":50023:50027   */\n      dup2\n        /* \"#utility.yul\":50019:50039   */\n      sub\n        /* \"#utility.yul\":50015:50016   */\n      0x00\n        /* \"#utility.yul\":50004:50013   */\n      dup4\n        /* \"#utility.yul\":50000:50017   */\n      add\n        /* \"#utility.yul\":49993:50040   */\n      mstore\n        /* \"#utility.yul\":50057:50188   */\n      tag_959\n        /* \"#utility.yul\":50183:50187   */\n      dup2\n        /* \"#utility.yul\":50057:50188   */\n      tag_528\n      jump\t// in\n    tag_959:\n        /* \"#utility.yul\":50049:50188   */\n      swap1\n      pop\n        /* \"#utility.yul\":49776:50195   */\n      swap2\n      swap1\n      pop\n      jump\t// out\n        /* \"#utility.yul\":50201:50364   */\n    tag_529:\n        /* \"#utility.yul\":50341:50356   */\n      0x4369747920726571756972656400000000000000000000000000000000000000\n        /* \"#utility.yul\":50337:50338   */\n      0x00\n        /* \"#utility.yul\":50329:50335   */\n      dup3\n        /* \"#utility.yul\":50325:50339   */\n      add\n        /* \"#utility.yul\":50318:50357   */\n      mstore\n        /* \"#utility.yul\":50201:50364   */\n      pop\n      jump\t// out\n        /* \"#utility.yul\":50370:50736   */\n    tag_530:\n        /* \"#utility.yul\":50512:50515   */\n      0x00\n        /* \"#utility.yul\":50533:50600   */\n      tag_962\n        /* \"#utility.yul\":50597:50599   */\n      0x0d\n        /* \"#utility.yul\":50592:50595   */\n      dup4\n        /* \"#utility.yul\":50533:50600   */\n      tag_462\n      jump\t// in\n    tag_962:\n        /* \"#utility.yul\":50526:50600   */\n      swap2\n      pop\n        /* \"#utility.yul\":50609:50702   */\n      tag_963\n        /* \"#utility.yul\":50698:50701   */\n      dup3\n        /* \"#utility.yul\":50609:50702   */\n      tag_529\n      jump\t// in\n    tag_963:\n        /* \"#utility.yul\":50727:50729   */\n      0x20\n        /* \"#utility.yul\":50722:50725   */\n      dup3\n        /* \"#utility.yul\":50718:50730   */\n      add\n        /* \"#utility.yul\":50711:50730   */\n      swap1\n      pop\n        /* \"#utility.yul\":50370:50736   */\n      swap2\n      swap1\n      pop\n      jump\t// out\n        /* \"#utility.yul\":50742:51161   */\n    tag_296:\n        /* \"#utility.yul\":50908:50912   */\n      0x00\n        /* \"#utility.yul\":50946:50948   */\n      0x20\n        /* \"#utility.yul\":50935:50944   */\n      dup3\n        /* \"#utility.yul\":50931:50949   */\n      add\n        /* \"#utility.yul\":50923:50949   */\n      swap1\n      pop\n        /* \"#utility.yul\":50995:51004   */\n      dup2\n        /* \"#utility.yul\":50989:50993   */\n      dup2\n        /* \"#utility.yul\":50985:51005   */\n      sub\n        /* \"#utility.yul\":50981:50982   */\n      0x00\n        /* \"#utility.yul\":50970:50979   */\n      dup4\n        /* \"#utility.yul\":50966:50983   */\n      add\n        /* \"#utility.yul\":50959:51006   */\n      mstore\n        /* \"#utility.yul\":51023:51154   */\n      tag_965\n        /* \"#utility.yul\":51149:51153   */\n      dup2\n        /* \"#utility.yul\":51023:51154   */\n      tag_530\n      jump\t// in\n    tag_965:\n        /* \"#utility.yul\":51015:51154   */\n      swap1\n      pop\n        /* \"#utility.yul\":50742:51161   */\n      swap2\n      swap1\n      pop\n      jump\t// out\n        /* \"#utility.yul\":51167:51339   */\n    tag_531:\n        /* \"#utility.yul\":51307:51331   */\n      0x5361666574792061647669636520726571756972656400000000000000000000\n        /* \"#utility.yul\":51303:51304   */\n      0x00\n        /* \"#utility.yul\":51295:51301   */\n      dup3\n        /* \"#utility.yul\":51291:51305   */\n      add\n        /* \"#utility.yul\":51284:51332   */\n      mstore\n        /* \"#utility.yul\":51167:51339   */\n      pop\n      jump\t// out\n        /* \"#utility.yul\":51345:51711   */\n    tag_532:\n        /* \"#utility.yul\":51487:51490   */\n      0x00\n        /* \"#utility.yul\":51508:51575   */\n      tag_968\n        /* \"#utility.yul\":51572:51574   */\n      0x16\n        /* \"#utility.yul\":51567:51570   */\n      dup4\n        /* \"#utility.yul\":51508:51575   */\n      tag_462\n      jump\t// in\n    tag_968:\n        /* \"#utility.yul\":51501:51575   */\n      swap2\n      pop\n        /* \"#utility.yul\":51584:51677   */\n      tag_969\n        /* \"#utility.yul\":51673:51676   */\n      dup3\n        /* \"#utility.yul\":51584:51677   */\n      tag_531\n      jump\t// in\n    tag_969:\n        /* \"#utility.yul\":51702:51704   */\n      0x20\n        /* \"#utility.yul\":51697:51700   */\n      dup3\n        /* \"#utility.yul\":51693:51705   */\n      add\n        /* \"#utility.yul\":51686:51705   */\n      swap1\n      pop\n        /* \"#utility.yul\":51345:51711   */\n      swap2\n      swap1\n      pop\n      jump\t// out\n        /* \"#utility.yul\":51717:52136   */\n    tag_299:\n        /* \"#utility.yul\":51883:51887   */\n      0x00\n        /* \"#utility.yul\":51921:51923   */\n      0x20\n        /* \"#utility.yul\":51910:51919   */\n      dup3\n        /* \"#utility.yul\":51906:51924   */\n      add\n        /* \"#utility.yul\":51898:51924   */\n      swap1\n      pop\n        /* \"#utility.yul\":51970:51979   */\n      dup2\n        /* \"#utility.yul\":51964:51968   */\n      dup2\n        /* \"#utility.yul\":51960:51980   */\n      sub\n        /* \"#utility.yul\":51956:51957   */\n      0x00\n        /* \"#utility.yul\":51945:51954   */\n      dup4\n        /* \"#utility.yul\":51941:51958   */\n      add\n        /* \"#utility.yul\":51934:51981   */\n      mstore\n        /* \"#utility.yul\":51998:52129   */\n      tag_971\n        /* \"#utility.yul\":52124:52128   */\n      dup2\n        /* \"#utility.yul\":51998:52129   */\n      tag_532\n      jump\t// in\n    tag_971:\n        /* \"#utility.yul\":51990:52129   */\n      swap1\n      pop\n        /* \"#utility.yul\":51717:52136   */\n      swap2\n      swap1\n      pop\n      jump\t// out\n        /* \"#utility.yul\":52142:52312   */\n    tag_533:\n        /* \"#utility.yul\":52282:52304   */\n      0x4461746120736f75726365207265717569726564000000000000000000000000\n        /* \"#utility.yul\":52278:52279   */\n      0x00\n        /* \"#utility.yul\":52270:52276   */\n      dup3\n        /* \"#utility.yul\":52266:52280   */\n      add\n        /* \"#utility.yul\":52259:52305   */\n      mstore\n        /* \"#utility.yul\":52142:52312   */\n      pop\n      jump\t// out\n        /* \"#utility.yul\":52318:52684   */\n    tag_534:\n        /* \"#utility.yul\":52460:52463   */\n      0x00\n        /* \"#utility.yul\":52481:52548   */\n      tag_974\n        /* \"#utility.yul\":52545:52547   */\n      0x14\n        /* \"#utility.yul\":52540:52543   */\n      dup4\n        /* \"#utility.yul\":52481:52548   */\n      tag_462\n      jump\t// in\n    tag_974:\n        /* \"#utility.yul\":52474:52548   */\n      swap2\n      pop\n        /* \"#utility.yul\":52557:52650   */\n      tag_975\n        /* \"#utility.yul\":52646:52649   */\n      dup3\n        /* \"#utility.yul\":52557:52650   */\n      tag_533\n      jump\t// in\n    tag_975:\n        /* \"#utility.yul\":52675:52677   */\n      0x20\n        /* \"#utility.yul\":52670:52673   */\n      dup3\n        /* \"#utility.yul\":52666:52678   */\n      add\n        /* \"#utility.yul\":52659:52678   */\n      swap1\n      pop\n        /* \"#utility.yul\":52318:52684   */\n      swap2\n      swap1\n      pop\n      jump\t// out\n        /* \"#utility.yul\":52690:53109   */\n    tag_302:\n        /* \"#utility.yul\":52856:52860   */\n      0x00\n        /* \"#utility.yul\":52894:52896   */\n      0x20\n        /* \"#utility.yul\":52883:52892   */\n      dup3\n        /* \"#utility.yul\":52879:52897   */\n      add\n        /* \"#utility.yul\":52871:52897   */\n      swap1\n      pop\n        /* \"#utility.yul\":52943:52952   */\n      dup2\n        /* \"#utility.yul\":52937:52941   */\n      dup2\n        /* \"#utility.yul\":52933:52953   */\n      sub\n        /* \"#utility.yul\":52929:52930   */\n      0x00\n        /* \"#utility.yul\":52918:52927   */\n      dup4\n        /* \"#utility.yul\":52914:52931   */\n      add\n        /* \"#utility.yul\":52907:52954   */\n      mstore\n        /* \"#utility.yul\":52971:53102   */\n      tag_977\n        /* \"#utility.yul\":53097:53101   */\n      dup2\n        /* \"#utility.yul\":52971:53102   */\n      tag_534\n      jump\t// in\n    tag_977:\n        /* \"#utility.yul\":52963:53102   */\n      swap1\n      pop\n        /* \"#utility.yul\":52690:53109   */\n      swap2\n      swap1\n      pop\n      jump\t// out\n        /* \"#utility.yul\":53115:53288   */\n    tag_535:\n        /* \"#utility.yul\":53255:53280   */\n      0x48756d6964697479206d757374206265203c3d20313030000000000000000000\n        /* \"#utility.yul\":53251:53252   */\n      0x00\n        /* \"#utility.yul\":53243:53249   */\n      dup3\n        /* \"#utility.yul\":53239:53253   */\n      add\n        /* \"#utility.yul\":53232:53281   */\n      mstore\n        /* \"#utility.yul\":53115:53288   */\n      pop\n      jump\t// out\n        /* \"#utility.yul\":53294:53660   */\n    tag_536:\n        /* \"#utility.yul\":53436:53439   */\n      0x00\n        /* \"#utility.yul\":53457:53524   */\n      tag_980\n        /* \"#utility.yul\":53521:53523   */\n      0x17\n        /* \"#utility.yul\":53516:53519   */\n      dup4\n        /* \"#utility.yul\":53457:53524   */\n      tag_462\n      jump\t// in\n    tag_980:\n        /* \"#utility.yul\":53450:53524   */\n      swap2\n      pop\n        /* \"#utility.yul\":53533:53626   */\n      tag_981\n        /* \"#utility.yul\":53622:53625   */\n      dup3\n        /* \"#utility.yul\":53533:53626   */\n      tag_535\n      jump\t// in\n    tag_981:\n        /* \"#utility.yul\":53651:53653   */\n      0x20\n        /* \"#utility.yul\":53646:53649   */\n      dup3\n        /* \"#utility.yul\":53642:53654   */\n      add\n        /* \"#utility.yul\":53635:53654   */\n      swap1\n      pop\n        /* \"#utility.yul\":53294:53660   */\n      swap2\n      swap1\n      pop\n      jump\t// out\n        /* \"#utility.yul\":53666:54085   */\n    tag_305:\n        /* \"#utility.yul\":53832:53836   */\n      0x00\n        /* \"#utility.yul\":53870:53872   */\n      0x20\n        /* \"#utility.yul\":53859:53868   */\n      dup3\n        /* \"#utility.yul\":53855:53873   */\n      add\n        /* \"#utility.yul\":53847:53873   */\n      swap1\n      pop\n        /* \"#utility.yul\":53919:53928   */\n      dup2\n        /* \"#utility.yul\":53913:53917   */\n      dup2\n        /* \"#utility.yul\":53909:53929   */\n      sub\n        /* \"#utility.yul\":53905:53906   */\n      0x00\n        /* \"#utility.yul\":53894:53903   */\n      dup4\n        /* \"#utility.yul\":53890:53907   */\n      add\n        /* \"#utility.yul\":53883:53930   */\n      mstore\n        /* \"#utility.yul\":53947:54078   */\n      tag_983\n        /* \"#utility.yul\":54073:54077   */\n      dup2\n        /* \"#utility.yul\":53947:54078   */\n      tag_536\n      jump\t// in\n    tag_983:\n        /* \"#utility.yul\":53939:54078   */\n      swap1\n      pop\n        /* \"#utility.yul\":53666:54085   */\n      swap2\n      swap1\n      pop\n      jump\t// out\n        /* \"#utility.yul\":54091:54263   */\n    tag_537:\n        /* \"#utility.yul\":54231:54255   */\n      0x555620696e646578206d757374206265203c3d20323000000000000000000000\n        /* \"#utility.yul\":54227:54228   */\n      0x00\n        /* \"#utility.yul\":54219:54225   */\n      dup3\n        /* \"#utility.yul\":54215:54229   */\n      add\n        /* \"#utility.yul\":54208:54256   */\n      mstore\n        /* \"#utility.yul\":54091:54263   */\n      pop\n      jump\t// out\n        /* \"#utility.yul\":54269:54635   */\n    tag_538:\n        /* \"#utility.yul\":54411:54414   */\n      0x00\n        /* \"#utility.yul\":54432:54499   */\n      tag_986\n        /* \"#utility.yul\":54496:54498   */\n      0x16\n        /* \"#utility.yul\":54491:54494   */\n      dup4\n        /* \"#utility.yul\":54432:54499   */\n      tag_462\n      jump\t// in\n    tag_986:\n        /* \"#utility.yul\":54425:54499   */\n      swap2\n      pop\n        /* \"#utility.yul\":54508:54601   */\n      tag_987\n        /* \"#utility.yul\":54597:54600   */\n      dup3\n        /* \"#utility.yul\":54508:54601   */\n      tag_537\n      jump\t// in\n    tag_987:\n        /* \"#utility.yul\":54626:54628   */\n      0x20\n        /* \"#utility.yul\":54621:54624   */\n      dup3\n        /* \"#utility.yul\":54617:54629   */\n      add\n        /* \"#utility.yul\":54610:54629   */\n      swap1\n      pop\n        /* \"#utility.yul\":54269:54635   */\n      swap2\n      swap1\n      pop\n      jump\t// out\n        /* \"#utility.yul\":54641:55060   */\n    tag_308:\n        /* \"#utility.yul\":54807:54811   */\n      0x00\n        /* \"#utility.yul\":54845:54847   */\n      0x20\n        /* \"#utility.yul\":54834:54843   */\n      dup3\n        /* \"#utility.yul\":54830:54848   */\n      add\n        /* \"#utility.yul\":54822:54848   */\n      swap1\n      pop\n        /* \"#utility.yul\":54894:54903   */\n      dup2\n        /* \"#utility.yul\":54888:54892   */\n      dup2\n        /* \"#utility.yul\":54884:54904   */\n      sub\n        /* \"#utility.yul\":54880:54881   */\n      0x00\n        /* \"#utility.yul\":54869:54878   */\n      dup4\n        /* \"#utility.yul\":54865:54882   */\n      add\n        /* \"#utility.yul\":54858:54905   */\n      mstore\n        /* \"#utility.yul\":54922:55053   */\n      tag_989\n        /* \"#utility.yul\":55048:55052   */\n      dup2\n        /* \"#utility.yul\":54922:55053   */\n      tag_538\n      jump\t// in\n    tag_989:\n        /* \"#utility.yul\":54914:55053   */\n      swap1\n      pop\n        /* \"#utility.yul\":54641:55060   */\n      swap2\n      swap1\n      pop\n      jump\t// out\n        /* \"#utility.yul\":55066:55238   */\n    tag_539:\n        /* \"#utility.yul\":55206:55230   */\n      0x5269736b206c6576656c206d75737420626520312d3500000000000000000000\n        /* \"#utility.yul\":55202:55203   */\n      0x00\n        /* \"#utility.yul\":55194:55200   */\n      dup3\n        /* \"#utility.yul\":55190:55204   */\n      add\n        /* \"#utility.yul\":55183:55231   */\n      mstore\n        /* \"#utility.yul\":55066:55238   */\n      pop\n      jump\t// out\n        /* \"#utility.yul\":55244:55610   */\n    tag_540:\n        /* \"#utility.yul\":55386:55389   */\n      0x00\n        /* \"#utility.yul\":55407:55474   */\n      tag_992\n        /* \"#utility.yul\":55471:55473   */\n      0x16\n        /* \"#utility.yul\":55466:55469   */\n      dup4\n        /* \"#utility.yul\":55407:55474   */\n      tag_462\n      jump\t// in\n    tag_992:\n        /* \"#utility.yul\":55400:55474   */\n      swap2\n      pop\n        /* \"#utility.yul\":55483:55576   */\n      tag_993\n        /* \"#utility.yul\":55572:55575   */\n      dup3\n        /* \"#utility.yul\":55483:55576   */\n      tag_539\n      jump\t// in\n    tag_993:\n        /* \"#utility.yul\":55601:55603   */\n      0x20\n        /* \"#utility.yul\":55596:55599   */\n      dup3\n        /* \"#utility.yul\":55592:55604   */\n      add\n        /* \"#utility.yul\":55585:55604   */\n      swap1\n      pop\n        /* \"#utility.yul\":55244:55610   */\n      swap2\n      swap1\n      pop\n      jump\t// out\n        /* \"#utility.yul\":55616:56035   */\n    tag_312:\n        /* \"#utility.yul\":55782:55786   */\n      0x00\n        /* \"#utility.yul\":55820:55822   */\n      0x20\n        /* \"#utility.yul\":55809:55818   */\n      dup3\n        /* \"#utility.yul\":55805:55823   */\n      add\n        /* \"#utility.yul\":55797:55823   */\n      swap1\n      pop\n        /* \"#utility.yul\":55869:55878   */\n      dup2\n        /* \"#utility.yul\":55863:55867   */\n      dup2\n        /* \"#utility.yul\":55859:55879   */\n      sub\n        /* \"#utility.yul\":55855:55856   */\n      0x00\n        /* \"#utility.yul\":55844:55853   */\n      dup4\n        /* \"#utility.yul\":55840:55857   */\n      add\n        /* \"#utility.yul\":55833:55880   */\n      mstore\n        /* \"#utility.yul\":55897:56028   */\n      tag_995\n        /* \"#utility.yul\":56023:56027   */\n      dup2\n        /* \"#utility.yul\":55897:56028   */\n      tag_540\n      jump\t// in\n    tag_995:\n        /* \"#utility.yul\":55889:56028   */\n      swap1\n      pop\n        /* \"#utility.yul\":55616:56035   */\n      swap2\n      swap1\n      pop\n      jump\t// out\n        /* \"#utility.yul\":56041:56189   */\n    tag_541:\n        /* \"#utility.yul\":56143:56154   */\n      0x00\n        /* \"#utility.yul\":56180:56183   */\n      dup2\n        /* \"#utility.yul\":56165:56183   */\n      swap1\n      pop\n        /* \"#utility.yul\":56041:56189   */\n      swap3\n      swap2\n      pop\n      pop\n      jump\t// out\n        /* \"#utility.yul\":56195:56585   */\n    tag_542:\n        /* \"#utility.yul\":56301:56304   */\n      0x00\n        /* \"#utility.yul\":56329:56368   */\n      tag_998\n        /* \"#utility.yul\":56362:56367   */\n      dup3\n        /* \"#utility.yul\":56329:56368   */\n      tag_433\n      jump\t// in\n    tag_998:\n        /* \"#utility.yul\":56384:56473   */\n      tag_999\n        /* \"#utility.yul\":56466:56472   */\n      dup2\n        /* \"#utility.yul\":56461:56464   */\n      dup6\n        /* \"#utility.yul\":56384:56473   */\n      tag_541\n      jump\t// in\n    tag_999:\n        /* \"#utility.yul\":56377:56473   */\n      swap4\n      pop\n        /* \"#utility.yul\":56482:56547   */\n      tag_1000\n        /* \"#utility.yul\":56540:56546   */\n      dup2\n        /* \"#utility.yul\":56535:56538   */\n      dup6\n        /* \"#utility.yul\":56528:56532   */\n      0x20\n        /* \"#utility.yul\":56521:56526   */\n      dup7\n        /* \"#utility.yul\":56517:56533   */\n      add\n        /* \"#utility.yul\":56482:56547   */\n      tag_435\n      jump\t// in\n    tag_1000:\n        /* \"#utility.yul\":56572:56578   */\n      dup1\n        /* \"#utility.yul\":56567:56570   */\n      dup5\n        /* \"#utility.yul\":56563:56579   */\n      add\n        /* \"#utility.yul\":56556:56579   */\n      swap2\n      pop\n        /* \"#utility.yul\":56305:56585   */\n      pop\n        /* \"#utility.yul\":56195:56585   */\n      swap3\n      swap2\n      pop\n      pop\n      jump\t// out\n        /* \"#utility.yul\":56591:56866   */\n    tag_318:\n        /* \"#utility.yul\":56723:56726   */\n      0x00\n        /* \"#utility.yul\":56745:56840   */\n      tag_1002\n        /* \"#utility.yul\":56836:56839   */\n      dup3\n        /* \"#utility.yul\":56827:56833   */\n      dup5\n        /* \"#utility.yul\":56745:56840   */\n      tag_542\n      jump\t// in\n    tag_1002:\n        /* \"#utility.yul\":56738:56840   */\n      swap2\n      pop\n        /* \"#utility.yul\":56857:56860   */\n      dup2\n        /* \"#utility.yul\":56850:56860   */\n      swap1\n      pop\n        /* \"#utility.yul\":56591:56866   */\n      swap3\n      swap2\n      pop\n      pop\n      jump\t// out\n        /* \"#utility.yul\":56872:57413   */\n    tag_325:\n        /* \"#utility.yul\":57043:57047   */\n      0x00\n        /* \"#utility.yul\":57081:57084   */\n      0x80\n        /* \"#utility.yul\":57070:57079   */\n      dup3\n        /* \"#utility.yul\":57066:57085   */\n      add\n        /* \"#utility.yul\":57058:57085   */\n      swap1\n      pop\n        /* \"#utility.yul\":57095:57162   */\n      tag_1004\n        /* \"#utility.yul\":57159:57160   */\n      0x00\n        /* \"#utility.yul\":57148:57157   */\n      dup4\n        /* \"#utility.yul\":57144:57161   */\n      add\n        /* \"#utility.yul\":57135:57141   */\n      dup8\n        /* \"#utility.yul\":57095:57162   */\n      tag_464\n      jump\t// in\n    tag_1004:\n        /* \"#utility.yul\":57172:57242   */\n      tag_1005\n        /* \"#utility.yul\":57238:57240   */\n      0x20\n        /* \"#utility.yul\":57227:57236   */\n      dup4\n        /* \"#utility.yul\":57223:57241   */\n      add\n        /* \"#utility.yul\":57214:57220   */\n      dup7\n        /* \"#utility.yul\":57172:57242   */\n      tag_489\n      jump\t// in\n    tag_1005:\n        /* \"#utility.yul\":57252:57324   */\n      tag_1006\n        /* \"#utility.yul\":57320:57322   */\n      0x40\n        /* \"#utility.yul\":57309:57318   */\n      dup4\n        /* \"#utility.yul\":57305:57323   */\n      add\n        /* \"#utility.yul\":57296:57302   */\n      dup6\n        /* \"#utility.yul\":57252:57324   */\n      tag_465\n      jump\t// in\n    tag_1006:\n        /* \"#utility.yul\":57334:57406   */\n      tag_1007\n        /* \"#utility.yul\":57402:57404   */\n      0x60\n        /* \"#utility.yul\":57391:57400   */\n      dup4\n        /* \"#utility.yul\":57387:57405   */\n      add\n        /* \"#utility.yul\":57378:57384   */\n      dup5\n        /* \"#utility.yul\":57334:57406   */\n      tag_441\n      jump\t// in\n    tag_1007:\n        /* \"#utility.yul\":56872:57413   */\n      swap6\n      swap5\n      pop\n      pop\n      pop\n      pop\n      pop\n      jump\t// out\n        /* \"#utility.yul\":57443:57773   */\n    tag_543:\n        /* \"#utility.yul\":57559:57562   */\n      0x00\n        /* \"#utility.yul\":57580:57669   */\n      tag_1009\n        /* \"#utility.yul\":57662:57668   */\n      dup4\n        /* \"#utility.yul\":57657:57660   */\n      dup6\n        /* \"#utility.yul\":57580:57669   */\n      tag_541\n      jump\t// in\n    tag_1009:\n        /* \"#utility.yul\":57573:57669   */\n      swap4\n      pop\n        /* \"#utility.yul\":57679:57735   */\n      tag_1010\n        /* \"#utility.yul\":57728:57734   */\n      dup4\n        /* \"#utility.yul\":57723:57726   */\n      dup6\n        /* \"#utility.yul\":57716:57721   */\n      dup5\n        /* \"#utility.yul\":57679:57735   */\n      tag_451\n      jump\t// in\n    tag_1010:\n        /* \"#utility.yul\":57760:57766   */\n      dup3\n        /* \"#utility.yul\":57755:57758   */\n      dup5\n        /* \"#utility.yul\":57751:57767   */\n      add\n        /* \"#utility.yul\":57744:57767   */\n      swap1\n      pop\n        /* \"#utility.yul\":57443:57773   */\n      swap4\n      swap3\n      pop\n      pop\n      pop\n      jump\t// out\n        /* \"#utility.yul\":57779:58074   */\n    tag_328:\n        /* \"#utility.yul\":57921:57924   */\n      0x00\n        /* \"#utility.yul\":57943:58048   */\n      tag_1012\n        /* \"#utility.yul\":58044:58047   */\n      dup3\n        /* \"#utility.yul\":58035:58041   */\n      dup5\n        /* \"#utility.yul\":58027:58033   */\n      dup7\n        /* \"#utility.yul\":57943:58048   */\n      tag_543\n      jump\t// in\n    tag_1012:\n        /* \"#utility.yul\":57936:58048   */\n      swap2\n      pop\n        /* \"#utility.yul\":58065:58068   */\n      dup2\n        /* \"#utility.yul\":58058:58068   */\n      swap1\n      pop\n        /* \"#utility.yul\":57779:58074   */\n      swap4\n      swap3\n      pop\n      pop\n      pop\n      jump\t// out\n        /* \"#utility.yul\":58080:58255   */\n    tag_544:\n        /* \"#utility.yul\":58220:58247   */\n      0x5269736b2073636f7265206d757374206265203c3d2031303000000000000000\n        /* \"#utility.yul\":58216:58217   */\n      0x00\n        /* \"#utility.yul\":58208:58214   */\n      dup3\n        /* \"#utility.yul\":58204:58218   */\n      add\n        /* \"#utility.yul\":58197:58248   */\n      mstore\n        /* \"#utility.yul\":58080:58255   */\n      pop\n      jump\t// out\n        /* \"#utility.yul\":58261:58627   */\n    tag_545:\n        /* \"#utility.yul\":58403:58406   */\n      0x00\n        /* \"#utility.yul\":58424:58491   */\n      tag_1015\n        /* \"#utility.yul\":58488:58490   */\n      0x19\n        /* \"#utility.yul\":58483:58486   */\n      dup4\n        /* \"#utility.yul\":58424:58491   */\n      tag_462\n      jump\t// in\n    tag_1015:\n        /* \"#utility.yul\":58417:58491   */\n      swap2\n      pop\n        /* \"#utility.yul\":58500:58593   */\n      tag_1016\n        /* \"#utility.yul\":58589:58592   */\n      dup3\n        /* \"#utility.yul\":58500:58593   */\n      tag_544\n      jump\t// in\n    tag_1016:\n        /* \"#utility.yul\":58618:58620   */\n      0x20\n        /* \"#utility.yul\":58613:58616   */\n      dup3\n        /* \"#utility.yul\":58609:58621   */\n      add\n        /* \"#utility.yul\":58602:58621   */\n      swap1\n      pop\n        /* \"#utility.yul\":58261:58627   */\n      swap2\n      swap1\n      pop\n      jump\t// out\n        /* \"#utility.yul\":58633:59052   */\n    tag_417:\n        /* \"#utility.yul\":58799:58803   */\n      0x00\n        /* \"#utility.yul\":58837:58839   */\n      0x20\n        /* \"#utility.yul\":58826:58835   */\n      dup3\n        /* \"#utility.yul\":58822:58840   */\n      add\n        /* \"#utility.yul\":58814:58840   */\n      swap1\n      pop\n        /* \"#utility.yul\":58886:58895   */\n      dup2\n        /* \"#utility.yul\":58880:58884   */\n      dup2\n        /* \"#utility.yul\":58876:58896   */\n      sub\n        /* \"#utility.yul\":58872:58873   */\n      0x00\n        /* \"#utility.yul\":58861:58870   */\n      dup4\n        /* \"#utility.yul\":58857:58874   */\n      add\n        /* \"#utility.yul\":58850:58897   */\n      mstore\n        /* \"#utility.yul\":58914:59045   */\n      tag_1018\n        /* \"#utility.yul\":59040:59044   */\n      dup2\n        /* \"#utility.yul\":58914:59045   */\n      tag_545\n      jump\t// in\n    tag_1018:\n        /* \"#utility.yul\":58906:59045   */\n      swap1\n      pop\n        /* \"#utility.yul\":58633:59052   */\n      swap2\n      swap1\n      pop\n      jump\t// out\n\n    auxdata: 0xa26469706673582212200270689ed72891ed2be365bfdf06414a71528aebbfcba25c74896767ce32db7b64736f6c63430008220033\n}\n",
				"bytecode": {
					"linkReferences": {},
					"object": "6080604052348015600e575f5ffd5b506148908061001c5f395ff3fe608060405234801561000f575f5ffd5b5060043610610109575f3560e01c806385081886116100a0578063bbfb862e1161006f578063bbfb862e146102d7578063c2e5f7af14610307578063d2a165fb14610323578063f1e391de1461035d578063f7fb20f41461039257610109565b8063850818861461023b578063917731ef1461026b578063961e590d14610289578063bb1bda5d146102a757610109565b806364b605af116100dc57806364b605af14610183578063691745ba146101b35780636d5b6c03146101ed578063812cc89e1461020b57610109565b806312670d4a1461010d57806340411fc81461012b578063464508b1146101495780634fcb9e9114610167575b5f5ffd5b6101156103c2565b6040516101229190612e8d565b60405180910390f35b6101336106a2565b6040516101409190612ebc565b60405180910390f35b6101516106ad565b60405161015e9190612ebc565b60405180910390f35b610181600480360381019061017c919061303c565b6106b9565b005b61019d6004803603810190610198919061318c565b6106cd565b6040516101aa9190612ebc565b60405180910390f35b6101cd60048036038101906101c891906132ad565b610b19565b6040516101e49b9a9998979695949392919061337d565b60405180910390f35b6101f5610dce565b6040516102029190612ebc565b60405180910390f35b610225600480360381019061022091906132ad565b610dda565b6040516102329190613581565b60405180910390f35b610255600480360381019061025091906132ad565b611097565b6040516102629190612e8d565b60405180910390f35b610273611323565b60405161028091906136a2565b60405180910390f35b6102916116a9565b60405161029e9190613581565b60405180910390f35b6102c160048036038101906102bc91906136ec565b6119ba565b6040516102ce9190612ebc565b60405180910390f35b6102f160048036038101906102ec919061384e565b611eef565b6040516102fe9190613a4e565b60405180910390f35b610321600480360381019061031c9190613ac3565b6121ef565b005b61033d600480360381019061033891906132ad565b612223565b6040516103549b9a99989796959493929190613b1d565b60405180910390f35b610377600480360381019061037291906132ad565b61245f565b60405161038996959493929190613bdb565b60405180910390f35b6103ac60048036038101906103a791906132ad565b6126bd565b6040516103b991906136a2565b60405180910390f35b6103ca612c56565b5f5f8054905011610410576040517f08c379a000000000000000000000000000000000000000000000000000000000815260040161040790613ca0565b60405180910390fd5b5f60015f805490506104229190613ceb565b8154811061043357610432613d1e565b5b905f5260205f2090600602016040518060c00160405290815f8201805461045990613d78565b80601f016020809104026020016040519081016040528092919081815260200182805461048590613d78565b80156104d05780601f106104a7576101008083540402835291602001916104d0565b820191905f5260205f20905b8154815290600101906020018083116104b357829003601f168201915b505050505081526020016001820180546104e990613d78565b80601f016020809104026020016040519081016040528092919081815260200182805461051590613d78565b80156105605780601f1061053757610100808354040283529160200191610560565b820191905f5260205f20905b81548152906001019060200180831161054357829003601f168201915b5050505050815260200160028201805461057990613d78565b80601f01602080910402602001604051908101604052809291908181526020018280546105a590613d78565b80156105f05780601f106105c7576101008083540402835291602001916105f0565b820191905f5260205f20905b8154815290600101906020018083116105d357829003601f168201915b505050505081526020016003820154815260200160048201805461061390613d78565b80601f016020809104026020016040519081016040528092919081815260200182805461063f90613d78565b801561068a5780601f106106615761010080835404028352916020019161068a565b820191905f5260205f20905b81548152906001019060200180831161066d57829003601f168201915b50505050508152602001600582015481525050905090565b5f5f80549050905090565b5f600280549050905090565b6106c685858585856129ed565b5050505050565b5f5f895111610711576040517f08c379a000000000000000000000000000000000000000000000000000000000815260040161070890613df2565b60405180910390fd5b5f885111610754576040517f08c379a000000000000000000000000000000000000000000000000000000000815260040161074b90613e5a565b60405180910390fd5b5f875111610797576040517f08c379a000000000000000000000000000000000000000000000000000000000815260040161078e90613ec2565b60405180910390fd5b5f8251116107da576040517f08c379a00000000000000000000000000000000000000000000000000000000081526004016107d190613f2a565b60405180910390fd5b606486111561081e576040517f08c379a000000000000000000000000000000000000000000000000000000000815260040161081590613f92565b60405180910390fd5b60018560ff1610158015610836575060058560ff1611155b610875576040517f08c379a000000000000000000000000000000000000000000000000000000000815260040161086c90613ffa565b60405180910390fd5b60018460ff161015801561088d575060058460ff1611155b6108cc576040517f08c379a00000000000000000000000000000000000000000000000000000000081526004016108c390614062565b60405180910390fd5b5f5f1b8303610910576040517f08c379a0000000000000000000000000000000000000000000000000000000008152600401610907906140ca565b60405180910390fd5b600280549050905060026040518061016001604052808381526020018b81526020018a81526020018981526020018881526020018760ff1681526020018660ff1681526020018581526020018481526020014281526020013373ffffffffffffffffffffffffffffffffffffffff16815250908060018154018082558091505060019003905f5260205f2090600a02015f909190919091505f820151815f015560208201518160010190816109c59190614299565b5060408201518160020190816109db9190614299565b5060608201518160030190816109f19190614299565b506080820151816004015560a0820151816005015f6101000a81548160ff021916908360ff16021790555060c08201518160050160016101000a81548160ff021916908360ff16021790555060e08201518160060155610100820151816007019081610a5d9190614299565b506101208201518160080155610140820151816009015f6101000a81548173ffffffffffffffffffffffffffffffffffffffff021916908373ffffffffffffffffffffffffffffffffffffffff16021790555050503373ffffffffffffffffffffffffffffffffffffffff16817f77ceed131622224d0f26b642a4b7f9a3107ab8a988e5abe1ab1ea58ef55cbe9b8a8a8a8a8a8a42604051610b059796959493929190614368565b60405180910390a398975050505050505050565b60028181548110610b28575f80fd5b905f5260205f2090600a02015f91509050805f015490806001018054610b4d90613d78565b80601f0160208091040260200160405190810160405280929190818152602001828054610b7990613d78565b8015610bc45780601f10610b9b57610100808354040283529160200191610bc4565b820191905f5260205f20905b815481529060010190602001808311610ba757829003601f168201915b505050505090806002018054610bd990613d78565b80601f0160208091040260200160405190810160405280929190818152602001828054610c0590613d78565b8015610c505780601f10610c2757610100808354040283529160200191610c50565b820191905f5260205f20905b815481529060010190602001808311610c3357829003601f168201915b505050505090806003018054610c6590613d78565b80601f0160208091040260200160405190810160405280929190818152602001828054610c9190613d78565b8015610cdc5780601f10610cb357610100808354040283529160200191610cdc565b820191905f5260205f20905b815481529060010190602001808311610cbf57829003601f168201915b505050505090806004015490806005015f9054906101000a900460ff16908060050160019054906101000a900460ff1690806006015490806007018054610d2290613d78565b80601f0160208091040260200160405190810160405280929190818152602001828054610d4e90613d78565b8015610d995780601f10610d7057610100808354040283529160200191610d99565b820191905f5260205f20905b815481529060010190602001808311610d7c57829003601f168201915b505050505090806008015490806009015f9054906101000a900473ffffffffffffffffffffffffffffffffffffffff1690508b565b5f600180549050905090565b610de2612c8a565b60018281548110610df657610df5613d1e565b5b905f5260205f209060090201604051806101600160405290815f8201548152602001600182018054610e2790613d78565b80601f0160208091040260200160405190810160405280929190818152602001828054610e5390613d78565b8015610e9e5780601f10610e7557610100808354040283529160200191610e9e565b820191905f5260205f20905b815481529060010190602001808311610e8157829003601f168201915b5050505050815260200160028201548152602001600382015f9054906101000a900460ff1660ff1660ff1681526020016003820160019054906101000a900460ff1660ff1660ff1681526020016003820160029054906101000a900460ff1660ff1660ff168152602001600482018054610f1790613d78565b80601f0160208091040260200160405190810160405280929190818152602001828054610f4390613d78565b8015610f8e5780601f10610f6557610100808354040283529160200191610f8e565b820191905f5260205f20905b815481529060010190602001808311610f7157829003601f168201915b50505050508152602001600582018054610fa790613d78565b80601f0160208091040260200160405190810160405280929190818152602001828054610fd390613d78565b801561101e5780601f10610ff55761010080835404028352916020019161101e565b820191905f5260205f20905b81548152906001019060200180831161100157829003601f168201915b505050505081526020016006820154815260200160078201548152602001600882015f9054906101000a900473ffffffffffffffffffffffffffffffffffffffff1673ffffffffffffffffffffffffffffffffffffffff1673ffffffffffffffffffffffffffffffffffffffff16815250509050919050565b61109f612c56565b5f82815481106110b2576110b1613d1e565b5b905f5260205f2090600602016040518060c00160405290815f820180546110d890613d78565b80601f016020809104026020016040519081016040528092919081815260200182805461110490613d78565b801561114f5780601f106111265761010080835404028352916020019161114f565b820191905f5260205f20905b81548152906001019060200180831161113257829003601f168201915b5050505050815260200160018201805461116890613d78565b80601f016020809104026020016040519081016040528092919081815260200182805461119490613d78565b80156111df5780601f106111b6576101008083540402835291602001916111df565b820191905f5260205f20905b8154815290600101906020018083116111c257829003601f168201915b505050505081526020016002820180546111f890613d78565b80601f016020809104026020016040519081016040528092919081815260200182805461122490613d78565b801561126f5780601f106112465761010080835404028352916020019161126f565b820191905f5260205f20905b81548152906001019060200180831161125257829003601f168201915b505050505081526020016003820154815260200160048201805461129290613d78565b80601f01602080910402602001604051908101604052809291908181526020018280546112be90613d78565b80156113095780601f106112e057610100808354040283529160200191611309565b820191905f5260205f20905b8154815290600101906020018083116112ec57829003601f168201915b505050505081526020016005820154815250509050919050565b61132b612cfb565b5f60028054905011611372576040517f08c379a00000000000000000000000000000000000000000000000000000000081526004016113699061442d565b60405180910390fd5b600260016002805490506113869190613ceb565b8154811061139757611396613d1e565b5b905f5260205f2090600a0201604051806101600160405290815f82015481526020016001820180546113c890613d78565b80601f01602080910402602001604051908101604052809291908181526020018280546113f490613d78565b801561143f5780601f106114165761010080835404028352916020019161143f565b820191905f5260205f20905b81548152906001019060200180831161142257829003601f168201915b5050505050815260200160028201805461145890613d78565b80601f016020809104026020016040519081016040528092919081815260200182805461148490613d78565b80156114cf5780601f106114a6576101008083540402835291602001916114cf565b820191905f5260205f20905b8154815290600101906020018083116114b257829003601f168201915b505050505081526020016003820180546114e890613d78565b80601f016020809104026020016040519081016040528092919081815260200182805461151490613d78565b801561155f5780601f106115365761010080835404028352916020019161155f565b820191905f5260205f20905b81548152906001019060200180831161154257829003601f168201915b5050505050815260200160048201548152602001600582015f9054906101000a900460ff1660ff1660ff1681526020016005820160019054906101000a900460ff1660ff1660ff168152602001600682015481526020016007820180546115c590613d78565b80601f01602080910402602001604051908101604052809291908181526020018280546115f190613d78565b801561163c5780601f106116135761010080835404028352916020019161163c565b820191905f5260205f20905b81548152906001019060200180831161161f57829003601f168201915b5050505050815260200160088201548152602001600982015f9054906101000a900473ffffffffffffffffffffffffffffffffffffffff1673ffffffffffffffffffffffffffffffffffffffff1673ffffffffffffffffffffffffffffffffffffffff1681525050905090565b6116b1612c8a565b5f600180549050116116f8576040517f08c379a00000000000000000000000000000000000000000000000000000000081526004016116ef90614495565b60405180910390fd5b600180808054905061170a9190613ceb565b8154811061171b5761171a613d1e565b5b905f5260205f209060090201604051806101600160405290815f820154815260200160018201805461174c90613d78565b80601f016020809104026020016040519081016040528092919081815260200182805461177890613d78565b80156117c35780601f1061179a576101008083540402835291602001916117c3565b820191905f5260205f20905b8154815290600101906020018083116117a657829003601f168201915b5050505050815260200160028201548152602001600382015f9054906101000a900460ff1660ff1660ff1681526020016003820160019054906101000a900460ff1660ff1660ff1681526020016003820160029054906101000a900460ff1660ff1660ff16815260200160048201805461183c90613d78565b80601f016020809104026020016040519081016040528092919081815260200182805461186890613d78565b80156118b35780601f1061188a576101008083540402835291602001916118b3565b820191905f5260205f20905b81548152906001019060200180831161189657829003601f168201915b505050505081526020016005820180546118cc90613d78565b80601f01602080910402602001604051908101604052809291908181526020018280546118f890613d78565b80156119435780601f1061191a57610100808354040283529160200191611943565b820191905f5260205f20905b81548152906001019060200180831161192657829003601f168201915b505050505081526020016006820154815260200160078201548152602001600882015f9054906101000a900473ffffffffffffffffffffffffffffffffffffffff1673ffffffffffffffffffffffffffffffffffffffff1673ffffffffffffffffffffffffffffffffffffffff1681525050905090565b5f5f8951116119fe576040517f08c379a00000000000000000000000000000000000000000000000000000000081526004016119f5906144fd565b60405180910390fd5b5f845111611a41576040517f08c379a0000000000000000000000000000000000000000000000000000000008152600401611a3890614565565b60405180910390fd5b5f835111611a84576040517f08c379a0000000000000000000000000000000000000000000000000000000008152600401611a7b906145cd565b60405180910390fd5b60648760ff161115611acb576040517f08c379a0000000000000000000000000000000000000000000000000000000008152600401611ac290614635565b60405180910390fd5b60148660ff161115611b12576040517f08c379a0000000000000000000000000000000000000000000000000000000008152600401611b099061469d565b60405180910390fd5b60018560ff1610158015611b2a575060058560ff1611155b611b69576040517f08c379a0000000000000000000000000000000000000000000000000000000008152600401611b6090614705565b60405180910390fd5b60018054905090505f6040518061016001604052808381526020018b81526020018a81526020018960ff1681526020018860ff1681526020018760ff1681526020018681526020018581526020018481526020014281526020013373ffffffffffffffffffffffffffffffffffffffff168152509050600181908060018154018082558091505060019003905f5260205f2090600902015f909190919091505f820151815f01556020820151816001019081611c259190614299565b50604082015181600201556060820151816003015f6101000a81548160ff021916908360ff16021790555060808201518160030160016101000a81548160ff021916908360ff16021790555060a08201518160030160026101000a81548160ff021916908360ff16021790555060c0820151816004019081611ca79190614299565b5060e0820151816005019081611cbd9190614299565b5061010082015181600601556101208201518160070155610140820151816008015f6101000a81548173ffffffffffffffffffffffffffffffffffffffff021916908373ffffffffffffffffffffffffffffffffffffffff160217905550505060038a604051611d2d919061475d565b908152602001604051809103902081908060018154018082558091505060019003905f5260205f2090600902015f909190919091505f820151815f01556020820151816001019081611d7f9190614299565b50604082015181600201556060820151816003015f6101000a81548160ff021916908360ff16021790555060808201518160030160016101000a81548160ff021916908360ff16021790555060a08201518160030160026101000a81548160ff021916908360ff16021790555060c0820151816004019081611e019190614299565b5060e0820151816005019081611e179190614299565b5061010082015181600601556101208201518160070155610140820151816008015f6101000a81548173ffffffffffffffffffffffffffffffffffffffff021916908373ffffffffffffffffffffffffffffffffffffffff16021790555050503373ffffffffffffffffffffffffffffffffffffffff168a604051611e9c919061475d565b6040518091039020837f4ec90611714ef9269e2c130fc8b023d67fa108ab77750cfe7653ce87b9bf33cd898d8842604051611eda9493929190614773565b60405180910390a45098975050505050505050565b606060038383604051611f039291906147da565b9081526020016040518091039020805480602002602001604051908101604052809291908181526020015f905b828210156121e3578382905f5260205f209060090201604051806101600160405290815f8201548152602001600182018054611f6b90613d78565b80601f0160208091040260200160405190810160405280929190818152602001828054611f9790613d78565b8015611fe25780601f10611fb957610100808354040283529160200191611fe2565b820191905f5260205f20905b815481529060010190602001808311611fc557829003601f168201915b5050505050815260200160028201548152602001600382015f9054906101000a900460ff1660ff1660ff1681526020016003820160019054906101000a900460ff1660ff1660ff1681526020016003820160029054906101000a900460ff1660ff1660ff16815260200160048201805461205b90613d78565b80601f016020809104026020016040519081016040528092919081815260200182805461208790613d78565b80156120d25780601f106120a9576101008083540402835291602001916120d2565b820191905f5260205f20905b8154815290600101906020018083116120b557829003601f168201915b505050505081526020016005820180546120eb90613d78565b80601f016020809104026020016040519081016040528092919081815260200182805461211790613d78565b80156121625780601f1061213957610100808354040283529160200191612162565b820191905f5260205f20905b81548152906001019060200180831161214557829003601f168201915b505050505081526020016006820154815260200160078201548152602001600882015f9054906101000a900473ffffffffffffffffffffffffffffffffffffffff1673ffffffffffffffffffffffffffffffffffffffff1673ffffffffffffffffffffffffffffffffffffffff168152505081526020019060010190611f30565b50505050905092915050565b5f5f5f5f5f8686810190612203919061303c565b9450945094509450945061221a85858585856129ed565b50505050505050565b60018181548110612232575f80fd5b905f5260205f2090600902015f91509050805f01549080600101805461225790613d78565b80601f016020809104026020016040519081016040528092919081815260200182805461228390613d78565b80156122ce5780601f106122a5576101008083540402835291602001916122ce565b820191905f5260205f20905b8154815290600101906020018083116122b157829003601f168201915b505050505090806002015490806003015f9054906101000a900460ff16908060030160019054906101000a900460ff16908060030160029054906101000a900460ff169080600401805461232190613d78565b80601f016020809104026020016040519081016040528092919081815260200182805461234d90613d78565b80156123985780601f1061236f57610100808354040283529160200191612398565b820191905f5260205f20905b81548152906001019060200180831161237b57829003601f168201915b5050505050908060050180546123ad90613d78565b80601f01602080910402602001604051908101604052809291908181526020018280546123d990613d78565b80156124245780601f106123fb57610100808354040283529160200191612424565b820191905f5260205f20905b81548152906001019060200180831161240757829003601f168201915b505050505090806006015490806007015490806008015f9054906101000a900473ffffffffffffffffffffffffffffffffffffffff1690508b565b5f818154811061246d575f80fd5b905f5260205f2090600602015f91509050805f01805461248c90613d78565b80601f01602080910402602001604051908101604052809291908181526020018280546124b890613d78565b80156125035780601f106124da57610100808354040283529160200191612503565b820191905f5260205f20905b8154815290600101906020018083116124e657829003601f168201915b50505050509080600101805461251890613d78565b80601f016020809104026020016040519081016040528092919081815260200182805461254490613d78565b801561258f5780601f106125665761010080835404028352916020019161258f565b820191905f5260205f20905b81548152906001019060200180831161257257829003601f168201915b5050505050908060020180546125a490613d78565b80601f01602080910402602001604051908101604052809291908181526020018280546125d090613d78565b801561261b5780601f106125f25761010080835404028352916020019161261b565b820191905f5260205f20905b8154815290600101906020018083116125fe57829003601f168201915b50505050509080600301549080600401805461263690613d78565b80601f016020809104026020016040519081016040528092919081815260200182805461266290613d78565b80156126ad5780601f10612684576101008083540402835291602001916126ad565b820191905f5260205f20905b81548152906001019060200180831161269057829003601f168201915b5050505050908060050154905086565b6126c5612cfb565b600282815481106126d9576126d8613d1e565b5b905f5260205f2090600a0201604051806101600160405290815f820154815260200160018201805461270a90613d78565b80601f016020809104026020016040519081016040528092919081815260200182805461273690613d78565b80156127815780601f1061275857610100808354040283529160200191612781565b820191905f5260205f20905b81548152906001019060200180831161276457829003601f168201915b5050505050815260200160028201805461279a90613d78565b80601f01602080910402602001604051908101604052809291908181526020018280546127c690613d78565b80156128115780601f106127e857610100808354040283529160200191612811565b820191905f5260205f20905b8154815290600101906020018083116127f457829003601f168201915b5050505050815260200160038201805461282a90613d78565b80601f016020809104026020016040519081016040528092919081815260200182805461285690613d78565b80156128a15780601f10612878576101008083540402835291602001916128a1565b820191905f5260205f20905b81548152906001019060200180831161288457829003601f168201915b5050505050815260200160048201548152602001600582015f9054906101000a900460ff1660ff1660ff1681526020016005820160019054906101000a900460ff1660ff1660ff1681526020016006820154815260200160078201805461290790613d78565b80601f016020809104026020016040519081016040528092919081815260200182805461293390613d78565b801561297e5780601f106129555761010080835404028352916020019161297e565b820191905f5260205f20905b81548152906001019060200180831161296157829003601f168201915b5050505050815260200160088201548152602001600982015f9054906101000a900473ffffffffffffffffffffffffffffffffffffffff1673ffffffffffffffffffffffffffffffffffffffff1673ffffffffffffffffffffffffffffffffffffffff16815250509050919050565b6064821115612a31576040517f08c379a0000000000000000000000000000000000000000000000000000000008152600401612a289061483c565b60405180910390fd5b5f855111612a74576040517f08c379a0000000000000000000000000000000000000000000000000000000008152600401612a6b90613df2565b60405180910390fd5b5f845111612ab7576040517f08c379a0000000000000000000000000000000000000000000000000000000008152600401612aae90613e5a565b60405180910390fd5b5f835111612afa576040517f08c379a0000000000000000000000000000000000000000000000000000000008152600401612af190613ec2565b60405180910390fd5b5f815111612b3d576040517f08c379a0000000000000000000000000000000000000000000000000000000008152600401612b3490613f2a565b60405180910390fd5b5f6040518060c0016040528087815260200186815260200185815260200184815260200183815260200142815250908060018154018082558091505060019003905f5260205f2090600602015f909190919091505f820151815f019081612ba49190614299565b506020820151816001019081612bba9190614299565b506040820151816002019081612bd09190614299565b50606082015181600301556080820151816004019081612bf09190614299565b5060a08201518160050155505060015f80549050612c0e9190613ceb565b7f20828bb056472a50a96cc7ad0162a0828de2db4f012592ac44ff650110dc9a6f868686868642604051612c4796959493929190613bdb565b60405180910390a25050505050565b6040518060c001604052806060815260200160608152602001606081526020015f8152602001606081526020015f81525090565b6040518061016001604052805f8152602001606081526020015f81526020015f60ff1681526020015f60ff1681526020015f60ff16815260200160608152602001606081526020015f81526020015f81526020015f73ffffffffffffffffffffffffffffffffffffffff1681525090565b6040518061016001604052805f81526020016060815260200160608152602001606081526020015f81526020015f60ff1681526020015f60ff1681526020015f8152602001606081526020015f81526020015f73ffffffffffffffffffffffffffffffffffffffff1681525090565b5f81519050919050565b5f82825260208201905092915050565b8281835e5f83830152505050565b5f601f19601f8301169050919050565b5f612dac82612d6a565b612db68185612d74565b9350612dc6818560208601612d84565b612dcf81612d92565b840191505092915050565b5f819050919050565b612dec81612dda565b82525050565b5f60c083015f8301518482035f860152612e0c8282612da2565b91505060208301518482036020860152612e268282612da2565b91505060408301518482036040860152612e408282612da2565b9150506060830151612e556060860182612de3565b5060808301518482036080860152612e6d8282612da2565b91505060a0830151612e8260a0860182612de3565b508091505092915050565b5f6020820190508181035f830152612ea58184612df2565b905092915050565b612eb681612dda565b82525050565b5f602082019050612ecf5f830184612ead565b92915050565b5f604051905090565b5f5ffd5b5f5ffd5b5f5ffd5b5f5ffd5b7f4e487b71000000000000000000000000000000000000000000000000000000005f52604160045260245ffd5b612f2482612d92565b810181811067ffffffffffffffff82111715612f4357612f42612eee565b5b80604052505050565b5f612f55612ed5565b9050612f618282612f1b565b919050565b5f67ffffffffffffffff821115612f8057612f7f612eee565b5b612f8982612d92565b9050602081019050919050565b828183375f83830152505050565b5f612fb6612fb184612f66565b612f4c565b905082815260208101848484011115612fd257612fd1612eea565b5b612fdd848285612f96565b509392505050565b5f82601f830112612ff957612ff8612ee6565b5b8135613009848260208601612fa4565b91505092915050565b61301b81612dda565b8114613025575f5ffd5b50565b5f8135905061303681613012565b92915050565b5f5f5f5f5f60a0868803121561305557613054612ede565b5b5f86013567ffffffffffffffff81111561307257613071612ee2565b5b61307e88828901612fe5565b955050602086013567ffffffffffffffff81111561309f5761309e612ee2565b5b6130ab88828901612fe5565b945050604086013567ffffffffffffffff8111156130cc576130cb612ee2565b5b6130d888828901612fe5565b93505060606130e988828901613028565b925050608086013567ffffffffffffffff81111561310a57613109612ee2565b5b61311688828901612fe5565b9150509295509295909350565b5f60ff82169050919050565b61313881613123565b8114613142575f5ffd5b50565b5f813590506131538161312f565b92915050565b5f819050919050565b61316b81613159565b8114613175575f5ffd5b50565b5f8135905061318681613162565b92915050565b5f5f5f5f5f5f5f5f610100898b0312156131a9576131a8612ede565b5b5f89013567ffffffffffffffff8111156131c6576131c5612ee2565b5b6131d28b828c01612fe5565b985050602089013567ffffffffffffffff8111156131f3576131f2612ee2565b5b6131ff8b828c01612fe5565b975050604089013567ffffffffffffffff8111156132205761321f612ee2565b5b61322c8b828c01612fe5565b965050606061323d8b828c01613028565b955050608061324e8b828c01613145565b94505060a061325f8b828c01613145565b93505060c06132708b828c01613178565b92505060e089013567ffffffffffffffff81111561329157613290612ee2565b5b61329d8b828c01612fe5565b9150509295985092959890939650565b5f602082840312156132c2576132c1612ede565b5b5f6132cf84828501613028565b91505092915050565b5f82825260208201905092915050565b5f6132f282612d6a565b6132fc81856132d8565b935061330c818560208601612d84565b61331581612d92565b840191505092915050565b61332981613123565b82525050565b61333881613159565b82525050565b5f73ffffffffffffffffffffffffffffffffffffffff82169050919050565b5f6133678261333e565b9050919050565b6133778161335d565b82525050565b5f610160820190506133915f83018e612ead565b81810360208301526133a3818d6132e8565b905081810360408301526133b7818c6132e8565b905081810360608301526133cb818b6132e8565b90506133da608083018a612ead565b6133e760a0830189613320565b6133f460c0830188613320565b61340160e083018761332f565b81810361010083015261341481866132e8565b9050613424610120830185612ead565b61343261014083018461336e565b9c9b505050505050505050505050565b5f819050919050565b61345481613442565b82525050565b61346381613123565b82525050565b61347281613159565b82525050565b6134818161335d565b82525050565b5f61016083015f83015161349d5f860182612de3565b50602083015184820360208601526134b58282612da2565b91505060408301516134ca604086018261344b565b5060608301516134dd606086018261345a565b5060808301516134f0608086018261345a565b5060a083015161350360a086018261345a565b5060c083015184820360c086015261351b8282612da2565b91505060e083015184820360e08601526135358282612da2565b91505061010083015161354c610100860182613469565b50610120830151613561610120860182612de3565b50610140830151613576610140860182613478565b508091505092915050565b5f6020820190508181035f8301526135998184613487565b905092915050565b5f61016083015f8301516135b75f860182612de3565b50602083015184820360208601526135cf8282612da2565b915050604083015184820360408601526135e98282612da2565b915050606083015184820360608601526136038282612da2565b91505060808301516136186080860182612de3565b5060a083015161362b60a086018261345a565b5060c083015161363e60c086018261345a565b5060e083015161365160e0860182613469565b5061010083015184820361010086015261366b8282612da2565b915050610120830151613682610120860182612de3565b50610140830151613697610140860182613478565b508091505092915050565b5f6020820190508181035f8301526136ba81846135a1565b905092915050565b6136cb81613442565b81146136d5575f5ffd5b50565b5f813590506136e6816136c2565b92915050565b5f5f5f5f5f5f5f5f610100898b03121561370957613708612ede565b5b5f89013567ffffffffffffffff81111561372657613725612ee2565b5b6137328b828c01612fe5565b98505060206137438b828c016136d8565b97505060406137548b828c01613145565b96505060606137658b828c01613145565b95505060806137768b828c01613145565b94505060a089013567ffffffffffffffff81111561379757613796612ee2565b5b6137a38b828c01612fe5565b93505060c089013567ffffffffffffffff8111156137c4576137c3612ee2565b5b6137d08b828c01612fe5565b92505060e06137e18b828c01613178565b9150509295985092959890939650565b5f5ffd5b5f5ffd5b5f5f83601f84011261380e5761380d612ee6565b5b8235905067ffffffffffffffff81111561382b5761382a6137f1565b5b602083019150836001820283011115613847576138466137f5565b5b9250929050565b5f5f6020838503121561386457613863612ede565b5b5f83013567ffffffffffffffff81111561388157613880612ee2565b5b61388d858286016137f9565b92509250509250929050565b5f81519050919050565b5f82825260208201905092915050565b5f819050602082019050919050565b5f61016083015f8301516138d85f860182612de3565b50602083015184820360208601526138f08282612da2565b9150506040830151613905604086018261344b565b506060830151613918606086018261345a565b50608083015161392b608086018261345a565b5060a083015161393e60a086018261345a565b5060c083015184820360c08601526139568282612da2565b91505060e083015184820360e08601526139708282612da2565b915050610100830151613987610100860182613469565b5061012083015161399c610120860182612de3565b506101408301516139b1610140860182613478565b508091505092915050565b5f6139c783836138c2565b905092915050565b5f602082019050919050565b5f6139e582613899565b6139ef81856138a3565b935083602082028501613a01856138b3565b805f5b85811015613a3c5784840389528151613a1d85826139bc565b9450613a28836139cf565b925060208a01995050600181019050613a04565b50829750879550505050505092915050565b5f6020820190508181035f830152613a6681846139db565b905092915050565b5f5f83601f840112613a8357613a82612ee6565b5b8235905067ffffffffffffffff811115613aa057613a9f6137f1565b5b602083019150836001820283011115613abc57613abb6137f5565b5b9250929050565b5f5f60208385031215613ad957613ad8612ede565b5b5f83013567ffffffffffffffff811115613af657613af5612ee2565b5b613b0285828601613a6e565b92509250509250929050565b613b1781613442565b82525050565b5f61016082019050613b315f83018e612ead565b8181036020830152613b43818d6132e8565b9050613b52604083018c613b0e565b613b5f606083018b613320565b613b6c608083018a613320565b613b7960a0830189613320565b81810360c0830152613b8b81886132e8565b905081810360e0830152613b9f81876132e8565b9050613baf61010083018661332f565b613bbd610120830185612ead565b613bcb61014083018461336e565b9c9b505050505050505050505050565b5f60c0820190508181035f830152613bf381896132e8565b90508181036020830152613c0781886132e8565b90508181036040830152613c1b81876132e8565b9050613c2a6060830186612ead565b8181036080830152613c3c81856132e8565b9050613c4b60a0830184612ead565b979650505050505050565b7f4e6f206865616c746820616c65727473000000000000000000000000000000005f82015250565b5f613c8a6010836132d8565b9150613c9582613c56565b602082019050919050565b5f6020820190508181035f830152613cb781613c7e565b9050919050565b7f4e487b71000000000000000000000000000000000000000000000000000000005f52601160045260245ffd5b5f613cf582612dda565b9150613d0083612dda565b9250828203905081811115613d1857613d17613cbe565b5b92915050565b7f4e487b71000000000000000000000000000000000000000000000000000000005f52603260045260245ffd5b7f4e487b71000000000000000000000000000000000000000000000000000000005f52602260045260245ffd5b5f6002820490506001821680613d8f57607f821691505b602082108103613da257613da1613d4b565b5b50919050565b7f536f7572636520726571756972656400000000000000000000000000000000005f82015250565b5f613ddc600f836132d8565b9150613de782613da8565b602082019050919050565b5f6020820190508181035f830152613e0981613dd0565b9050919050565b7f526567696f6e20726571756972656400000000000000000000000000000000005f82015250565b5f613e44600f836132d8565b9150613e4f82613e10565b602082019050919050565b5f6020820190508181035f830152613e7181613e38565b9050919050565b7f44697365617365207265717569726564000000000000000000000000000000005f82015250565b5f613eac6010836132d8565b9150613eb782613e78565b602082019050919050565b5f6020820190508181035f830152613ed981613ea0565b9050919050565b7f53756d6d617279207265717569726564000000000000000000000000000000005f82015250565b5f613f146010836132d8565b9150613f1f82613ee0565b602082019050919050565b5f6020820190508181035f830152613f4181613f08565b9050919050565b7f4865616c7468207269736b206d757374206265203c3d203130300000000000005f82015250565b5f613f7c601a836132d8565b9150613f8782613f48565b602082019050919050565b5f6020820190508181035f830152613fa981613f70565b9050919050565b7f436c696d617465207269736b206d75737420626520312d3500000000000000005f82015250565b5f613fe46018836132d8565b9150613fef82613fb0565b602082019050919050565b5f6020820190508181035f83015261401181613fd8565b9050919050565b7f455347207269736b206d75737420626520312d350000000000000000000000005f82015250565b5f61404c6014836132d8565b915061405782614018565b602082019050919050565b5f6020820190508181035f83015261407981614040565b9050919050565b7f50726f6f662068617368207265717569726564000000000000000000000000005f82015250565b5f6140b46013836132d8565b91506140bf82614080565b602082019050919050565b5f6020820190508181035f8301526140e1816140a8565b9050919050565b5f819050815f5260205f209050919050565b5f6020601f8301049050919050565b5f82821b905092915050565b5f600883026141447fffffffffffffffffffffffffffffffffffffffffffffffffffffffffffffffff82614109565b61414e8683614109565b95508019841693508086168417925050509392505050565b5f819050919050565b5f61418961418461417f84612dda565b614166565b612dda565b9050919050565b5f819050919050565b6141a28361416f565b6141b66141ae82614190565b848454614115565b825550505050565b5f5f905090565b6141cd6141be565b6141d8818484614199565b505050565b5f5b828110156141fe576141f35f8284016141c5565b6001810190506141df565b505050565b601f82111561425157828211156142505761421d816140e8565b614226836140fa565b61422f856140fa565b602086101561423c575f90505b80830161424b828403826141dd565b505050505b5b505050565b5f82821c905092915050565b5f6142715f1984600802614256565b1980831691505092915050565b5f6142898383614262565b9150826002028217905092915050565b6142a282612d6a565b67ffffffffffffffff8111156142bb576142ba612eee565b5b6142c58254613d78565b6142d0828285614203565b5f60209050601f831160018114614301575f84156142ef578287015190505b6142f9858261427e565b865550614360565b601f19841661430f866140e8565b5f5b8281101561433657848901518255600182019150602085019450602081019050614311565b86831015614353578489015161434f601f891682614262565b8355505b6001600288020188555050505b505050505050565b5f60e0820190508181035f830152614380818a6132e8565b9050818103602083015261439481896132e8565b90506143a36040830188612ead565b6143b06060830187613320565b6143bd6080830186613320565b6143ca60a083018561332f565b6143d760c0830184612ead565b98975050505050505050565b7f4e6f20656e7669726f6e6d656e74616c20616c657274730000000000000000005f82015250565b5f6144176017836132d8565b9150614422826143e3565b602082019050919050565b5f6020820190508181035f8301526144448161440b565b9050919050565b7f4e6f20636c696d61746520616c657274730000000000000000000000000000005f82015250565b5f61447f6011836132d8565b915061448a8261444b565b602082019050919050565b5f6020820190508181035f8301526144ac81614473565b9050919050565b7f43697479207265717569726564000000000000000000000000000000000000005f82015250565b5f6144e7600d836132d8565b91506144f2826144b3565b602082019050919050565b5f6020820190508181035f830152614514816144db565b9050919050565b7f53616665747920616476696365207265717569726564000000000000000000005f82015250565b5f61454f6016836132d8565b915061455a8261451b565b602082019050919050565b5f6020820190508181035f83015261457c81614543565b9050919050565b7f4461746120736f757263652072657175697265640000000000000000000000005f82015250565b5f6145b76014836132d8565b91506145c282614583565b602082019050919050565b5f6020820190508181035f8301526145e4816145ab565b9050919050565b7f48756d6964697479206d757374206265203c3d203130300000000000000000005f82015250565b5f61461f6017836132d8565b915061462a826145eb565b602082019050919050565b5f6020820190508181035f83015261464c81614613565b9050919050565b7f555620696e646578206d757374206265203c3d203230000000000000000000005f82015250565b5f6146876016836132d8565b915061469282614653565b602082019050919050565b5f6020820190508181035f8301526146b48161467b565b9050919050565b7f5269736b206c6576656c206d75737420626520312d35000000000000000000005f82015250565b5f6146ef6016836132d8565b91506146fa826146bb565b602082019050919050565b5f6020820190508181035f83015261471c816146e3565b9050919050565b5f81905092915050565b5f61473782612d6a565b6147418185614723565b9350614751818560208601612d84565b80840191505092915050565b5f614768828461472d565b915081905092915050565b5f6080820190506147865f830187613320565b6147936020830186613b0e565b6147a0604083018561332f565b6147ad6060830184612ead565b95945050505050565b5f6147c18385614723565b93506147ce838584612f96565b82840190509392505050565b5f6147e68284866147b6565b91508190509392505050565b7f5269736b2073636f7265206d757374206265203c3d20313030000000000000005f82015250565b5f6148266019836132d8565b9150614831826147f2565b602082019050919050565b5f6020820190508181035f8301526148538161481a565b905091905056fea26469706673582212200270689ed72891ed2be365bfdf06414a71528aebbfcba25c74896767ce32db7b64736f6c63430008220033",
					"opcodes": "PUSH1 0x80 PUSH1 0x40 MSTORE CALLVALUE DUP1 ISZERO PUSH1 0xE JUMPI PUSH0 PUSH0 REVERT JUMPDEST POP PUSH2 0x4890 DUP1 PUSH2 0x1C PUSH0 CODECOPY PUSH0 RETURN INVALID PUSH1 0x80 PUSH1 0x40 MSTORE CALLVALUE DUP1 ISZERO PUSH2 0xF JUMPI PUSH0 PUSH0 REVERT JUMPDEST POP PUSH1 0x4 CALLDATASIZE LT PUSH2 0x109 JUMPI PUSH0 CALLDATALOAD PUSH1 0xE0 SHR DUP1 PUSH4 0x85081886 GT PUSH2 0xA0 JUMPI DUP1 PUSH4 0xBBFB862E GT PUSH2 0x6F JUMPI DUP1 PUSH4 0xBBFB862E EQ PUSH2 0x2D7 JUMPI DUP1 PUSH4 0xC2E5F7AF EQ PUSH2 0x307 JUMPI DUP1 PUSH4 0xD2A165FB EQ PUSH2 0x323 JUMPI DUP1 PUSH4 0xF1E391DE EQ PUSH2 0x35D JUMPI DUP1 PUSH4 0xF7FB20F4 EQ PUSH2 0x392 JUMPI PUSH2 0x109 JUMP JUMPDEST DUP1 PUSH4 0x85081886 EQ PUSH2 0x23B JUMPI DUP1 PUSH4 0x917731EF EQ PUSH2 0x26B JUMPI DUP1 PUSH4 0x961E590D EQ PUSH2 0x289 JUMPI DUP1 PUSH4 0xBB1BDA5D EQ PUSH2 0x2A7 JUMPI PUSH2 0x109 JUMP JUMPDEST DUP1 PUSH4 0x64B605AF GT PUSH2 0xDC JUMPI DUP1 PUSH4 0x64B605AF EQ PUSH2 0x183 JUMPI DUP1 PUSH4 0x691745BA EQ PUSH2 0x1B3 JUMPI DUP1 PUSH4 0x6D5B6C03 EQ PUSH2 0x1ED JUMPI DUP1 PUSH4 0x812CC89E EQ PUSH2 0x20B JUMPI PUSH2 0x109 JUMP JUMPDEST DUP1 PUSH4 0x12670D4A EQ PUSH2 0x10D JUMPI DUP1 PUSH4 0x40411FC8 EQ PUSH2 0x12B JUMPI DUP1 PUSH4 0x464508B1 EQ PUSH2 0x149 JUMPI DUP1 PUSH4 0x4FCB9E91 EQ PUSH2 0x167 JUMPI JUMPDEST PUSH0 PUSH0 REVERT JUMPDEST PUSH2 0x115 PUSH2 0x3C2 JUMP JUMPDEST PUSH1 0x40 MLOAD PUSH2 0x122 SWAP2 SWAP1 PUSH2 0x2E8D JUMP JUMPDEST PUSH1 0x40 MLOAD DUP1 SWAP2 SUB SWAP1 RETURN JUMPDEST PUSH2 0x133 PUSH2 0x6A2 JUMP JUMPDEST PUSH1 0x40 MLOAD PUSH2 0x140 SWAP2 SWAP1 PUSH2 0x2EBC JUMP JUMPDEST PUSH1 0x40 MLOAD DUP1 SWAP2 SUB SWAP1 RETURN JUMPDEST PUSH2 0x151 PUSH2 0x6AD JUMP JUMPDEST PUSH1 0x40 MLOAD PUSH2 0x15E SWAP2 SWAP1 PUSH2 0x2EBC JUMP JUMPDEST PUSH1 0x40 MLOAD DUP1 SWAP2 SUB SWAP1 RETURN JUMPDEST PUSH2 0x181 PUSH1 0x4 DUP1 CALLDATASIZE SUB DUP2 ADD SWAP1 PUSH2 0x17C SWAP2 SWAP1 PUSH2 0x303C JUMP JUMPDEST PUSH2 0x6B9 JUMP JUMPDEST STOP JUMPDEST PUSH2 0x19D PUSH1 0x4 DUP1 CALLDATASIZE SUB DUP2 ADD SWAP1 PUSH2 0x198 SWAP2 SWAP1 PUSH2 0x318C JUMP JUMPDEST PUSH2 0x6CD JUMP JUMPDEST PUSH1 0x40 MLOAD PUSH2 0x1AA SWAP2 SWAP1 PUSH2 0x2EBC JUMP JUMPDEST PUSH1 0x40 MLOAD DUP1 SWAP2 SUB SWAP1 RETURN JUMPDEST PUSH2 0x1CD PUSH1 0x4 DUP1 CALLDATASIZE SUB DUP2 ADD SWAP1 PUSH2 0x1C8 SWAP2 SWAP1 PUSH2 0x32AD JUMP JUMPDEST PUSH2 0xB19 JUMP JUMPDEST PUSH1 0x40 MLOAD PUSH2 0x1E4 SWAP12 SWAP11 SWAP10 SWAP9 SWAP8 SWAP7 SWAP6 SWAP5 SWAP4 SWAP3 SWAP2 SWAP1 PUSH2 0x337D JUMP JUMPDEST PUSH1 0x40 MLOAD DUP1 SWAP2 SUB SWAP1 RETURN JUMPDEST PUSH2 0x1F5 PUSH2 0xDCE JUMP JUMPDEST PUSH1 0x40 MLOAD PUSH2 0x202 SWAP2 SWAP1 PUSH2 0x2EBC JUMP JUMPDEST PUSH1 0x40 MLOAD DUP1 SWAP2 SUB SWAP1 RETURN JUMPDEST PUSH2 0x225 PUSH1 0x4 DUP1 CALLDATASIZE SUB DUP2 ADD SWAP1 PUSH2 0x220 SWAP2 SWAP1 PUSH2 0x32AD JUMP JUMPDEST PUSH2 0xDDA JUMP JUMPDEST PUSH1 0x40 MLOAD PUSH2 0x232 SWAP2 SWAP1 PUSH2 0x3581 JUMP JUMPDEST PUSH1 0x40 MLOAD DUP1 SWAP2 SUB SWAP1 RETURN JUMPDEST PUSH2 0x255 PUSH1 0x4 DUP1 CALLDATASIZE SUB DUP2 ADD SWAP1 PUSH2 0x250 SWAP2 SWAP1 PUSH2 0x32AD JUMP JUMPDEST PUSH2 0x1097 JUMP JUMPDEST PUSH1 0x40 MLOAD PUSH2 0x262 SWAP2 SWAP1 PUSH2 0x2E8D JUMP JUMPDEST PUSH1 0x40 MLOAD DUP1 SWAP2 SUB SWAP1 RETURN JUMPDEST PUSH2 0x273 PUSH2 0x1323 JUMP JUMPDEST PUSH1 0x40 MLOAD PUSH2 0x280 SWAP2 SWAP1 PUSH2 0x36A2 JUMP JUMPDEST PUSH1 0x40 MLOAD DUP1 SWAP2 SUB SWAP1 RETURN JUMPDEST PUSH2 0x291 PUSH2 0x16A9 JUMP JUMPDEST PUSH1 0x40 MLOAD PUSH2 0x29E SWAP2 SWAP1 PUSH2 0x3581 JUMP JUMPDEST PUSH1 0x40 MLOAD DUP1 SWAP2 SUB SWAP1 RETURN JUMPDEST PUSH2 0x2C1 PUSH1 0x4 DUP1 CALLDATASIZE SUB DUP2 ADD SWAP1 PUSH2 0x2BC SWAP2 SWAP1 PUSH2 0x36EC JUMP JUMPDEST PUSH2 0x19BA JUMP JUMPDEST PUSH1 0x40 MLOAD PUSH2 0x2CE SWAP2 SWAP1 PUSH2 0x2EBC JUMP JUMPDEST PUSH1 0x40 MLOAD DUP1 SWAP2 SUB SWAP1 RETURN JUMPDEST PUSH2 0x2F1 PUSH1 0x4 DUP1 CALLDATASIZE SUB DUP2 ADD SWAP1 PUSH2 0x2EC SWAP2 SWAP1 PUSH2 0x384E JUMP JUMPDEST PUSH2 0x1EEF JUMP JUMPDEST PUSH1 0x40 MLOAD PUSH2 0x2FE SWAP2 SWAP1 PUSH2 0x3A4E JUMP JUMPDEST PUSH1 0x40 MLOAD DUP1 SWAP2 SUB SWAP1 RETURN JUMPDEST PUSH2 0x321 PUSH1 0x4 DUP1 CALLDATASIZE SUB DUP2 ADD SWAP1 PUSH2 0x31C SWAP2 SWAP1 PUSH2 0x3AC3 JUMP JUMPDEST PUSH2 0x21EF JUMP JUMPDEST STOP JUMPDEST PUSH2 0x33D PUSH1 0x4 DUP1 CALLDATASIZE SUB DUP2 ADD SWAP1 PUSH2 0x338 SWAP2 SWAP1 PUSH2 0x32AD JUMP JUMPDEST PUSH2 0x2223 JUMP JUMPDEST PUSH1 0x40 MLOAD PUSH2 0x354 SWAP12 SWAP11 SWAP10 SWAP9 SWAP8 SWAP7 SWAP6 SWAP5 SWAP4 SWAP3 SWAP2 SWAP1 PUSH2 0x3B1D JUMP JUMPDEST PUSH1 0x40 MLOAD DUP1 SWAP2 SUB SWAP1 RETURN JUMPDEST PUSH2 0x377 PUSH1 0x4 DUP1 CALLDATASIZE SUB DUP2 ADD SWAP1 PUSH2 0x372 SWAP2 SWAP1 PUSH2 0x32AD JUMP JUMPDEST PUSH2 0x245F JUMP JUMPDEST PUSH1 0x40 MLOAD PUSH2 0x389 SWAP7 SWAP6 SWAP5 SWAP4 SWAP3 SWAP2 SWAP1 PUSH2 0x3BDB JUMP JUMPDEST PUSH1 0x40 MLOAD DUP1 SWAP2 SUB SWAP1 RETURN JUMPDEST PUSH2 0x3AC PUSH1 0x4 DUP1 CALLDATASIZE SUB DUP2 ADD SWAP1 PUSH2 0x3A7 SWAP2 SWAP1 PUSH2 0x32AD JUMP JUMPDEST PUSH2 0x26BD JUMP JUMPDEST PUSH1 0x40 MLOAD PUSH2 0x3B9 SWAP2 SWAP1 PUSH2 0x36A2 JUMP JUMPDEST PUSH1 0x40 MLOAD DUP1 SWAP2 SUB SWAP1 RETURN JUMPDEST PUSH2 0x3CA PUSH2 0x2C56 JUMP JUMPDEST PUSH0 PUSH0 DUP1 SLOAD SWAP1 POP GT PUSH2 0x410 JUMPI PUSH1 0x40 MLOAD PUSH32 0x8C379A000000000000000000000000000000000000000000000000000000000 DUP2 MSTORE PUSH1 0x4 ADD PUSH2 0x407 SWAP1 PUSH2 0x3CA0 JUMP JUMPDEST PUSH1 0x40 MLOAD DUP1 SWAP2 SUB SWAP1 REVERT JUMPDEST PUSH0 PUSH1 0x1 PUSH0 DUP1 SLOAD SWAP1 POP PUSH2 0x422 SWAP2 SWAP1 PUSH2 0x3CEB JUMP JUMPDEST DUP2 SLOAD DUP2 LT PUSH2 0x433 JUMPI PUSH2 0x432 PUSH2 0x3D1E JUMP JUMPDEST JUMPDEST SWAP1 PUSH0 MSTORE PUSH1 0x20 PUSH0 KECCAK256 SWAP1 PUSH1 0x6 MUL ADD PUSH1 0x40 MLOAD DUP1 PUSH1 0xC0 ADD PUSH1 0x40 MSTORE SWAP1 DUP2 PUSH0 DUP3 ADD DUP1 SLOAD PUSH2 0x459 SWAP1 PUSH2 0x3D78 JUMP JUMPDEST DUP1 PUSH1 0x1F ADD PUSH1 0x20 DUP1 SWAP2 DIV MUL PUSH1 0x20 ADD PUSH1 0x40 MLOAD SWAP1 DUP2 ADD PUSH1 0x40 MSTORE DUP1 SWAP3 SWAP2 SWAP1 DUP2 DUP2 MSTORE PUSH1 0x20 ADD DUP3 DUP1 SLOAD PUSH2 0x485 SWAP1 PUSH2 0x3D78 JUMP JUMPDEST DUP1 ISZERO PUSH2 0x4D0 JUMPI DUP1 PUSH1 0x1F LT PUSH2 0x4A7 JUMPI PUSH2 0x100 DUP1 DUP4 SLOAD DIV MUL DUP4 MSTORE SWAP2 PUSH1 0x20 ADD SWAP2 PUSH2 0x4D0 JUMP JUMPDEST DUP3 ADD SWAP2 SWAP1 PUSH0 MSTORE PUSH1 0x20 PUSH0 KECCAK256 SWAP1 JUMPDEST DUP2 SLOAD DUP2 MSTORE SWAP1 PUSH1 0x1 ADD SWAP1 PUSH1 0x20 ADD DUP1 DUP4 GT PUSH2 0x4B3 JUMPI DUP3 SWAP1 SUB PUSH1 0x1F AND DUP3 ADD SWAP2 JUMPDEST POP POP POP POP POP DUP2 MSTORE PUSH1 0x20 ADD PUSH1 0x1 DUP3 ADD DUP1 SLOAD PUSH2 0x4E9 SWAP1 PUSH2 0x3D78 JUMP JUMPDEST DUP1 PUSH1 0x1F ADD PUSH1 0x20 DUP1 SWAP2 DIV MUL PUSH1 0x20 ADD PUSH1 0x40 MLOAD SWAP1 DUP2 ADD PUSH1 0x40 MSTORE DUP1 SWAP3 SWAP2 SWAP1 DUP2 DUP2 MSTORE PUSH1 0x20 ADD DUP3 DUP1 SLOAD PUSH2 0x515 SWAP1 PUSH2 0x3D78 JUMP JUMPDEST DUP1 ISZERO PUSH2 0x560 JUMPI DUP1 PUSH1 0x1F LT PUSH2 0x537 JUMPI PUSH2 0x100 DUP1 DUP4 SLOAD DIV MUL DUP4 MSTORE SWAP2 PUSH1 0x20 ADD SWAP2 PUSH2 0x560 JUMP JUMPDEST DUP3 ADD SWAP2 SWAP1 PUSH0 MSTORE PUSH1 0x20 PUSH0 KECCAK256 SWAP1 JUMPDEST DUP2 SLOAD DUP2 MSTORE SWAP1 PUSH1 0x1 ADD SWAP1 PUSH1 0x20 ADD DUP1 DUP4 GT PUSH2 0x543 JUMPI DUP3 SWAP1 SUB PUSH1 0x1F AND DUP3 ADD SWAP2 JUMPDEST POP POP POP POP POP DUP2 MSTORE PUSH1 0x20 ADD PUSH1 0x2 DUP3 ADD DUP1 SLOAD PUSH2 0x579 SWAP1 PUSH2 0x3D78 JUMP JUMPDEST DUP1 PUSH1 0x1F ADD PUSH1 0x20 DUP1 SWAP2 DIV MUL PUSH1 0x20 ADD PUSH1 0x40 MLOAD SWAP1 DUP2 ADD PUSH1 0x40 MSTORE DUP1 SWAP3 SWAP2 SWAP1 DUP2 DUP2 MSTORE PUSH1 0x20 ADD DUP3 DUP1 SLOAD PUSH2 0x5A5 SWAP1 PUSH2 0x3D78 JUMP JUMPDEST DUP1 ISZERO PUSH2 0x5F0 JUMPI DUP1 PUSH1 0x1F LT PUSH2 0x5C7 JUMPI PUSH2 0x100 DUP1 DUP4 SLOAD DIV MUL DUP4 MSTORE SWAP2 PUSH1 0x20 ADD SWAP2 PUSH2 0x5F0 JUMP JUMPDEST DUP3 ADD SWAP2 SWAP1 PUSH0 MSTORE PUSH1 0x20 PUSH0 KECCAK256 SWAP1 JUMPDEST DUP2 SLOAD DUP2 MSTORE SWAP1 PUSH1 0x1 ADD SWAP1 PUSH1 0x20 ADD DUP1 DUP4 GT PUSH2 0x5D3 JUMPI DUP3 SWAP1 SUB PUSH1 0x1F AND DUP3 ADD SWAP2 JUMPDEST POP POP POP POP POP DUP2 MSTORE PUSH1 0x20 ADD PUSH1 0x3 DUP3 ADD SLOAD DUP2 MSTORE PUSH1 0x20 ADD PUSH1 0x4 DUP3 ADD DUP1 SLOAD PUSH2 0x613 SWAP1 PUSH2 0x3D78 JUMP JUMPDEST DUP1 PUSH1 0x1F ADD PUSH1 0x20 DUP1 SWAP2 DIV MUL PUSH1 0x20 ADD PUSH1 0x40 MLOAD SWAP1 DUP2 ADD PUSH1 0x40 MSTORE DUP1 SWAP3 SWAP2 SWAP1 DUP2 DUP2 MSTORE PUSH1 0x20 ADD DUP3 DUP1 SLOAD PUSH2 0x63F SWAP1 PUSH2 0x3D78 JUMP JUMPDEST DUP1 ISZERO PUSH2 0x68A JUMPI DUP1 PUSH1 0x1F LT PUSH2 0x661 JUMPI PUSH2 0x100 DUP1 DUP4 SLOAD DIV MUL DUP4 MSTORE SWAP2 PUSH1 0x20 ADD SWAP2 PUSH2 0x68A JUMP JUMPDEST DUP3 ADD SWAP2 SWAP1 PUSH0 MSTORE PUSH1 0x20 PUSH0 KECCAK256 SWAP1 JUMPDEST DUP2 SLOAD DUP2 MSTORE SWAP1 PUSH1 0x1 ADD SWAP1 PUSH1 0x20 ADD DUP1 DUP4 GT PUSH2 0x66D JUMPI DUP3 SWAP1 SUB PUSH1 0x1F AND DUP3 ADD SWAP2 JUMPDEST POP POP POP POP POP DUP2 MSTORE PUSH1 0x20 ADD PUSH1 0x5 DUP3 ADD SLOAD DUP2 MSTORE POP POP SWAP1 POP SWAP1 JUMP JUMPDEST PUSH0 PUSH0 DUP1 SLOAD SWAP1 POP SWAP1 POP SWAP1 JUMP JUMPDEST PUSH0 PUSH1 0x2 DUP1 SLOAD SWAP1 POP SWAP1 POP SWAP1 JUMP JUMPDEST PUSH2 0x6C6 DUP6 DUP6 DUP6 DUP6 DUP6 PUSH2 0x29ED JUMP JUMPDEST POP POP POP POP POP JUMP JUMPDEST PUSH0 PUSH0 DUP10 MLOAD GT PUSH2 0x711 JUMPI PUSH1 0x40 MLOAD PUSH32 0x8C379A000000000000000000000000000000000000000000000000000000000 DUP2 MSTORE PUSH1 0x4 ADD PUSH2 0x708 SWAP1 PUSH2 0x3DF2 JUMP JUMPDEST PUSH1 0x40 MLOAD DUP1 SWAP2 SUB SWAP1 REVERT JUMPDEST PUSH0 DUP9 MLOAD GT PUSH2 0x754 JUMPI PUSH1 0x40 MLOAD PUSH32 0x8C379A000000000000000000000000000000000000000000000000000000000 DUP2 MSTORE PUSH1 0x4 ADD PUSH2 0x74B SWAP1 PUSH2 0x3E5A JUMP JUMPDEST PUSH1 0x40 MLOAD DUP1 SWAP2 SUB SWAP1 REVERT JUMPDEST PUSH0 DUP8 MLOAD GT PUSH2 0x797 JUMPI PUSH1 0x40 MLOAD PUSH32 0x8C379A000000000000000000000000000000000000000000000000000000000 DUP2 MSTORE PUSH1 0x4 ADD PUSH2 0x78E SWAP1 PUSH2 0x3EC2 JUMP JUMPDEST PUSH1 0x40 MLOAD DUP1 SWAP2 SUB SWAP1 REVERT JUMPDEST PUSH0 DUP3 MLOAD GT PUSH2 0x7DA JUMPI PUSH1 0x40 MLOAD PUSH32 0x8C379A000000000000000000000000000000000000000000000000000000000 DUP2 MSTORE PUSH1 0x4 ADD PUSH2 0x7D1 SWAP1 PUSH2 0x3F2A JUMP JUMPDEST PUSH1 0x40 MLOAD DUP1 SWAP2 SUB SWAP1 REVERT JUMPDEST PUSH1 0x64 DUP7 GT ISZERO PUSH2 0x81E JUMPI PUSH1 0x40 MLOAD PUSH32 0x8C379A000000000000000000000000000000000000000000000000000000000 DUP2 MSTORE PUSH1 0x4 ADD PUSH2 0x815 SWAP1 PUSH2 0x3F92 JUMP JUMPDEST PUSH1 0x40 MLOAD DUP1 SWAP2 SUB SWAP1 REVERT JUMPDEST PUSH1 0x1 DUP6 PUSH1 0xFF AND LT ISZERO DUP1 ISZERO PUSH2 0x836 JUMPI POP PUSH1 0x5 DUP6 PUSH1 0xFF AND GT ISZERO JUMPDEST PUSH2 0x875 JUMPI PUSH1 0x40 MLOAD PUSH32 0x8C379A000000000000000000000000000000000000000000000000000000000 DUP2 MSTORE PUSH1 0x4 ADD PUSH2 0x86C SWAP1 PUSH2 0x3FFA JUMP JUMPDEST PUSH1 0x40 MLOAD DUP1 SWAP2 SUB SWAP1 REVERT JUMPDEST PUSH1 0x1 DUP5 PUSH1 0xFF AND LT ISZERO DUP1 ISZERO PUSH2 0x88D JUMPI POP PUSH1 0x5 DUP5 PUSH1 0xFF AND GT ISZERO JUMPDEST PUSH2 0x8CC JUMPI PUSH1 0x40 MLOAD PUSH32 0x8C379A000000000000000000000000000000000000000000000000000000000 DUP2 MSTORE PUSH1 0x4 ADD PUSH2 0x8C3 SWAP1 PUSH2 0x4062 JUMP JUMPDEST PUSH1 0x40 MLOAD DUP1 SWAP2 SUB SWAP1 REVERT JUMPDEST PUSH0 PUSH0 SHL DUP4 SUB PUSH2 0x910 JUMPI PUSH1 0x40 MLOAD PUSH32 0x8C379A000000000000000000000000000000000000000000000000000000000 DUP2 MSTORE PUSH1 0x4 ADD PUSH2 0x907 SWAP1 PUSH2 0x40CA JUMP JUMPDEST PUSH1 0x40 MLOAD DUP1 SWAP2 SUB SWAP1 REVERT JUMPDEST PUSH1 0x2 DUP1 SLOAD SWAP1 POP SWAP1 POP PUSH1 0x2 PUSH1 0x40 MLOAD DUP1 PUSH2 0x160 ADD PUSH1 0x40 MSTORE DUP1 DUP4 DUP2 MSTORE PUSH1 0x20 ADD DUP12 DUP2 MSTORE PUSH1 0x20 ADD DUP11 DUP2 MSTORE PUSH1 0x20 ADD DUP10 DUP2 MSTORE PUSH1 0x20 ADD DUP9 DUP2 MSTORE PUSH1 0x20 ADD DUP8 PUSH1 0xFF AND DUP2 MSTORE PUSH1 0x20 ADD DUP7 PUSH1 0xFF AND DUP2 MSTORE PUSH1 0x20 ADD DUP6 DUP2 MSTORE PUSH1 0x20 ADD DUP5 DUP2 MSTORE PUSH1 0x20 ADD TIMESTAMP DUP2 MSTORE PUSH1 0x20 ADD CALLER PUSH20 0xFFFFFFFFFFFFFFFFFFFFFFFFFFFFFFFFFFFFFFFF AND DUP2 MSTORE POP SWAP1 DUP1 PUSH1 0x1 DUP2 SLOAD ADD DUP1 DUP3 SSTORE DUP1 SWAP2 POP POP PUSH1 0x1 SWAP1 SUB SWAP1 PUSH0 MSTORE PUSH1 0x20 PUSH0 KECCAK256 SWAP1 PUSH1 0xA MUL ADD PUSH0 SWAP1 SWAP2 SWAP1 SWAP2 SWAP1 SWAP2 POP PUSH0 DUP3 ADD MLOAD DUP2 PUSH0 ADD SSTORE PUSH1 0x20 DUP3 ADD MLOAD DUP2 PUSH1 0x1 ADD SWAP1 DUP2 PUSH2 0x9C5 SWAP2 SWAP1 PUSH2 0x4299 JUMP JUMPDEST POP PUSH1 0x40 DUP3 ADD MLOAD DUP2 PUSH1 0x2 ADD SWAP1 DUP2 PUSH2 0x9DB SWAP2 SWAP1 PUSH2 0x4299 JUMP JUMPDEST POP PUSH1 0x60 DUP3 ADD MLOAD DUP2 PUSH1 0x3 ADD SWAP1 DUP2 PUSH2 0x9F1 SWAP2 SWAP1 PUSH2 0x4299 JUMP JUMPDEST POP PUSH1 0x80 DUP3 ADD MLOAD DUP2 PUSH1 0x4 ADD SSTORE PUSH1 0xA0 DUP3 ADD MLOAD DUP2 PUSH1 0x5 ADD PUSH0 PUSH2 0x100 EXP DUP2 SLOAD DUP2 PUSH1 0xFF MUL NOT AND SWAP1 DUP4 PUSH1 0xFF AND MUL OR SWAP1 SSTORE POP PUSH1 0xC0 DUP3 ADD MLOAD DUP2 PUSH1 0x5 ADD PUSH1 0x1 PUSH2 0x100 EXP DUP2 SLOAD DUP2 PUSH1 0xFF MUL NOT AND SWAP1 DUP4 PUSH1 0xFF AND MUL OR SWAP1 SSTORE POP PUSH1 0xE0 DUP3 ADD MLOAD DUP2 PUSH1 0x6 ADD SSTORE PUSH2 0x100 DUP3 ADD MLOAD DUP2 PUSH1 0x7 ADD SWAP1 DUP2 PUSH2 0xA5D SWAP2 SWAP1 PUSH2 0x4299 JUMP JUMPDEST POP PUSH2 0x120 DUP3 ADD MLOAD DUP2 PUSH1 0x8 ADD SSTORE PUSH2 0x140 DUP3 ADD MLOAD DUP2 PUSH1 0x9 ADD PUSH0 PUSH2 0x100 EXP DUP2 SLOAD DUP2 PUSH20 0xFFFFFFFFFFFFFFFFFFFFFFFFFFFFFFFFFFFFFFFF MUL NOT AND SWAP1 DUP4 PUSH20 0xFFFFFFFFFFFFFFFFFFFFFFFFFFFFFFFFFFFFFFFF AND MUL OR SWAP1 SSTORE POP POP POP CALLER PUSH20 0xFFFFFFFFFFFFFFFFFFFFFFFFFFFFFFFFFFFFFFFF AND DUP2 PUSH32 0x77CEED131622224D0F26B642A4B7F9A3107AB8A988E5ABE1AB1EA58EF55CBE9B DUP11 DUP11 DUP11 DUP11 DUP11 DUP11 TIMESTAMP PUSH1 0x40 MLOAD PUSH2 0xB05 SWAP8 SWAP7 SWAP6 SWAP5 SWAP4 SWAP3 SWAP2 SWAP1 PUSH2 0x4368 JUMP JUMPDEST PUSH1 0x40 MLOAD DUP1 SWAP2 SUB SWAP1 LOG3 SWAP9 SWAP8 POP POP POP POP POP POP POP POP JUMP JUMPDEST PUSH1 0x2 DUP2 DUP2 SLOAD DUP2 LT PUSH2 0xB28 JUMPI PUSH0 DUP1 REVERT JUMPDEST SWAP1 PUSH0 MSTORE PUSH1 0x20 PUSH0 KECCAK256 SWAP1 PUSH1 0xA MUL ADD PUSH0 SWAP2 POP SWAP1 POP DUP1 PUSH0 ADD SLOAD SWAP1 DUP1 PUSH1 0x1 ADD DUP1 SLOAD PUSH2 0xB4D SWAP1 PUSH2 0x3D78 JUMP JUMPDEST DUP1 PUSH1 0x1F ADD PUSH1 0x20 DUP1 SWAP2 DIV MUL PUSH1 0x20 ADD PUSH1 0x40 MLOAD SWAP1 DUP2 ADD PUSH1 0x40 MSTORE DUP1 SWAP3 SWAP2 SWAP1 DUP2 DUP2 MSTORE PUSH1 0x20 ADD DUP3 DUP1 SLOAD PUSH2 0xB79 SWAP1 PUSH2 0x3D78 JUMP JUMPDEST DUP1 ISZERO PUSH2 0xBC4 JUMPI DUP1 PUSH1 0x1F LT PUSH2 0xB9B JUMPI PUSH2 0x100 DUP1 DUP4 SLOAD DIV MUL DUP4 MSTORE SWAP2 PUSH1 0x20 ADD SWAP2 PUSH2 0xBC4 JUMP JUMPDEST DUP3 ADD SWAP2 SWAP1 PUSH0 MSTORE PUSH1 0x20 PUSH0 KECCAK256 SWAP1 JUMPDEST DUP2 SLOAD DUP2 MSTORE SWAP1 PUSH1 0x1 ADD SWAP1 PUSH1 0x20 ADD DUP1 DUP4 GT PUSH2 0xBA7 JUMPI DUP3 SWAP1 SUB PUSH1 0x1F AND DUP3 ADD SWAP2 JUMPDEST POP POP POP POP POP SWAP1 DUP1 PUSH1 0x2 ADD DUP1 SLOAD PUSH2 0xBD9 SWAP1 PUSH2 0x3D78 JUMP JUMPDEST DUP1 PUSH1 0x1F ADD PUSH1 0x20 DUP1 SWAP2 DIV MUL PUSH1 0x20 ADD PUSH1 0x40 MLOAD SWAP1 DUP2 ADD PUSH1 0x40 MSTORE DUP1 SWAP3 SWAP2 SWAP1 DUP2 DUP2 MSTORE PUSH1 0x20 ADD DUP3 DUP1 SLOAD PUSH2 0xC05 SWAP1 PUSH2 0x3D78 JUMP JUMPDEST DUP1 ISZERO PUSH2 0xC50 JUMPI DUP1 PUSH1 0x1F LT PUSH2 0xC27 JUMPI PUSH2 0x100 DUP1 DUP4 SLOAD DIV MUL DUP4 MSTORE SWAP2 PUSH1 0x20 ADD SWAP2 PUSH2 0xC50 JUMP JUMPDEST DUP3 ADD SWAP2 SWAP1 PUSH0 MSTORE PUSH1 0x20 PUSH0 KECCAK256 SWAP1 JUMPDEST DUP2 SLOAD DUP2 MSTORE SWAP1 PUSH1 0x1 ADD SWAP1 PUSH1 0x20 ADD DUP1 DUP4 GT PUSH2 0xC33 JUMPI DUP3 SWAP1 SUB PUSH1 0x1F AND DUP3 ADD SWAP2 JUMPDEST POP POP POP POP POP SWAP1 DUP1 PUSH1 0x3 ADD DUP1 SLOAD PUSH2 0xC65 SWAP1 PUSH2 0x3D78 JUMP JUMPDEST DUP1 PUSH1 0x1F ADD PUSH1 0x20 DUP1 SWAP2 DIV MUL PUSH1 0x20 ADD PUSH1 0x40 MLOAD SWAP1 DUP2 ADD PUSH1 0x40 MSTORE DUP1 SWAP3 SWAP2 SWAP1 DUP2 DUP2 MSTORE PUSH1 0x20 ADD DUP3 DUP1 SLOAD PUSH2 0xC91 SWAP1 PUSH2 0x3D78 JUMP JUMPDEST DUP1 ISZERO PUSH2 0xCDC JUMPI DUP1 PUSH1 0x1F LT PUSH2 0xCB3 JUMPI PUSH2 0x100 DUP1 DUP4 SLOAD DIV MUL DUP4 MSTORE SWAP2 PUSH1 0x20 ADD SWAP2 PUSH2 0xCDC JUMP JUMPDEST DUP3 ADD SWAP2 SWAP1 PUSH0 MSTORE PUSH1 0x20 PUSH0 KECCAK256 SWAP1 JUMPDEST DUP2 SLOAD DUP2 MSTORE SWAP1 PUSH1 0x1 ADD SWAP1 PUSH1 0x20 ADD DUP1 DUP4 GT PUSH2 0xCBF JUMPI DUP3 SWAP1 SUB PUSH1 0x1F AND DUP3 ADD SWAP2 JUMPDEST POP POP POP POP POP SWAP1 DUP1 PUSH1 0x4 ADD SLOAD SWAP1 DUP1 PUSH1 0x5 ADD PUSH0 SWAP1 SLOAD SWAP1 PUSH2 0x100 EXP SWAP1 DIV PUSH1 0xFF AND SWAP1 DUP1 PUSH1 0x5 ADD PUSH1 0x1 SWAP1 SLOAD SWAP1 PUSH2 0x100 EXP SWAP1 DIV PUSH1 0xFF AND SWAP1 DUP1 PUSH1 0x6 ADD SLOAD SWAP1 DUP1 PUSH1 0x7 ADD DUP1 SLOAD PUSH2 0xD22 SWAP1 PUSH2 0x3D78 JUMP JUMPDEST DUP1 PUSH1 0x1F ADD PUSH1 0x20 DUP1 SWAP2 DIV MUL PUSH1 0x20 ADD PUSH1 0x40 MLOAD SWAP1 DUP2 ADD PUSH1 0x40 MSTORE DUP1 SWAP3 SWAP2 SWAP1 DUP2 DUP2 MSTORE PUSH1 0x20 ADD DUP3 DUP1 SLOAD PUSH2 0xD4E SWAP1 PUSH2 0x3D78 JUMP JUMPDEST DUP1 ISZERO PUSH2 0xD99 JUMPI DUP1 PUSH1 0x1F LT PUSH2 0xD70 JUMPI PUSH2 0x100 DUP1 DUP4 SLOAD DIV MUL DUP4 MSTORE SWAP2 PUSH1 0x20 ADD SWAP2 PUSH2 0xD99 JUMP JUMPDEST DUP3 ADD SWAP2 SWAP1 PUSH0 MSTORE PUSH1 0x20 PUSH0 KECCAK256 SWAP1 JUMPDEST DUP2 SLOAD DUP2 MSTORE SWAP1 PUSH1 0x1 ADD SWAP1 PUSH1 0x20 ADD DUP1 DUP4 GT PUSH2 0xD7C JUMPI DUP3 SWAP1 SUB PUSH1 0x1F AND DUP3 ADD SWAP2 JUMPDEST POP POP POP POP POP SWAP1 DUP1 PUSH1 0x8 ADD SLOAD SWAP1 DUP1 PUSH1 0x9 ADD PUSH0 SWAP1 SLOAD SWAP1 PUSH2 0x100 EXP SWAP1 DIV PUSH20 0xFFFFFFFFFFFFFFFFFFFFFFFFFFFFFFFFFFFFFFFF AND SWAP1 POP DUP12 JUMP JUMPDEST PUSH0 PUSH1 0x1 DUP1 SLOAD SWAP1 POP SWAP1 POP SWAP1 JUMP JUMPDEST PUSH2 0xDE2 PUSH2 0x2C8A JUMP JUMPDEST PUSH1 0x1 DUP3 DUP2 SLOAD DUP2 LT PUSH2 0xDF6 JUMPI PUSH2 0xDF5 PUSH2 0x3D1E JUMP JUMPDEST JUMPDEST SWAP1 PUSH0 MSTORE PUSH1 0x20 PUSH0 KECCAK256 SWAP1 PUSH1 0x9 MUL ADD PUSH1 0x40 MLOAD DUP1 PUSH2 0x160 ADD PUSH1 0x40 MSTORE SWAP1 DUP2 PUSH0 DUP3 ADD SLOAD DUP2 MSTORE PUSH1 0x20 ADD PUSH1 0x1 DUP3 ADD DUP1 SLOAD PUSH2 0xE27 SWAP1 PUSH2 0x3D78 JUMP JUMPDEST DUP1 PUSH1 0x1F ADD PUSH1 0x20 DUP1 SWAP2 DIV MUL PUSH1 0x20 ADD PUSH1 0x40 MLOAD SWAP1 DUP2 ADD PUSH1 0x40 MSTORE DUP1 SWAP3 SWAP2 SWAP1 DUP2 DUP2 MSTORE PUSH1 0x20 ADD DUP3 DUP1 SLOAD PUSH2 0xE53 SWAP1 PUSH2 0x3D78 JUMP JUMPDEST DUP1 ISZERO PUSH2 0xE9E JUMPI DUP1 PUSH1 0x1F LT PUSH2 0xE75 JUMPI PUSH2 0x100 DUP1 DUP4 SLOAD DIV MUL DUP4 MSTORE SWAP2 PUSH1 0x20 ADD SWAP2 PUSH2 0xE9E JUMP JUMPDEST DUP3 ADD SWAP2 SWAP1 PUSH0 MSTORE PUSH1 0x20 PUSH0 KECCAK256 SWAP1 JUMPDEST DUP2 SLOAD DUP2 MSTORE SWAP1 PUSH1 0x1 ADD SWAP1 PUSH1 0x20 ADD DUP1 DUP4 GT PUSH2 0xE81 JUMPI DUP3 SWAP1 SUB PUSH1 0x1F AND DUP3 ADD SWAP2 JUMPDEST POP POP POP POP POP DUP2 MSTORE PUSH1 0x20 ADD PUSH1 0x2 DUP3 ADD SLOAD DUP2 MSTORE PUSH1 0x20 ADD PUSH1 0x3 DUP3 ADD PUSH0 SWAP1 SLOAD SWAP1 PUSH2 0x100 EXP SWAP1 DIV PUSH1 0xFF AND PUSH1 0xFF AND PUSH1 0xFF AND DUP2 MSTORE PUSH1 0x20 ADD PUSH1 0x3 DUP3 ADD PUSH1 0x1 SWAP1 SLOAD SWAP1 PUSH2 0x100 EXP SWAP1 DIV PUSH1 0xFF AND PUSH1 0xFF AND PUSH1 0xFF AND DUP2 MSTORE PUSH1 0x20 ADD PUSH1 0x3 DUP3 ADD PUSH1 0x2 SWAP1 SLOAD SWAP1 PUSH2 0x100 EXP SWAP1 DIV PUSH1 0xFF AND PUSH1 0xFF AND PUSH1 0xFF AND DUP2 MSTORE PUSH1 0x20 ADD PUSH1 0x4 DUP3 ADD DUP1 SLOAD PUSH2 0xF17 SWAP1 PUSH2 0x3D78 JUMP JUMPDEST DUP1 PUSH1 0x1F ADD PUSH1 0x20 DUP1 SWAP2 DIV MUL PUSH1 0x20 ADD PUSH1 0x40 MLOAD SWAP1 DUP2 ADD PUSH1 0x40 MSTORE DUP1 SWAP3 SWAP2 SWAP1 DUP2 DUP2 MSTORE PUSH1 0x20 ADD DUP3 DUP1 SLOAD PUSH2 0xF43 SWAP1 PUSH2 0x3D78 JUMP JUMPDEST DUP1 ISZERO PUSH2 0xF8E JUMPI DUP1 PUSH1 0x1F LT PUSH2 0xF65 JUMPI PUSH2 0x100 DUP1 DUP4 SLOAD DIV MUL DUP4 MSTORE SWAP2 PUSH1 0x20 ADD SWAP2 PUSH2 0xF8E JUMP JUMPDEST DUP3 ADD SWAP2 SWAP1 PUSH0 MSTORE PUSH1 0x20 PUSH0 KECCAK256 SWAP1 JUMPDEST DUP2 SLOAD DUP2 MSTORE SWAP1 PUSH1 0x1 ADD SWAP1 PUSH1 0x20 ADD DUP1 DUP4 GT PUSH2 0xF71 JUMPI DUP3 SWAP1 SUB PUSH1 0x1F AND DUP3 ADD SWAP2 JUMPDEST POP POP POP POP POP DUP2 MSTORE PUSH1 0x20 ADD PUSH1 0x5 DUP3 ADD DUP1 SLOAD PUSH2 0xFA7 SWAP1 PUSH2 0x3D78 JUMP JUMPDEST DUP1 PUSH1 0x1F ADD PUSH1 0x20 DUP1 SWAP2 DIV MUL PUSH1 0x20 ADD PUSH1 0x40 MLOAD SWAP1 DUP2 ADD PUSH1 0x40 MSTORE DUP1 SWAP3 SWAP2 SWAP1 DUP2 DUP2 MSTORE PUSH1 0x20 ADD DUP3 DUP1 SLOAD PUSH2 0xFD3 SWAP1 PUSH2 0x3D78 JUMP JUMPDEST DUP1 ISZERO PUSH2 0x101E JUMPI DUP1 PUSH1 0x1F LT PUSH2 0xFF5 JUMPI PUSH2 0x100 DUP1 DUP4 SLOAD DIV MUL DUP4 MSTORE SWAP2 PUSH1 0x20 ADD SWAP2 PUSH2 0x101E JUMP JUMPDEST DUP3 ADD SWAP2 SWAP1 PUSH0 MSTORE PUSH1 0x20 PUSH0 KECCAK256 SWAP1 JUMPDEST DUP2 SLOAD DUP2 MSTORE SWAP1 PUSH1 0x1 ADD SWAP1 PUSH1 0x20 ADD DUP1 DUP4 GT PUSH2 0x1001 JUMPI DUP3 SWAP1 SUB PUSH1 0x1F AND DUP3 ADD SWAP2 JUMPDEST POP POP POP POP POP DUP2 MSTORE PUSH1 0x20 ADD PUSH1 0x6 DUP3 ADD SLOAD DUP2 MSTORE PUSH1 0x20 ADD PUSH1 0x7 DUP3 ADD SLOAD DUP2 MSTORE PUSH1 0x20 ADD PUSH1 0x8 DUP3 ADD PUSH0 SWAP1 SLOAD SWAP1 PUSH2 0x100 EXP SWAP1 DIV PUSH20 0xFFFFFFFFFFFFFFFFFFFFFFFFFFFFFFFFFFFFFFFF AND PUSH20 0xFFFFFFFFFFFFFFFFFFFFFFFFFFFFFFFFFFFFFFFF AND PUSH20 0xFFFFFFFFFFFFFFFFFFFFFFFFFFFFFFFFFFFFFFFF AND DUP2 MSTORE POP POP SWAP1 POP SWAP2 SWAP1 POP JUMP JUMPDEST PUSH2 0x109F PUSH2 0x2C56 JUMP JUMPDEST PUSH0 DUP3 DUP2 SLOAD DUP2 LT PUSH2 0x10B2 JUMPI PUSH2 0x10B1 PUSH2 0x3D1E JUMP JUMPDEST JUMPDEST SWAP1 PUSH0 MSTORE PUSH1 0x20 PUSH0 KECCAK256 SWAP1 PUSH1 0x6 MUL ADD PUSH1 0x40 MLOAD DUP1 PUSH1 0xC0 ADD PUSH1 0x40 MSTORE SWAP1 DUP2 PUSH0 DUP3 ADD DUP1 SLOAD PUSH2 0x10D8 SWAP1 PUSH2 0x3D78 JUMP JUMPDEST DUP1 PUSH1 0x1F ADD PUSH1 0x20 DUP1 SWAP2 DIV MUL PUSH1 0x20 ADD PUSH1 0x40 MLOAD SWAP1 DUP2 ADD PUSH1 0x40 MSTORE DUP1 SWAP3 SWAP2 SWAP1 DUP2 DUP2 MSTORE PUSH1 0x20 ADD DUP3 DUP1 SLOAD PUSH2 0x1104 SWAP1 PUSH2 0x3D78 JUMP JUMPDEST DUP1 ISZERO PUSH2 0x114F JUMPI DUP1 PUSH1 0x1F LT PUSH2 0x1126 JUMPI PUSH2 0x100 DUP1 DUP4 SLOAD DIV MUL DUP4 MSTORE SWAP2 PUSH1 0x20 ADD SWAP2 PUSH2 0x114F JUMP JUMPDEST DUP3 ADD SWAP2 SWAP1 PUSH0 MSTORE PUSH1 0x20 PUSH0 KECCAK256 SWAP1 JUMPDEST DUP2 SLOAD DUP2 MSTORE SWAP1 PUSH1 0x1 ADD SWAP1 PUSH1 0x20 ADD DUP1 DUP4 GT PUSH2 0x1132 JUMPI DUP3 SWAP1 SUB PUSH1 0x1F AND DUP3 ADD SWAP2 JUMPDEST POP POP POP POP POP DUP2 MSTORE PUSH1 0x20 ADD PUSH1 0x1 DUP3 ADD DUP1 SLOAD PUSH2 0x1168 SWAP1 PUSH2 0x3D78 JUMP JUMPDEST DUP1 PUSH1 0x1F ADD PUSH1 0x20 DUP1 SWAP2 DIV MUL PUSH1 0x20 ADD PUSH1 0x40 MLOAD SWAP1 DUP2 ADD PUSH1 0x40 MSTORE DUP1 SWAP3 SWAP2 SWAP1 DUP2 DUP2 MSTORE PUSH1 0x20 ADD DUP3 DUP1 SLOAD PUSH2 0x1194 SWAP1 PUSH2 0x3D78 JUMP JUMPDEST DUP1 ISZERO PUSH2 0x11DF JUMPI DUP1 PUSH1 0x1F LT PUSH2 0x11B6 JUMPI PUSH2 0x100 DUP1 DUP4 SLOAD DIV MUL DUP4 MSTORE SWAP2 PUSH1 0x20 ADD SWAP2 PUSH2 0x11DF JUMP JUMPDEST DUP3 ADD SWAP2 SWAP1 PUSH0 MSTORE PUSH1 0x20 PUSH0 KECCAK256 SWAP1 JUMPDEST DUP2 SLOAD DUP2 MSTORE SWAP1 PUSH1 0x1 ADD SWAP1 PUSH1 0x20 ADD DUP1 DUP4 GT PUSH2 0x11C2 JUMPI DUP3 SWAP1 SUB PUSH1 0x1F AND DUP3 ADD SWAP2 JUMPDEST POP POP POP POP POP DUP2 MSTORE PUSH1 0x20 ADD PUSH1 0x2 DUP3 ADD DUP1 SLOAD PUSH2 0x11F8 SWAP1 PUSH2 0x3D78 JUMP JUMPDEST DUP1 PUSH1 0x1F ADD PUSH1 0x20 DUP1 SWAP2 DIV MUL PUSH1 0x20 ADD PUSH1 0x40 MLOAD SWAP1 DUP2 ADD PUSH1 0x40 MSTORE DUP1 SWAP3 SWAP2 SWAP1 DUP2 DUP2 MSTORE PUSH1 0x20 ADD DUP3 DUP1 SLOAD PUSH2 0x1224 SWAP1 PUSH2 0x3D78 JUMP JUMPDEST DUP1 ISZERO PUSH2 0x126F JUMPI DUP1 PUSH1 0x1F LT PUSH2 0x1246 JUMPI PUSH2 0x100 DUP1 DUP4 SLOAD DIV MUL DUP4 MSTORE SWAP2 PUSH1 0x20 ADD SWAP2 PUSH2 0x126F JUMP JUMPDEST DUP3 ADD SWAP2 SWAP1 PUSH0 MSTORE PUSH1 0x20 PUSH0 KECCAK256 SWAP1 JUMPDEST DUP2 SLOAD DUP2 MSTORE SWAP1 PUSH1 0x1 ADD SWAP1 PUSH1 0x20 ADD DUP1 DUP4 GT PUSH2 0x1252 JUMPI DUP3 SWAP1 SUB PUSH1 0x1F AND DUP3 ADD SWAP2 JUMPDEST POP POP POP POP POP DUP2 MSTORE PUSH1 0x20 ADD PUSH1 0x3 DUP3 ADD SLOAD DUP2 MSTORE PUSH1 0x20 ADD PUSH1 0x4 DUP3 ADD DUP1 SLOAD PUSH2 0x1292 SWAP1 PUSH2 0x3D78 JUMP JUMPDEST DUP1 PUSH1 0x1F ADD PUSH1 0x20 DUP1 SWAP2 DIV MUL PUSH1 0x20 ADD PUSH1 0x40 MLOAD SWAP1 DUP2 ADD PUSH1 0x40 MSTORE DUP1 SWAP3 SWAP2 SWAP1 DUP2 DUP2 MSTORE PUSH1 0x20 ADD DUP3 DUP1 SLOAD PUSH2 0x12BE SWAP1 PUSH2 0x3D78 JUMP JUMPDEST DUP1 ISZERO PUSH2 0x1309 JUMPI DUP1 PUSH1 0x1F LT PUSH2 0x12E0 JUMPI PUSH2 0x100 DUP1 DUP4 SLOAD DIV MUL DUP4 MSTORE SWAP2 PUSH1 0x20 ADD SWAP2 PUSH2 0x1309 JUMP JUMPDEST DUP3 ADD SWAP2 SWAP1 PUSH0 MSTORE PUSH1 0x20 PUSH0 KECCAK256 SWAP1 JUMPDEST DUP2 SLOAD DUP2 MSTORE SWAP1 PUSH1 0x1 ADD SWAP1 PUSH1 0x20 ADD DUP1 DUP4 GT PUSH2 0x12EC JUMPI DUP3 SWAP1 SUB PUSH1 0x1F AND DUP3 ADD SWAP2 JUMPDEST POP POP POP POP POP DUP2 MSTORE PUSH1 0x20 ADD PUSH1 0x5 DUP3 ADD SLOAD DUP2 MSTORE POP POP SWAP1 POP SWAP2 SWAP1 POP JUMP JUMPDEST PUSH2 0x132B PUSH2 0x2CFB JUMP JUMPDEST PUSH0 PUSH1 0x2 DUP1 SLOAD SWAP1 POP GT PUSH2 0x1372 JUMPI PUSH1 0x40 MLOAD PUSH32 0x8C379A000000000000000000000000000000000000000000000000000000000 DUP2 MSTORE PUSH1 0x4 ADD PUSH2 0x1369 SWAP1 PUSH2 0x442D JUMP JUMPDEST PUSH1 0x40 MLOAD DUP1 SWAP2 SUB SWAP1 REVERT JUMPDEST PUSH1 0x2 PUSH1 0x1 PUSH1 0x2 DUP1 SLOAD SWAP1 POP PUSH2 0x1386 SWAP2 SWAP1 PUSH2 0x3CEB JUMP JUMPDEST DUP2 SLOAD DUP2 LT PUSH2 0x1397 JUMPI PUSH2 0x1396 PUSH2 0x3D1E JUMP JUMPDEST JUMPDEST SWAP1 PUSH0 MSTORE PUSH1 0x20 PUSH0 KECCAK256 SWAP1 PUSH1 0xA MUL ADD PUSH1 0x40 MLOAD DUP1 PUSH2 0x160 ADD PUSH1 0x40 MSTORE SWAP1 DUP2 PUSH0 DUP3 ADD SLOAD DUP2 MSTORE PUSH1 0x20 ADD PUSH1 0x1 DUP3 ADD DUP1 SLOAD PUSH2 0x13C8 SWAP1 PUSH2 0x3D78 JUMP JUMPDEST DUP1 PUSH1 0x1F ADD PUSH1 0x20 DUP1 SWAP2 DIV MUL PUSH1 0x20 ADD PUSH1 0x40 MLOAD SWAP1 DUP2 ADD PUSH1 0x40 MSTORE DUP1 SWAP3 SWAP2 SWAP1 DUP2 DUP2 MSTORE PUSH1 0x20 ADD DUP3 DUP1 SLOAD PUSH2 0x13F4 SWAP1 PUSH2 0x3D78 JUMP JUMPDEST DUP1 ISZERO PUSH2 0x143F JUMPI DUP1 PUSH1 0x1F LT PUSH2 0x1416 JUMPI PUSH2 0x100 DUP1 DUP4 SLOAD DIV MUL DUP4 MSTORE SWAP2 PUSH1 0x20 ADD SWAP2 PUSH2 0x143F JUMP JUMPDEST DUP3 ADD SWAP2 SWAP1 PUSH0 MSTORE PUSH1 0x20 PUSH0 KECCAK256 SWAP1 JUMPDEST DUP2 SLOAD DUP2 MSTORE SWAP1 PUSH1 0x1 ADD SWAP1 PUSH1 0x20 ADD DUP1 DUP4 GT PUSH2 0x1422 JUMPI DUP3 SWAP1 SUB PUSH1 0x1F AND DUP3 ADD SWAP2 JUMPDEST POP POP POP POP POP DUP2 MSTORE PUSH1 0x20 ADD PUSH1 0x2 DUP3 ADD DUP1 SLOAD PUSH2 0x1458 SWAP1 PUSH2 0x3D78 JUMP JUMPDEST DUP1 PUSH1 0x1F ADD PUSH1 0x20 DUP1 SWAP2 DIV MUL PUSH1 0x20 ADD PUSH1 0x40 MLOAD SWAP1 DUP2 ADD PUSH1 0x40 MSTORE DUP1 SWAP3 SWAP2 SWAP1 DUP2 DUP2 MSTORE PUSH1 0x20 ADD DUP3 DUP1 SLOAD PUSH2 0x1484 SWAP1 PUSH2 0x3D78 JUMP JUMPDEST DUP1 ISZERO PUSH2 0x14CF JUMPI DUP1 PUSH1 0x1F LT PUSH2 0x14A6 JUMPI PUSH2 0x100 DUP1 DUP4 SLOAD DIV MUL DUP4 MSTORE SWAP2 PUSH1 0x20 ADD SWAP2 PUSH2 0x14CF JUMP JUMPDEST DUP3 ADD SWAP2 SWAP1 PUSH0 MSTORE PUSH1 0x20 PUSH0 KECCAK256 SWAP1 JUMPDEST DUP2 SLOAD DUP2 MSTORE SWAP1 PUSH1 0x1 ADD SWAP1 PUSH1 0x20 ADD DUP1 DUP4 GT PUSH2 0x14B2 JUMPI DUP3 SWAP1 SUB PUSH1 0x1F AND DUP3 ADD SWAP2 JUMPDEST POP POP POP POP POP DUP2 MSTORE PUSH1 0x20 ADD PUSH1 0x3 DUP3 ADD DUP1 SLOAD PUSH2 0x14E8 SWAP1 PUSH2 0x3D78 JUMP JUMPDEST DUP1 PUSH1 0x1F ADD PUSH1 0x20 DUP1 SWAP2 DIV MUL PUSH1 0x20 ADD PUSH1 0x40 MLOAD SWAP1 DUP2 ADD PUSH1 0x40 MSTORE DUP1 SWAP3 SWAP2 SWAP1 DUP2 DUP2 MSTORE PUSH1 0x20 ADD DUP3 DUP1 SLOAD PUSH2 0x1514 SWAP1 PUSH2 0x3D78 JUMP JUMPDEST DUP1 ISZERO PUSH2 0x155F JUMPI DUP1 PUSH1 0x1F LT PUSH2 0x1536 JUMPI PUSH2 0x100 DUP1 DUP4 SLOAD DIV MUL DUP4 MSTORE SWAP2 PUSH1 0x20 ADD SWAP2 PUSH2 0x155F JUMP JUMPDEST DUP3 ADD SWAP2 SWAP1 PUSH0 MSTORE PUSH1 0x20 PUSH0 KECCAK256 SWAP1 JUMPDEST DUP2 SLOAD DUP2 MSTORE SWAP1 PUSH1 0x1 ADD SWAP1 PUSH1 0x20 ADD DUP1 DUP4 GT PUSH2 0x1542 JUMPI DUP3 SWAP1 SUB PUSH1 0x1F AND DUP3 ADD SWAP2 JUMPDEST POP POP POP POP POP DUP2 MSTORE PUSH1 0x20 ADD PUSH1 0x4 DUP3 ADD SLOAD DUP2 MSTORE PUSH1 0x20 ADD PUSH1 0x5 DUP3 ADD PUSH0 SWAP1 SLOAD SWAP1 PUSH2 0x100 EXP SWAP1 DIV PUSH1 0xFF AND PUSH1 0xFF AND PUSH1 0xFF AND DUP2 MSTORE PUSH1 0x20 ADD PUSH1 0x5 DUP3 ADD PUSH1 0x1 SWAP1 SLOAD SWAP1 PUSH2 0x100 EXP SWAP1 DIV PUSH1 0xFF AND PUSH1 0xFF AND PUSH1 0xFF AND DUP2 MSTORE PUSH1 0x20 ADD PUSH1 0x6 DUP3 ADD SLOAD DUP2 MSTORE PUSH1 0x20 ADD PUSH1 0x7 DUP3 ADD DUP1 SLOAD PUSH2 0x15C5 SWAP1 PUSH2 0x3D78 JUMP JUMPDEST DUP1 PUSH1 0x1F ADD PUSH1 0x20 DUP1 SWAP2 DIV MUL PUSH1 0x20 ADD PUSH1 0x40 MLOAD SWAP1 DUP2 ADD PUSH1 0x40 MSTORE DUP1 SWAP3 SWAP2 SWAP1 DUP2 DUP2 MSTORE PUSH1 0x20 ADD DUP3 DUP1 SLOAD PUSH2 0x15F1 SWAP1 PUSH2 0x3D78 JUMP JUMPDEST DUP1 ISZERO PUSH2 0x163C JUMPI DUP1 PUSH1 0x1F LT PUSH2 0x1613 JUMPI PUSH2 0x100 DUP1 DUP4 SLOAD DIV MUL DUP4 MSTORE SWAP2 PUSH1 0x20 ADD SWAP2 PUSH2 0x163C JUMP JUMPDEST DUP3 ADD SWAP2 SWAP1 PUSH0 MSTORE PUSH1 0x20 PUSH0 KECCAK256 SWAP1 JUMPDEST DUP2 SLOAD DUP2 MSTORE SWAP1 PUSH1 0x1 ADD SWAP1 PUSH1 0x20 ADD DUP1 DUP4 GT PUSH2 0x161F JUMPI DUP3 SWAP1 SUB PUSH1 0x1F AND DUP3 ADD SWAP2 JUMPDEST POP POP POP POP POP DUP2 MSTORE PUSH1 0x20 ADD PUSH1 0x8 DUP3 ADD SLOAD DUP2 MSTORE PUSH1 0x20 ADD PUSH1 0x9 DUP3 ADD PUSH0 SWAP1 SLOAD SWAP1 PUSH2 0x100 EXP SWAP1 DIV PUSH20 0xFFFFFFFFFFFFFFFFFFFFFFFFFFFFFFFFFFFFFFFF AND PUSH20 0xFFFFFFFFFFFFFFFFFFFFFFFFFFFFFFFFFFFFFFFF AND PUSH20 0xFFFFFFFFFFFFFFFFFFFFFFFFFFFFFFFFFFFFFFFF AND DUP2 MSTORE POP POP SWAP1 POP SWAP1 JUMP JUMPDEST PUSH2 0x16B1 PUSH2 0x2C8A JUMP JUMPDEST PUSH0 PUSH1 0x1 DUP1 SLOAD SWAP1 POP GT PUSH2 0x16F8 JUMPI PUSH1 0x40 MLOAD PUSH32 0x8C379A000000000000000000000000000000000000000000000000000000000 DUP2 MSTORE PUSH1 0x4 ADD PUSH2 0x16EF SWAP1 PUSH2 0x4495 JUMP JUMPDEST PUSH1 0x40 MLOAD DUP1 SWAP2 SUB SWAP1 REVERT JUMPDEST PUSH1 0x1 DUP1 DUP1 DUP1 SLOAD SWAP1 POP PUSH2 0x170A SWAP2 SWAP1 PUSH2 0x3CEB JUMP JUMPDEST DUP2 SLOAD DUP2 LT PUSH2 0x171B JUMPI PUSH2 0x171A PUSH2 0x3D1E JUMP JUMPDEST JUMPDEST SWAP1 PUSH0 MSTORE PUSH1 0x20 PUSH0 KECCAK256 SWAP1 PUSH1 0x9 MUL ADD PUSH1 0x40 MLOAD DUP1 PUSH2 0x160 ADD PUSH1 0x40 MSTORE SWAP1 DUP2 PUSH0 DUP3 ADD SLOAD DUP2 MSTORE PUSH1 0x20 ADD PUSH1 0x1 DUP3 ADD DUP1 SLOAD PUSH2 0x174C SWAP1 PUSH2 0x3D78 JUMP JUMPDEST DUP1 PUSH1 0x1F ADD PUSH1 0x20 DUP1 SWAP2 DIV MUL PUSH1 0x20 ADD PUSH1 0x40 MLOAD SWAP1 DUP2 ADD PUSH1 0x40 MSTORE DUP1 SWAP3 SWAP2 SWAP1 DUP2 DUP2 MSTORE PUSH1 0x20 ADD DUP3 DUP1 SLOAD PUSH2 0x1778 SWAP1 PUSH2 0x3D78 JUMP JUMPDEST DUP1 ISZERO PUSH2 0x17C3 JUMPI DUP1 PUSH1 0x1F LT PUSH2 0x179A JUMPI PUSH2 0x100 DUP1 DUP4 SLOAD DIV MUL DUP4 MSTORE SWAP2 PUSH1 0x20 ADD SWAP2 PUSH2 0x17C3 JUMP JUMPDEST DUP3 ADD SWAP2 SWAP1 PUSH0 MSTORE PUSH1 0x20 PUSH0 KECCAK256 SWAP1 JUMPDEST DUP2 SLOAD DUP2 MSTORE SWAP1 PUSH1 0x1 ADD SWAP1 PUSH1 0x20 ADD DUP1 DUP4 GT PUSH2 0x17A6 JUMPI DUP3 SWAP1 SUB PUSH1 0x1F AND DUP3 ADD SWAP2 JUMPDEST POP POP POP POP POP DUP2 MSTORE PUSH1 0x20 ADD PUSH1 0x2 DUP3 ADD SLOAD DUP2 MSTORE PUSH1 0x20 ADD PUSH1 0x3 DUP3 ADD PUSH0 SWAP1 SLOAD SWAP1 PUSH2 0x100 EXP SWAP1 DIV PUSH1 0xFF AND PUSH1 0xFF AND PUSH1 0xFF AND DUP2 MSTORE PUSH1 0x20 ADD PUSH1 0x3 DUP3 ADD PUSH1 0x1 SWAP1 SLOAD SWAP1 PUSH2 0x100 EXP SWAP1 DIV PUSH1 0xFF AND PUSH1 0xFF AND PUSH1 0xFF AND DUP2 MSTORE PUSH1 0x20 ADD PUSH1 0x3 DUP3 ADD PUSH1 0x2 SWAP1 SLOAD SWAP1 PUSH2 0x100 EXP SWAP1 DIV PUSH1 0xFF AND PUSH1 0xFF AND PUSH1 0xFF AND DUP2 MSTORE PUSH1 0x20 ADD PUSH1 0x4 DUP3 ADD DUP1 SLOAD PUSH2 0x183C SWAP1 PUSH2 0x3D78 JUMP JUMPDEST DUP1 PUSH1 0x1F ADD PUSH1 0x20 DUP1 SWAP2 DIV MUL PUSH1 0x20 ADD PUSH1 0x40 MLOAD SWAP1 DUP2 ADD PUSH1 0x40 MSTORE DUP1 SWAP3 SWAP2 SWAP1 DUP2 DUP2 MSTORE PUSH1 0x20 ADD DUP3 DUP1 SLOAD PUSH2 0x1868 SWAP1 PUSH2 0x3D78 JUMP JUMPDEST DUP1 ISZERO PUSH2 0x18B3 JUMPI DUP1 PUSH1 0x1F LT PUSH2 0x188A JUMPI PUSH2 0x100 DUP1 DUP4 SLOAD DIV MUL DUP4 MSTORE SWAP2 PUSH1 0x20 ADD SWAP2 PUSH2 0x18B3 JUMP JUMPDEST DUP3 ADD SWAP2 SWAP1 PUSH0 MSTORE PUSH1 0x20 PUSH0 KECCAK256 SWAP1 JUMPDEST DUP2 SLOAD DUP2 MSTORE SWAP1 PUSH1 0x1 ADD SWAP1 PUSH1 0x20 ADD DUP1 DUP4 GT PUSH2 0x1896 JUMPI DUP3 SWAP1 SUB PUSH1 0x1F AND DUP3 ADD SWAP2 JUMPDEST POP POP POP POP POP DUP2 MSTORE PUSH1 0x20 ADD PUSH1 0x5 DUP3 ADD DUP1 SLOAD PUSH2 0x18CC SWAP1 PUSH2 0x3D78 JUMP JUMPDEST DUP1 PUSH1 0x1F ADD PUSH1 0x20 DUP1 SWAP2 DIV MUL PUSH1 0x20 ADD PUSH1 0x40 MLOAD SWAP1 DUP2 ADD PUSH1 0x40 MSTORE DUP1 SWAP3 SWAP2 SWAP1 DUP2 DUP2 MSTORE PUSH1 0x20 ADD DUP3 DUP1 SLOAD PUSH2 0x18F8 SWAP1 PUSH2 0x3D78 JUMP JUMPDEST DUP1 ISZERO PUSH2 0x1943 JUMPI DUP1 PUSH1 0x1F LT PUSH2 0x191A JUMPI PUSH2 0x100 DUP1 DUP4 SLOAD DIV MUL DUP4 MSTORE SWAP2 PUSH1 0x20 ADD SWAP2 PUSH2 0x1943 JUMP JUMPDEST DUP3 ADD SWAP2 SWAP1 PUSH0 MSTORE PUSH1 0x20 PUSH0 KECCAK256 SWAP1 JUMPDEST DUP2 SLOAD DUP2 MSTORE SWAP1 PUSH1 0x1 ADD SWAP1 PUSH1 0x20 ADD DUP1 DUP4 GT PUSH2 0x1926 JUMPI DUP3 SWAP1 SUB PUSH1 0x1F AND DUP3 ADD SWAP2 JUMPDEST POP POP POP POP POP DUP2 MSTORE PUSH1 0x20 ADD PUSH1 0x6 DUP3 ADD SLOAD DUP2 MSTORE PUSH1 0x20 ADD PUSH1 0x7 DUP3 ADD SLOAD DUP2 MSTORE PUSH1 0x20 ADD PUSH1 0x8 DUP3 ADD PUSH0 SWAP1 SLOAD SWAP1 PUSH2 0x100 EXP SWAP1 DIV PUSH20 0xFFFFFFFFFFFFFFFFFFFFFFFFFFFFFFFFFFFFFFFF AND PUSH20 0xFFFFFFFFFFFFFFFFFFFFFFFFFFFFFFFFFFFFFFFF AND PUSH20 0xFFFFFFFFFFFFFFFFFFFFFFFFFFFFFFFFFFFFFFFF AND DUP2 MSTORE POP POP SWAP1 POP SWAP1 JUMP JUMPDEST PUSH0 PUSH0 DUP10 MLOAD GT PUSH2 0x19FE JUMPI PUSH1 0x40 MLOAD PUSH32 0x8C379A000000000000000000000000000000000000000000000000000000000 DUP2 MSTORE PUSH1 0x4 ADD PUSH2 0x19F5 SWAP1 PUSH2 0x44FD JUMP JUMPDEST PUSH1 0x40 MLOAD DUP1 SWAP2 SUB SWAP1 REVERT JUMPDEST PUSH0 DUP5 MLOAD GT PUSH2 0x1A41 JUMPI PUSH1 0x40 MLOAD PUSH32 0x8C379A000000000000000000000000000000000000000000000000000000000 DUP2 MSTORE PUSH1 0x4 ADD PUSH2 0x1A38 SWAP1 PUSH2 0x4565 JUMP JUMPDEST PUSH1 0x40 MLOAD DUP1 SWAP2 SUB SWAP1 REVERT JUMPDEST PUSH0 DUP4 MLOAD GT PUSH2 0x1A84 JUMPI PUSH1 0x40 MLOAD PUSH32 0x8C379A000000000000000000000000000000000000000000000000000000000 DUP2 MSTORE PUSH1 0x4 ADD PUSH2 0x1A7B SWAP1 PUSH2 0x45CD JUMP JUMPDEST PUSH1 0x40 MLOAD DUP1 SWAP2 SUB SWAP1 REVERT JUMPDEST PUSH1 0x64 DUP8 PUSH1 0xFF AND GT ISZERO PUSH2 0x1ACB JUMPI PUSH1 0x40 MLOAD PUSH32 0x8C379A000000000000000000000000000000000000000000000000000000000 DUP2 MSTORE PUSH1 0x4 ADD PUSH2 0x1AC2 SWAP1 PUSH2 0x4635 JUMP JUMPDEST PUSH1 0x40 MLOAD DUP1 SWAP2 SUB SWAP1 REVERT JUMPDEST PUSH1 0x14 DUP7 PUSH1 0xFF AND GT ISZERO PUSH2 0x1B12 JUMPI PUSH1 0x40 MLOAD PUSH32 0x8C379A000000000000000000000000000000000000000000000000000000000 DUP2 MSTORE PUSH1 0x4 ADD PUSH2 0x1B09 SWAP1 PUSH2 0x469D JUMP JUMPDEST PUSH1 0x40 MLOAD DUP1 SWAP2 SUB SWAP1 REVERT JUMPDEST PUSH1 0x1 DUP6 PUSH1 0xFF AND LT ISZERO DUP1 ISZERO PUSH2 0x1B2A JUMPI POP PUSH1 0x5 DUP6 PUSH1 0xFF AND GT ISZERO JUMPDEST PUSH2 0x1B69 JUMPI PUSH1 0x40 MLOAD PUSH32 0x8C379A000000000000000000000000000000000000000000000000000000000 DUP2 MSTORE PUSH1 0x4 ADD PUSH2 0x1B60 SWAP1 PUSH2 0x4705 JUMP JUMPDEST PUSH1 0x40 MLOAD DUP1 SWAP2 SUB SWAP1 REVERT JUMPDEST PUSH1 0x1 DUP1 SLOAD SWAP1 POP SWAP1 POP PUSH0 PUSH1 0x40 MLOAD DUP1 PUSH2 0x160 ADD PUSH1 0x40 MSTORE DUP1 DUP4 DUP2 MSTORE PUSH1 0x20 ADD DUP12 DUP2 MSTORE PUSH1 0x20 ADD DUP11 DUP2 MSTORE PUSH1 0x20 ADD DUP10 PUSH1 0xFF AND DUP2 MSTORE PUSH1 0x20 ADD DUP9 PUSH1 0xFF AND DUP2 MSTORE PUSH1 0x20 ADD DUP8 PUSH1 0xFF AND DUP2 MSTORE PUSH1 0x20 ADD DUP7 DUP2 MSTORE PUSH1 0x20 ADD DUP6 DUP2 MSTORE PUSH1 0x20 ADD DUP5 DUP2 MSTORE PUSH1 0x20 ADD TIMESTAMP DUP2 MSTORE PUSH1 0x20 ADD CALLER PUSH20 0xFFFFFFFFFFFFFFFFFFFFFFFFFFFFFFFFFFFFFFFF AND DUP2 MSTORE POP SWAP1 POP PUSH1 0x1 DUP2 SWAP1 DUP1 PUSH1 0x1 DUP2 SLOAD ADD DUP1 DUP3 SSTORE DUP1 SWAP2 POP POP PUSH1 0x1 SWAP1 SUB SWAP1 PUSH0 MSTORE PUSH1 0x20 PUSH0 KECCAK256 SWAP1 PUSH1 0x9 MUL ADD PUSH0 SWAP1 SWAP2 SWAP1 SWAP2 SWAP1 SWAP2 POP PUSH0 DUP3 ADD MLOAD DUP2 PUSH0 ADD SSTORE PUSH1 0x20 DUP3 ADD MLOAD DUP2 PUSH1 0x1 ADD SWAP1 DUP2 PUSH2 0x1C25 SWAP2 SWAP1 PUSH2 0x4299 JUMP JUMPDEST POP PUSH1 0x40 DUP3 ADD MLOAD DUP2 PUSH1 0x2 ADD SSTORE PUSH1 0x60 DUP3 ADD MLOAD DUP2 PUSH1 0x3 ADD PUSH0 PUSH2 0x100 EXP DUP2 SLOAD DUP2 PUSH1 0xFF MUL NOT AND SWAP1 DUP4 PUSH1 0xFF AND MUL OR SWAP1 SSTORE POP PUSH1 0x80 DUP3 ADD MLOAD DUP2 PUSH1 0x3 ADD PUSH1 0x1 PUSH2 0x100 EXP DUP2 SLOAD DUP2 PUSH1 0xFF MUL NOT AND SWAP1 DUP4 PUSH1 0xFF AND MUL OR SWAP1 SSTORE POP PUSH1 0xA0 DUP3 ADD MLOAD DUP2 PUSH1 0x3 ADD PUSH1 0x2 PUSH2 0x100 EXP DUP2 SLOAD DUP2 PUSH1 0xFF MUL NOT AND SWAP1 DUP4 PUSH1 0xFF AND MUL OR SWAP1 SSTORE POP PUSH1 0xC0 DUP3 ADD MLOAD DUP2 PUSH1 0x4 ADD SWAP1 DUP2 PUSH2 0x1CA7 SWAP2 SWAP1 PUSH2 0x4299 JUMP JUMPDEST POP PUSH1 0xE0 DUP3 ADD MLOAD DUP2 PUSH1 0x5 ADD SWAP1 DUP2 PUSH2 0x1CBD SWAP2 SWAP1 PUSH2 0x4299 JUMP JUMPDEST POP PUSH2 0x100 DUP3 ADD MLOAD DUP2 PUSH1 0x6 ADD SSTORE PUSH2 0x120 DUP3 ADD MLOAD DUP2 PUSH1 0x7 ADD SSTORE PUSH2 0x140 DUP3 ADD MLOAD DUP2 PUSH1 0x8 ADD PUSH0 PUSH2 0x100 EXP DUP2 SLOAD DUP2 PUSH20 0xFFFFFFFFFFFFFFFFFFFFFFFFFFFFFFFFFFFFFFFF MUL NOT AND SWAP1 DUP4 PUSH20 0xFFFFFFFFFFFFFFFFFFFFFFFFFFFFFFFFFFFFFFFF AND MUL OR SWAP1 SSTORE POP POP POP PUSH1 0x3 DUP11 PUSH1 0x40 MLOAD PUSH2 0x1D2D SWAP2 SWAP1 PUSH2 0x475D JUMP JUMPDEST SWAP1 DUP2 MSTORE PUSH1 0x20 ADD PUSH1 0x40 MLOAD DUP1 SWAP2 SUB SWAP1 KECCAK256 DUP2 SWAP1 DUP1 PUSH1 0x1 DUP2 SLOAD ADD DUP1 DUP3 SSTORE DUP1 SWAP2 POP POP PUSH1 0x1 SWAP1 SUB SWAP1 PUSH0 MSTORE PUSH1 0x20 PUSH0 KECCAK256 SWAP1 PUSH1 0x9 MUL ADD PUSH0 SWAP1 SWAP2 SWAP1 SWAP2 SWAP1 SWAP2 POP PUSH0 DUP3 ADD MLOAD DUP2 PUSH0 ADD SSTORE PUSH1 0x20 DUP3 ADD MLOAD DUP2 PUSH1 0x1 ADD SWAP1 DUP2 PUSH2 0x1D7F SWAP2 SWAP1 PUSH2 0x4299 JUMP JUMPDEST POP PUSH1 0x40 DUP3 ADD MLOAD DUP2 PUSH1 0x2 ADD SSTORE PUSH1 0x60 DUP3 ADD MLOAD DUP2 PUSH1 0x3 ADD PUSH0 PUSH2 0x100 EXP DUP2 SLOAD DUP2 PUSH1 0xFF MUL NOT AND SWAP1 DUP4 PUSH1 0xFF AND MUL OR SWAP1 SSTORE POP PUSH1 0x80 DUP3 ADD MLOAD DUP2 PUSH1 0x3 ADD PUSH1 0x1 PUSH2 0x100 EXP DUP2 SLOAD DUP2 PUSH1 0xFF MUL NOT AND SWAP1 DUP4 PUSH1 0xFF AND MUL OR SWAP1 SSTORE POP PUSH1 0xA0 DUP3 ADD MLOAD DUP2 PUSH1 0x3 ADD PUSH1 0x2 PUSH2 0x100 EXP DUP2 SLOAD DUP2 PUSH1 0xFF MUL NOT AND SWAP1 DUP4 PUSH1 0xFF AND MUL OR SWAP1 SSTORE POP PUSH1 0xC0 DUP3 ADD MLOAD DUP2 PUSH1 0x4 ADD SWAP1 DUP2 PUSH2 0x1E01 SWAP2 SWAP1 PUSH2 0x4299 JUMP JUMPDEST POP PUSH1 0xE0 DUP3 ADD MLOAD DUP2 PUSH1 0x5 ADD SWAP1 DUP2 PUSH2 0x1E17 SWAP2 SWAP1 PUSH2 0x4299 JUMP JUMPDEST POP PUSH2 0x100 DUP3 ADD MLOAD DUP2 PUSH1 0x6 ADD SSTORE PUSH2 0x120 DUP3 ADD MLOAD DUP2 PUSH1 0x7 ADD SSTORE PUSH2 0x140 DUP3 ADD MLOAD DUP2 PUSH1 0x8 ADD PUSH0 PUSH2 0x100 EXP DUP2 SLOAD DUP2 PUSH20 0xFFFFFFFFFFFFFFFFFFFFFFFFFFFFFFFFFFFFFFFF MUL NOT AND SWAP1 DUP4 PUSH20 0xFFFFFFFFFFFFFFFFFFFFFFFFFFFFFFFFFFFFFFFF AND MUL OR SWAP1 SSTORE POP POP POP CALLER PUSH20 0xFFFFFFFFFFFFFFFFFFFFFFFFFFFFFFFFFFFFFFFF AND DUP11 PUSH1 0x40 MLOAD PUSH2 0x1E9C SWAP2 SWAP1 PUSH2 0x475D JUMP JUMPDEST PUSH1 0x40 MLOAD DUP1 SWAP2 SUB SWAP1 KECCAK256 DUP4 PUSH32 0x4EC90611714EF9269E2C130FC8B023D67FA108AB77750CFE7653CE87B9BF33CD DUP10 DUP14 DUP9 TIMESTAMP PUSH1 0x40 MLOAD PUSH2 0x1EDA SWAP5 SWAP4 SWAP3 SWAP2 SWAP1 PUSH2 0x4773 JUMP JUMPDEST PUSH1 0x40 MLOAD DUP1 SWAP2 SUB SWAP1 LOG4 POP SWAP9 SWAP8 POP POP POP POP POP POP POP POP JUMP JUMPDEST PUSH1 0x60 PUSH1 0x3 DUP4 DUP4 PUSH1 0x40 MLOAD PUSH2 0x1F03 SWAP3 SWAP2 SWAP1 PUSH2 0x47DA JUMP JUMPDEST SWAP1 DUP2 MSTORE PUSH1 0x20 ADD PUSH1 0x40 MLOAD DUP1 SWAP2 SUB SWAP1 KECCAK256 DUP1 SLOAD DUP1 PUSH1 0x20 MUL PUSH1 0x20 ADD PUSH1 0x40 MLOAD SWAP1 DUP2 ADD PUSH1 0x40 MSTORE DUP1 SWAP3 SWAP2 SWAP1 DUP2 DUP2 MSTORE PUSH1 0x20 ADD PUSH0 SWAP1 JUMPDEST DUP3 DUP3 LT ISZERO PUSH2 0x21E3 JUMPI DUP4 DUP3 SWAP1 PUSH0 MSTORE PUSH1 0x20 PUSH0 KECCAK256 SWAP1 PUSH1 0x9 MUL ADD PUSH1 0x40 MLOAD DUP1 PUSH2 0x160 ADD PUSH1 0x40 MSTORE SWAP1 DUP2 PUSH0 DUP3 ADD SLOAD DUP2 MSTORE PUSH1 0x20 ADD PUSH1 0x1 DUP3 ADD DUP1 SLOAD PUSH2 0x1F6B SWAP1 PUSH2 0x3D78 JUMP JUMPDEST DUP1 PUSH1 0x1F ADD PUSH1 0x20 DUP1 SWAP2 DIV MUL PUSH1 0x20 ADD PUSH1 0x40 MLOAD SWAP1 DUP2 ADD PUSH1 0x40 MSTORE DUP1 SWAP3 SWAP2 SWAP1 DUP2 DUP2 MSTORE PUSH1 0x20 ADD DUP3 DUP1 SLOAD PUSH2 0x1F97 SWAP1 PUSH2 0x3D78 JUMP JUMPDEST DUP1 ISZERO PUSH2 0x1FE2 JUMPI DUP1 PUSH1 0x1F LT PUSH2 0x1FB9 JUMPI PUSH2 0x100 DUP1 DUP4 SLOAD DIV MUL DUP4 MSTORE SWAP2 PUSH1 0x20 ADD SWAP2 PUSH2 0x1FE2 JUMP JUMPDEST DUP3 ADD SWAP2 SWAP1 PUSH0 MSTORE PUSH1 0x20 PUSH0 KECCAK256 SWAP1 JUMPDEST DUP2 SLOAD DUP2 MSTORE SWAP1 PUSH1 0x1 ADD SWAP1 PUSH1 0x20 ADD DUP1 DUP4 GT PUSH2 0x1FC5 JUMPI DUP3 SWAP1 SUB PUSH1 0x1F AND DUP3 ADD SWAP2 JUMPDEST POP POP POP POP POP DUP2 MSTORE PUSH1 0x20 ADD PUSH1 0x2 DUP3 ADD SLOAD DUP2 MSTORE PUSH1 0x20 ADD PUSH1 0x3 DUP3 ADD PUSH0 SWAP1 SLOAD SWAP1 PUSH2 0x100 EXP SWAP1 DIV PUSH1 0xFF AND PUSH1 0xFF AND PUSH1 0xFF AND DUP2 MSTORE PUSH1 0x20 ADD PUSH1 0x3 DUP3 ADD PUSH1 0x1 SWAP1 SLOAD SWAP1 PUSH2 0x100 EXP SWAP1 DIV PUSH1 0xFF AND PUSH1 0xFF AND PUSH1 0xFF AND DUP2 MSTORE PUSH1 0x20 ADD PUSH1 0x3 DUP3 ADD PUSH1 0x2 SWAP1 SLOAD SWAP1 PUSH2 0x100 EXP SWAP1 DIV PUSH1 0xFF AND PUSH1 0xFF AND PUSH1 0xFF AND DUP2 MSTORE PUSH1 0x20 ADD PUSH1 0x4 DUP3 ADD DUP1 SLOAD PUSH2 0x205B SWAP1 PUSH2 0x3D78 JUMP JUMPDEST DUP1 PUSH1 0x1F ADD PUSH1 0x20 DUP1 SWAP2 DIV MUL PUSH1 0x20 ADD PUSH1 0x40 MLOAD SWAP1 DUP2 ADD PUSH1 0x40 MSTORE DUP1 SWAP3 SWAP2 SWAP1 DUP2 DUP2 MSTORE PUSH1 0x20 ADD DUP3 DUP1 SLOAD PUSH2 0x2087 SWAP1 PUSH2 0x3D78 JUMP JUMPDEST DUP1 ISZERO PUSH2 0x20D2 JUMPI DUP1 PUSH1 0x1F LT PUSH2 0x20A9 JUMPI PUSH2 0x100 DUP1 DUP4 SLOAD DIV MUL DUP4 MSTORE SWAP2 PUSH1 0x20 ADD SWAP2 PUSH2 0x20D2 JUMP JUMPDEST DUP3 ADD SWAP2 SWAP1 PUSH0 MSTORE PUSH1 0x20 PUSH0 KECCAK256 SWAP1 JUMPDEST DUP2 SLOAD DUP2 MSTORE SWAP1 PUSH1 0x1 ADD SWAP1 PUSH1 0x20 ADD DUP1 DUP4 GT PUSH2 0x20B5 JUMPI DUP3 SWAP1 SUB PUSH1 0x1F AND DUP3 ADD SWAP2 JUMPDEST POP POP POP POP POP DUP2 MSTORE PUSH1 0x20 ADD PUSH1 0x5 DUP3 ADD DUP1 SLOAD PUSH2 0x20EB SWAP1 PUSH2 0x3D78 JUMP JUMPDEST DUP1 PUSH1 0x1F ADD PUSH1 0x20 DUP1 SWAP2 DIV MUL PUSH1 0x20 ADD PUSH1 0x40 MLOAD SWAP1 DUP2 ADD PUSH1 0x40 MSTORE DUP1 SWAP3 SWAP2 SWAP1 DUP2 DUP2 MSTORE PUSH1 0x20 ADD DUP3 DUP1 SLOAD PUSH2 0x2117 SWAP1 PUSH2 0x3D78 JUMP JUMPDEST DUP1 ISZERO PUSH2 0x2162 JUMPI DUP1 PUSH1 0x1F LT PUSH2 0x2139 JUMPI PUSH2 0x100 DUP1 DUP4 SLOAD DIV MUL DUP4 MSTORE SWAP2 PUSH1 0x20 ADD SWAP2 PUSH2 0x2162 JUMP JUMPDEST DUP3 ADD SWAP2 SWAP1 PUSH0 MSTORE PUSH1 0x20 PUSH0 KECCAK256 SWAP1 JUMPDEST DUP2 SLOAD DUP2 MSTORE SWAP1 PUSH1 0x1 ADD SWAP1 PUSH1 0x20 ADD DUP1 DUP4 GT PUSH2 0x2145 JUMPI DUP3 SWAP1 SUB PUSH1 0x1F AND DUP3 ADD SWAP2 JUMPDEST POP POP POP POP POP DUP2 MSTORE PUSH1 0x20 ADD PUSH1 0x6 DUP3 ADD SLOAD DUP2 MSTORE PUSH1 0x20 ADD PUSH1 0x7 DUP3 ADD SLOAD DUP2 MSTORE PUSH1 0x20 ADD PUSH1 0x8 DUP3 ADD PUSH0 SWAP1 SLOAD SWAP1 PUSH2 0x100 EXP SWAP1 DIV PUSH20 0xFFFFFFFFFFFFFFFFFFFFFFFFFFFFFFFFFFFFFFFF AND PUSH20 0xFFFFFFFFFFFFFFFFFFFFFFFFFFFFFFFFFFFFFFFF AND PUSH20 0xFFFFFFFFFFFFFFFFFFFFFFFFFFFFFFFFFFFFFFFF AND DUP2 MSTORE POP POP DUP2 MSTORE PUSH1 0x20 ADD SWAP1 PUSH1 0x1 ADD SWAP1 PUSH2 0x1F30 JUMP JUMPDEST POP POP POP POP SWAP1 POP SWAP3 SWAP2 POP POP JUMP JUMPDEST PUSH0 PUSH0 PUSH0 PUSH0 PUSH0 DUP7 DUP7 DUP2 ADD SWAP1 PUSH2 0x2203 SWAP2 SWAP1 PUSH2 0x303C JUMP JUMPDEST SWAP5 POP SWAP5 POP SWAP5 POP SWAP5 POP SWAP5 POP PUSH2 0x221A DUP6 DUP6 DUP6 DUP6 DUP6 PUSH2 0x29ED JUMP JUMPDEST POP POP POP POP POP POP POP JUMP JUMPDEST PUSH1 0x1 DUP2 DUP2 SLOAD DUP2 LT PUSH2 0x2232 JUMPI PUSH0 DUP1 REVERT JUMPDEST SWAP1 PUSH0 MSTORE PUSH1 0x20 PUSH0 KECCAK256 SWAP1 PUSH1 0x9 MUL ADD PUSH0 SWAP2 POP SWAP1 POP DUP1 PUSH0 ADD SLOAD SWAP1 DUP1 PUSH1 0x1 ADD DUP1 SLOAD PUSH2 0x2257 SWAP1 PUSH2 0x3D78 JUMP JUMPDEST DUP1 PUSH1 0x1F ADD PUSH1 0x20 DUP1 SWAP2 DIV MUL PUSH1 0x20 ADD PUSH1 0x40 MLOAD SWAP1 DUP2 ADD PUSH1 0x40 MSTORE DUP1 SWAP3 SWAP2 SWAP1 DUP2 DUP2 MSTORE PUSH1 0x20 ADD DUP3 DUP1 SLOAD PUSH2 0x2283 SWAP1 PUSH2 0x3D78 JUMP JUMPDEST DUP1 ISZERO PUSH2 0x22CE JUMPI DUP1 PUSH1 0x1F LT PUSH2 0x22A5 JUMPI PUSH2 0x100 DUP1 DUP4 SLOAD DIV MUL DUP4 MSTORE SWAP2 PUSH1 0x20 ADD SWAP2 PUSH2 0x22CE JUMP JUMPDEST DUP3 ADD SWAP2 SWAP1 PUSH0 MSTORE PUSH1 0x20 PUSH0 KECCAK256 SWAP1 JUMPDEST DUP2 SLOAD DUP2 MSTORE SWAP1 PUSH1 0x1 ADD SWAP1 PUSH1 0x20 ADD DUP1 DUP4 GT PUSH2 0x22B1 JUMPI DUP3 SWAP1 SUB PUSH1 0x1F AND DUP3 ADD SWAP2 JUMPDEST POP POP POP POP POP SWAP1 DUP1 PUSH1 0x2 ADD SLOAD SWAP1 DUP1 PUSH1 0x3 ADD PUSH0 SWAP1 SLOAD SWAP1 PUSH2 0x100 EXP SWAP1 DIV PUSH1 0xFF AND SWAP1 DUP1 PUSH1 0x3 ADD PUSH1 0x1 SWAP1 SLOAD SWAP1 PUSH2 0x100 EXP SWAP1 DIV PUSH1 0xFF AND SWAP1 DUP1 PUSH1 0x3 ADD PUSH1 0x2 SWAP1 SLOAD SWAP1 PUSH2 0x100 EXP SWAP1 DIV PUSH1 0xFF AND SWAP1 DUP1 PUSH1 0x4 ADD DUP1 SLOAD PUSH2 0x2321 SWAP1 PUSH2 0x3D78 JUMP JUMPDEST DUP1 PUSH1 0x1F ADD PUSH1 0x20 DUP1 SWAP2 DIV MUL PUSH1 0x20 ADD PUSH1 0x40 MLOAD SWAP1 DUP2 ADD PUSH1 0x40 MSTORE DUP1 SWAP3 SWAP2 SWAP1 DUP2 DUP2 MSTORE PUSH1 0x20 ADD DUP3 DUP1 SLOAD PUSH2 0x234D SWAP1 PUSH2 0x3D78 JUMP JUMPDEST DUP1 ISZERO PUSH2 0x2398 JUMPI DUP1 PUSH1 0x1F LT PUSH2 0x236F JUMPI PUSH2 0x100 DUP1 DUP4 SLOAD DIV MUL DUP4 MSTORE SWAP2 PUSH1 0x20 ADD SWAP2 PUSH2 0x2398 JUMP JUMPDEST DUP3 ADD SWAP2 SWAP1 PUSH0 MSTORE PUSH1 0x20 PUSH0 KECCAK256 SWAP1 JUMPDEST DUP2 SLOAD DUP2 MSTORE SWAP1 PUSH1 0x1 ADD SWAP1 PUSH1 0x20 ADD DUP1 DUP4 GT PUSH2 0x237B JUMPI DUP3 SWAP1 SUB PUSH1 0x1F AND DUP3 ADD SWAP2 JUMPDEST POP POP POP POP POP SWAP1 DUP1 PUSH1 0x5 ADD DUP1 SLOAD PUSH2 0x23AD SWAP1 PUSH2 0x3D78 JUMP JUMPDEST DUP1 PUSH1 0x1F ADD PUSH1 0x20 DUP1 SWAP2 DIV MUL PUSH1 0x20 ADD PUSH1 0x40 MLOAD SWAP1 DUP2 ADD PUSH1 0x40 MSTORE DUP1 SWAP3 SWAP2 SWAP1 DUP2 DUP2 MSTORE PUSH1 0x20 ADD DUP3 DUP1 SLOAD PUSH2 0x23D9 SWAP1 PUSH2 0x3D78 JUMP JUMPDEST DUP1 ISZERO PUSH2 0x2424 JUMPI DUP1 PUSH1 0x1F LT PUSH2 0x23FB JUMPI PUSH2 0x100 DUP1 DUP4 SLOAD DIV MUL DUP4 MSTORE SWAP2 PUSH1 0x20 ADD SWAP2 PUSH2 0x2424 JUMP JUMPDEST DUP3 ADD SWAP2 SWAP1 PUSH0 MSTORE PUSH1 0x20 PUSH0 KECCAK256 SWAP1 JUMPDEST DUP2 SLOAD DUP2 MSTORE SWAP1 PUSH1 0x1 ADD SWAP1 PUSH1 0x20 ADD DUP1 DUP4 GT PUSH2 0x2407 JUMPI DUP3 SWAP1 SUB PUSH1 0x1F AND DUP3 ADD SWAP2 JUMPDEST POP POP POP POP POP SWAP1 DUP1 PUSH1 0x6 ADD SLOAD SWAP1 DUP1 PUSH1 0x7 ADD SLOAD SWAP1 DUP1 PUSH1 0x8 ADD PUSH0 SWAP1 SLOAD SWAP1 PUSH2 0x100 EXP SWAP1 DIV PUSH20 0xFFFFFFFFFFFFFFFFFFFFFFFFFFFFFFFFFFFFFFFF AND SWAP1 POP DUP12 JUMP JUMPDEST PUSH0 DUP2 DUP2 SLOAD DUP2 LT PUSH2 0x246D JUMPI PUSH0 DUP1 REVERT JUMPDEST SWAP1 PUSH0 MSTORE PUSH1 0x20 PUSH0 KECCAK256 SWAP1 PUSH1 0x6 MUL ADD PUSH0 SWAP2 POP SWAP1 POP DUP1 PUSH0 ADD DUP1 SLOAD PUSH2 0x248C SWAP1 PUSH2 0x3D78 JUMP JUMPDEST DUP1 PUSH1 0x1F ADD PUSH1 0x20 DUP1 SWAP2 DIV MUL PUSH1 0x20 ADD PUSH1 0x40 MLOAD SWAP1 DUP2 ADD PUSH1 0x40 MSTORE DUP1 SWAP3 SWAP2 SWAP1 DUP2 DUP2 MSTORE PUSH1 0x20 ADD DUP3 DUP1 SLOAD PUSH2 0x24B8 SWAP1 PUSH2 0x3D78 JUMP JUMPDEST DUP1 ISZERO PUSH2 0x2503 JUMPI DUP1 PUSH1 0x1F LT PUSH2 0x24DA JUMPI PUSH2 0x100 DUP1 DUP4 SLOAD DIV MUL DUP4 MSTORE SWAP2 PUSH1 0x20 ADD SWAP2 PUSH2 0x2503 JUMP JUMPDEST DUP3 ADD SWAP2 SWAP1 PUSH0 MSTORE PUSH1 0x20 PUSH0 KECCAK256 SWAP1 JUMPDEST DUP2 SLOAD DUP2 MSTORE SWAP1 PUSH1 0x1 ADD SWAP1 PUSH1 0x20 ADD DUP1 DUP4 GT PUSH2 0x24E6 JUMPI DUP3 SWAP1 SUB PUSH1 0x1F AND DUP3 ADD SWAP2 JUMPDEST POP POP POP POP POP SWAP1 DUP1 PUSH1 0x1 ADD DUP1 SLOAD PUSH2 0x2518 SWAP1 PUSH2 0x3D78 JUMP JUMPDEST DUP1 PUSH1 0x1F ADD PUSH1 0x20 DUP1 SWAP2 DIV MUL PUSH1 0x20 ADD PUSH1 0x40 MLOAD SWAP1 DUP2 ADD PUSH1 0x40 MSTORE DUP1 SWAP3 SWAP2 SWAP1 DUP2 DUP2 MSTORE PUSH1 0x20 ADD DUP3 DUP1 SLOAD PUSH2 0x2544 SWAP1 PUSH2 0x3D78 JUMP JUMPDEST DUP1 ISZERO PUSH2 0x258F JUMPI DUP1 PUSH1 0x1F LT PUSH2 0x2566 JUMPI PUSH2 0x100 DUP1 DUP4 SLOAD DIV MUL DUP4 MSTORE SWAP2 PUSH1 0x20 ADD SWAP2 PUSH2 0x258F JUMP JUMPDEST DUP3 ADD SWAP2 SWAP1 PUSH0 MSTORE PUSH1 0x20 PUSH0 KECCAK256 SWAP1 JUMPDEST DUP2 SLOAD DUP2 MSTORE SWAP1 PUSH1 0x1 ADD SWAP1 PUSH1 0x20 ADD DUP1 DUP4 GT PUSH2 0x2572 JUMPI DUP3 SWAP1 SUB PUSH1 0x1F AND DUP3 ADD SWAP2 JUMPDEST POP POP POP POP POP SWAP1 DUP1 PUSH1 0x2 ADD DUP1 SLOAD PUSH2 0x25A4 SWAP1 PUSH2 0x3D78 JUMP JUMPDEST DUP1 PUSH1 0x1F ADD PUSH1 0x20 DUP1 SWAP2 DIV MUL PUSH1 0x20 ADD PUSH1 0x40 MLOAD SWAP1 DUP2 ADD PUSH1 0x40 MSTORE DUP1 SWAP3 SWAP2 SWAP1 DUP2 DUP2 MSTORE PUSH1 0x20 ADD DUP3 DUP1 SLOAD PUSH2 0x25D0 SWAP1 PUSH2 0x3D78 JUMP JUMPDEST DUP1 ISZERO PUSH2 0x261B JUMPI DUP1 PUSH1 0x1F LT PUSH2 0x25F2 JUMPI PUSH2 0x100 DUP1 DUP4 SLOAD DIV MUL DUP4 MSTORE SWAP2 PUSH1 0x20 ADD SWAP2 PUSH2 0x261B JUMP JUMPDEST DUP3 ADD SWAP2 SWAP1 PUSH0 MSTORE PUSH1 0x20 PUSH0 KECCAK256 SWAP1 JUMPDEST DUP2 SLOAD DUP2 MSTORE SWAP1 PUSH1 0x1 ADD SWAP1 PUSH1 0x20 ADD DUP1 DUP4 GT PUSH2 0x25FE JUMPI DUP3 SWAP1 SUB PUSH1 0x1F AND DUP3 ADD SWAP2 JUMPDEST POP POP POP POP POP SWAP1 DUP1 PUSH1 0x3 ADD SLOAD SWAP1 DUP1 PUSH1 0x4 ADD DUP1 SLOAD PUSH2 0x2636 SWAP1 PUSH2 0x3D78 JUMP JUMPDEST DUP1 PUSH1 0x1F ADD PUSH1 0x20 DUP1 SWAP2 DIV MUL PUSH1 0x20 ADD PUSH1 0x40 MLOAD SWAP1 DUP2 ADD PUSH1 0x40 MSTORE DUP1 SWAP3 SWAP2 SWAP1 DUP2 DUP2 MSTORE PUSH1 0x20 ADD DUP3 DUP1 SLOAD PUSH2 0x2662 SWAP1 PUSH2 0x3D78 JUMP JUMPDEST DUP1 ISZERO PUSH2 0x26AD JUMPI DUP1 PUSH1 0x1F LT PUSH2 0x2684 JUMPI PUSH2 0x100 DUP1 DUP4 SLOAD DIV MUL DUP4 MSTORE SWAP2 PUSH1 0x20 ADD SWAP2 PUSH2 0x26AD JUMP JUMPDEST DUP3 ADD SWAP2 SWAP1 PUSH0 MSTORE PUSH1 0x20 PUSH0 KECCAK256 SWAP1 JUMPDEST DUP2 SLOAD DUP2 MSTORE SWAP1 PUSH1 0x1 ADD SWAP1 PUSH1 0x20 ADD DUP1 DUP4 GT PUSH2 0x2690 JUMPI DUP3 SWAP1 SUB PUSH1 0x1F AND DUP3 ADD SWAP2 JUMPDEST POP POP POP POP POP SWAP1 DUP1 PUSH1 0x5 ADD SLOAD SWAP1 POP DUP7 JUMP JUMPDEST PUSH2 0x26C5 PUSH2 0x2CFB JUMP JUMPDEST PUSH1 0x2 DUP3 DUP2 SLOAD DUP2 LT PUSH2 0x26D9 JUMPI PUSH2 0x26D8 PUSH2 0x3D1E JUMP JUMPDEST JUMPDEST SWAP1 PUSH0 MSTORE PUSH1 0x20 PUSH0 KECCAK256 SWAP1 PUSH1 0xA MUL ADD PUSH1 0x40 MLOAD DUP1 PUSH2 0x160 ADD PUSH1 0x40 MSTORE SWAP1 DUP2 PUSH0 DUP3 ADD SLOAD DUP2 MSTORE PUSH1 0x20 ADD PUSH1 0x1 DUP3 ADD DUP1 SLOAD PUSH2 0x270A SWAP1 PUSH2 0x3D78 JUMP JUMPDEST DUP1 PUSH1 0x1F ADD PUSH1 0x20 DUP1 SWAP2 DIV MUL PUSH1 0x20 ADD PUSH1 0x40 MLOAD SWAP1 DUP2 ADD PUSH1 0x40 MSTORE DUP1 SWAP3 SWAP2 SWAP1 DUP2 DUP2 MSTORE PUSH1 0x20 ADD DUP3 DUP1 SLOAD PUSH2 0x2736 SWAP1 PUSH2 0x3D78 JUMP JUMPDEST DUP1 ISZERO PUSH2 0x2781 JUMPI DUP1 PUSH1 0x1F LT PUSH2 0x2758 JUMPI PUSH2 0x100 DUP1 DUP4 SLOAD DIV MUL DUP4 MSTORE SWAP2 PUSH1 0x20 ADD SWAP2 PUSH2 0x2781 JUMP JUMPDEST DUP3 ADD SWAP2 SWAP1 PUSH0 MSTORE PUSH1 0x20 PUSH0 KECCAK256 SWAP1 JUMPDEST DUP2 SLOAD DUP2 MSTORE SWAP1 PUSH1 0x1 ADD SWAP1 PUSH1 0x20 ADD DUP1 DUP4 GT PUSH2 0x2764 JUMPI DUP3 SWAP1 SUB PUSH1 0x1F AND DUP3 ADD SWAP2 JUMPDEST POP POP POP POP POP DUP2 MSTORE PUSH1 0x20 ADD PUSH1 0x2 DUP3 ADD DUP1 SLOAD PUSH2 0x279A SWAP1 PUSH2 0x3D78 JUMP JUMPDEST DUP1 PUSH1 0x1F ADD PUSH1 0x20 DUP1 SWAP2 DIV MUL PUSH1 0x20 ADD PUSH1 0x40 MLOAD SWAP1 DUP2 ADD PUSH1 0x40 MSTORE DUP1 SWAP3 SWAP2 SWAP1 DUP2 DUP2 MSTORE PUSH1 0x20 ADD DUP3 DUP1 SLOAD PUSH2 0x27C6 SWAP1 PUSH2 0x3D78 JUMP JUMPDEST DUP1 ISZERO PUSH2 0x2811 JUMPI DUP1 PUSH1 0x1F LT PUSH2 0x27E8 JUMPI PUSH2 0x100 DUP1 DUP4 SLOAD DIV MUL DUP4 MSTORE SWAP2 PUSH1 0x20 ADD SWAP2 PUSH2 0x2811 JUMP JUMPDEST DUP3 ADD SWAP2 SWAP1 PUSH0 MSTORE PUSH1 0x20 PUSH0 KECCAK256 SWAP1 JUMPDEST DUP2 SLOAD DUP2 MSTORE SWAP1 PUSH1 0x1 ADD SWAP1 PUSH1 0x20 ADD DUP1 DUP4 GT PUSH2 0x27F4 JUMPI DUP3 SWAP1 SUB PUSH1 0x1F AND DUP3 ADD SWAP2 JUMPDEST POP POP POP POP POP DUP2 MSTORE PUSH1 0x20 ADD PUSH1 0x3 DUP3 ADD DUP1 SLOAD PUSH2 0x282A SWAP1 PUSH2 0x3D78 JUMP JUMPDEST DUP1 PUSH1 0x1F ADD PUSH1 0x20 DUP1 SWAP2 DIV MUL PUSH1 0x20 ADD PUSH1 0x40 MLOAD SWAP1 DUP2 ADD PUSH1 0x40 MSTORE DUP1 SWAP3 SWAP2 SWAP1 DUP2 DUP2 MSTORE PUSH1 0x20 ADD DUP3 DUP1 SLOAD PUSH2 0x2856 SWAP1 PUSH2 0x3D78 JUMP JUMPDEST DUP1 ISZERO PUSH2 0x28A1 JUMPI DUP1 PUSH1 0x1F LT PUSH2 0x2878 JUMPI PUSH2 0x100 DUP1 DUP4 SLOAD DIV MUL DUP4 MSTORE SWAP2 PUSH1 0x20 ADD SWAP2 PUSH2 0x28A1 JUMP JUMPDEST DUP3 ADD SWAP2 SWAP1 PUSH0 MSTORE PUSH1 0x20 PUSH0 KECCAK256 SWAP1 JUMPDEST DUP2 SLOAD DUP2 MSTORE SWAP1 PUSH1 0x1 ADD SWAP1 PUSH1 0x20 ADD DUP1 DUP4 GT PUSH2 0x2884 JUMPI DUP3 SWAP1 SUB PUSH1 0x1F AND DUP3 ADD SWAP2 JUMPDEST POP POP POP POP POP DUP2 MSTORE PUSH1 0x20 ADD PUSH1 0x4 DUP3 ADD SLOAD DUP2 MSTORE PUSH1 0x20 ADD PUSH1 0x5 DUP3 ADD PUSH0 SWAP1 SLOAD SWAP1 PUSH2 0x100 EXP SWAP1 DIV PUSH1 0xFF AND PUSH1 0xFF AND PUSH1 0xFF AND DUP2 MSTORE PUSH1 0x20 ADD PUSH1 0x5 DUP3 ADD PUSH1 0x1 SWAP1 SLOAD SWAP1 PUSH2 0x100 EXP SWAP1 DIV PUSH1 0xFF AND PUSH1 0xFF AND PUSH1 0xFF AND DUP2 MSTORE PUSH1 0x20 ADD PUSH1 0x6 DUP3 ADD SLOAD DUP2 MSTORE PUSH1 0x20 ADD PUSH1 0x7 DUP3 ADD DUP1 SLOAD PUSH2 0x2907 SWAP1 PUSH2 0x3D78 JUMP JUMPDEST DUP1 PUSH1 0x1F ADD PUSH1 0x20 DUP1 SWAP2 DIV MUL PUSH1 0x20 ADD PUSH1 0x40 MLOAD SWAP1 DUP2 ADD PUSH1 0x40 MSTORE DUP1 SWAP3 SWAP2 SWAP1 DUP2 DUP2 MSTORE PUSH1 0x20 ADD DUP3 DUP1 SLOAD PUSH2 0x2933 SWAP1 PUSH2 0x3D78 JUMP JUMPDEST DUP1 ISZERO PUSH2 0x297E JUMPI DUP1 PUSH1 0x1F LT PUSH2 0x2955 JUMPI PUSH2 0x100 DUP1 DUP4 SLOAD DIV MUL DUP4 MSTORE SWAP2 PUSH1 0x20 ADD SWAP2 PUSH2 0x297E JUMP JUMPDEST DUP3 ADD SWAP2 SWAP1 PUSH0 MSTORE PUSH1 0x20 PUSH0 KECCAK256 SWAP1 JUMPDEST DUP2 SLOAD DUP2 MSTORE SWAP1 PUSH1 0x1 ADD SWAP1 PUSH1 0x20 ADD DUP1 DUP4 GT PUSH2 0x2961 JUMPI DUP3 SWAP1 SUB PUSH1 0x1F AND DUP3 ADD SWAP2 JUMPDEST POP POP POP POP POP DUP2 MSTORE PUSH1 0x20 ADD PUSH1 0x8 DUP3 ADD SLOAD DUP2 MSTORE PUSH1 0x20 ADD PUSH1 0x9 DUP3 ADD PUSH0 SWAP1 SLOAD SWAP1 PUSH2 0x100 EXP SWAP1 DIV PUSH20 0xFFFFFFFFFFFFFFFFFFFFFFFFFFFFFFFFFFFFFFFF AND PUSH20 0xFFFFFFFFFFFFFFFFFFFFFFFFFFFFFFFFFFFFFFFF AND PUSH20 0xFFFFFFFFFFFFFFFFFFFFFFFFFFFFFFFFFFFFFFFF AND DUP2 MSTORE POP POP SWAP1 POP SWAP2 SWAP1 POP JUMP JUMPDEST PUSH1 0x64 DUP3 GT ISZERO PUSH2 0x2A31 JUMPI PUSH1 0x40 MLOAD PUSH32 0x8C379A000000000000000000000000000000000000000000000000000000000 DUP2 MSTORE PUSH1 0x4 ADD PUSH2 0x2A28 SWAP1 PUSH2 0x483C JUMP JUMPDEST PUSH1 0x40 MLOAD DUP1 SWAP2 SUB SWAP1 REVERT JUMPDEST PUSH0 DUP6 MLOAD GT PUSH2 0x2A74 JUMPI PUSH1 0x40 MLOAD PUSH32 0x8C379A000000000000000000000000000000000000000000000000000000000 DUP2 MSTORE PUSH1 0x4 ADD PUSH2 0x2A6B SWAP1 PUSH2 0x3DF2 JUMP JUMPDEST PUSH1 0x40 MLOAD DUP1 SWAP2 SUB SWAP1 REVERT JUMPDEST PUSH0 DUP5 MLOAD GT PUSH2 0x2AB7 JUMPI PUSH1 0x40 MLOAD PUSH32 0x8C379A000000000000000000000000000000000000000000000000000000000 DUP2 MSTORE PUSH1 0x4 ADD PUSH2 0x2AAE SWAP1 PUSH2 0x3E5A JUMP JUMPDEST PUSH1 0x40 MLOAD DUP1 SWAP2 SUB SWAP1 REVERT JUMPDEST PUSH0 DUP4 MLOAD GT PUSH2 0x2AFA JUMPI PUSH1 0x40 MLOAD PUSH32 0x8C379A000000000000000000000000000000000000000000000000000000000 DUP2 MSTORE PUSH1 0x4 ADD PUSH2 0x2AF1 SWAP1 PUSH2 0x3EC2 JUMP JUMPDEST PUSH1 0x40 MLOAD DUP1 SWAP2 SUB SWAP1 REVERT JUMPDEST PUSH0 DUP2 MLOAD GT PUSH2 0x2B3D JUMPI PUSH1 0x40 MLOAD PUSH32 0x8C379A000000000000000000000000000000000000000000000000000000000 DUP2 MSTORE PUSH1 0x4 ADD PUSH2 0x2B34 SWAP1 PUSH2 0x3F2A JUMP JUMPDEST PUSH1 0x40 MLOAD DUP1 SWAP2 SUB SWAP1 REVERT JUMPDEST PUSH0 PUSH1 0x40 MLOAD DUP1 PUSH1 0xC0 ADD PUSH1 0x40 MSTORE DUP1 DUP8 DUP2 MSTORE PUSH1 0x20 ADD DUP7 DUP2 MSTORE PUSH1 0x20 ADD DUP6 DUP2 MSTORE PUSH1 0x20 ADD DUP5 DUP2 MSTORE PUSH1 0x20 ADD DUP4 DUP2 MSTORE PUSH1 0x20 ADD TIMESTAMP DUP2 MSTORE POP SWAP1 DUP1 PUSH1 0x1 DUP2 SLOAD ADD DUP1 DUP3 SSTORE DUP1 SWAP2 POP POP PUSH1 0x1 SWAP1 SUB SWAP1 PUSH0 MSTORE PUSH1 0x20 PUSH0 KECCAK256 SWAP1 PUSH1 0x6 MUL ADD PUSH0 SWAP1 SWAP2 SWAP1 SWAP2 SWAP1 SWAP2 POP PUSH0 DUP3 ADD MLOAD DUP2 PUSH0 ADD SWAP1 DUP2 PUSH2 0x2BA4 SWAP2 SWAP1 PUSH2 0x4299 JUMP JUMPDEST POP PUSH1 0x20 DUP3 ADD MLOAD DUP2 PUSH1 0x1 ADD SWAP1 DUP2 PUSH2 0x2BBA SWAP2 SWAP1 PUSH2 0x4299 JUMP JUMPDEST POP PUSH1 0x40 DUP3 ADD MLOAD DUP2 PUSH1 0x2 ADD SWAP1 DUP2 PUSH2 0x2BD0 SWAP2 SWAP1 PUSH2 0x4299 JUMP JUMPDEST POP PUSH1 0x60 DUP3 ADD MLOAD DUP2 PUSH1 0x3 ADD SSTORE PUSH1 0x80 DUP3 ADD MLOAD DUP2 PUSH1 0x4 ADD SWAP1 DUP2 PUSH2 0x2BF0 SWAP2 SWAP1 PUSH2 0x4299 JUMP JUMPDEST POP PUSH1 0xA0 DUP3 ADD MLOAD DUP2 PUSH1 0x5 ADD SSTORE POP POP PUSH1 0x1 PUSH0 DUP1 SLOAD SWAP1 POP PUSH2 0x2C0E SWAP2 SWAP1 PUSH2 0x3CEB JUMP JUMPDEST PUSH32 0x20828BB056472A50A96CC7AD0162A0828DE2DB4F012592AC44FF650110DC9A6F DUP7 DUP7 DUP7 DUP7 DUP7 TIMESTAMP PUSH1 0x40 MLOAD PUSH2 0x2C47 SWAP7 SWAP6 SWAP5 SWAP4 SWAP3 SWAP2 SWAP1 PUSH2 0x3BDB JUMP JUMPDEST PUSH1 0x40 MLOAD DUP1 SWAP2 SUB SWAP1 LOG2 POP POP POP POP POP JUMP JUMPDEST PUSH1 0x40 MLOAD DUP1 PUSH1 0xC0 ADD PUSH1 0x40 MSTORE DUP1 PUSH1 0x60 DUP2 MSTORE PUSH1 0x20 ADD PUSH1 0x60 DUP2 MSTORE PUSH1 0x20 ADD PUSH1 0x60 DUP2 MSTORE PUSH1 0x20 ADD PUSH0 DUP2 MSTORE PUSH1 0x20 ADD PUSH1 0x60 DUP2 MSTORE PUSH1 0x20 ADD PUSH0 DUP2 MSTORE POP SWAP1 JUMP JUMPDEST PUSH1 0x40 MLOAD DUP1 PUSH2 0x160 ADD PUSH1 0x40 MSTORE DUP1 PUSH0 DUP2 MSTORE PUSH1 0x20 ADD PUSH1 0x60 DUP2 MSTORE PUSH1 0x20 ADD PUSH0 DUP2 MSTORE PUSH1 0x20 ADD PUSH0 PUSH1 0xFF AND DUP2 MSTORE PUSH1 0x20 ADD PUSH0 PUSH1 0xFF AND DUP2 MSTORE PUSH1 0x20 ADD PUSH0 PUSH1 0xFF AND DUP2 MSTORE PUSH1 0x20 ADD PUSH1 0x60 DUP2 MSTORE PUSH1 0x20 ADD PUSH1 0x60 DUP2 MSTORE PUSH1 0x20 ADD PUSH0 DUP2 MSTORE PUSH1 0x20 ADD PUSH0 DUP2 MSTORE PUSH1 0x20 ADD PUSH0 PUSH20 0xFFFFFFFFFFFFFFFFFFFFFFFFFFFFFFFFFFFFFFFF AND DUP2 MSTORE POP SWAP1 JUMP JUMPDEST PUSH1 0x40 MLOAD DUP1 PUSH2 0x160 ADD PUSH1 0x40 MSTORE DUP1 PUSH0 DUP2 MSTORE PUSH1 0x20 ADD PUSH1 0x60 DUP2 MSTORE PUSH1 0x20 ADD PUSH1 0x60 DUP2 MSTORE PUSH1 0x20 ADD PUSH1 0x60 DUP2 MSTORE PUSH1 0x20 ADD PUSH0 DUP2 MSTORE PUSH1 0x20 ADD PUSH0 PUSH1 0xFF AND DUP2 MSTORE PUSH1 0x20 ADD PUSH0 PUSH1 0xFF AND DUP2 MSTORE PUSH1 0x20 ADD PUSH0 DUP2 MSTORE PUSH1 0x20 ADD PUSH1 0x60 DUP2 MSTORE PUSH1 0x20 ADD PUSH0 DUP2 MSTORE PUSH1 0x20 ADD PUSH0 PUSH20 0xFFFFFFFFFFFFFFFFFFFFFFFFFFFFFFFFFFFFFFFF AND DUP2 MSTORE POP SWAP1 JUMP JUMPDEST PUSH0 DUP2 MLOAD SWAP1 POP SWAP2 SWAP1 POP JUMP JUMPDEST PUSH0 DUP3 DUP3 MSTORE PUSH1 0x20 DUP3 ADD SWAP1 POP SWAP3 SWAP2 POP POP JUMP JUMPDEST DUP3 DUP2 DUP4 MCOPY PUSH0 DUP4 DUP4 ADD MSTORE POP POP POP JUMP JUMPDEST PUSH0 PUSH1 0x1F NOT PUSH1 0x1F DUP4 ADD AND SWAP1 POP SWAP2 SWAP1 POP JUMP JUMPDEST PUSH0 PUSH2 0x2DAC DUP3 PUSH2 0x2D6A JUMP JUMPDEST PUSH2 0x2DB6 DUP2 DUP6 PUSH2 0x2D74 JUMP JUMPDEST SWAP4 POP PUSH2 0x2DC6 DUP2 DUP6 PUSH1 0x20 DUP7 ADD PUSH2 0x2D84 JUMP JUMPDEST PUSH2 0x2DCF DUP2 PUSH2 0x2D92 JUMP JUMPDEST DUP5 ADD SWAP2 POP POP SWAP3 SWAP2 POP POP JUMP JUMPDEST PUSH0 DUP2 SWAP1 POP SWAP2 SWAP1 POP JUMP JUMPDEST PUSH2 0x2DEC DUP2 PUSH2 0x2DDA JUMP JUMPDEST DUP3 MSTORE POP POP JUMP JUMPDEST PUSH0 PUSH1 0xC0 DUP4 ADD PUSH0 DUP4 ADD MLOAD DUP5 DUP3 SUB PUSH0 DUP7 ADD MSTORE PUSH2 0x2E0C DUP3 DUP3 PUSH2 0x2DA2 JUMP JUMPDEST SWAP2 POP POP PUSH1 0x20 DUP4 ADD MLOAD DUP5 DUP3 SUB PUSH1 0x20 DUP7 ADD MSTORE PUSH2 0x2E26 DUP3 DUP3 PUSH2 0x2DA2 JUMP JUMPDEST SWAP2 POP POP PUSH1 0x40 DUP4 ADD MLOAD DUP5 DUP3 SUB PUSH1 0x40 DUP7 ADD MSTORE PUSH2 0x2E40 DUP3 DUP3 PUSH2 0x2DA2 JUMP JUMPDEST SWAP2 POP POP PUSH1 0x60 DUP4 ADD MLOAD PUSH2 0x2E55 PUSH1 0x60 DUP7 ADD DUP3 PUSH2 0x2DE3 JUMP JUMPDEST POP PUSH1 0x80 DUP4 ADD MLOAD DUP5 DUP3 SUB PUSH1 0x80 DUP7 ADD MSTORE PUSH2 0x2E6D DUP3 DUP3 PUSH2 0x2DA2 JUMP JUMPDEST SWAP2 POP POP PUSH1 0xA0 DUP4 ADD MLOAD PUSH2 0x2E82 PUSH1 0xA0 DUP7 ADD DUP3 PUSH2 0x2DE3 JUMP JUMPDEST POP DUP1 SWAP2 POP POP SWAP3 SWAP2 POP POP JUMP JUMPDEST PUSH0 PUSH1 0x20 DUP3 ADD SWAP1 POP DUP2 DUP2 SUB PUSH0 DUP4 ADD MSTORE PUSH2 0x2EA5 DUP2 DUP5 PUSH2 0x2DF2 JUMP JUMPDEST SWAP1 POP SWAP3 SWAP2 POP POP JUMP JUMPDEST PUSH2 0x2EB6 DUP2 PUSH2 0x2DDA JUMP JUMPDEST DUP3 MSTORE POP POP JUMP JUMPDEST PUSH0 PUSH1 0x20 DUP3 ADD SWAP1 POP PUSH2 0x2ECF PUSH0 DUP4 ADD DUP5 PUSH2 0x2EAD JUMP JUMPDEST SWAP3 SWAP2 POP POP JUMP JUMPDEST PUSH0 PUSH1 0x40 MLOAD SWAP1 POP SWAP1 JUMP JUMPDEST PUSH0 PUSH0 REVERT JUMPDEST PUSH0 PUSH0 REVERT JUMPDEST PUSH0 PUSH0 REVERT JUMPDEST PUSH0 PUSH0 REVERT JUMPDEST PUSH32 0x4E487B7100000000000000000000000000000000000000000000000000000000 PUSH0 MSTORE PUSH1 0x41 PUSH1 0x4 MSTORE PUSH1 0x24 PUSH0 REVERT JUMPDEST PUSH2 0x2F24 DUP3 PUSH2 0x2D92 JUMP JUMPDEST DUP2 ADD DUP2 DUP2 LT PUSH8 0xFFFFFFFFFFFFFFFF DUP3 GT OR ISZERO PUSH2 0x2F43 JUMPI PUSH2 0x2F42 PUSH2 0x2EEE JUMP JUMPDEST JUMPDEST DUP1 PUSH1 0x40 MSTORE POP POP POP JUMP JUMPDEST PUSH0 PUSH2 0x2F55 PUSH2 0x2ED5 JUMP JUMPDEST SWAP1 POP PUSH2 0x2F61 DUP3 DUP3 PUSH2 0x2F1B JUMP JUMPDEST SWAP2 SWAP1 POP JUMP JUMPDEST PUSH0 PUSH8 0xFFFFFFFFFFFFFFFF DUP3 GT ISZERO PUSH2 0x2F80 JUMPI PUSH2 0x2F7F PUSH2 0x2EEE JUMP JUMPDEST JUMPDEST PUSH2 0x2F89 DUP3 PUSH2 0x2D92 JUMP JUMPDEST SWAP1 POP PUSH1 0x20 DUP2 ADD SWAP1 POP SWAP2 SWAP1 POP JUMP JUMPDEST DUP3 DUP2 DUP4 CALLDATACOPY PUSH0 DUP4 DUP4 ADD MSTORE POP POP POP JUMP JUMPDEST PUSH0 PUSH2 0x2FB6 PUSH2 0x2FB1 DUP5 PUSH2 0x2F66 JUMP JUMPDEST PUSH2 0x2F4C JUMP JUMPDEST SWAP1 POP DUP3 DUP2 MSTORE PUSH1 0x20 DUP2 ADD DUP5 DUP5 DUP5 ADD GT ISZERO PUSH2 0x2FD2 JUMPI PUSH2 0x2FD1 PUSH2 0x2EEA JUMP JUMPDEST JUMPDEST PUSH2 0x2FDD DUP5 DUP3 DUP6 PUSH2 0x2F96 JUMP JUMPDEST POP SWAP4 SWAP3 POP POP POP JUMP JUMPDEST PUSH0 DUP3 PUSH1 0x1F DUP4 ADD SLT PUSH2 0x2FF9 JUMPI PUSH2 0x2FF8 PUSH2 0x2EE6 JUMP JUMPDEST JUMPDEST DUP2 CALLDATALOAD PUSH2 0x3009 DUP5 DUP3 PUSH1 0x20 DUP7 ADD PUSH2 0x2FA4 JUMP JUMPDEST SWAP2 POP POP SWAP3 SWAP2 POP POP JUMP JUMPDEST PUSH2 0x301B DUP2 PUSH2 0x2DDA JUMP JUMPDEST DUP2 EQ PUSH2 0x3025 JUMPI PUSH0 PUSH0 REVERT JUMPDEST POP JUMP JUMPDEST PUSH0 DUP2 CALLDATALOAD SWAP1 POP PUSH2 0x3036 DUP2 PUSH2 0x3012 JUMP JUMPDEST SWAP3 SWAP2 POP POP JUMP JUMPDEST PUSH0 PUSH0 PUSH0 PUSH0 PUSH0 PUSH1 0xA0 DUP7 DUP9 SUB SLT ISZERO PUSH2 0x3055 JUMPI PUSH2 0x3054 PUSH2 0x2EDE JUMP JUMPDEST JUMPDEST PUSH0 DUP7 ADD CALLDATALOAD PUSH8 0xFFFFFFFFFFFFFFFF DUP2 GT ISZERO PUSH2 0x3072 JUMPI PUSH2 0x3071 PUSH2 0x2EE2 JUMP JUMPDEST JUMPDEST PUSH2 0x307E DUP9 DUP3 DUP10 ADD PUSH2 0x2FE5 JUMP JUMPDEST SWAP6 POP POP PUSH1 0x20 DUP7 ADD CALLDATALOAD PUSH8 0xFFFFFFFFFFFFFFFF DUP2 GT ISZERO PUSH2 0x309F JUMPI PUSH2 0x309E PUSH2 0x2EE2 JUMP JUMPDEST JUMPDEST PUSH2 0x30AB DUP9 DUP3 DUP10 ADD PUSH2 0x2FE5 JUMP JUMPDEST SWAP5 POP POP PUSH1 0x40 DUP7 ADD CALLDATALOAD PUSH8 0xFFFFFFFFFFFFFFFF DUP2 GT ISZERO PUSH2 0x30CC JUMPI PUSH2 0x30CB PUSH2 0x2EE2 JUMP JUMPDEST JUMPDEST PUSH2 0x30D8 DUP9 DUP3 DUP10 ADD PUSH2 0x2FE5 JUMP JUMPDEST SWAP4 POP POP PUSH1 0x60 PUSH2 0x30E9 DUP9 DUP3 DUP10 ADD PUSH2 0x3028 JUMP JUMPDEST SWAP3 POP POP PUSH1 0x80 DUP7 ADD CALLDATALOAD PUSH8 0xFFFFFFFFFFFFFFFF DUP2 GT ISZERO PUSH2 0x310A JUMPI PUSH2 0x3109 PUSH2 0x2EE2 JUMP JUMPDEST JUMPDEST PUSH2 0x3116 DUP9 DUP3 DUP10 ADD PUSH2 0x2FE5 JUMP JUMPDEST SWAP2 POP POP SWAP3 SWAP6 POP SWAP3 SWAP6 SWAP1 SWAP4 POP JUMP JUMPDEST PUSH0 PUSH1 0xFF DUP3 AND SWAP1 POP SWAP2 SWAP1 POP JUMP JUMPDEST PUSH2 0x3138 DUP2 PUSH2 0x3123 JUMP JUMPDEST DUP2 EQ PUSH2 0x3142 JUMPI PUSH0 PUSH0 REVERT JUMPDEST POP JUMP JUMPDEST PUSH0 DUP2 CALLDATALOAD SWAP1 POP PUSH2 0x3153 DUP2 PUSH2 0x312F JUMP JUMPDEST SWAP3 SWAP2 POP POP JUMP JUMPDEST PUSH0 DUP2 SWAP1 POP SWAP2 SWAP1 POP JUMP JUMPDEST PUSH2 0x316B DUP2 PUSH2 0x3159 JUMP JUMPDEST DUP2 EQ PUSH2 0x3175 JUMPI PUSH0 PUSH0 REVERT JUMPDEST POP JUMP JUMPDEST PUSH0 DUP2 CALLDATALOAD SWAP1 POP PUSH2 0x3186 DUP2 PUSH2 0x3162 JUMP JUMPDEST SWAP3 SWAP2 POP POP JUMP JUMPDEST PUSH0 PUSH0 PUSH0 PUSH0 PUSH0 PUSH0 PUSH0 PUSH0 PUSH2 0x100 DUP10 DUP12 SUB SLT ISZERO PUSH2 0x31A9 JUMPI PUSH2 0x31A8 PUSH2 0x2EDE JUMP JUMPDEST JUMPDEST PUSH0 DUP10 ADD CALLDATALOAD PUSH8 0xFFFFFFFFFFFFFFFF DUP2 GT ISZERO PUSH2 0x31C6 JUMPI PUSH2 0x31C5 PUSH2 0x2EE2 JUMP JUMPDEST JUMPDEST PUSH2 0x31D2 DUP12 DUP3 DUP13 ADD PUSH2 0x2FE5 JUMP JUMPDEST SWAP9 POP POP PUSH1 0x20 DUP10 ADD CALLDATALOAD PUSH8 0xFFFFFFFFFFFFFFFF DUP2 GT ISZERO PUSH2 0x31F3 JUMPI PUSH2 0x31F2 PUSH2 0x2EE2 JUMP JUMPDEST JUMPDEST PUSH2 0x31FF DUP12 DUP3 DUP13 ADD PUSH2 0x2FE5 JUMP JUMPDEST SWAP8 POP POP PUSH1 0x40 DUP10 ADD CALLDATALOAD PUSH8 0xFFFFFFFFFFFFFFFF DUP2 GT ISZERO PUSH2 0x3220 JUMPI PUSH2 0x321F PUSH2 0x2EE2 JUMP JUMPDEST JUMPDEST PUSH2 0x322C DUP12 DUP3 DUP13 ADD PUSH2 0x2FE5 JUMP JUMPDEST SWAP7 POP POP PUSH1 0x60 PUSH2 0x323D DUP12 DUP3 DUP13 ADD PUSH2 0x3028 JUMP JUMPDEST SWAP6 POP POP PUSH1 0x80 PUSH2 0x324E DUP12 DUP3 DUP13 ADD PUSH2 0x3145 JUMP JUMPDEST SWAP5 POP POP PUSH1 0xA0 PUSH2 0x325F DUP12 DUP3 DUP13 ADD PUSH2 0x3145 JUMP JUMPDEST SWAP4 POP POP PUSH1 0xC0 PUSH2 0x3270 DUP12 DUP3 DUP13 ADD PUSH2 0x3178 JUMP JUMPDEST SWAP3 POP POP PUSH1 0xE0 DUP10 ADD CALLDATALOAD PUSH8 0xFFFFFFFFFFFFFFFF DUP2 GT ISZERO PUSH2 0x3291 JUMPI PUSH2 0x3290 PUSH2 0x2EE2 JUMP JUMPDEST JUMPDEST PUSH2 0x329D DUP12 DUP3 DUP13 ADD PUSH2 0x2FE5 JUMP JUMPDEST SWAP2 POP POP SWAP3 SWAP6 SWAP9 POP SWAP3 SWAP6 SWAP9 SWAP1 SWAP4 SWAP7 POP JUMP JUMPDEST PUSH0 PUSH1 0x20 DUP3 DUP5 SUB SLT ISZERO PUSH2 0x32C2 JUMPI PUSH2 0x32C1 PUSH2 0x2EDE JUMP JUMPDEST JUMPDEST PUSH0 PUSH2 0x32CF DUP5 DUP3 DUP6 ADD PUSH2 0x3028 JUMP JUMPDEST SWAP2 POP POP SWAP3 SWAP2 POP POP JUMP JUMPDEST PUSH0 DUP3 DUP3 MSTORE PUSH1 0x20 DUP3 ADD SWAP1 POP SWAP3 SWAP2 POP POP JUMP JUMPDEST PUSH0 PUSH2 0x32F2 DUP3 PUSH2 0x2D6A JUMP JUMPDEST PUSH2 0x32FC DUP2 DUP6 PUSH2 0x32D8 JUMP JUMPDEST SWAP4 POP PUSH2 0x330C DUP2 DUP6 PUSH1 0x20 DUP7 ADD PUSH2 0x2D84 JUMP JUMPDEST PUSH2 0x3315 DUP2 PUSH2 0x2D92 JUMP JUMPDEST DUP5 ADD SWAP2 POP POP SWAP3 SWAP2 POP POP JUMP JUMPDEST PUSH2 0x3329 DUP2 PUSH2 0x3123 JUMP JUMPDEST DUP3 MSTORE POP POP JUMP JUMPDEST PUSH2 0x3338 DUP2 PUSH2 0x3159 JUMP JUMPDEST DUP3 MSTORE POP POP JUMP JUMPDEST PUSH0 PUSH20 0xFFFFFFFFFFFFFFFFFFFFFFFFFFFFFFFFFFFFFFFF DUP3 AND SWAP1 POP SWAP2 SWAP1 POP JUMP JUMPDEST PUSH0 PUSH2 0x3367 DUP3 PUSH2 0x333E JUMP JUMPDEST SWAP1 POP SWAP2 SWAP1 POP JUMP JUMPDEST PUSH2 0x3377 DUP2 PUSH2 0x335D JUMP JUMPDEST DUP3 MSTORE POP POP JUMP JUMPDEST PUSH0 PUSH2 0x160 DUP3 ADD SWAP1 POP PUSH2 0x3391 PUSH0 DUP4 ADD DUP15 PUSH2 0x2EAD JUMP JUMPDEST DUP2 DUP2 SUB PUSH1 0x20 DUP4 ADD MSTORE PUSH2 0x33A3 DUP2 DUP14 PUSH2 0x32E8 JUMP JUMPDEST SWAP1 POP DUP2 DUP2 SUB PUSH1 0x40 DUP4 ADD MSTORE PUSH2 0x33B7 DUP2 DUP13 PUSH2 0x32E8 JUMP JUMPDEST SWAP1 POP DUP2 DUP2 SUB PUSH1 0x60 DUP4 ADD MSTORE PUSH2 0x33CB DUP2 DUP12 PUSH2 0x32E8 JUMP JUMPDEST SWAP1 POP PUSH2 0x33DA PUSH1 0x80 DUP4 ADD DUP11 PUSH2 0x2EAD JUMP JUMPDEST PUSH2 0x33E7 PUSH1 0xA0 DUP4 ADD DUP10 PUSH2 0x3320 JUMP JUMPDEST PUSH2 0x33F4 PUSH1 0xC0 DUP4 ADD DUP9 PUSH2 0x3320 JUMP JUMPDEST PUSH2 0x3401 PUSH1 0xE0 DUP4 ADD DUP8 PUSH2 0x332F JUMP JUMPDEST DUP2 DUP2 SUB PUSH2 0x100 DUP4 ADD MSTORE PUSH2 0x3414 DUP2 DUP7 PUSH2 0x32E8 JUMP JUMPDEST SWAP1 POP PUSH2 0x3424 PUSH2 0x120 DUP4 ADD DUP6 PUSH2 0x2EAD JUMP JUMPDEST PUSH2 0x3432 PUSH2 0x140 DUP4 ADD DUP5 PUSH2 0x336E JUMP JUMPDEST SWAP13 SWAP12 POP POP POP POP POP POP POP POP POP POP POP POP JUMP JUMPDEST PUSH0 DUP2 SWAP1 POP SWAP2 SWAP1 POP JUMP JUMPDEST PUSH2 0x3454 DUP2 PUSH2 0x3442 JUMP JUMPDEST DUP3 MSTORE POP POP JUMP JUMPDEST PUSH2 0x3463 DUP2 PUSH2 0x3123 JUMP JUMPDEST DUP3 MSTORE POP POP JUMP JUMPDEST PUSH2 0x3472 DUP2 PUSH2 0x3159 JUMP JUMPDEST DUP3 MSTORE POP POP JUMP JUMPDEST PUSH2 0x3481 DUP2 PUSH2 0x335D JUMP JUMPDEST DUP3 MSTORE POP POP JUMP JUMPDEST PUSH0 PUSH2 0x160 DUP4 ADD PUSH0 DUP4 ADD MLOAD PUSH2 0x349D PUSH0 DUP7 ADD DUP3 PUSH2 0x2DE3 JUMP JUMPDEST POP PUSH1 0x20 DUP4 ADD MLOAD DUP5 DUP3 SUB PUSH1 0x20 DUP7 ADD MSTORE PUSH2 0x34B5 DUP3 DUP3 PUSH2 0x2DA2 JUMP JUMPDEST SWAP2 POP POP PUSH1 0x40 DUP4 ADD MLOAD PUSH2 0x34CA PUSH1 0x40 DUP7 ADD DUP3 PUSH2 0x344B JUMP JUMPDEST POP PUSH1 0x60 DUP4 ADD MLOAD PUSH2 0x34DD PUSH1 0x60 DUP7 ADD DUP3 PUSH2 0x345A JUMP JUMPDEST POP PUSH1 0x80 DUP4 ADD MLOAD PUSH2 0x34F0 PUSH1 0x80 DUP7 ADD DUP3 PUSH2 0x345A JUMP JUMPDEST POP PUSH1 0xA0 DUP4 ADD MLOAD PUSH2 0x3503 PUSH1 0xA0 DUP7 ADD DUP3 PUSH2 0x345A JUMP JUMPDEST POP PUSH1 0xC0 DUP4 ADD MLOAD DUP5 DUP3 SUB PUSH1 0xC0 DUP7 ADD MSTORE PUSH2 0x351B DUP3 DUP3 PUSH2 0x2DA2 JUMP JUMPDEST SWAP2 POP POP PUSH1 0xE0 DUP4 ADD MLOAD DUP5 DUP3 SUB PUSH1 0xE0 DUP7 ADD MSTORE PUSH2 0x3535 DUP3 DUP3 PUSH2 0x2DA2 JUMP JUMPDEST SWAP2 POP POP PUSH2 0x100 DUP4 ADD MLOAD PUSH2 0x354C PUSH2 0x100 DUP7 ADD DUP3 PUSH2 0x3469 JUMP JUMPDEST POP PUSH2 0x120 DUP4 ADD MLOAD PUSH2 0x3561 PUSH2 0x120 DUP7 ADD DUP3 PUSH2 0x2DE3 JUMP JUMPDEST POP PUSH2 0x140 DUP4 ADD MLOAD PUSH2 0x3576 PUSH2 0x140 DUP7 ADD DUP3 PUSH2 0x3478 JUMP JUMPDEST POP DUP1 SWAP2 POP POP SWAP3 SWAP2 POP POP JUMP JUMPDEST PUSH0 PUSH1 0x20 DUP3 ADD SWAP1 POP DUP2 DUP2 SUB PUSH0 DUP4 ADD MSTORE PUSH2 0x3599 DUP2 DUP5 PUSH2 0x3487 JUMP JUMPDEST SWAP1 POP SWAP3 SWAP2 POP POP JUMP JUMPDEST PUSH0 PUSH2 0x160 DUP4 ADD PUSH0 DUP4 ADD MLOAD PUSH2 0x35B7 PUSH0 DUP7 ADD DUP3 PUSH2 0x2DE3 JUMP JUMPDEST POP PUSH1 0x20 DUP4 ADD MLOAD DUP5 DUP3 SUB PUSH1 0x20 DUP7 ADD MSTORE PUSH2 0x35CF DUP3 DUP3 PUSH2 0x2DA2 JUMP JUMPDEST SWAP2 POP POP PUSH1 0x40 DUP4 ADD MLOAD DUP5 DUP3 SUB PUSH1 0x40 DUP7 ADD MSTORE PUSH2 0x35E9 DUP3 DUP3 PUSH2 0x2DA2 JUMP JUMPDEST SWAP2 POP POP PUSH1 0x60 DUP4 ADD MLOAD DUP5 DUP3 SUB PUSH1 0x60 DUP7 ADD MSTORE PUSH2 0x3603 DUP3 DUP3 PUSH2 0x2DA2 JUMP JUMPDEST SWAP2 POP POP PUSH1 0x80 DUP4 ADD MLOAD PUSH2 0x3618 PUSH1 0x80 DUP7 ADD DUP3 PUSH2 0x2DE3 JUMP JUMPDEST POP PUSH1 0xA0 DUP4 ADD MLOAD PUSH2 0x362B PUSH1 0xA0 DUP7 ADD DUP3 PUSH2 0x345A JUMP JUMPDEST POP PUSH1 0xC0 DUP4 ADD MLOAD PUSH2 0x363E PUSH1 0xC0 DUP7 ADD DUP3 PUSH2 0x345A JUMP JUMPDEST POP PUSH1 0xE0 DUP4 ADD MLOAD PUSH2 0x3651 PUSH1 0xE0 DUP7 ADD DUP3 PUSH2 0x3469 JUMP JUMPDEST POP PUSH2 0x100 DUP4 ADD MLOAD DUP5 DUP3 SUB PUSH2 0x100 DUP7 ADD MSTORE PUSH2 0x366B DUP3 DUP3 PUSH2 0x2DA2 JUMP JUMPDEST SWAP2 POP POP PUSH2 0x120 DUP4 ADD MLOAD PUSH2 0x3682 PUSH2 0x120 DUP7 ADD DUP3 PUSH2 0x2DE3 JUMP JUMPDEST POP PUSH2 0x140 DUP4 ADD MLOAD PUSH2 0x3697 PUSH2 0x140 DUP7 ADD DUP3 PUSH2 0x3478 JUMP JUMPDEST POP DUP1 SWAP2 POP POP SWAP3 SWAP2 POP POP JUMP JUMPDEST PUSH0 PUSH1 0x20 DUP3 ADD SWAP1 POP DUP2 DUP2 SUB PUSH0 DUP4 ADD MSTORE PUSH2 0x36BA DUP2 DUP5 PUSH2 0x35A1 JUMP JUMPDEST SWAP1 POP SWAP3 SWAP2 POP POP JUMP JUMPDEST PUSH2 0x36CB DUP2 PUSH2 0x3442 JUMP JUMPDEST DUP2 EQ PUSH2 0x36D5 JUMPI PUSH0 PUSH0 REVERT JUMPDEST POP JUMP JUMPDEST PUSH0 DUP2 CALLDATALOAD SWAP1 POP PUSH2 0x36E6 DUP2 PUSH2 0x36C2 JUMP JUMPDEST SWAP3 SWAP2 POP POP JUMP JUMPDEST PUSH0 PUSH0 PUSH0 PUSH0 PUSH0 PUSH0 PUSH0 PUSH0 PUSH2 0x100 DUP10 DUP12 SUB SLT ISZERO PUSH2 0x3709 JUMPI PUSH2 0x3708 PUSH2 0x2EDE JUMP JUMPDEST JUMPDEST PUSH0 DUP10 ADD CALLDATALOAD PUSH8 0xFFFFFFFFFFFFFFFF DUP2 GT ISZERO PUSH2 0x3726 JUMPI PUSH2 0x3725 PUSH2 0x2EE2 JUMP JUMPDEST JUMPDEST PUSH2 0x3732 DUP12 DUP3 DUP13 ADD PUSH2 0x2FE5 JUMP JUMPDEST SWAP9 POP POP PUSH1 0x20 PUSH2 0x3743 DUP12 DUP3 DUP13 ADD PUSH2 0x36D8 JUMP JUMPDEST SWAP8 POP POP PUSH1 0x40 PUSH2 0x3754 DUP12 DUP3 DUP13 ADD PUSH2 0x3145 JUMP JUMPDEST SWAP7 POP POP PUSH1 0x60 PUSH2 0x3765 DUP12 DUP3 DUP13 ADD PUSH2 0x3145 JUMP JUMPDEST SWAP6 POP POP PUSH1 0x80 PUSH2 0x3776 DUP12 DUP3 DUP13 ADD PUSH2 0x3145 JUMP JUMPDEST SWAP5 POP POP PUSH1 0xA0 DUP10 ADD CALLDATALOAD PUSH8 0xFFFFFFFFFFFFFFFF DUP2 GT ISZERO PUSH2 0x3797 JUMPI PUSH2 0x3796 PUSH2 0x2EE2 JUMP JUMPDEST JUMPDEST PUSH2 0x37A3 DUP12 DUP3 DUP13 ADD PUSH2 0x2FE5 JUMP JUMPDEST SWAP4 POP POP PUSH1 0xC0 DUP10 ADD CALLDATALOAD PUSH8 0xFFFFFFFFFFFFFFFF DUP2 GT ISZERO PUSH2 0x37C4 JUMPI PUSH2 0x37C3 PUSH2 0x2EE2 JUMP JUMPDEST JUMPDEST PUSH2 0x37D0 DUP12 DUP3 DUP13 ADD PUSH2 0x2FE5 JUMP JUMPDEST SWAP3 POP POP PUSH1 0xE0 PUSH2 0x37E1 DUP12 DUP3 DUP13 ADD PUSH2 0x3178 JUMP JUMPDEST SWAP2 POP POP SWAP3 SWAP6 SWAP9 POP SWAP3 SWAP6 SWAP9 SWAP1 SWAP4 SWAP7 POP JUMP JUMPDEST PUSH0 PUSH0 REVERT JUMPDEST PUSH0 PUSH0 REVERT JUMPDEST PUSH0 PUSH0 DUP4 PUSH1 0x1F DUP5 ADD SLT PUSH2 0x380E JUMPI PUSH2 0x380D PUSH2 0x2EE6 JUMP JUMPDEST JUMPDEST DUP3 CALLDATALOAD SWAP1 POP PUSH8 0xFFFFFFFFFFFFFFFF DUP2 GT ISZERO PUSH2 0x382B JUMPI PUSH2 0x382A PUSH2 0x37F1 JUMP JUMPDEST JUMPDEST PUSH1 0x20 DUP4 ADD SWAP2 POP DUP4 PUSH1 0x1 DUP3 MUL DUP4 ADD GT ISZERO PUSH2 0x3847 JUMPI PUSH2 0x3846 PUSH2 0x37F5 JUMP JUMPDEST JUMPDEST SWAP3 POP SWAP3 SWAP1 POP JUMP JUMPDEST PUSH0 PUSH0 PUSH1 0x20 DUP4 DUP6 SUB SLT ISZERO PUSH2 0x3864 JUMPI PUSH2 0x3863 PUSH2 0x2EDE JUMP JUMPDEST JUMPDEST PUSH0 DUP4 ADD CALLDATALOAD PUSH8 0xFFFFFFFFFFFFFFFF DUP2 GT ISZERO PUSH2 0x3881 JUMPI PUSH2 0x3880 PUSH2 0x2EE2 JUMP JUMPDEST JUMPDEST PUSH2 0x388D DUP6 DUP3 DUP7 ADD PUSH2 0x37F9 JUMP JUMPDEST SWAP3 POP SWAP3 POP POP SWAP3 POP SWAP3 SWAP1 POP JUMP JUMPDEST PUSH0 DUP2 MLOAD SWAP1 POP SWAP2 SWAP1 POP JUMP JUMPDEST PUSH0 DUP3 DUP3 MSTORE PUSH1 0x20 DUP3 ADD SWAP1 POP SWAP3 SWAP2 POP POP JUMP JUMPDEST PUSH0 DUP2 SWAP1 POP PUSH1 0x20 DUP3 ADD SWAP1 POP SWAP2 SWAP1 POP JUMP JUMPDEST PUSH0 PUSH2 0x160 DUP4 ADD PUSH0 DUP4 ADD MLOAD PUSH2 0x38D8 PUSH0 DUP7 ADD DUP3 PUSH2 0x2DE3 JUMP JUMPDEST POP PUSH1 0x20 DUP4 ADD MLOAD DUP5 DUP3 SUB PUSH1 0x20 DUP7 ADD MSTORE PUSH2 0x38F0 DUP3 DUP3 PUSH2 0x2DA2 JUMP JUMPDEST SWAP2 POP POP PUSH1 0x40 DUP4 ADD MLOAD PUSH2 0x3905 PUSH1 0x40 DUP7 ADD DUP3 PUSH2 0x344B JUMP JUMPDEST POP PUSH1 0x60 DUP4 ADD MLOAD PUSH2 0x3918 PUSH1 0x60 DUP7 ADD DUP3 PUSH2 0x345A JUMP JUMPDEST POP PUSH1 0x80 DUP4 ADD MLOAD PUSH2 0x392B PUSH1 0x80 DUP7 ADD DUP3 PUSH2 0x345A JUMP JUMPDEST POP PUSH1 0xA0 DUP4 ADD MLOAD PUSH2 0x393E PUSH1 0xA0 DUP7 ADD DUP3 PUSH2 0x345A JUMP JUMPDEST POP PUSH1 0xC0 DUP4 ADD MLOAD DUP5 DUP3 SUB PUSH1 0xC0 DUP7 ADD MSTORE PUSH2 0x3956 DUP3 DUP3 PUSH2 0x2DA2 JUMP JUMPDEST SWAP2 POP POP PUSH1 0xE0 DUP4 ADD MLOAD DUP5 DUP3 SUB PUSH1 0xE0 DUP7 ADD MSTORE PUSH2 0x3970 DUP3 DUP3 PUSH2 0x2DA2 JUMP JUMPDEST SWAP2 POP POP PUSH2 0x100 DUP4 ADD MLOAD PUSH2 0x3987 PUSH2 0x100 DUP7 ADD DUP3 PUSH2 0x3469 JUMP JUMPDEST POP PUSH2 0x120 DUP4 ADD MLOAD PUSH2 0x399C PUSH2 0x120 DUP7 ADD DUP3 PUSH2 0x2DE3 JUMP JUMPDEST POP PUSH2 0x140 DUP4 ADD MLOAD PUSH2 0x39B1 PUSH2 0x140 DUP7 ADD DUP3 PUSH2 0x3478 JUMP JUMPDEST POP DUP1 SWAP2 POP POP SWAP3 SWAP2 POP POP JUMP JUMPDEST PUSH0 PUSH2 0x39C7 DUP4 DUP4 PUSH2 0x38C2 JUMP JUMPDEST SWAP1 POP SWAP3 SWAP2 POP POP JUMP JUMPDEST PUSH0 PUSH1 0x20 DUP3 ADD SWAP1 POP SWAP2 SWAP1 POP JUMP JUMPDEST PUSH0 PUSH2 0x39E5 DUP3 PUSH2 0x3899 JUMP JUMPDEST PUSH2 0x39EF DUP2 DUP6 PUSH2 0x38A3 JUMP JUMPDEST SWAP4 POP DUP4 PUSH1 0x20 DUP3 MUL DUP6 ADD PUSH2 0x3A01 DUP6 PUSH2 0x38B3 JUMP JUMPDEST DUP1 PUSH0 JUMPDEST DUP6 DUP2 LT ISZERO PUSH2 0x3A3C JUMPI DUP5 DUP5 SUB DUP10 MSTORE DUP2 MLOAD PUSH2 0x3A1D DUP6 DUP3 PUSH2 0x39BC JUMP JUMPDEST SWAP5 POP PUSH2 0x3A28 DUP4 PUSH2 0x39CF JUMP JUMPDEST SWAP3 POP PUSH1 0x20 DUP11 ADD SWAP10 POP POP PUSH1 0x1 DUP2 ADD SWAP1 POP PUSH2 0x3A04 JUMP JUMPDEST POP DUP3 SWAP8 POP DUP8 SWAP6 POP POP POP POP POP POP SWAP3 SWAP2 POP POP JUMP JUMPDEST PUSH0 PUSH1 0x20 DUP3 ADD SWAP1 POP DUP2 DUP2 SUB PUSH0 DUP4 ADD MSTORE PUSH2 0x3A66 DUP2 DUP5 PUSH2 0x39DB JUMP JUMPDEST SWAP1 POP SWAP3 SWAP2 POP POP JUMP JUMPDEST PUSH0 PUSH0 DUP4 PUSH1 0x1F DUP5 ADD SLT PUSH2 0x3A83 JUMPI PUSH2 0x3A82 PUSH2 0x2EE6 JUMP JUMPDEST JUMPDEST DUP3 CALLDATALOAD SWAP1 POP PUSH8 0xFFFFFFFFFFFFFFFF DUP2 GT ISZERO PUSH2 0x3AA0 JUMPI PUSH2 0x3A9F PUSH2 0x37F1 JUMP JUMPDEST JUMPDEST PUSH1 0x20 DUP4 ADD SWAP2 POP DUP4 PUSH1 0x1 DUP3 MUL DUP4 ADD GT ISZERO PUSH2 0x3ABC JUMPI PUSH2 0x3ABB PUSH2 0x37F5 JUMP JUMPDEST JUMPDEST SWAP3 POP SWAP3 SWAP1 POP JUMP JUMPDEST PUSH0 PUSH0 PUSH1 0x20 DUP4 DUP6 SUB SLT ISZERO PUSH2 0x3AD9 JUMPI PUSH2 0x3AD8 PUSH2 0x2EDE JUMP JUMPDEST JUMPDEST PUSH0 DUP4 ADD CALLDATALOAD PUSH8 0xFFFFFFFFFFFFFFFF DUP2 GT ISZERO PUSH2 0x3AF6 JUMPI PUSH2 0x3AF5 PUSH2 0x2EE2 JUMP JUMPDEST JUMPDEST PUSH2 0x3B02 DUP6 DUP3 DUP7 ADD PUSH2 0x3A6E JUMP JUMPDEST SWAP3 POP SWAP3 POP POP SWAP3 POP SWAP3 SWAP1 POP JUMP JUMPDEST PUSH2 0x3B17 DUP2 PUSH2 0x3442 JUMP JUMPDEST DUP3 MSTORE POP POP JUMP JUMPDEST PUSH0 PUSH2 0x160 DUP3 ADD SWAP1 POP PUSH2 0x3B31 PUSH0 DUP4 ADD DUP15 PUSH2 0x2EAD JUMP JUMPDEST DUP2 DUP2 SUB PUSH1 0x20 DUP4 ADD MSTORE PUSH2 0x3B43 DUP2 DUP14 PUSH2 0x32E8 JUMP JUMPDEST SWAP1 POP PUSH2 0x3B52 PUSH1 0x40 DUP4 ADD DUP13 PUSH2 0x3B0E JUMP JUMPDEST PUSH2 0x3B5F PUSH1 0x60 DUP4 ADD DUP12 PUSH2 0x3320 JUMP JUMPDEST PUSH2 0x3B6C PUSH1 0x80 DUP4 ADD DUP11 PUSH2 0x3320 JUMP JUMPDEST PUSH2 0x3B79 PUSH1 0xA0 DUP4 ADD DUP10 PUSH2 0x3320 JUMP JUMPDEST DUP2 DUP2 SUB PUSH1 0xC0 DUP4 ADD MSTORE PUSH2 0x3B8B DUP2 DUP9 PUSH2 0x32E8 JUMP JUMPDEST SWAP1 POP DUP2 DUP2 SUB PUSH1 0xE0 DUP4 ADD MSTORE PUSH2 0x3B9F DUP2 DUP8 PUSH2 0x32E8 JUMP JUMPDEST SWAP1 POP PUSH2 0x3BAF PUSH2 0x100 DUP4 ADD DUP7 PUSH2 0x332F JUMP JUMPDEST PUSH2 0x3BBD PUSH2 0x120 DUP4 ADD DUP6 PUSH2 0x2EAD JUMP JUMPDEST PUSH2 0x3BCB PUSH2 0x140 DUP4 ADD DUP5 PUSH2 0x336E JUMP JUMPDEST SWAP13 SWAP12 POP POP POP POP POP POP POP POP POP POP POP POP JUMP JUMPDEST PUSH0 PUSH1 0xC0 DUP3 ADD SWAP1 POP DUP2 DUP2 SUB PUSH0 DUP4 ADD MSTORE PUSH2 0x3BF3 DUP2 DUP10 PUSH2 0x32E8 JUMP JUMPDEST SWAP1 POP DUP2 DUP2 SUB PUSH1 0x20 DUP4 ADD MSTORE PUSH2 0x3C07 DUP2 DUP9 PUSH2 0x32E8 JUMP JUMPDEST SWAP1 POP DUP2 DUP2 SUB PUSH1 0x40 DUP4 ADD MSTORE PUSH2 0x3C1B DUP2 DUP8 PUSH2 0x32E8 JUMP JUMPDEST SWAP1 POP PUSH2 0x3C2A PUSH1 0x60 DUP4 ADD DUP7 PUSH2 0x2EAD JUMP JUMPDEST DUP2 DUP2 SUB PUSH1 0x80 DUP4 ADD MSTORE PUSH2 0x3C3C DUP2 DUP6 PUSH2 0x32E8 JUMP JUMPDEST SWAP1 POP PUSH2 0x3C4B PUSH1 0xA0 DUP4 ADD DUP5 PUSH2 0x2EAD JUMP JUMPDEST SWAP8 SWAP7 POP POP POP POP POP POP POP JUMP JUMPDEST PUSH32 0x4E6F206865616C746820616C6572747300000000000000000000000000000000 PUSH0 DUP3 ADD MSTORE POP JUMP JUMPDEST PUSH0 PUSH2 0x3C8A PUSH1 0x10 DUP4 PUSH2 0x32D8 JUMP JUMPDEST SWAP2 POP PUSH2 0x3C95 DUP3 PUSH2 0x3C56 JUMP JUMPDEST PUSH1 0x20 DUP3 ADD SWAP1 POP SWAP2 SWAP1 POP JUMP JUMPDEST PUSH0 PUSH1 0x20 DUP3 ADD SWAP1 POP DUP2 DUP2 SUB PUSH0 DUP4 ADD MSTORE PUSH2 0x3CB7 DUP2 PUSH2 0x3C7E JUMP JUMPDEST SWAP1 POP SWAP2 SWAP1 POP JUMP JUMPDEST PUSH32 0x4E487B7100000000000000000000000000000000000000000000000000000000 PUSH0 MSTORE PUSH1 0x11 PUSH1 0x4 MSTORE PUSH1 0x24 PUSH0 REVERT JUMPDEST PUSH0 PUSH2 0x3CF5 DUP3 PUSH2 0x2DDA JUMP JUMPDEST SWAP2 POP PUSH2 0x3D00 DUP4 PUSH2 0x2DDA JUMP JUMPDEST SWAP3 POP DUP3 DUP3 SUB SWAP1 POP DUP2 DUP2 GT ISZERO PUSH2 0x3D18 JUMPI PUSH2 0x3D17 PUSH2 0x3CBE JUMP JUMPDEST JUMPDEST SWAP3 SWAP2 POP POP JUMP JUMPDEST PUSH32 0x4E487B7100000000000000000000000000000000000000000000000000000000 PUSH0 MSTORE PUSH1 0x32 PUSH1 0x4 MSTORE PUSH1 0x24 PUSH0 REVERT JUMPDEST PUSH32 0x4E487B7100000000000000000000000000000000000000000000000000000000 PUSH0 MSTORE PUSH1 0x22 PUSH1 0x4 MSTORE PUSH1 0x24 PUSH0 REVERT JUMPDEST PUSH0 PUSH1 0x2 DUP3 DIV SWAP1 POP PUSH1 0x1 DUP3 AND DUP1 PUSH2 0x3D8F JUMPI PUSH1 0x7F DUP3 AND SWAP2 POP JUMPDEST PUSH1 0x20 DUP3 LT DUP2 SUB PUSH2 0x3DA2 JUMPI PUSH2 0x3DA1 PUSH2 0x3D4B JUMP JUMPDEST JUMPDEST POP SWAP2 SWAP1 POP JUMP JUMPDEST PUSH32 0x536F757263652072657175697265640000000000000000000000000000000000 PUSH0 DUP3 ADD MSTORE POP JUMP JUMPDEST PUSH0 PUSH2 0x3DDC PUSH1 0xF DUP4 PUSH2 0x32D8 JUMP JUMPDEST SWAP2 POP PUSH2 0x3DE7 DUP3 PUSH2 0x3DA8 JUMP JUMPDEST PUSH1 0x20 DUP3 ADD SWAP1 POP SWAP2 SWAP1 POP JUMP JUMPDEST PUSH0 PUSH1 0x20 DUP3 ADD SWAP1 POP DUP2 DUP2 SUB PUSH0 DUP4 ADD MSTORE PUSH2 0x3E09 DUP2 PUSH2 0x3DD0 JUMP JUMPDEST SWAP1 POP SWAP2 SWAP1 POP JUMP JUMPDEST PUSH32 0x526567696F6E2072657175697265640000000000000000000000000000000000 PUSH0 DUP3 ADD MSTORE POP JUMP JUMPDEST PUSH0 PUSH2 0x3E44 PUSH1 0xF DUP4 PUSH2 0x32D8 JUMP JUMPDEST SWAP2 POP PUSH2 0x3E4F DUP3 PUSH2 0x3E10 JUMP JUMPDEST PUSH1 0x20 DUP3 ADD SWAP1 POP SWAP2 SWAP1 POP JUMP JUMPDEST PUSH0 PUSH1 0x20 DUP3 ADD SWAP1 POP DUP2 DUP2 SUB PUSH0 DUP4 ADD MSTORE PUSH2 0x3E71 DUP2 PUSH2 0x3E38 JUMP JUMPDEST SWAP1 POP SWAP2 SWAP1 POP JUMP JUMPDEST PUSH32 0x4469736561736520726571756972656400000000000000000000000000000000 PUSH0 DUP3 ADD MSTORE POP JUMP JUMPDEST PUSH0 PUSH2 0x3EAC PUSH1 0x10 DUP4 PUSH2 0x32D8 JUMP JUMPDEST SWAP2 POP PUSH2 0x3EB7 DUP3 PUSH2 0x3E78 JUMP JUMPDEST PUSH1 0x20 DUP3 ADD SWAP1 POP SWAP2 SWAP1 POP JUMP JUMPDEST PUSH0 PUSH1 0x20 DUP3 ADD SWAP1 POP DUP2 DUP2 SUB PUSH0 DUP4 ADD MSTORE PUSH2 0x3ED9 DUP2 PUSH2 0x3EA0 JUMP JUMPDEST SWAP1 POP SWAP2 SWAP1 POP JUMP JUMPDEST PUSH32 0x53756D6D61727920726571756972656400000000000000000000000000000000 PUSH0 DUP3 ADD MSTORE POP JUMP JUMPDEST PUSH0 PUSH2 0x3F14 PUSH1 0x10 DUP4 PUSH2 0x32D8 JUMP JUMPDEST SWAP2 POP PUSH2 0x3F1F DUP3 PUSH2 0x3EE0 JUMP JUMPDEST PUSH1 0x20 DUP3 ADD SWAP1 POP SWAP2 SWAP1 POP JUMP JUMPDEST PUSH0 PUSH1 0x20 DUP3 ADD SWAP1 POP DUP2 DUP2 SUB PUSH0 DUP4 ADD MSTORE PUSH2 0x3F41 DUP2 PUSH2 0x3F08 JUMP JUMPDEST SWAP1 POP SWAP2 SWAP1 POP JUMP JUMPDEST PUSH32 0x4865616C7468207269736B206D757374206265203C3D20313030000000000000 PUSH0 DUP3 ADD MSTORE POP JUMP JUMPDEST PUSH0 PUSH2 0x3F7C PUSH1 0x1A DUP4 PUSH2 0x32D8 JUMP JUMPDEST SWAP2 POP PUSH2 0x3F87 DUP3 PUSH2 0x3F48 JUMP JUMPDEST PUSH1 0x20 DUP3 ADD SWAP1 POP SWAP2 SWAP1 POP JUMP JUMPDEST PUSH0 PUSH1 0x20 DUP3 ADD SWAP1 POP DUP2 DUP2 SUB PUSH0 DUP4 ADD MSTORE PUSH2 0x3FA9 DUP2 PUSH2 0x3F70 JUMP JUMPDEST SWAP1 POP SWAP2 SWAP1 POP JUMP JUMPDEST PUSH32 0x436C696D617465207269736B206D75737420626520312D350000000000000000 PUSH0 DUP3 ADD MSTORE POP JUMP JUMPDEST PUSH0 PUSH2 0x3FE4 PUSH1 0x18 DUP4 PUSH2 0x32D8 JUMP JUMPDEST SWAP2 POP PUSH2 0x3FEF DUP3 PUSH2 0x3FB0 JUMP JUMPDEST PUSH1 0x20 DUP3 ADD SWAP1 POP SWAP2 SWAP1 POP JUMP JUMPDEST PUSH0 PUSH1 0x20 DUP3 ADD SWAP1 POP DUP2 DUP2 SUB PUSH0 DUP4 ADD MSTORE PUSH2 0x4011 DUP2 PUSH2 0x3FD8 JUMP JUMPDEST SWAP1 POP SWAP2 SWAP1 POP JUMP JUMPDEST PUSH32 0x455347207269736B206D75737420626520312D35000000000000000000000000 PUSH0 DUP3 ADD MSTORE POP JUMP JUMPDEST PUSH0 PUSH2 0x404C PUSH1 0x14 DUP4 PUSH2 0x32D8 JUMP JUMPDEST SWAP2 POP PUSH2 0x4057 DUP3 PUSH2 0x4018 JUMP JUMPDEST PUSH1 0x20 DUP3 ADD SWAP1 POP SWAP2 SWAP1 POP JUMP JUMPDEST PUSH0 PUSH1 0x20 DUP3 ADD SWAP1 POP DUP2 DUP2 SUB PUSH0 DUP4 ADD MSTORE PUSH2 0x4079 DUP2 PUSH2 0x4040 JUMP JUMPDEST SWAP1 POP SWAP2 SWAP1 POP JUMP JUMPDEST PUSH32 0x50726F6F66206861736820726571756972656400000000000000000000000000 PUSH0 DUP3 ADD MSTORE POP JUMP JUMPDEST PUSH0 PUSH2 0x40B4 PUSH1 0x13 DUP4 PUSH2 0x32D8 JUMP JUMPDEST SWAP2 POP PUSH2 0x40BF DUP3 PUSH2 0x4080 JUMP JUMPDEST PUSH1 0x20 DUP3 ADD SWAP1 POP SWAP2 SWAP1 POP JUMP JUMPDEST PUSH0 PUSH1 0x20 DUP3 ADD SWAP1 POP DUP2 DUP2 SUB PUSH0 DUP4 ADD MSTORE PUSH2 0x40E1 DUP2 PUSH2 0x40A8 JUMP JUMPDEST SWAP1 POP SWAP2 SWAP1 POP JUMP JUMPDEST PUSH0 DUP2 SWAP1 POP DUP2 PUSH0 MSTORE PUSH1 0x20 PUSH0 KECCAK256 SWAP1 POP SWAP2 SWAP1 POP JUMP JUMPDEST PUSH0 PUSH1 0x20 PUSH1 0x1F DUP4 ADD DIV SWAP1 POP SWAP2 SWAP1 POP JUMP JUMPDEST PUSH0 DUP3 DUP3 SHL SWAP1 POP SWAP3 SWAP2 POP POP JUMP JUMPDEST PUSH0 PUSH1 0x8 DUP4 MUL PUSH2 0x4144 PUSH32 0xFFFFFFFFFFFFFFFFFFFFFFFFFFFFFFFFFFFFFFFFFFFFFFFFFFFFFFFFFFFFFFFF DUP3 PUSH2 0x4109 JUMP JUMPDEST PUSH2 0x414E DUP7 DUP4 PUSH2 0x4109 JUMP JUMPDEST SWAP6 POP DUP1 NOT DUP5 AND SWAP4 POP DUP1 DUP7 AND DUP5 OR SWAP3 POP POP POP SWAP4 SWAP3 POP POP POP JUMP JUMPDEST PUSH0 DUP2 SWAP1 POP SWAP2 SWAP1 POP JUMP JUMPDEST PUSH0 PUSH2 0x4189 PUSH2 0x4184 PUSH2 0x417F DUP5 PUSH2 0x2DDA JUMP JUMPDEST PUSH2 0x4166 JUMP JUMPDEST PUSH2 0x2DDA JUMP JUMPDEST SWAP1 POP SWAP2 SWAP1 POP JUMP JUMPDEST PUSH0 DUP2 SWAP1 POP SWAP2 SWAP1 POP JUMP JUMPDEST PUSH2 0x41A2 DUP4 PUSH2 0x416F JUMP JUMPDEST PUSH2 0x41B6 PUSH2 0x41AE DUP3 PUSH2 0x4190 JUMP JUMPDEST DUP5 DUP5 SLOAD PUSH2 0x4115 JUMP JUMPDEST DUP3 SSTORE POP POP POP POP JUMP JUMPDEST PUSH0 PUSH0 SWAP1 POP SWAP1 JUMP JUMPDEST PUSH2 0x41CD PUSH2 0x41BE JUMP JUMPDEST PUSH2 0x41D8 DUP2 DUP5 DUP5 PUSH2 0x4199 JUMP JUMPDEST POP POP POP JUMP JUMPDEST PUSH0 JUMPDEST DUP3 DUP2 LT ISZERO PUSH2 0x41FE JUMPI PUSH2 0x41F3 PUSH0 DUP3 DUP5 ADD PUSH2 0x41C5 JUMP JUMPDEST PUSH1 0x1 DUP2 ADD SWAP1 POP PUSH2 0x41DF JUMP JUMPDEST POP POP POP JUMP JUMPDEST PUSH1 0x1F DUP3 GT ISZERO PUSH2 0x4251 JUMPI DUP3 DUP3 GT ISZERO PUSH2 0x4250 JUMPI PUSH2 0x421D DUP2 PUSH2 0x40E8 JUMP JUMPDEST PUSH2 0x4226 DUP4 PUSH2 0x40FA JUMP JUMPDEST PUSH2 0x422F DUP6 PUSH2 0x40FA JUMP JUMPDEST PUSH1 0x20 DUP7 LT ISZERO PUSH2 0x423C JUMPI PUSH0 SWAP1 POP JUMPDEST DUP1 DUP4 ADD PUSH2 0x424B DUP3 DUP5 SUB DUP3 PUSH2 0x41DD JUMP JUMPDEST POP POP POP POP JUMPDEST JUMPDEST POP POP POP JUMP JUMPDEST PUSH0 DUP3 DUP3 SHR SWAP1 POP SWAP3 SWAP2 POP POP JUMP JUMPDEST PUSH0 PUSH2 0x4271 PUSH0 NOT DUP5 PUSH1 0x8 MUL PUSH2 0x4256 JUMP JUMPDEST NOT DUP1 DUP4 AND SWAP2 POP POP SWAP3 SWAP2 POP POP JUMP JUMPDEST PUSH0 PUSH2 0x4289 DUP4 DUP4 PUSH2 0x4262 JUMP JUMPDEST SWAP2 POP DUP3 PUSH1 0x2 MUL DUP3 OR SWAP1 POP SWAP3 SWAP2 POP POP JUMP JUMPDEST PUSH2 0x42A2 DUP3 PUSH2 0x2D6A JUMP JUMPDEST PUSH8 0xFFFFFFFFFFFFFFFF DUP2 GT ISZERO PUSH2 0x42BB JUMPI PUSH2 0x42BA PUSH2 0x2EEE JUMP JUMPDEST JUMPDEST PUSH2 0x42C5 DUP3 SLOAD PUSH2 0x3D78 JUMP JUMPDEST PUSH2 0x42D0 DUP3 DUP3 DUP6 PUSH2 0x4203 JUMP JUMPDEST PUSH0 PUSH1 0x20 SWAP1 POP PUSH1 0x1F DUP4 GT PUSH1 0x1 DUP2 EQ PUSH2 0x4301 JUMPI PUSH0 DUP5 ISZERO PUSH2 0x42EF JUMPI DUP3 DUP8 ADD MLOAD SWAP1 POP JUMPDEST PUSH2 0x42F9 DUP6 DUP3 PUSH2 0x427E JUMP JUMPDEST DUP7 SSTORE POP PUSH2 0x4360 JUMP JUMPDEST PUSH1 0x1F NOT DUP5 AND PUSH2 0x430F DUP7 PUSH2 0x40E8 JUMP JUMPDEST PUSH0 JUMPDEST DUP3 DUP2 LT ISZERO PUSH2 0x4336 JUMPI DUP5 DUP10 ADD MLOAD DUP3 SSTORE PUSH1 0x1 DUP3 ADD SWAP2 POP PUSH1 0x20 DUP6 ADD SWAP5 POP PUSH1 0x20 DUP2 ADD SWAP1 POP PUSH2 0x4311 JUMP JUMPDEST DUP7 DUP4 LT ISZERO PUSH2 0x4353 JUMPI DUP5 DUP10 ADD MLOAD PUSH2 0x434F PUSH1 0x1F DUP10 AND DUP3 PUSH2 0x4262 JUMP JUMPDEST DUP4 SSTORE POP JUMPDEST PUSH1 0x1 PUSH1 0x2 DUP9 MUL ADD DUP9 SSTORE POP POP POP JUMPDEST POP POP POP POP POP POP JUMP JUMPDEST PUSH0 PUSH1 0xE0 DUP3 ADD SWAP1 POP DUP2 DUP2 SUB PUSH0 DUP4 ADD MSTORE PUSH2 0x4380 DUP2 DUP11 PUSH2 0x32E8 JUMP JUMPDEST SWAP1 POP DUP2 DUP2 SUB PUSH1 0x20 DUP4 ADD MSTORE PUSH2 0x4394 DUP2 DUP10 PUSH2 0x32E8 JUMP JUMPDEST SWAP1 POP PUSH2 0x43A3 PUSH1 0x40 DUP4 ADD DUP9 PUSH2 0x2EAD JUMP JUMPDEST PUSH2 0x43B0 PUSH1 0x60 DUP4 ADD DUP8 PUSH2 0x3320 JUMP JUMPDEST PUSH2 0x43BD PUSH1 0x80 DUP4 ADD DUP7 PUSH2 0x3320 JUMP JUMPDEST PUSH2 0x43CA PUSH1 0xA0 DUP4 ADD DUP6 PUSH2 0x332F JUMP JUMPDEST PUSH2 0x43D7 PUSH1 0xC0 DUP4 ADD DUP5 PUSH2 0x2EAD JUMP JUMPDEST SWAP9 SWAP8 POP POP POP POP POP POP POP POP JUMP JUMPDEST PUSH32 0x4E6F20656E7669726F6E6D656E74616C20616C65727473000000000000000000 PUSH0 DUP3 ADD MSTORE POP JUMP JUMPDEST PUSH0 PUSH2 0x4417 PUSH1 0x17 DUP4 PUSH2 0x32D8 JUMP JUMPDEST SWAP2 POP PUSH2 0x4422 DUP3 PUSH2 0x43E3 JUMP JUMPDEST PUSH1 0x20 DUP3 ADD SWAP1 POP SWAP2 SWAP1 POP JUMP JUMPDEST PUSH0 PUSH1 0x20 DUP3 ADD SWAP1 POP DUP2 DUP2 SUB PUSH0 DUP4 ADD MSTORE PUSH2 0x4444 DUP2 PUSH2 0x440B JUMP JUMPDEST SWAP1 POP SWAP2 SWAP1 POP JUMP JUMPDEST PUSH32 0x4E6F20636C696D61746520616C65727473000000000000000000000000000000 PUSH0 DUP3 ADD MSTORE POP JUMP JUMPDEST PUSH0 PUSH2 0x447F PUSH1 0x11 DUP4 PUSH2 0x32D8 JUMP JUMPDEST SWAP2 POP PUSH2 0x448A DUP3 PUSH2 0x444B JUMP JUMPDEST PUSH1 0x20 DUP3 ADD SWAP1 POP SWAP2 SWAP1 POP JUMP JUMPDEST PUSH0 PUSH1 0x20 DUP3 ADD SWAP1 POP DUP2 DUP2 SUB PUSH0 DUP4 ADD MSTORE PUSH2 0x44AC DUP2 PUSH2 0x4473 JUMP JUMPDEST SWAP1 POP SWAP2 SWAP1 POP JUMP JUMPDEST PUSH32 0x4369747920726571756972656400000000000000000000000000000000000000 PUSH0 DUP3 ADD MSTORE POP JUMP JUMPDEST PUSH0 PUSH2 0x44E7 PUSH1 0xD DUP4 PUSH2 0x32D8 JUMP JUMPDEST SWAP2 POP PUSH2 0x44F2 DUP3 PUSH2 0x44B3 JUMP JUMPDEST PUSH1 0x20 DUP3 ADD SWAP1 POP SWAP2 SWAP1 POP JUMP JUMPDEST PUSH0 PUSH1 0x20 DUP3 ADD SWAP1 POP DUP2 DUP2 SUB PUSH0 DUP4 ADD MSTORE PUSH2 0x4514 DUP2 PUSH2 0x44DB JUMP JUMPDEST SWAP1 POP SWAP2 SWAP1 POP JUMP JUMPDEST PUSH32 0x5361666574792061647669636520726571756972656400000000000000000000 PUSH0 DUP3 ADD MSTORE POP JUMP JUMPDEST PUSH0 PUSH2 0x454F PUSH1 0x16 DUP4 PUSH2 0x32D8 JUMP JUMPDEST SWAP2 POP PUSH2 0x455A DUP3 PUSH2 0x451B JUMP JUMPDEST PUSH1 0x20 DUP3 ADD SWAP1 POP SWAP2 SWAP1 POP JUMP JUMPDEST PUSH0 PUSH1 0x20 DUP3 ADD SWAP1 POP DUP2 DUP2 SUB PUSH0 DUP4 ADD MSTORE PUSH2 0x457C DUP2 PUSH2 0x4543 JUMP JUMPDEST SWAP1 POP SWAP2 SWAP1 POP JUMP JUMPDEST PUSH32 0x4461746120736F75726365207265717569726564000000000000000000000000 PUSH0 DUP3 ADD MSTORE POP JUMP JUMPDEST PUSH0 PUSH2 0x45B7 PUSH1 0x14 DUP4 PUSH2 0x32D8 JUMP JUMPDEST SWAP2 POP PUSH2 0x45C2 DUP3 PUSH2 0x4583 JUMP JUMPDEST PUSH1 0x20 DUP3 ADD SWAP1 POP SWAP2 SWAP1 POP JUMP JUMPDEST PUSH0 PUSH1 0x20 DUP3 ADD SWAP1 POP DUP2 DUP2 SUB PUSH0 DUP4 ADD MSTORE PUSH2 0x45E4 DUP2 PUSH2 0x45AB JUMP JUMPDEST SWAP1 POP SWAP2 SWAP1 POP JUMP JUMPDEST PUSH32 0x48756D6964697479206D757374206265203C3D20313030000000000000000000 PUSH0 DUP3 ADD MSTORE POP JUMP JUMPDEST PUSH0 PUSH2 0x461F PUSH1 0x17 DUP4 PUSH2 0x32D8 JUMP JUMPDEST SWAP2 POP PUSH2 0x462A DUP3 PUSH2 0x45EB JUMP JUMPDEST PUSH1 0x20 DUP3 ADD SWAP1 POP SWAP2 SWAP1 POP JUMP JUMPDEST PUSH0 PUSH1 0x20 DUP3 ADD SWAP1 POP DUP2 DUP2 SUB PUSH0 DUP4 ADD MSTORE PUSH2 0x464C DUP2 PUSH2 0x4613 JUMP JUMPDEST SWAP1 POP SWAP2 SWAP1 POP JUMP JUMPDEST PUSH32 0x555620696E646578206D757374206265203C3D20323000000000000000000000 PUSH0 DUP3 ADD MSTORE POP JUMP JUMPDEST PUSH0 PUSH2 0x4687 PUSH1 0x16 DUP4 PUSH2 0x32D8 JUMP JUMPDEST SWAP2 POP PUSH2 0x4692 DUP3 PUSH2 0x4653 JUMP JUMPDEST PUSH1 0x20 DUP3 ADD SWAP1 POP SWAP2 SWAP1 POP JUMP JUMPDEST PUSH0 PUSH1 0x20 DUP3 ADD SWAP1 POP DUP2 DUP2 SUB PUSH0 DUP4 ADD MSTORE PUSH2 0x46B4 DUP2 PUSH2 0x467B JUMP JUMPDEST SWAP1 POP SWAP2 SWAP1 POP JUMP JUMPDEST PUSH32 0x5269736B206C6576656C206D75737420626520312D3500000000000000000000 PUSH0 DUP3 ADD MSTORE POP JUMP JUMPDEST PUSH0 PUSH2 0x46EF PUSH1 0x16 DUP4 PUSH2 0x32D8 JUMP JUMPDEST SWAP2 POP PUSH2 0x46FA DUP3 PUSH2 0x46BB JUMP JUMPDEST PUSH1 0x20 DUP3 ADD SWAP1 POP SWAP2 SWAP1 POP JUMP JUMPDEST PUSH0 PUSH1 0x20 DUP3 ADD SWAP1 POP DUP2 DUP2 SUB PUSH0 DUP4 ADD MSTORE PUSH2 0x471C DUP2 PUSH2 0x46E3 JUMP JUMPDEST SWAP1 POP SWAP2 SWAP1 POP JUMP JUMPDEST PUSH0 DUP2 SWAP1 POP SWAP3 SWAP2 POP POP JUMP JUMPDEST PUSH0 PUSH2 0x4737 DUP3 PUSH2 0x2D6A JUMP JUMPDEST PUSH2 0x4741 DUP2 DUP6 PUSH2 0x4723 JUMP JUMPDEST SWAP4 POP PUSH2 0x4751 DUP2 DUP6 PUSH1 0x20 DUP7 ADD PUSH2 0x2D84 JUMP JUMPDEST DUP1 DUP5 ADD SWAP2 POP POP SWAP3 SWAP2 POP POP JUMP JUMPDEST PUSH0 PUSH2 0x4768 DUP3 DUP5 PUSH2 0x472D JUMP JUMPDEST SWAP2 POP DUP2 SWAP1 POP SWAP3 SWAP2 POP POP JUMP JUMPDEST PUSH0 PUSH1 0x80 DUP3 ADD SWAP1 POP PUSH2 0x4786 PUSH0 DUP4 ADD DUP8 PUSH2 0x3320 JUMP JUMPDEST PUSH2 0x4793 PUSH1 0x20 DUP4 ADD DUP7 PUSH2 0x3B0E JUMP JUMPDEST PUSH2 0x47A0 PUSH1 0x40 DUP4 ADD DUP6 PUSH2 0x332F JUMP JUMPDEST PUSH2 0x47AD PUSH1 0x60 DUP4 ADD DUP5 PUSH2 0x2EAD JUMP JUMPDEST SWAP6 SWAP5 POP POP POP POP POP JUMP JUMPDEST PUSH0 PUSH2 0x47C1 DUP4 DUP6 PUSH2 0x4723 JUMP JUMPDEST SWAP4 POP PUSH2 0x47CE DUP4 DUP6 DUP5 PUSH2 0x2F96 JUMP JUMPDEST DUP3 DUP5 ADD SWAP1 POP SWAP4 SWAP3 POP POP POP JUMP JUMPDEST PUSH0 PUSH2 0x47E6 DUP3 DUP5 DUP7 PUSH2 0x47B6 JUMP JUMPDEST SWAP2 POP DUP2 SWAP1 POP SWAP4 SWAP3 POP POP POP JUMP JUMPDEST PUSH32 0x5269736B2073636F7265206D757374206265203C3D2031303000000000000000 PUSH0 DUP3 ADD MSTORE POP JUMP JUMPDEST PUSH0 PUSH2 0x4826 PUSH1 0x19 DUP4 PUSH2 0x32D8 JUMP JUMPDEST SWAP2 POP PUSH2 0x4831 DUP3 PUSH2 0x47F2 JUMP JUMPDEST PUSH1 0x20 DUP3 ADD SWAP1 POP SWAP2 SWAP1 POP JUMP JUMPDEST PUSH0 PUSH1 0x20 DUP3 ADD SWAP1 POP DUP2 DUP2 SUB PUSH0 DUP4 ADD MSTORE PUSH2 0x4853 DUP2 PUSH2 0x481A JUMP JUMPDEST SWAP1 POP SWAP2 SWAP1 POP JUMP INVALID LOG2 PUSH5 0x6970667358 0x22 SLT KECCAK256 MUL PUSH17 0x689ED72891ED2BE365BFDF06414A71528A 0xEB 0xBF 0xCB LOG2 TLOAD PUSH21 0x896767CE32DB7B64736F6C63430008220033000000 "
				},
				"gasEstimates": {
					"creation": {
						"codeDepositCost": "3715200",
						"executionCost": "4194",
						"totalCost": "3719394"
					},
					"external": {
						"climateAlerts(uint256)": "infinite",
						"environmentalDecisionAlerts(uint256)": "infinite",
						"getAlert(uint256)": "infinite",
						"getAlertCount()": "2485",
						"getClimateAlert(uint256)": "infinite",
						"getClimateAlertCount()": "2507",
						"getClimateAlertsByCity(string)": "infinite",
						"getEnvironmentalDecisionAlert(uint256)": "infinite",
						"getEnvironmentalDecisionAlertCount()": "2508",
						"getLatestAlert()": "infinite",
						"getLatestClimateAlert()": "infinite",
						"getLatestEnvironmentalDecisionAlert()": "infinite",
						"healthAlerts(uint256)": "infinite",
						"onReport(bytes)": "infinite",
						"recordAlert(string,string,string,uint256,string)": "infinite",
						"recordClimateAlert(string,int256,uint8,uint8,uint8,string,string,bytes32)": "infinite",
						"recordEnvironmentalDecisionAlert(string,string,string,uint256,uint8,uint8,bytes32,string)": "infinite"
					},
					"internal": {
						"_recordHealthAlert(string memory,string memory,string memory,uint256,string memory)": "infinite"
					}
				},
				"methodIdentifiers": {
					"climateAlerts(uint256)": "d2a165fb",
					"environmentalDecisionAlerts(uint256)": "691745ba",
					"getAlert(uint256)": "85081886",
					"getAlertCount()": "40411fc8",
					"getClimateAlert(uint256)": "812cc89e",
					"getClimateAlertCount()": "6d5b6c03",
					"getClimateAlertsByCity(string)": "bbfb862e",
					"getEnvironmentalDecisionAlert(uint256)": "f7fb20f4",
					"getEnvironmentalDecisionAlertCount()": "464508b1",
					"getLatestAlert()": "12670d4a",
					"getLatestClimateAlert()": "961e590d",
					"getLatestEnvironmentalDecisionAlert()": "917731ef",
					"healthAlerts(uint256)": "f1e391de",
					"onReport(bytes)": "c2e5f7af",
					"recordAlert(string,string,string,uint256,string)": "4fcb9e91",
					"recordClimateAlert(string,int256,uint8,uint8,uint8,string,string,bytes32)": "bb1bda5d",
					"recordEnvironmentalDecisionAlert(string,string,string,uint256,uint8,uint8,bytes32,string)": "64b605af"
				}
			},
			"storageLayout": {
				"storage": [
					{
						"astId": 65,
						"contract": "contracts/HealthAlertRegistry.sol:HealthAlertRegistry",
						"label": "healthAlerts",
						"offset": 0,
						"slot": "0",
						"type": "t_array(t_struct(HealthAlert)15_storage)dyn_storage"
					},
					{
						"astId": 69,
						"contract": "contracts/HealthAlertRegistry.sol:HealthAlertRegistry",
						"label": "climateAlerts",
						"offset": 0,
						"slot": "1",
						"type": "t_array(t_struct(ClimateAlert)38_storage)dyn_storage"
					},
					{
						"astId": 73,
						"contract": "contracts/HealthAlertRegistry.sol:HealthAlertRegistry",
						"label": "environmentalDecisionAlerts",
						"offset": 0,
						"slot": "2",
						"type": "t_array(t_struct(EnvironmentalDecisionAlert)61_storage)dyn_storage"
					},
					{
						"astId": 79,
						"contract": "contracts/HealthAlertRegistry.sol:HealthAlertRegistry",
						"label": "cityClimateAlerts",
						"offset": 0,
						"slot": "3",
						"type": "t_mapping(t_string_memory_ptr,t_array(t_struct(ClimateAlert)38_storage)dyn_storage)"
					}
				],
				"types": {
					"t_address": {
						"encoding": "inplace",
						"label": "address",
						"numberOfBytes": "20"
					},
					"t_array(t_struct(ClimateAlert)38_storage)dyn_storage": {
						"base": "t_struct(ClimateAlert)38_storage",
						"encoding": "dynamic_array",
						"label": "struct HealthAlertRegistry.ClimateAlert[]",
						"numberOfBytes": "32"
					},
					"t_array(t_struct(EnvironmentalDecisionAlert)61_storage)dyn_storage": {
						"base": "t_struct(EnvironmentalDecisionAlert)61_storage",
						"encoding": "dynamic_array",
						"label": "struct HealthAlertRegistry.EnvironmentalDecisionAlert[]",
						"numberOfBytes": "32"
					},
					"t_array(t_struct(HealthAlert)15_storage)dyn_storage": {
						"base": "t_struct(HealthAlert)15_storage",
						"encoding": "dynamic_array",
						"label": "struct HealthAlertRegistry.HealthAlert[]",
						"numberOfBytes": "32"
					},
					"t_bytes32": {
						"encoding": "inplace",
						"label": "bytes32",
						"numberOfBytes": "32"
					},
					"t_int256": {
						"encoding": "inplace",
						"label": "int256",
						"numberOfBytes": "32"
					},
					"t_mapping(t_string_memory_ptr,t_array(t_struct(ClimateAlert)38_storage)dyn_storage)": {
						"encoding": "mapping",
						"key": "t_string_memory_ptr",
						"label": "mapping(string => struct HealthAlertRegistry.ClimateAlert[])",
						"numberOfBytes": "32",
						"value": "t_array(t_struct(ClimateAlert)38_storage)dyn_storage"
					},
					"t_string_memory_ptr": {
						"encoding": "bytes",
						"label": "string",
						"numberOfBytes": "32"
					},
					"t_string_storage": {
						"encoding": "bytes",
						"label": "string",
						"numberOfBytes": "32"
					},
					"t_struct(ClimateAlert)38_storage": {
						"encoding": "inplace",
						"label": "struct HealthAlertRegistry.ClimateAlert",
						"members": [
							{
								"astId": 17,
								"contract": "contracts/HealthAlertRegistry.sol:HealthAlertRegistry",
								"label": "alertId",
								"offset": 0,
								"slot": "0",
								"type": "t_uint256"
							},
							{
								"astId": 19,
								"contract": "contracts/HealthAlertRegistry.sol:HealthAlertRegistry",
								"label": "city",
								"offset": 0,
								"slot": "1",
								"type": "t_string_storage"
							},
							{
								"astId": 21,
								"contract": "contracts/HealthAlertRegistry.sol:HealthAlertRegistry",
								"label": "temperature",
								"offset": 0,
								"slot": "2",
								"type": "t_int256"
							},
							{
								"astId": 23,
								"contract": "contracts/HealthAlertRegistry.sol:HealthAlertRegistry",
								"label": "humidity",
								"offset": 0,
								"slot": "3",
								"type": "t_uint8"
							},
							{
								"astId": 25,
								"contract": "contracts/HealthAlertRegistry.sol:HealthAlertRegistry",
								"label": "uvIndex",
								"offset": 1,
								"slot": "3",
								"type": "t_uint8"
							},
							{
								"astId": 27,
								"contract": "contracts/HealthAlertRegistry.sol:HealthAlertRegistry",
								"label": "riskLevel",
								"offset": 2,
								"slot": "3",
								"type": "t_uint8"
							},
							{
								"astId": 29,
								"contract": "contracts/HealthAlertRegistry.sol:HealthAlertRegistry",
								"label": "safetyAdvice",
								"offset": 0,
								"slot": "4",
								"type": "t_string_storage"
							},
							{
								"astId": 31,
								"contract": "contracts/HealthAlertRegistry.sol:HealthAlertRegistry",
								"label": "dataSource",
								"offset": 0,
								"slot": "5",
								"type": "t_string_storage"
							},
							{
								"astId": 33,
								"contract": "contracts/HealthAlertRegistry.sol:HealthAlertRegistry",
								"label": "evidenceHash",
								"offset": 0,
								"slot": "6",
								"type": "t_bytes32"
							},
							{
								"astId": 35,
								"contract": "contracts/HealthAlertRegistry.sol:HealthAlertRegistry",
								"label": "timestamp",
								"offset": 0,
								"slot": "7",
								"type": "t_uint256"
							},
							{
								"astId": 37,
								"contract": "contracts/HealthAlertRegistry.sol:HealthAlertRegistry",
								"label": "publisher",
								"offset": 0,
								"slot": "8",
								"type": "t_address"
							}
						],
						"numberOfBytes": "288"
					},
					"t_struct(EnvironmentalDecisionAlert)61_storage": {
						"encoding": "inplace",
						"label": "struct HealthAlertRegistry.EnvironmentalDecisionAlert",
						"members": [
							{
								"astId": 40,
								"contract": "contracts/HealthAlertRegistry.sol:HealthAlertRegistry",
								"label": "alertId",
								"offset": 0,
								"slot": "0",
								"type": "t_uint256"
							},
							{
								"astId": 42,
								"contract": "contracts/HealthAlertRegistry.sol:HealthAlertRegistry",
								"label": "source",
								"offset": 0,
								"slot": "1",
								"type": "t_string_storage"
							},
							{
								"astId": 44,
								"contract": "contracts/HealthAlertRegistry.sol:HealthAlertRegistry",
								"label": "region",
								"offset": 0,
								"slot": "2",
								"type": "t_string_storage"
							},
							{
								"astId": 46,
								"contract": "contracts/HealthAlertRegistry.sol:HealthAlertRegistry",
								"label": "disease",
								"offset": 0,
								"slot": "3",
								"type": "t_string_storage"
							},
							{
								"astId": 48,
								"contract": "contracts/HealthAlertRegistry.sol:HealthAlertRegistry",
								"label": "healthRisk",
								"offset": 0,
								"slot": "4",
								"type": "t_uint256"
							},
							{
								"astId": 50,
								"contract": "contracts/HealthAlertRegistry.sol:HealthAlertRegistry",
								"label": "climateRisk",
								"offset": 0,
								"slot": "5",
								"type": "t_uint8"
							},
							{
								"astId": 52,
								"contract": "contracts/HealthAlertRegistry.sol:HealthAlertRegistry",
								"label": "esgRisk",
								"offset": 1,
								"slot": "5",
								"type": "t_uint8"
							},
							{
								"astId": 54,
								"contract": "contracts/HealthAlertRegistry.sol:HealthAlertRegistry",
								"label": "proofHash",
								"offset": 0,
								"slot": "6",
								"type": "t_bytes32"
							},
							{
								"astId": 56,
								"contract": "contracts/HealthAlertRegistry.sol:HealthAlertRegistry",
								"label": "summary",
								"offset": 0,
								"slot": "7",
								"type": "t_string_storage"
							},
							{
								"astId": 58,
								"contract": "contracts/HealthAlertRegistry.sol:HealthAlertRegistry",
								"label": "timestamp",
								"offset": 0,
								"slot": "8",
								"type": "t_uint256"
							},
							{
								"astId": 60,
								"contract": "contracts/HealthAlertRegistry.sol:HealthAlertRegistry",
								"label": "publisher",
								"offset": 0,
								"slot": "9",
								"type": "t_address"
							}
						],
						"numberOfBytes": "320"
					},
					"t_struct(HealthAlert)15_storage": {
						"encoding": "inplace",
						"label": "struct HealthAlertRegistry.HealthAlert",
						"members": [
							{
								"astId": 4,
								"contract": "contracts/HealthAlertRegistry.sol:HealthAlertRegistry",
								"label": "source",
								"offset": 0,
								"slot": "0",
								"type": "t_string_storage"
							},
							{
								"astId": 6,
								"contract": "contracts/HealthAlertRegistry.sol:HealthAlertRegistry",
								"label": "region",
								"offset": 0,
								"slot": "1",
								"type": "t_string_storage"
							},
							{
								"astId": 8,
								"contract": "contracts/HealthAlertRegistry.sol:HealthAlertRegistry",
								"label": "disease",
								"offset": 0,
								"slot": "2",
								"type": "t_string_storage"
							},
							{
								"astId": 10,
								"contract": "contracts/HealthAlertRegistry.sol:HealthAlertRegistry",
								"label": "riskScore",
								"offset": 0,
								"slot": "3",
								"type": "t_uint256"
							},
							{
								"astId": 12,
								"contract": "contracts/HealthAlertRegistry.sol:HealthAlertRegistry",
								"label": "summary",
								"offset": 0,
								"slot": "4",
								"type": "t_string_storage"
							},
							{
								"astId": 14,
								"contract": "contracts/HealthAlertRegistry.sol:HealthAlertRegistry",
								"label": "timestamp",
								"offset": 0,
								"slot": "5",
								"type": "t_uint256"
							}
						],
						"numberOfBytes": "192"
					},
					"t_uint256": {
						"encoding": "inplace",
						"label": "uint256",
						"numberOfBytes": "32"
					},
					"t_uint8": {
						"encoding": "inplace",
						"label": "uint8",
						"numberOfBytes": "1"
					}
				}
			},
			"userdoc": {
				"events": {
					"ClimateAlertRecorded(uint256,string,uint8,int256,bytes32,uint256,address)": {
						"notice": "Emitted when a caller submits a climate alert."
					},
					"EnvironmentalDecisionAlertRecorded(uint256,string,string,uint256,uint8,uint8,bytes32,uint256,address)": {
						"notice": "Emitted when a caller submits a combined environmental decision."
					},
					"HealthAlertRecorded(uint256,string,string,string,uint256,string,uint256)": {
						"notice": "Emitted when a health alert is appended."
					}
				},
				"kind": "user",
				"methods": {
					"onReport(bytes)": {
						"notice": "Decodes and stores the health-alert payload used by the demo CRE         workflow."
					},
					"recordAlert(string,string,string,uint256,string)": {
						"notice": "Appends a health alert submitted directly by the caller."
					},
					"recordClimateAlert(string,int256,uint8,uint8,uint8,string,string,bytes32)": {
						"notice": "Appends caller-supplied climate decision metadata."
					},
					"recordEnvironmentalDecisionAlert(string,string,string,uint256,uint8,uint8,bytes32,string)": {
						"notice": "Appends caller-supplied Environmental Decision metadata."
					}
				},
				"notice": "Demonstration registry for health, climate, and environmental         decision records.",
				"version": 1
			}
		}
	}
}